:020000040800F2
:1000000028CA012025030008517A00083130000871
:100010004D7A0008931D00082BB500080000000071
:10002000000000000000000000000000699B0008C4
:1000300045240008000000006D7E00080B9E0008AB
:100040003F0300083F0300083F0300083F03000888
:100050003F0300083F0300083F0300083F03000878
:100060003F0300083F0300083F0300083F03000868
:100070003F0300083F0300083F0300083F03000858
:100080003F0300083F0300083F0300083F03000848
:100090003F0300083F0300083F0300083F03000838
:1000A0003F0300083F0300083F0300083F03000828
:1000B0003F0300083F030008759E00083F03000847
:1000C0003F0300083F0300083F0300083F03000808
:1000D0003F03000869B100083F030008F1B10008C0
:1000E0003F0300083F0300083F0300083F030008E8
:1000F0003F0300083F0300083F0300083F030008D8
:100100003F030008418100083F0300083F03000847
:100110003F0300083F0300083F030008AD9E0008AE
:100120003F0300083F0300083F0300083F030008A7
:100130003F0300083F0300083F0300083F03000897
:100140003F0300083F0300083F0300083F03000887
:100150003F0300083F0300083F0300083F03000877
:100160003F0300083F0300083F0300083F03000867
:100170003F0300083F0300083F0300083F03000857
:100180003F0300083F03000800F002F800F0B2F857
:100190000AA090E8000C82448344AAF10107DA45E2
:1001A00001D100F0A7F8AFF2090EBAE80F0013F082
:1001B000010F18BFFB1A43F0010318479C280100E8
:1001C000BC2801000A444FF0000C10F8013B13F06A
:1001D000070408BF10F8014B1D1108BF10F8015BA0
:1001E000641E05D010F8016B641E01F8016BF9D193
:1001F00013F0080F1EBF10F8014BAD1C0C1B09D1EA
:100200006D1E58BF01F801CBFAD505E014F8016B5B
:1002100001F8016B6D1EF9D59142D6D370470000ED
:100220000023002400250026103A28BF78C1FBD8FF
:10023000520728BF30C148BF0B6070476E2900F0DD
:100240007184702900F09B81662910F03185652941
:1002500010F02E85672910F02B856129AFF30080FF
:1002600003681B0A28BF41F08001692900F00C8156
:10027000642900F00981752900F006816F2900F0DA
:100280007787782900F06781E92900F01187E42950
:1002900000F00E87F52900F00B87EF2900F0748736
:1002A000F82900F066810368DB0928BF41F080016E
:1002B000632900F08086732900F08586E32901F028
:1002C0005D80F32901F06280002070471FB510F0B7
:1002D000EAFC00F0BBFF0400002000210FF06CFEE0
:1002E000401C6060002000210FF07CFEE0601FBD1C
:1002F00010B510BD01F0E0F81146FFF7E7FF0DF073
:100300009DFA01F0FEF803B4FFF7F2FF03BC0CF016
:100310009EFA000030BF72B6704762B6704780F335
:10032000088870470948804709480047FEE7FEE70C
:10033000FEE7FEE7FEE7FEE7FEE7FEE7FEE7FEE795
:1003400004480549054A064B704700000D9E000809
:100350008901000828C4012028CA012028C60120DC
:1003600028C60120704710B5044600F05DFB006808
:10037000005DC00602D504F1200010BD204610BD6E
:100380001CB50C46064B7B4469460090204600F0A5
:10039000F0FD04460020694600F0FEFD20461CBD2D
:1003A0000F0C00000FB4044910B503AA029800F026
:1003B0000FFE10BC5DF814FB040000200FB41CB548
:1003C000084B06AA7B4469460090059800F0D1FDD1
:1003D00004460020694600F0DFFD20461CBC5DF8A5
:1003E00014FB0000D10B000070B50446856900685D
:1003F000C10601D5302600E02026C00707D070BD19
:10040000D4E9012130469047206A401C20626D1ECD
:10041000F6D570BD70B5044685690078C00707D170
:1004200070BDD4E9012120209047206A401C206241
:100430006D1EF6D570BD70B50C460546012A05D077
:100440002878800600D5EA69002302E0012305E050
:100450005B1C934202D2E05C0028F9D1A869E6183F
:10046000C01AA861286A184428622846FFF7BCFF12
:1004700004E0D5E9012114F8010B9047B442F8D308
:100480002846FFF7C7FF70BD2DE9F041064600245E
:1004900010687529314616A510D000F0D8FA00284A
:1004A00002DA404213A507E031688A0701D512A598
:1004B00002E0490704D511A5012401E000F0D0FABB
:1004C00000210A2206F1240709E0B0FBF2FCB0FB90
:1004D000F2F302FB1C00303078541846491C002807
:1004E000F3D123462A463046BDE8F04100F0C1BAB8
:1004F000000000002D0000002B0000002000000084
:10050000F0B40D460188090502D5214C7C4402E077
:100510001F4C7C440E34002100F1240608E002F058
:100520000F071209E75D42EA03721B097754491C61
:1005300052EA0307F3D102780023120704D5702D85
:1005400006D009B1022311342246F0BC00F091BA62
:1005500001231034F8E770B504460D4621461068B3
:1005600000F07EFA024629462046BDE8704000238E
:10057000C6E7D21D22F00703D3E90023C0E70368D2
:10058000126843F0200303600823C3610023B7E728
:100590005B2101002DE9F05F894604464FF0000A17
:1005A000DFF874B1FB44C0F820A02046E16888471A
:1005B000002874D0252806D0D4E901219047206A6C
:1005C000401C2062F1E700265F462046E16888472C
:1005D0002028054607DB312D05D2781910F8200CAC
:1005E00008B10643F1E7B00701D526F00406C4F8C8
:1005F0001CA00027C4F818A02A2D09D028460CF00A
:100600001FF938B304EB8708303DC8F8185019E0DB
:1006100059F8041B204604EB87029161E168884782
:10062000012F054618D1E069002820DA26F02006BF
:100630001DE0D8F8180000EB800005EB40003038D2
:10064000C8F818002046E168884705460CF0F8F81D
:100650000028EED1012F0AD02E2D08D12046E168C6
:1006600088477F1C0546022F46F02006C4DBA069A0
:10067000002803DA404246F00106A061F00701D0ED
:1006800026F010066C2D0BD0682D09D04C2D39D0DA
:100690006A2D35D0742D35D07A2D33D016E038E060
:1006A000E1682F4620468847B842054609D16C2F9D
:1006B00026D04FF48060E16806432046884705460F
:1006C00004E06C2F1AD04FF4807006430DB3A5F1EF
:1006D0004100192802D8203546F400664A462946CA
:1006E000204626604E46FFF7A9FD80B101280BD0B9
:1006F000F61D26F0070000F1080956E74020E4E760
:100700008020D8E70020D6E706F104094DE7284607
:1007100052E7206ABDE8F09FEB200100401ECAB2FC
:1007200010F8011F8A4202D00029F9D10020704739
:1007300030B505460B462A4613F8014B12F8010B5B
:1007400008B1A042F8D01CB1002802D06D1CF1E71E
:10075000284630BD40EA0103024630B59B0710D160
:100760004FF0013400E008C208C91D1B9D4315EA83
:10077000C41FF8D013F0FF0102F8011B0DD01B0AB3
:10078000F8E711F8013B002B02F8013B05D011F806
:10079000013B002B02F8013BF3D130BD10B5431CE7
:1007A00002E010F8011B71B18107FAD14FF001325C
:1007B00002C88C1A8C4314EAC211F9D0C01A0A0676
:1007C00003D0C01E10BDC01A10BD0A0401D0801E87
:1007D00010BD0902FCD0401E10BD40EA010370B5F7
:1007E0009B072ED14FF00136042A2AD308C810C91E
:1007F0009D1B9D43121F15EAC61517D0D8B2E1B252
:10080000401A50EA056110D198B2A1B2401A50EADC
:1008100005410AD123F07F4024F07F41401A50EA7D
:10082000052102D1180EA0EB146070BDA342DBD0ED
:1008300018BA21BA884201D9012070BD4FF0FF30AB
:1008400070BD0AB9002070BD10F8013B11F8014BD2
:1008500063B1A3420AD1521E08D010F8013B11F82F
:10086000014B1BB1A34201D1521EEDD1181B70BD2B
:10087000032A40F2308010F0030C00F0158011F8CC
:10088000013BBCF1020F624498BF11F801CB00F8A4
:10089000013B38BF11F8013BA2F1040298BF00F8F8
:1008A00001CB38BF00F8013B11F0030300F0768460
:1008B000083AC0F0088051F8043B083A51F804CBDC
:1008C000A0E80810F5E7121D5CBF51F8043B40F8A2
:1008D000043BAFF30080D20724BF11F8013B11F8AD
:1008E00001CB48BF11F8012B24BF00F8013B00F8F1
:1008F00001CB48BF00F8012B70474FF0000200B554
:10090000134694469646203922BFA0E80C50A0E832
:100910000C50B1F12001BFF4F7AF090728BFA0E8E0
:100920000C5048BF0CC05DF804EB890028BF40F8AC
:10093000042B08BF704748BF20F8022B11F0804FEE
:1009400018BF00F8012B704710B5044610F0030FD4
:1009500008BF11F0030F40F015804FF0013E121F49
:10096000C0F20E8051F8043BA3EB0E0C2CEA030CF2
:100970001CEACE1C08BF40F8043BF0D0A1F10401F2
:1009800002F10402521E08DB11F8013B002B00F8B3
:10099000013BF7D1114600F033FC204610BD0000AA
:1009A0004FF0013C50F8042B51F8043B9A4221D1FE
:1009B000A2EB0C03934313EACC1317D150F8042B8A
:1009C00051F8043B9A4215D1A2EB0C03934313EA6E
:1009D000CC130BD150F8042B51F8043B9A4209D1A7
:1009E000A2EB0C03934313EACC13DBD04FF00000CF
:1009F000704700BFD01A01BAB1FA81F101F01801B5
:100A000022FA01F0CB40C1F12001DBB2C0B2C01A22
:100A10002CFA01F3D11A914311EAC311E6D17047C0
:100A2000704770477047704710B500F00FFC001D0D
:100A300010BD00BF85F5000010B500F00BFC00688C
:100A400010BD10B5044600F005FC046010BD096837
:100A50004A0501D540B27047C905FCD500B27047C0
:100A600009684A0501D5C0B27047C905FCD580B2F6
:100A700070472DE9F0470D4699469246044600F12D
:100A800024080168880604D5E06921F0100121607E
:100A900000E00120A84201DD471B00E00027A1691A
:100AA0007A1902EB0900081AA0612078C00602D466
:100AB0002046FFF799FC002608E0D4E901211AF846
:100AC00006009047206A401C761C20624E45F4DBED
:100AD0002078C0060AD52046FFF786FC06E0D4E958
:100AE000012130209047206A401C2062381EA7F167
:100AF0000107F4DC07E0D4E9012118F8050090476C
:100B0000206A401C2062281EA5F10105F3DC204666
:100B1000FFF780FC2078000602D50220BDE8F087B0
:100B20000120FBE711680268006A530501D50870CF
:100B30000AE0D30501D5088006E0130603D5C217E5
:100B4000C1E9000200E008600120704770472DE90C
:100B5000FF4F0C461E464FF0FF378BB0D2E9000125
:100B6000DDF860800A908A46C1F30A5505B93D4612
:100B7000002108464FF00000BAF1000F00F44000D9
:100B800005DA00EB80004FF4400101EA50004FEA23
:100B90009059B9F1010F00DDB9460A9850EA4A00B0
:100BA0000ED044F61050A5F2FF3545432F14B8F18E
:100BB000000F1ED07542291E1EDDC9F100021CE087
:100BC000B8F1010F4FF0000001D0302103E0F243F3
:100BD00005E02154401CB042FBDB304600220021DE
:100BE00021540B99C1F80880C1E900200FB0BDE87D
:100BF000F08FBD1B6D1CDEE74A4600DA694206A88D
:100C000000F0C8FB06AB93E8070003AB83E80700DE
:100C100050460A9900F07BFC8DE80700A0F50050D3
:100C20001F3800900398002D09DD42F21F014A464B
:100C3000084403A90390684600F0DAFE08E0A0F536
:100C400000504A461F3803A90390684600F0E4FEAE
:100C50008DE807000004000C03D04FF0FF3041087E
:100C600000E01046B8F1000F03D0002200921546B4
:100C70001EE0751E05D400F0F1FA303262556D1E8B
:100C8000F9D5B3460122084302D000227F1C04E0BC
:100C90002078302801D100227F1E002A099786D0B3
:100CA0001DE0112D07DA00F0D9FA303262556D1CC3
:100CB00050EA0102F5D1084302D00098C8B10EE015
:100CC0000021681E05E0235C625C63542254401ED0
:100CD000491C8142F7DBAB46A81B401E099000204F
:100CE00004F80B000B98099AC0F80880C0E9002BA3
:100CF0007CE711264FF0000859E72DE9F04F8846B0
:100D00000446D21D22F0070191B0D1E90001CDE9DE
:100D10000A010AF0BBFD02460B98C00F01D02D203E
:100D200007E02068810701D52B2002E0202101EA9D
:100D3000C000032A099001D0072A05DB034641467B
:100D4000204600F0D1FA0BE12078800601D5E06959
:100D500000E00620B8F1650F814606D0B8F1660FB5
:100D600018D0B8F1670F70D131E00020B9F1110F40
:100D7000009001DB112301E009F101030AAA01A996
:100D80000CA8FFF7E4FEDDE90C70002609F101056F
:100D9000834647E001204B4600904FF000470AAAE7
:100DA00001A90CA8FFF7D3FEDDE90DB00C995D4653
:100DB000002610B909F101000D18B9EB050003D4A4
:100DC000C0F1FF3609F10105A5EB09002BE0B9F1EF
:100DD000010F01DA4FF001090020B9F1110F009065
:100DE000484601DD112300E003460AAA01A90CA828
:100DF000FFF7ADFEDDE90C704D46002683462078F6
:100E000000070AD4AB4500DA5D4601A8012D04DDD8
:100E1000411911F8011C302907D04F4502DA17F1AA
:100E2000040F04DA012082460FE06D1EEEE7002F6A
:100E300002DCED1B3E4403E0781CA84200DD7D1C73
:100E4000B81B00F1010A4FF000472078000703D4D7
:100E5000AA4501DB4FF0FF3A0021B7F1004F0DF139
:100E600043088DF8431024D002202B23002F01DAF1
:100E70007F422D230A21021EA0F1010000DC5FB198
:100E800097FBF1FC97FBF1F201FB1C7C17460CF180
:100E9000300C08F801CDEEE7A8F1010003702188BD
:100EA000090501D5452100E06521A0F1010800F800
:100EB000011C09980FA9A1EB0807FF1D00B1012033
:100EC000411901EBEA70A1693844081A401EA0617B
:100ED0002078C00602D42046FFF786FA099828B188
:100EE000D4E901219047206A401C20622078C00686
:100EF00022D52046FFF778FA1EE0002E04DBB3452A
:100F000002DD01A8805D00E03020D4E90121904796
:100F1000206A401C2062761CAAF101005FEA000AE8
:100F20000AD100F093F9C0680168405CD4E901215E
:100F30009047206A401C2062281EA5F10105DCDCD8
:100F400007E0D4E9012118F8010B9047206A401C02
:100F50002062381EA7F10107F3DC2046FFF75AFA9A
:100F6000032011B043E6000001694A1C02610878C1
:100F7000704700B58FB0CDE90131002105910549D9
:100F80007944CDE9031011466846FFF703FB0FB023
:100F900000BD0000E5FFFFFF0A6802F8010B0A60D0
:100FA000704710B5436913B1AFF3008001E0FFF75C
:100FB00042FA012010BD127800F124010A700022CB
:100FC0004A700122EDE711684FF0FF32E9E70000B7
:100FD000074B70B50D467B44FFF7CBFF0446284610
:100FE00000F046FA10B14FF0FF3070BD204670BDE2
:100FF000FBC700002DE9FF5F15468A460446DFF86F
:10100000AC80F8440027D8E900103E46CDE9001036
:1010100010E03AF816106A4602A800F02DFA411CBA
:1010200007D02178890603D5E269391891420DD895
:101030000744761C2078800602D5E069B84205DDB9
:10104000AE42E6DB3AF816000028E2D1A069C01BE8
:10105000A0612046FFF7C8F9D8E90010CDE90010DB
:10106000002017E03AF818106A4602A800F004FAC7
:10107000B0F1FF3F81460BD000250DF1080B05E0D4
:10108000D4E901211BF8050090476D1C4D45F7D3AD
:1010900008F10100B0428046E4DB206A3844206257
:1010A0002046FFF7B7F9BDE8FF9F00002A170100AF
:1010B0002DE9F0418046D21D22F007020025D2E939
:1010C0000002F52915A614D0011E72F1000106DAFE
:1010D0000023D0EB030063EB020211A608E0D8F86E
:1010E00000108B0701D50FA602E0490701D50EA617
:1010F00001251146002408F1240704E000F0AEF8B1
:1011000030323A55641C50EA0102F7D12B46324680
:1011100021464046BDE8F041FFF7ABBC00000000AF
:101120002D0000002B0000002000000030B4002142
:1011300000F1240408E002F00705D208303542EA45
:101140004372DB086554491C52EA0305F3D1046875
:10115000002310A2250708D504F020040C4304D076
:10116000C46901230CA2641EC46130BCFFF781BCBA
:1011700010B5044621461068FFF772FC024620466F
:10118000BDE810400023D1E7D21D22F00701D1E9CC
:101190000023CBE7000000003000000010B5203A2B
:1011A000C0F00B80B1E81850203AA0E81850B1E820
:1011B0001850A0E81850BFF4F5AF5FEA027C24BFD6
:1011C000B1E81850A0E8185044BF18C918C0BDE8CD
:1011D00010405FEA827C24BF51F8043B40F8043B96
:1011E00008BF7047D20728BF31F8023B48BF11F84B
:1011F000012B28BF20F8023B48BF00F8012B7047A5
:101200004FF000020429C0F0128010F0030C3FF4EC
:1012100076ABCCF1040CBCF1020F18BF00F8012B27
:10122000A8BF20F8022BA1EB0C01FFF768BB5FEA17
:10123000C17C24BF00F8012B00F8012B48BF00F847
:10124000012B704700487047C4C301200048704715
:10125000E4C3012000487047C4C3012030B5B0F199
:101260000A024FEA900E71F100034EEA817EB0EB64
:101270000E0061EB91014FEA101E4EEA017E10EB69
:101280000E0041EB11114FEA102E4EEA016E10EBE9
:101290000E0041EB11214FEA104E4EEA014E10EBC9
:1012A0000E0041EB1141401841F100014FEAD0001E
:1012B00040EA41704FEAD10110EB80054FEA81040A
:1012C00044EA907444EB01046D1944EB0404521B8E
:1012D000A3414FF0000348BF0A3200D530BD401C87
:1012E00041F1000130BD00002DE9F0411F460446E8
:1012F00003260168072A01F4006004DB08B116A583
:1013000005E016A503E008B115A500E015A521F03C
:1013100010002060A069C01EA0610FB1401EA06136
:101320002046FFF761F84FB1D4E9012138469047D4
:10133000206A401C2062C01C206206E0206AFAE796
:10134000D4E9012115F8010B9047761EF8D220460A
:10135000FFF760F8BDE8F0814E414E006E616E000F
:10136000494E4600696E660010B5436913B1AFF38C
:10137000008001E0FFF73EFE012010BD128800F161
:10138000240182840022C2840122EDE711684FF01B
:10139000FF32E9E72DE9F047814616468AB0334827
:1013A00078440DC88DE80D0030487844801C03ACAB
:1013B0000DC884E80D0041F69B300844372190FBAE
:1013C000F1F290FBF1F5A5F1800501FB12041B3C45
:1013D00002D56442012000E00020DFF890A08046A2
:1013E0000027FA44AAF1BE0A0DE0E00709D0324610
:1013F000684607EB47010AEB810100F00DFB8DE821
:10140000070064107F1C002CEFD1184F7F44AC3FC5
:1014100018E0E80714D007EB04100DF1180A90E863
:101420000E008AE80E00C068F04201D198190890B9
:10143000324606A903A800F0EFFA03AB83E80700E1
:101440006D10641C002DE4D132466946B8F1000FDE
:1014500003A802D000F0CCFA01E000F0DDFAC9E9FF
:101460000001C9F808200AB0BDE8F087181401008F
:10147000007B00F08000704770B516460C460546AC
:10148000FFF7D2FA036893F80101012806D0FF2C78
:101490000FD8185D68B101202C7070BDD3F807011A
:1014A0003246214603F2071303442846BDE8704044
:1014B00018474FF0FF3070BD7546FFF7C3FEAE46CC
:1014C00005006946534620F00700854618B020B550
:1014D000FEF736FFBDE820404FF000064FF0000752
:1014E0004FF000084FF0000B21F00701AC46ACE8CC
:1014F000C009ACE8C009ACE8C009ACE8C0098D4639
:1015000070470446AFF300802046FEF7FCFE5FEA1A
:10151000400C08BF91F0000F4FEA8C234FEAC12224
:1015200043EA51514FEA1C5018BF00F5F0404FEA12
:10153000300018BF41F000415FEA6C5C00F0298088
:10154000BCF1FF3F08BF40F080407047130C06BF5E
:1015500012044FF0100C4FF0000C130E04BF1202D7
:101560000CF1080C130F04BF12010CF1040C930FC3
:1015700004BF92000CF1020CD30F04BF52000CF117
:10158000010C11464FF00002A0F11F00A0EB0C006F
:10159000704711F0004F08BF704731F000413FF431
:1015A000D5AF0B0C06BF09044FF0100C4FF0000C28
:1015B0000B0E04BF09020CF1080C0B0F04BF09014C
:1015C0000CF1040C8B0F04BF89000CF1020CCB0F43
:1015D00004BF49000CF1010CCCF12003A0EB0C007E
:1015E00022FA03F302FA0CF241EA030100F10100CE
:1015F000704720F07F4C80EA030023F07F47ACEB7C
:10160000070303F57C5300F0004003F1FF032DE9CD
:1016100080494FEA154B09B44FEA144325EA0B4EB3
:1016200024EA03480FF2042606EB132749083E7804
:101630005FEA320203FB0667C7F5000707FB06F601
:101640004FEA54374FEAD64606F1020607FB066C0E
:10165000CCF1005C4FEA1C472CEA074C07FB06F470
:101660000CFB06F504EB15464FEA961634BF002036
:101670004FF000404FEAD13706FB07FC4FEA1C4C05
:101680000CFB0BF7D21B03FB0CF761EB07010CFB08
:101690000EF7B0EB074072EB17420CFB08F734BFB4
:1016A000A2EB0742B2EB074261EB17414FEA0C4451
:1016B0004FEA910706FB07FC4FEA1C4C0CFB0BF7AB
:1016C000B0EBC74072EB573203FB0CF734BFA2EB11
:1016D000C742B2EBC74261EB57310CFB0EF7B0EBE0
:1016E000C70072EB57720CFB08F734BFA2EBC702BE
:1016F000B2EBC70261EB5771039F4FEA816141EA88
:10170000921104EBCC044FEAD1374FEA826206FB18
:1017100007FC42EA90124FEA80604FEA1C4C0CFB37
:101720000BF7D21B03FB0CF761EB07010CFB0EF769
:10173000B0EB074072EB17420CFB08F734BFA2EB8B
:101740000742B2EB074261EB17414FEA8C554FEA73
:10175000910704EB9C2406FB07FC4FEA1C4C0CFB96
:101760000BF7B0EBC74072EB573203FB0CF734BFFB
:10177000A2EBC742B2EBC74261EB57310CFB0EF74D
:10178000B0EBC70072EB57720CFB08F734BFA2EB4B
:10179000C702B2EBC70261EB577115EB4C254FEA5C
:1017A000816141EA92114FEA82624FEAD13742EAFF
:1017B000901206FB07FC44F100044FEA80604FEAF8
:1017C0001C4C0CFB0BF7D21B03FB0CF761EB070166
:1017D0000CFB0EF7B0EB074072EB17420CFB08F75F
:1017E00034BFA2EB0742B2EB074261EB174115EBA6
:1017F0001C154FEA813141EA92414FEA823242EAB6
:1018000090424FEA80304FEA0C7644F1000448EAF7
:1018100003434EEA0B484FF0000EB2EB080C71EB9D
:10182000030724BF624639464EEB0E0E4FF0000B05
:101830000018524149414BEB0B0BB2EB080C71EB1A
:1018400003077BF1000B24BF624639464EEB0E0EB8
:101850004FF0000B0018524149414BEB0B0BB2EB20
:10186000080C71EB03077BF1000B24BF624639467D
:101870004EEB0E0E51EA020718BF46F0010616EBBA
:101880000E7655F1000254F1000103D5BDE889013F
:10189000BDE80088BDE88901BDE80048B61952419D
:1018A00041EB0101A3F10103704780807F7E7D7CC5
:1018B0007B7A7978777676757473727171706F6EE2
:1018C0006E6D6C6C6B6A6A6968686766666564648D
:1018D000636362616160605F5F5E5E5D5D5C5C5B17
:1018E0005B5A5A5959585857575656555555545486
:1018F000535352525251515050504F4F4F4E4E4DE4
:101900004D4D4C4C4C4B4B4B4A4A4A49494948482F
:10191000484747474746464645454544444444436F
:1019200043434342424242414141002B26D4770087
:1019300021D01CB54FEA370703B44FF010004FF029
:1019400010014FF000000FBCBDE810400BF1010B7F
:10195000BBF1010F08BF5FEA170722BF12F10102B6
:1019600011F101014FF0004143F1000300F000408C
:1019700043EA00007047F9D35708DAE746EA06461B
:1019800013F1400F4FEA16461FDD13F1200FDFBFA2
:1019900016430A46002120335B42C8D0C3F120071A
:1019A00046EA064602FA07F74FEA164646EA0706EF
:1019B000C3F1200722FA03F201FA07F721FA03F133
:1019C0004FF0000342EA0702B1E746EA020646EAA0
:1019D00006464FEA164646EA0106BCBF46EA0646F8
:1019E000360C4FF000034FF000024FF000019EE76D
:1019F0002DE9C048934630B491E8380007C831EA71
:101A0000400C48BF34EA430C03D5FFF7F2FDFFF763
:101A10008CFFF0BCBDE800882DE9C048934630B487
:101A200091E8380007C810F0804F08BF13F0804FCE
:101A300003D100F005F8FFF778FFF0BCBDE800889F
:101A400020F07F4780EA030023F07F4C07EB0C0374
:101A5000A3F57C5300F00040A3F1FE0392F0000FC9
:101A600000F0B38095F0000F00F077802DE9014978
:101A70004FEA11404FEA144621EA004800FB06FCF9
:101A800024EA064708FB06F607FB08F800FB07F701
:101A900018EB06484CEB164C4FEA124B18EB074874
:101AA0004FEA15464CEB174022EA0B4E0BFB06FCA7
:101AB00025EA06470EFB06F607FB0EFE0BFB07F7B3
:101AC0001EEB064E4CEB164C4FF000061EEB074E7D
:101AD0004CEB174B18EB0B0840F1000018EB0E0B0A
:101AE00058EB000840F100008F1A4FF000013CBF96
:101AF000C943661B14BFB5EB040C00213CBFC943AE
:101B0000F61B4FEA17444EEA8E0E27EA04454FEAC9
:101B10001C4704FB07622CEA074C05FB07F70CFB8C
:101B200005F604FB0CFC16EB074642EB174216EBDE
:101B30000C4642EB1C421BEB060658EB02024141ED
:101B400046EA9E0601D5BDE80189B619524141EB2E
:101B50000101A3F10103BDE801894FEA14454FEAF1
:101B6000114724EA054621EA074C05FB07F406FB6A
:101B700007F70CFB06F105FB0CFC11EB074144EBEE
:101B800017444FEA124711EB0C4144EB1C4422EA84
:101B9000074C05FB07F206FB07F70CFB06F605FBF7
:101BA0000CFC16EB074642EB174216EB0C4642EBD9
:101BB0001C456A1854F1000148BF7047B6195241DC
:101BC00041EB0101A3F10103704795F0000F37D0FD
:101BD0004FEA11424FEA144721EA024624EA074C31
:101BE00002FB07F106FB07F70CFB06F402FB0CFCFB
:101BF00014EB074441EB17414FEA154714EB0C4433
:101C000041EB1C4125EA074C02FB07F506FB07F7F1
:101C10000CFB06F602FB0CFC16EB074645EB1745E2
:101C200016EB0C4645EB1C42121951F1000148BF5E
:101C30007047B619524141EB0101A3F1010370470E
:101C40004FEA14454FEA114724EA054621EA074CBA
:101C500005FB07F106FB07F70CFB06F24FF0000649
:101C600005FB0CFC12EB074241EB174112EB0C4257
:101C700051EB1C4148BF7047921841EB0101A3F1A1
:101C80000103704701E00EF08DF9FCE710B501F09B
:101C9000F9F910BD2DE9F04107460C460026002554
:101CA00009E036023919491B491E88B200F008F8CC
:101CB0000644681CC5B2A542F3DB3046BDE8F0819E
:101CC00070B50446002601F095FA2546E11704EBAD
:101CD00011610912A02202EB4101C8B201F056FACB
:101CE00001F0D4FAE11704EB11610912A4EB012110
:101CF000C8B201F04BFA01F0C9FA01F07BFAA12059
:101D000001F044FA01F0C2FA002001F009FA064697
:101D100001F096FA304670BD2DE9F04105460E46B9
:101D20001746002409E0E20026FA02F2D1B22A198D
:101D300090B200F006F8601CC4B2BC42F3DBBDE810
:101D4000F08170B504460E4601F054FA2546E117BD
:101D500004EB11610912A02202EB4101C8B201F0AB
:101D600015FA01F093FAE11704EB11610912A4EBE3
:101D70000121C8B201F00AFA01F088FA304601F0F8
:101D800005FA01F083FA01F05BFA0A200BF0D8F9AA
:101D900070BD00BFFEE710B502200BF0EDF910BDDD
:101DA00010B500200F4908600F48006820F440007B
:101DB0000D4908600846006840F480000860FFF79D
:101DC000EAFF00200949C1F8AC02FFF7E4FF012057
:101DD00004490860FFF7DFFF00200549C1F88002D1
:101DE00010BD000080824042001402400080424248
:101DF000008040421CB50121222006F039F8012064
:101E000000908DF8040000208DF8060001208DF868
:101E100007006946064800F007FE4FF40060009096
:101E200001208DF804006946024800F0FDFD1CBD4C
:101E3000000402400014024010B500200F49086061
:101E40000F48006820F440000D490860084600680B
:101E500040F480000860FFF79EFF01200949C1F8A7
:101E6000AC02FFF798FF012004490860FFF793FFD9
:101E700000200549C1F8800210BD00008082404268
:101E800000140240008042420080404270B5054686
:101E900000241548006820F44000134908600846F3
:101EA000006808601E200BF067F9002611E0002092
:101EB0000E490860FFF76FFF01200D49C1F880024D
:101EC0006006040E0B48006808B1601CC4B2701CA8
:101ED000C6B2082EEBDB15B9FFF7AEFF01E0FFF746
:101EE0005FFF204670BD0000001402408082404227
:101EF000008040422C82424270B50446134800687C
:101F000020F44000114908600846006840F4800051
:101F1000086000200E490860FFF73DFF002511E032
:101F2000E0090C4908606006040E01200A49C1F866
:101F30008002FFF730FF002005490860FFF72BFF04
:101F4000681CC5B2082DEBDB70BD00000014024018
:101F500080824042AC8242420080404210B50F482D
:101F6000006820F440000D4908600846006840F40D
:101F70008000086001200A4908600A49C1F880020F
:101F80001E200BF0F9F8002005490860FFF703FF59
:101F900000200449C1F8800210BD00000014024076
:101FA000AC8242420080404210B50D48006820F4E7
:101FB00040000B4908600846006840F48000086053
:101FC0000120084908601E200BF0D6F800200649C1
:101FD000C1F8AC02FFF7DFFE01200449086010BD24
:101FE000001402408082404200804242AC82424261
:101FF00010B500241248006820F440001049086021
:1020000008460068086001200E4908600E49C1F8C2
:102010008002FFF7C0FE09E0601CC4B2FA2C03DDA9
:10202000FFF7C2FF012010BDFFF7B5FE054880385D
:1020300000680028F0D10549086000BFF3E7000000
:1020400000140240AC824242008040428082404202
:1020500070B500254FF4803404E0802006F05CF871
:1020600000B103E02000A4F10104F6D100BF0CB9D7
:10207000032070BD40F2FF5006F024F82846F8E730
:1020800070B5044605E01648056805F0450000B146
:1020900000E0F8E700BF042006F03EF820B104207D
:1020A00006F010F8032070BD012006F035F820B1CD
:1020B000012006F007F80120F5E7094824380068F8
:1020C000A04201D01020EEE740F2FF5005F0FAFFE9
:1020D00003482038006808210840C0B2E3E7000048
:1020E000342C014070B500264FF4803505E01148CE
:1020F000046804F0450000B103E02800A5F10105E3
:10210000F5D100BF15B104F0040028B10326042066
:1021100005F0D8FF304670BD012005F0FDFF18B175
:102120000126012005F0CEFF40F2FF5005F0CAFF66
:102130003046F0E7342C014010B505E00B48046848
:1021400004F0450000B100E0F8E700BF042005F00E
:10215000E3FF20B1042005F0B5FF032010BD40F2DD
:10216000FF5005F0AFFF0020F8E70000342C0140DD
:102170002DE9F04105460E464FF0000805E02048E5
:10218000076807F0450000B100E0F8E700BF042051
:1021900005F0C2FF28B1042005F094FF0320BDE83C
:1021A000F081012005F0B8FF20B1012005F08AFF81
:1021B0000120F4E7124824380068A84201D010201A
:1021C000EDE740F2FF5005F07DFF0D482038046830
:1021D00004F4604018B9200C30804046DFE704F476
:1021E000005008B11320DAE704F4804008B1102051
:1021F000D5E704F4004008B10F20D0E74046CEE711
:10220000342C014070B500264FF4803505E00F48AE
:10221000046804F0450000B103E02800A5F10105C1
:10222000F5D100BF15B104F0040028B10326042045
:1022300005F048FF304670BD04F0400018B100269C
:10224000402005F03FFF3046F5E70000342C014008
:1022500021B1026842F00102026003E0026822F04C
:102260000102026070470000016821F00101016075
:102270000021016041608160C160016121214161F3
:102280004A49884204D13D21484A103A91608CE085
:1022900046491831884205D14FF47461434A103AD7
:1022A000916082E041493031884205D14FF4741188
:1022B0003E4A103A916078E03C494831884205D165
:1022C0004FF07461394A103A91606EE037496031DD
:1022D000884204D13649354A103AD16065E0334925
:1022E0007831884204D13349304A103AD1605CE0F9
:1022F0002E499031884204D12F492C4A103AD1609E
:1023000053E02A49A831884205D14FF03D51274A70
:10231000103AD16049E02949884204D13D21274A39
:10232000083A116041E025491831884205D14FF43F
:102330007461224A083A116037E0204930318842FE
:1023400005D14FF474111D4A083A11602DE01B4964
:102350004831884205D14FF07461184A083A11603B
:1023600023E016496031884204D11149134A121FF3
:1023700011601AE011497831884204D10D490F4AA1
:10238000121F116011E00D499031884204D10A49B1
:102390000A4A121F116008E00849A831884204D196
:1023A0004FF03D51054A121F116070471060024006
:1023B0003D000020400F002000003D20106402403E
:1023C00021B1026842F02002026003E0026822F0BC
:1023D000200202607047014600200A6802F00102F4
:1023E0000AB1012000E000207047000010B5002273
:1023F0000268134B1A40CC680B6823434C69234393
:102400008C692343CC6923430C6A23434C6A2343DE
:102410008C6A23434C6B23438C6B23431A43026027
:10242000426922F00702D1E90B3423431A43426187
:102430000B6943604B6883608B68C36010BD00000C
:102440003F801CF07047000051B18200A2F1C042F1
:10245000126842F001038200A2F1C042136009E059
:102460008200A2F1C0421268034B1A408300A3F11C
:10247000C0431A6070470000FEFF0F00D0E9011250
:102480001143C268114302691143426911438269D1
:102490001143C2691143026A1143426A1143826ABD
:1024A0001143C26A1143026B114302689200A2F108
:1024B000C0421160816808290BD101688900A1F12F
:1024C000C041096841F0400201688900A1F1C041A2
:1024D0000A60416B0968426B526841EA0211426B23
:1024E000926841EA0221426B928941EA0241426BC1
:1024F000128A41EA0251426B127D41EA0261426B4B
:10250000926911430268521C9200A2F1C04211600C
:10251000C16AB1F5804F1BD1816B0968826B52682B
:1025200041EA0211826B926841EA0221826B128AAF
:1025300041EA0251826B127D41EA0261826B92692B
:10254000114302689200A2F1C042C2F8041107E0F0
:102550006FF0704201688900A1F1C041C1F8042107
:10256000704700000EB50121062005F081FC022015
:10257000009000208DF804008DF8060003208DF8EF
:10258000050001208DF807006946294800F04CFA43
:102590004FF40050009001208DF804006946254852
:1025A00000F042FAFFF726FC0020234908601420BF
:1025B0000AF0C6FD01202149C1F8B40232200AF018
:1025C000BFFD00208DF80800012202A900F038F9B3
:1025D000012202A9A42000F033F916208DF808008A
:1025E000012202A9802000F02BF90C208DF80800B0
:1025F000012202A9882000F023F9022202A9A120C9
:1026000000F024F89DF8080030280ED19DF809004C
:1026100003280AD19DF809009DF8082000EB02214B
:1026200007A0FDF7BFFE00200EBD0120FCE7000063
:102630000004024000080240B4024142000041424E
:102640004354502049443A25780D0A002DE9F041C1
:1026500006460F461546FFF781FC7020FFF74CFC3D
:10266000FFF7C6FCF0B2FFF747FCFFF7C1FCFFF72E
:1026700075FC7120FFF740FCFFF7BAFC00240BE06B
:10268000691EA14201D0012100E000210846FFF7A8
:10269000FDFB3855601CC4B2AC42F1DBFFF784FC93
:1026A000BDE8F08171B581B0002400266148007852
:1026B000401C60490870084600780A2190FBF1F23E
:1026C00001FB120018B15B4800780A2867DA012282
:1026D00001A90220FFF7BAFF9DF8040000F00F00E7
:1026E00000287ED09DF8040000F00F00062878DA5C
:1026F0009DF8040000F00F01FF208840C5B2E843B8
:10270000C0B240F0C0004C4981F8200000245AE0DB
:10271000494890F820000121A1400840F0B3474902
:1027200031F8140004226946FFF790FF424890F800
:10273000300000F00100C0B19DF801009DF80010CC
:1027400001F00F0100EB01203B49163121F8140084
:102750009DF803009DF8021001F00F0100EB01212C
:1027600035480C3020F814101DE09DF801009DF84C
:10277000001001F00F0100EB0120C0F5F07081B2F4
:102780002D480C3020F814109DF803009DF802101D
:1027900001F00F0100EB0121274801E011E020E0EA
:1027A000163020F814109DF8000000F0F00080288A
:1027B00007D000212048163020F814100A3820F8DD
:1027C0001410601CC4B2052CA2DB01261A488089B3
:1027D00020B91948C08A08B9002001900020154985
:1027E00008709DF8040000F01F00D0B9124890F85E
:1027F000200000F0800040B10F4890F8200020F049
:1028000080000D4981F820000BE04FF6FF700A4967
:102810008881C882084690F8200000F0E00081F826
:10282000200004480078F02802DD0A2001490870E1
:1028300030467CBD200000202400002064250108D3
:102840002DE9F04105460E4617464FF00008FFF708
:1028500085FB7020FFF750FBFFF7CAFBE8B2FFF7DC
:102860004BFBFFF7C5FB00240BE0305DFFF744FB9B
:10287000FFF7BEFB8046B8F1000F00D003E0601CFC
:10288000C4B2BC42F1DB00BFFFF78EFB4046BDE89F
:10289000F08100002DE9FC4107460D46002600248A
:1028A00000200090019008205B49086010204860DB
:1028B000402088600020C8604FF4806008610846AE
:1028C00005F076FC1020FFF7DBFB044614B1204630
:1028D000BDE8FC815148008800044F49086037205A
:1028E0004860402088600020C8604FF48060086124
:1028F000084605F05DFC3720FFF7C2FB04460CB12B
:102900002046E5E74FF0FF30454908600820486061
:10291000302088600220C8600020086101204861E2
:10292000084605F0DFFB00203B4908603320486083
:10293000402088600020C8604FF48060086108462D
:1029400005F036FC3320FFF79BFB04460CB1204614
:10295000BEE70CE04FF4001005F0DEFB38B1314863
:1029600000684DF82600761C022E00D307E02D48A3
:102970004C38006840F22A6108400028EAD000BFC5
:10298000082005F0C9FB20B1082005F09BFB0420BE
:102990009EE7022005F0C0FB20B1022005F092FB6B
:1029A000022095E7202005F0B7FB20B1202005F09C
:1029B00089FB06208CE74FF4007005F0ADFB28B1D1
:1029C0004FF4007005F07EFB072081E740F2FF50D6
:1029D00005F078FB00980006009901F47F4140EA79
:1029E0000120009901F47F0140EA1120009940EA9A
:1029F0001160686001980006019901F47F4140EA86
:102A00000120019901F47F0140EA1120019940EA77
:102A10001160286020465BE7C004002014000020FD
:102A2000D4040020802C0140F0B50A460021002388
:102A3000002400BF3DE0012505FA01F3156805EA11
:102A400003049C4234D105684F000326BE40B543C1
:102A5000056015794E00B540066835430560157967
:102A6000012D02D01579022D16D185684F0003265D
:102A7000BE40B543856055794E00B5408668354304
:102A80008560456801268E40B54345604568967966
:102A90008E40B6B235434560C5684F000326BE4040
:102AA000B543C560D5794E00B540C6683543C560AD
:102AB000491C1029BFD3F0BDF0B5002300244D07F9
:102AC000ED0E02FA05F3CE1000F1200555F8265060
:102AD0004E07F70E0F26BE40B543CF1000F120067B
:102AE00046F82750CE1000F1200555F8265045EA4B
:102AF0000304CE1000F1200545F82640F0BD018307
:102B0000704700001FB50121062005F0B1F9022031
:102B1000009000208DF804008DF8060003208DF849
:102B2000050001208DF8070069463448FFF77CFF57
:102B30004FF40050009001208DF8040069463048A1
:102B4000FFF772FFFFF756F900202E4908600A20B0
:102B50000AF0F6FA01202C49C1F8B4020A200AF062
:102B6000EFFA0220009001208DF8040000208DF87B
:102B7000070069462148FFF757FF64200AF0E0FA92
:102B8000042202A948F2401000F054F800208DF809
:102B90000C0002A91DA0FDF705FC1FA102A8FDF76E
:102BA000FFFE48BB02208DF80800012202A948F26E
:102BB000400000F09FF9012202A948F2470000F00E
:102BC00039F89DF80800602807DA9DF8081014A06D
:102BD000FDF7E8FB012000F05FF90A200AF0B0FAE7
:102BE00000208DF80800012202A948F2400000F000
:102BF00081F9002004B010BD0120FBE70004024071
:102C000000080240B40241420000414243545020B7
:102C100049443A25730D0A00393134370000000069
:102C200044656661756C74205665723A25640D0AB8
:102C3000000000002DE9F04105460F461646FFF75B
:102C40008DF92820FFF758F9FFF7D2F92812FFF77E
:102C500053F9FFF7CDF9E8B2FFF74EF9FFF7C8F9DE
:102C6000FFF77CF92920FFF747F9FFF7C1F90024A6
:102C70000BE0711EA14201D0012100E000210846B5
:102C8000FFF704F93855601CC4B2B442F1DBFFF71A
:102C90008BF9BDE8F081000071B583B000240026F7
:102CA00079480078401C78490870084600780A2165
:102CB00090FBF1F201FB120018B1734800780A286A
:102CC0007EDA012203A948F24E10FFF7B3FF9DF808
:102CD0000C0000F0800068B19DF80C0000F00F00BF
:102CE000062807DA00200190012201A948F24E10BF
:102CF00000F000F99DF80C0000F00F0000285FD0F4
:102D00009DF80C0000F00F000628D9DA9DF80C00A1
:102D100000F00F01FF208840C0B201905B4890F89E
:102D200020509DF80400C043C0B240F0C000574995
:102D300081F82000084681898182C18AC1830024EC
:102D400046E0524890F820000121A140084020B3FD
:102D50004F4931F81400042202A9FFF76BFF4B48DA
:102D600090F8300000F00100C0B19DF808009DF817
:102D7000091000EB012081B24448163020F81410ED
:102D80009DF80A009DF80B1000EB0120C0F548707B
:102D900081B23E480C3020F8141017E09DF808006E
:102DA0009DF8091000EB012081B238480C3020F862
:102DB00014109DF80A009DF80B1000EB012000E0B4
:102DC00036E081B23148163020F81410601CC4B2CD
:102DD000052CB6DB01262D4880892E4909888842BA
:102DE00005DC2A48C08A2B49498888421DDD9DF8A8
:102DF0000C0000F00F0001280ADD2448C089234997
:102E000088810846008BC88200201F4908700FE0A7
:102E10001E48808A1D4988810846C08BC882802050
:102E20000390084680F8205002E000201649087000
:102E30009DF80C0000F08F0080281AD1134890F8FC
:102E4000200000F0800040B1104890F8200020F0F1
:102E500080000E4981F820000BE04FF6FF700B490F
:102E60008881C882084690F8200000F0E00081F8D0
:102E7000200005480078F02802DD0A200249087089
:102E8000304604B070BD0000210000202400002066
:102E9000262601089404002038B5054600240020A9
:102EA0008DF800008DF8015000BF09E09DF800008A
:102EB0000F49095D0844C0B28DF80000601CC4B21F
:102EC000B82CF3D39DF80000C043401CC0B28DF86D
:102ED0000000B822064948F2470000F00BF8022231
:102EE000694648F2FF0000F005F8002038BD0000F8
:102EF0006E2501082DE9F04104460E4617464FF0B5
:102F00000008FFF72BF82820FEF7F6FFFFF770F810
:102F10002012FEF7F1FFFFF76BF8E0B2FEF7ECFFCF
:102F2000FFF766F800250BE0705DFEF7E5FFFFF7A1
:102F30005FF88046B8F1000F00D003E0681CC5B20E
:102F4000BD42F1DB00BFFFF72FF84046BDE8F0813E
:102F50002DE9F05F82460F4614462046E21704EB47
:102F60005272D2102146E31704EB5373DB10A4EB2B
:102F7000C3030BB1012300E000231A44624302F0B3
:102F8000FF099AF800600AF1010082460578812E57
:102F900005DB402D03DBFF2D01D0FF2E0DD14FF0BF
:102FA000000B06E0002007F8010B0BF1010000F018
:102FB000FF0BCB45F6DBBDE8F09F7F2D03DAA5F1D3
:102FC0004000C5B202E0A5F14100C5B2A6F1810002
:102FD000C6B2BE2010FB065000FB09F80C2C04D032
:102FE000102C0CD0182C1ED113E01048D0F809007A
:102FF00000EB08014A46384608F002FB13E00B4894
:10300000D0F8110000EB08014A46384608F0F8FAFB
:1030100009E00648D0F8190000EB08014A46384696
:1030200008F0EEFA00BF00BF00BFC4E7A0C3012054
:1030300000BFFEE710B500200F4908600F48006888
:1030400020F440200D4908600846006840F48020C4
:10305000086000200A49C1F8A40202200AF08CF896
:1030600001200549086002200AF086F80020044982
:10307000C1F8A00210BD0000A0824042000402403E
:10308000008040421CB50121022004F0F1FE4FF403
:103090004070009001208DF8040000208DF806009B
:1030A00003208DF8050001208DF8070069460548CA
:1030B000FFF7BAFC0120044908600449C1F8A402E2
:1030C0001CBD000000040240A0824042008040423B
:1030D00010B500200F4908600F48006820F4402018
:1030E0000D4908600846006840F48020086001200F
:1030F0000A49C1F8A40202200AF03EF8012005495D
:10310000086002200AF038F800200449C1F8A00243
:1031100010BD0000A08240420004024000804042F6
:1031200070B5054600241648006820F44020144974
:103130000860084600680860002616E00020114973
:10314000086002200AF018F801200F49C1F8A00217
:103150006006040E0B487C38006808B1601CC4B2DD
:1031600001200AF009F8701CC6B2082EE6DB15B97A
:10317000FFF7AEFF01E0FFF75DFF204670BD0000E6
:1031800000040240A08240420080404270B50446E4
:103190001548006820F4402013490860084600687C
:1031A00040F480200860002010490860002517E0E6
:1031B000E0090E49091D08606006040E022009F0AE
:1031C000DBFF01200A49C1F8A002022009F0D4FF68
:1031D000002006490860022009F0CEFF681CC5B235
:1031E000082DE5DB70BD000000040240A0824042D3
:1031F0000080404210B50F48006820F440200D497F
:1032000008600846006840F48020086001200A49F0
:1032100008600A49C1F8A002042009F0ADFF0020AF
:1032200005490860042009F0A7FF00200349C1F800
:10323000A00210BD00040240A4824042008040422F
:1032400010B50F48006820F440200D49086008467A
:10325000006840F48020086000200A4908600A499C
:10326000C1F8A402042009F087FF01200549086085
:103270000549C1F8A402042009F07EFF10BD00003A
:1032800000040240A08240420080404210B5002469
:103290001348006820F4402011490860084600687F
:1032A000086001200F49086009F066FF01200E49FF
:1032B000C1F8A00209F060FF07E0601CC4B2FA2C5C
:1032C00003DDFFF7BDFF012010BD06488038006810
:1032D0000028F2D10349091F086000BFF4E700008D
:1032E00000040240A4824042008040421CB50446D3
:1032F00000200190009022480088000421490860C5
:103300000D204860402088600020C8604FF4806035
:103310000861084604F04CFF1B480068009002E07A
:10332000194800680090009800F045000028F7D088
:10333000012004F0F1FE20B1012004F0C3FE0120C1
:103340001CBD042004F0E8FE20B1042004F0BAFE05
:103350000320F5E70C48243800680D2801D0102020
:10336000EEE740F2FF5004F0ADFE07482038006859
:1033700001900198C0F3432020700020E0E7000096
:1033800014000020C0040020342C01401CB5012191
:10339000112004F06DFD1C20009000208DF8040029
:1033A00003208DF8050001208DF8070069460648C6
:1033B000FFF73AFB0120009002208DF807006946D4
:1033C0000248FFF731FB1CBD001002400000024024
:1033D00070B50446002617480588408845431548BF
:1033E000808846F60401884216D112488079012867
:1033F00012D100200F4988712A2048812B20888112
:103400000021084604F0F0F801200A4988712B20B9
:1034100048812A20888103E00021084604F0E4F86E
:1034200004F0E0FA002602E003480480761CAE4275
:10343000FAD370BD940400208000006C10B50446DF
:10344000002C66D16C498871F02008804FF4A07080
:1034500048800846808849F2413188420BD066484E
:10346000808846F60401884205D06348808845F28A
:10347000103188421AD12C205F4908812A204881C6
:103480002B2088810846808846F60401884205D0B2
:103490005948808845F21031884206D14FF4A07017
:1034A000554908804FF4F0704880A1E05248808868
:1034B00045F21051884210D14FF430504E490881E6
:1034C0004FF4285048814FF42C5088814FF4F0700D
:1034D00008804FF4487048808AE04748808841F669
:1034E000631188420DD12C20434908812B2048814B
:1034F0002A2088814FF4F07008804FF4487048808B
:1035000076E022203C4908812020488121208881C2
:103510006EE00120384988714FF4A0700880F020D7
:1035200048800846808849F24131884205D03248B7
:10353000808845F21031884207D12C202E4908811D
:103540002A2048812B2088813FE02B48808846F63E
:103550000401884207D12C20274908812B2048816B
:103560002A20888131E02448808845F21051884221
:1035700010D14FF43050204908814FF42850488131
:103580004FF42C5088814FF4487008804FF4F0704D
:1035900048801AE01848808841F6631188420DD1AE
:1035A0002C20154908812A2048812B2088814FF43E
:1035B000487008804FF4F070488006E022200E49E1
:1035C000088121204881202088810B48808846F688
:1035D0000401884205D00848808845F210318842AD
:1035E00006D14FF4F070044908804FF4A070488071
:1035F000002003F083FE10BD940400202DE9FF4F4E
:1036000084B081468A460020039002900698A0EB81
:1036100009050798A0EB0A06CDF80490CDF800A0A4
:10362000002D01DD012705E00DB9002702E04FF074
:10363000FF376D42002E02DD4FF0010806E016B99B
:103640004FF0000802E04FF0FF387642B54201DD4E
:103650002C4600E034464FF0000B21E0009A91B276
:10366000019A90B200F022F803982844039002983F
:10367000304402900398A04205DD0398001B03909C
:103680000198384401900298A04205DD0298001B81
:1036900002900098404400900BF101001FFA80FB5B
:1036A000601C8345DADD08B0BDE8F08F30B5044614
:1036B0000D462946204603F097FF04F093F902488F
:1036C00000880249088030BD0A0000208000006C9C
:1036D0002DE9F04306460F46904600244546032058
:1036E000A0EB48093CE07A1B91B2321990B2FFF787
:1036F000DDFF3A1B91B2721990B2FFF7D7FF3A196A
:1037000091B2721990B2FFF7D1FF7A1991B23219C2
:1037100090B2FFF7CBFF7A1991B2321B90B2FFF74C
:10372000C5FF3A1991B2721B90B2FFF7BFFF7A1B27
:1037300091B2321B90B2FFF7B9FF3A1B91B2721BE4
:1037400090B2FFF7B3FF641CB9F1000F03DAA000D9
:10375000801D814404E0601B80000A3081446D1E9E
:10376000AC42C0DDBDE8F08370B504460D46164698
:103770005B48808849F24131884205D058488088AA
:1037800045F21031884214D15549488904F01EF998
:10379000201204F00FF9E0B204F00CF950498889C6
:1037A00004F014F9281204F005F9E8B204F002F963
:1037B0008CE04B48808845F21051884220D148491E
:1037C000488904F003F9201204F0F4F844494989C7
:1037D000491C88B204F0FAF8E0B204F0EBF8404972
:1037E000888904F0F3F8281204F0E4F83C49898948
:1037F000491C88B204F0EAF8E8B204F0DBF865E0AE
:103800003748808841F66311884228D1344880794E
:1038100020B933480088401E001B84B230494889D3
:1038200004F0D4F8201204F0C5F8E0B204F0C2F8B5
:10383000201204F0BFF8E0B204F0BCF828498889EF
:1038400004F0C4F8281204F0B5F8E8B204F0B2F8B5
:10385000281204F0AFF8E8B204F0ACF836E02048E3
:10386000808846F6040188421DD11D4880790128D0
:1038700004D11B480088401E001B84B218494889A7
:1038800004F0A4F8201204F095F8E0B204F092F8E5
:103890001349888904F09AF8281204F08BF8E8B2EA
:1038A00004F088F812E00E488079012804D10C4811
:1038B0000088401E001B84B209494889214604F053
:1038C0009BF807498889294604F096F8044800893E
:1038D000044908804FF0D840A0F8806070BD000017
:1038E000940400207E00006C00B5A1B00020209060
:1038F00001217A2004F0BCFA0121084604F0C8FA3C
:103900004FF400401E9001208DF87C0000208DF8BF
:103910007E0002208DF87D0001208DF87F001EA919
:10392000FE48FFF781F84CF233701E9002208DF8AC
:103930007C0000208DF87E0003208DF87D000120A2
:103940008DF87F001EA9F648FFF76EF84FF68070DD
:103950001E9002208DF87C0000208DF87E00032050
:103960008DF87D0001208DF87F001EA9ED48FFF73E
:103970005BF84FF480501E9002208DF87C000020F0
:103980008DF87E0003208DF87D0001208DF87F00EA
:103990001EA9E548FFF748F84FF480501E9002201A
:1039A0008DF87C0000208DF87E0003208DF87D00CE
:1039B00001208DF87F001EA9DC48FFF735F80C22A6
:1039C0000021D748FFF778F80C220121D448FFF7EF
:1039D00073F80C220421D248FFF76EF80C2205215F
:1039E000CF48FFF769F80C220821CD48FFF764F8AB
:1039F0000C220921CA48FFF75FF80C220A21C848A7
:103A0000FFF75AF80C220E21C548FFF755F80C2293
:103A10000F21C348FFF750F80C220721C148FFF7D8
:103A20004BF80C220821BF48FFF746F80C22092169
:103A3000BC48FFF741F80C220A21BA48FFF73CF8CE
:103A40000C220B21B748FFF737F80C221146B54876
:103A5000FFF732F80C220D21B248FFF72DF80C22A7
:103A60000E21B048FFF728F80C220F21AD48FFF7D0
:103A700023F80C221146AC48FFF71EF80C22114621
:103A8000AA48FFF719F80F200890002009903C2061
:103A90000A9000200B900C900D900E900920019040
:103AA00000200290082003900020049005900690CA
:103AB000079006200F900020109011901020129077
:103AC0000020139015901490169017904FF480508A
:103AD0001890002019904FF480401A9000201B90FD
:103AE00008A81C9001A81D900FA8FEF7C7FC012193
:103AF0000620FEF7A9FC322009F022FB012100205C
:103B000003F07AFF322009F01BFB002003F0BAFB20
:103B10008749888008468088FF280ADB0846808815
:103B20004FF6FF71884204D081488088B0F5134F6A
:103B30007ED1D32003F04AFF03F09AFB7C498880B2
:103B400003F096FB7A49888003F092FB78498880DD
:103B5000084680884FF6FF7101EA0020744988808A
:103B600003F086FB724989880843714988800846BA
:103B7000808849F2413188425AD0BF2003F026FFA5
:103B800003F076FB6A49888003F072FB68498880FD
:103B900003F06EFB6649888003F06AFB6449888005
:103BA000084680884FF6FF7101EA0020604988804E
:103BB00003F05EFB5E49898808435D4988800846BA
:103BC000808846F6040188427AD0D42003F0FEFEB5
:103BD00003F04EFB5649888003F04AFB5449888025
:103BE00003F046FB52498880084680884FF6FF71F3
:103BF00001EA00204E49888003F03AFB4C4989884D
:103C000008434B4988800846808845F21031884235
:103C100056D04FF45A4003F0D9FE03F029FB444933
:103C200088804FF45B4003F0D1FE03F021FB00E0FD
:103C300046E03F498880084680884FF6FF7101EAD8
:103C400000203B4988804FF45C4003F0BFFE03F046
:103C50000FFB3749898808433549888008468088A2
:103C6000B0F5004F02D145F210508880304880886E
:103C700045F21051884223D0A12003F0A7FE03F0A3
:103C8000F7FA2B49888003F0F3FA2949888008461F
:103C900080884FF6FF7101EA00202549888003F0F3
:103CA000E7FA2349898808432149888008468088A3
:103CB00045F26171884203D141F663101C49888046
:103CC0001B48808849F24131884211D018488088C9
:103CD00045F2103188420BD01548808845F21051CA
:103CE000884205D01248808841F6631188422DD160
:103CF0001048006820F00F004FF02041C1F81C016F
:103D00000846D0F81C0120F47060C1F81C01084678
:103D1000D0F81C0140F003000EE000000004024057
:103D2000000C024000100240001402400018024043
:103D3000940400201C0100A0C1F81C010846D0F822
:103D40001C0140F40070C1F81C0128E0FE48808886
:103D500046F60401884205D0FB4880884CF20551A4
:103D600088421CD1F948006820F00F004FF0204134
:103D7000C1F81C010846D0F81C0120F47060C1F89D
:103D80001C010846D0F81C0140F00A00C1F81C01D3
:103D90000846D0F81C0140F44060C1F81C01EA4814
:103DA0008188EBA0FCF7FEFAE748808849F24131B0
:103DB00088427CD1CF2003F009FE002003F0FAFDF9
:103DC000C12003F0F7FD302003F0F4FDED2003F0F7
:103DD000FDFD642003F0EEFD032003F0EBFD122057
:103DE00003F0E8FD812003F0E5FDE82003F0EEFD9F
:103DF000852003F0DFFD102003F0DCFD7A2003F0C6
:103E0000D9FDCB2003F0E2FD392003F0D3FD2C20B7
:103E100003F0D0FD002003F0CDFD342003F0CAFDF7
:103E2000022003F0C7FDF72003F0D0FD202003F0AF
:103E3000C1FDEA2003F0CAFD002003F0BBFD002015
:103E400003F0B8FDC02003F0C1FD1B2003F0B2FD5C
:103E5000C12003F0BBFD012003F0ACFDC52003F041
:103E6000B5FD302003F0A6FD302003F0A3FDC720F0
:103E700003F0ACFDB72003F09DFD362003F0A6FD56
:103E8000482003F097FD3A2003F0A0FD552003F0F1
:103E900091FDB12003F09AFD002003F08BFD1A2064
:103EA00003F088FDB62003F091FD0A2000E099E0C0
:103EB00003F080FDA22003F07DFDF22003F086FDDB
:103EC000002003F077FD262003F080FD012003F0A1
:103ED00071FDE02003F07AFD0F2003F06BFD2A2036
:103EE00003F068FD282003F065FD082003F062FD63
:103EF0000E2003F05FFD082003F05CFD542003F06A
:103F000059FDA92003F056FD432003F053FD0A207C
:103F100003F050FD0F2003F04DFD002003F04AFD9B
:103F2000002003F047FD002003F044FD002003F0D3
:103F300041FDE12003F04AFD002003F03BFD152088
:103F400003F038FD172003F035FD072003F032FDA4
:103F5000112003F02FFD062003F02CFD2B2003F091
:103F600029FD562003F026FD3C2003F023FD05200B
:103F700003F020FD102003F01DFD0F2003F01AFDBB
:103F80003F2003F017FD3F2003F014FD0F2003F046
:103F900011FD2B2003F01AFD002003F00BFD002083
:103FA00003F008FD012003F005FD3F2003F002FDB2
:103FB0002A2003F00BFD002003F0FCFC002003F09E
:103FC000F9FC002003F0F6FCEF2003F0F3FC1120D5
:103FD00003F0FCFC782009F0B3F8292003F0F6FC8C
:103FE00003F02AB95848808846F6040188427CD1FB
:103FF000112003F0EBFC142009F0A2F8D02003F00C
:10400000E5FC072003F0D6FC422003F0D3FC1D2082
:1040100003F0D0FCD12003F0D9FC002003F0CAFC4F
:104020001A2003F0C7FC092003F0C4FCD22003F0DF
:10403000CDFC012003F0BEFC222003F0BBFCC0201D
:1040400003F0C4FC102003F0B5FC3B2003F0B2FCED
:10405000002003F0AFFC022003F0ACFC112003F0C1
:10406000A9FCC52003F0B2FC032003F0A3FCC82088
:1040700003F0ACFC002003F09DFC252003F09AFC2B
:10408000212003F097FC052003F094FC002003F0AE
:1040900091FC0A2003F08EFC652003F08BFC2520A8
:1040A00003F088FC772003F085FC502003F082FCAD
:1040B0000F2003F07FFC002003F07CFCF82003F0CD
:1040C00085FC012003F076FCFE2003F07FFC00203D
:1040D00003F070FC022003F06DFC202003F076FC5E
:1040E000362003F073FC082000E039E003F062FCA6
:1040F0003A2003F06BFC552003F05CFC2B2003F00E
:1041000065FC002003F056FC002003F053FC012066
:1041100003F050FC3F2003F04DFC2A2003F056FC36
:10412000002003F047FC002003F044FC012003F0D2
:1041300041FCDF2003F03EFC782009F001F8292043
:1041400003F044FC4CE70000940400201C0100A094
:10415000204C43442049443A25780D0A00000000D1
:10416000FE48808845F21031884240F07C87ED207F
:1041700003F02CFC012003F01DFCFE2003F01AFCD0
:10418000EE2003F023FCDE2003F014FC212003F0DA
:1041900011FCF12003F01AFC012003F00BFCDF20DE
:1041A00003F014FC102003F005FCC42003F00EFC07
:1041B0008F2003F0FFFBC62003F008FC002003F073
:1041C000F9FBE22003F0F6FBE22003F0F3FBE22030
:1041D00003F0F0FBBF2003F0F9FBAA2003F0EAFB99
:1041E000B02003F0F3FB0D2003F0E4FB002003F00C
:1041F000E1FB0D2003F0DEFB002003F0DBFB1120D0
:1042000003F0D8FB002003F0D5FB192003F0D2FB0C
:10421000002003F0CFFB212003F0CCFB002003F0B3
:10422000C9FB2D2003F0C6FB002003F0C3FB3D209B
:1042300003F0C0FB002003F0BDFB5D2003F0BAFBE0
:10424000002003F0B7FB5D2003F0B4FB002003F077
:10425000B1FBB12003F0BAFB802003F0ABFB0020E0
:1042600003F0A8FB8B2003F0A5FB002003F0A2FBCA
:10427000962003F09FFB002003F09CFBB22003F08C
:10428000A5FB002003F096FB002003F093FB022027
:1042900003F090FB002003F08DFB032003F08AFB6A
:1042A000002003F087FBB32003F090FB002003F015
:1042B00081FB002003F07EFB002003F07BFB00204D
:1042C00003F078FB002003F075FB002003F072FB85
:1042D000002003F06FFB002003F06CFB002003F0D4
:1042E00069FB002003F066FB002003F063FB002065
:1042F00003F060FB002003F05DFB002003F05AFB9D
:10430000002003F057FB002003F054FB002003F0D3
:1043100051FB002003F04EFB002003F04BFB00207C
:1043200003F048FB002003F045FB002003F042FBB4
:10433000002003F03FFB002003F03CFBB42003F01F
:1043400045FB8B2003F036FB002003F033FB962067
:1043500003F030FB002003F02DFBA12003F02AFB2B
:10436000002003F027FBB52003F030FB022003F010
:1043700021FB002003F01EFB032003F01BFB0020A9
:1043800003F018FB042003F015FB002003F012FBE0
:10439000B62003F01BFB002003F00CFB002003F011
:1043A00009FBB72003F012FB002003F003FB002001
:1043B00003F000FB3F2003F0FDFA002003F0FAFABF
:1043C0005E2003F0F7FA002003F0F4FA642003F013
:1043D000F1FA002003F0EEFA8C2003F0EBFA002053
:1043E00003F0E8FAAC2003F0E5FA002003F0E2FA6B
:1043F000DC2003F0DFFA002003F0DCFA702003F089
:10440000D9FA002003F0D6FA902003F0D3FA002066
:1044100003F0D0FAEB2003F0CDFA002003F0CAFA43
:10442000DC2003F0C7FA002003F0C4FAB82003F040
:10443000CDFA002003F0BEFA002003F0BBFA002002
:1044400003F0B8FA002003F0B5FA002003F0B2FA46
:10445000002003F0AFFA002003F0ACFA002003F0D4
:10446000A9FABA2003F0B2FA242003F0A3FA00203C
:1044700003F0A0FA002003F09DFA002003F09AFA5E
:10448000C12003F0A3FA202003F094FA002003F0E7
:1044900091FA542003F08EFA002003F08BFAFF20EB
:1044A00003F088FA002003F085FAC22003F08EFAA8
:1044B0000A2003F07FFA002003F07CFA042003F0C6
:1044C00079FA002003F076FAC32003F07FFA3C204B
:1044D00003F070FA002003F06DFA3A2003F06AFA54
:1044E000002003F067FA392003F064FA002003F09B
:1044F00061FA372003F05EFA002003F05BFA3C20FB
:1045000003F058FA002003F055FA362003F052FA6F
:10451000002003F04FFA322003F04CFA002003F0A1
:1045200049FA2F2003F046FA002003F043FA2C202A
:1045300003F040FA002003F03DFA292003F03AFA94
:10454000002003F037FA262003F034FA002003F0AD
:1045500031FA242003F02EFA002001E09404002018
:1045600003F028FA242003F025FA002003F022FAB1
:10457000232003F01FFA002003F01CFA3C2003F074
:1045800019FA002003F016FA362003F013FA00207F
:1045900003F010FA322003F00DFA002003F00AFABB
:1045A0002F2003F007FA002003F004FA2C2003F078
:1045B00001FA002003F0FEF9292003F0FBF90020A6
:1045C00003F0F8F9262003F0F5F9002003F0F2F9E2
:1045D000242003F0EFF9002003F0ECF9242003F08D
:1045E000E9F9002003F0E6F9232003F0E3F90020C5
:1045F00003F0E0F9C42003F0E9F9622003F0DAF9EE
:10460000002003F0D7F9052003F0D4F9002003F0CF
:10461000D1F9842003F0CEF9002003F0CBF9F0208B
:1046200003F0C8F9002003F0C5F9182003F0C2F91F
:10463000002003F0BFF9A42003F0BCF9002003F030
:10464000B9F9182003F0B6F9002003F0B3F95020AF
:1046500003F0B0F9002003F0ADF90C2003F0AAF943
:10466000002003F0A7F9172003F0A4F9002003F0BD
:10467000A1F9952003F09EF9002003F09BF9F320A7
:1046800003F098F9002003F095F9E62003F092F981
:10469000002003F08FF9C52003F098F9322003F0D1
:1046A00089F9002003F086F9442003F083F9002003
:1046B00003F080F9652003F07DF9002003F07AF91A
:1046C000762003F077F9002003F074F9882003F0D6
:1046D00071F9002003F06EF9C62003F077F920206D
:1046E00003F068F9002003F065F9172003F062F980
:1046F000002003F05FF9012003F05CF9002003F0D3
:1047000059F9C72003F062F9002003F053F90020A3
:1047100003F050F9002003F04DF9002003F04AF9AE
:10472000C82003F053F9002003F044F9002003F0FF
:1047300041F9002003F03EF9002003F03BF9C920C5
:1047400003F044F9002003F035F9002003F032F9BA
:10475000002003F02FF9002003F02CF9002003F0D3
:1047600029F9002003F026F9002003F023F90020A6
:1047700003F020F9002003F01DF9002003F01AF9DE
:10478000002003F017F9002003F014F9002003F0D3
:1047900011F9002003F00EF9002003F00BF90020BE
:1047A00003F008F9E02003F011F9162003F002F9F4
:1047B000002003F0FFF81C2003F0FCF8002003F0B9
:1047C000F9F8212003F0F6F8002003F0F3F8362082
:1047D00003F0F0F8002003F0EDF8462003F0EAF8CB
:1047E000002003F0E7F8522003F0E4F8002003F083
:1047F000E1F8642003F0DEF8002003F0DBF87A2013
:1048000003F0D8F8002003F0D5F88B2003F0D2F89D
:10481000002003F0CFF8992003F0CCF8002003F03B
:10482000C9F8A82003F0C6F8002003F0C3F8B920A7
:1048300003F0C0F8002003F0BDF8C42003F0BAF87C
:10484000002003F0B7F8CA2003F0B4F8002003F00A
:10485000B1F8D22003F0AEF8002003F0ABF8D92075
:1048600003F0A8F8002003F0A5F8E02003F0A2F878
:10487000002003F09FF8F32003F09CF8002003F0E1
:1048800099F8E12003F0A2F8162003F093F8002035
:1048900003F090F81C2003F08DF8002003F08AF854
:1048A000222003F087F8002003F084F8362003F07C
:1048B00081F8002003F07EF8452003F07BF800200B
:1048C00003F078F8522003F075F8002003F072F836
:1048D000642003F06FF8002003F06CF87A2003F0F6
:1048E00069F8002003F066F88B2003F063F80020DD
:1048F00003F060F8992003F05DF8002003F05AF807
:10490000A82003F057F8002003F054F8B92003F072
:1049100051F8002003F04EF8C42003F04BF80020BB
:1049200003F048F8CA2003F045F8002003F042F8ED
:10493000D22003F03FF8002003F03CF8D82003F029
:1049400039F8002003F036F8E02003F033F80020B7
:1049500003F030F8F32003F02DF8002003F02AF8DC
:10496000E22003F033F8052003F024F8002003F0E0
:1049700021F80B2003F01EF8002003F01BF81B2089
:1049800003F018F8002003F015F8342003F012F8B3
:10499000002003F00FF8442003F00CF8002003F08F
:1049A00009F84F2003F006F8002003F003F8612017
:1049B00003F000F8002002F0FDFF792002F0FAFF7A
:1049C000002002F0F7FF882002F0F4FF002002F040
:1049D000F1FF972002F0EEFF002002F0EBFFA6208F
:1049E00002F0E8FF002002F0E5FFB72002F0E2FF4E
:1049F000002002F0DFFFC22002F0DCFF002002F006
:104A0000D9FFC72002F0D6FF002002F0D3FFD1204B
:104A100002F0D0FF002002F0CDFFD62002F0CAFF46
:104A2000002002F0C7FFDD2002F0C4FF002002F0EA
:104A3000C1FFF32002F0BEFF002002F0BBFFE32025
:104A400002F0C4FF052002F0B5FF002002F0B2FF23
:104A50000A2002F0AFFF002002F0ACFF1C2002F0A1
:104A6000A9FF002002F0A6FF332002F0A3FF0020E0
:104A700002F0A0FF442002F09DFF002002F09AFF08
:104A8000502002F097FF002002F094FF622002F015
:104A900091FF002002F08EFF782002F08BFF0020B3
:104AA00002F088FF882002F085FF002002F082FFDC
:104AB000972002F07FFF002002F07CFFA62002F08A
:104AC00079FF002002F076FFB72002F073FF00208C
:104AD00002F070FFC22002F06DFF002002F06AFFBA
:104AE000C72002F067FF002002F064FFD12002F02F
:104AF00061FF002002F05EFFD52002F05BFF002086
:104B000002F058FFDD2002F055FF002002F052FFB6
:104B1000F32002F04FFF002002F04CFFE42002F0EF
:104B200055FF012002F046FF002002F043FF012064
:104B300002F040FF002002F03DFF022002F03AFFA9
:104B4000002002F037FF2A2002F034FF002002F09C
:104B500031FF3C2002F02EFF002002F02BFF4B2003
:104B600002F028FF002002F025FF5D2002F022FF66
:104B7000002002F01FFF742002F01CFF002002F052
:104B800019FF842002F016FF002002F013FF93208B
:104B900002F010FF002002F00DFFA22002F00AFF39
:104BA000002002F007FFB32002F004FF002002F013
:104BB00001FFBE2002F0FEFE002002F0FBFEC4203A
:104BC00002F0F8FE002002F0F5FECD2002F0F2FE29
:104BD000002002F0EFFED32002F0ECFE002002F0F5
:104BE000E9FEDD2002F0E6FE002002F0E3FEF32005
:104BF00002F0E0FE002002F0DDFEE52002F0E6FE1D
:104C0000002002F0D7FE002002F0D4FE002002F0C7
:104C1000D1FE002002F0CEFE022002F0CBFE0020EA
:104C200002F0C8FE292002F0C5FE002002F0C2FEFC
:104C30003C2002F0BFFE002002F0BCFE4B2002F040
:104C4000B9FE002002F0B6FE5D2002F0B3FE0020A7
:104C500002F0B0FE742002F0ADFE002002F0AAFEC9
:104C6000842002F0A7FE002002F0A4FE932002F0B0
:104C7000A1FE002002F09EFEA22002F09BFE00207A
:104C800002F098FEB32002F095FE002002F092FEA2
:104C9000BE2002F08FFE002002F08CFEC42002F045
:104CA00089FE002002F086FECD2002F083FE002067
:104CB00002F080FED32002F07DFE002002F07AFE9A
:104CC000DC2002F077FE002002F074FEF32002F0F8
:104CD00071FE002002F06EFEE62002F077FE112049
:104CE00002F068FE002002F065FE342002F062FE51
:104CF000002002F05FFE562002F05CFE002002F071
:104D000059FE762002F056FE002002F053FE772076
:104D100002F050FE002002F04DFE662002F04AFE36
:104D2000002002F047FE882002F044FE002002F03E
:104D300041FE992002F03EFE002002F03BFEBB2027
:104D400002F038FE002002F035FE992002F032FE1B
:104D5000002002F02FFE662002F02CFE002002F060
:104D600029FE552002F026FE002002F023FE5520E9
:104D700002F020FE002002F01DFE452002F01AFE87
:104D8000002002F017FE432002F014FE002002F083
:104D900011FE442002F00EFE002002F00BFEE72080
:104DA00002F014FE322002F005FE002002F002FEA6
:104DB000552002F0FFFD002002F0FCFD762002F0FD
:104DC000F9FD002002F0F6FD662002F0F3FD002060
:104DD00002F0F0FD672002F0EDFD002002F0EAFD98
:104DE000672002F0E7FD002002F0E4FD872002F0DA
:104DF000E1FD002002F0DEFD992002F0DBFD002045
:104E000002F0D8FDBB2002F0D5FD002002F0D2FD5B
:104E1000992002F0CFFD002002F0CCFD772002F0B7
:104E2000C9FD002002F0C6FD442002F0C3FD0020B1
:104E300002F0C0FD562002F0BDFD002002F0BAFDD8
:104E4000232002F0B7FD002002F0B4FD332002F071
:104E5000B1FD002002F0AEFD452002F0ABFD0020C8
:104E600002F0A8FDE82002F0B1FD002002F0A2FD52
:104E7000002002F09FFD992002F09CFD002002F02E
:104E800099FD872002F096FD002002F093FD882016
:104E900002F090FD002002F08DFD772002F08AFDE7
:104EA000002002F087FD662002F084FD002002F061
:104EB00081FD882002F07EFD002002F07BFDAA200B
:104EC00002F078FD002002F075FDBB2002F072FDBB
:104ED000002002F06FFD992002F06CFD002002F02E
:104EE00069FD662002F066FD002002F063FD55209A
:104EF00002F060FD002002F05DFD552002F05AFD39
:104F0000002002F057FD442002F054FD002002F082
:104F100051FD442002F04EFD002002F04BFD5520D3
:104F200002F048FD002002F045FDE92002F04EFDB0
:104F3000AA2002F03FFD002002F03CFD002002F01C
:104F400039FD002002F036FD002002F03FFDAA20CE
:104F500002F030FDCF2002F039FD002002F02AFDE2
:104F6000002002F027FD002002F024FD002002F0C6
:104F700021FD002002F01EFD002002F01BFD00209C
:104F800002F018FD002002F015FD002002F012FDD5
:104F9000002002F00FFD002002F00CFD002002F0C6
:104FA00009FD002002F006FD002002F003FD0020B4
:104FB00002F000FD002002F0FDFC002002F0FAFCEF
:104FC000F02002F003FD002002F0F4FC502002F07B
:104FD000F1FC002002F0EEFC002002F0EBFC0020CF
:104FE00002F0E8FCF32002F0F1FC002002F0E2FC09
:104FF000F92002F0EBFC062002F0DCFC102002F0AD
:10500000D9FC292002F0D6FC002002F0D3FC3A2083
:1050100002F0DCFC552002F0CDFC112002F0D6FCA1
:10502000642008F08DF8292002F0D0FC352002F031
:10503000CDFC002002F0BEFC512002F0C7FCFF2096
:1050400002F0B8FC532002F0C1FC2C2002F0B2FCAC
:10505000552002F0BBFC822002F0ACFC2C2002F0B8
:10506000B5FC02F0E9B8FE48808845F2105188424C
:105070007ED155214FF4704002F0BEFCAA214FF2C0
:10508000010002F0B9FC52214FF2020002F0B4FC20
:1050900008214FF2030002F0AFFC01214FF204009F
:1050A00002F0AAFC0D214FF4304002F0A5FC0D21C6
:1050B0004BF2010002F0A0FC0D214BF2020002F0C5
:1050C0009BFC34214FF4364002F096FC34214BF225
:1050D000016002F091FC34214BF2026002F08CFC82
:1050E0000D214FF4314002F087FC0D214BF20110ED
:1050F00002F082FC0D214BF2021002F07DFC342103
:105100004FF4374002F078FC34214BF2017002F08A
:1051100073FC34214BF2027002F06EFC00214FF45C
:10512000324002F069FC00214BF2012002F064FCE5
:1051300000214BF2022002F05FFC24214FF43840A2
:1051400002F05AFC24214BF6010002F055FC242108
:105150004BF6020002F050FC01214FF43F4002F0F8
:105160004BFC0F214FF4334002F046FC0F2100E0CE
:10517000FEE34BF2013002F03FFC0F214BF2023014
:1051800002F03AFC34214FF4394002F035FC34216E
:105190004BF6011002F030FC34214BF6021002F005
:1051A0002BFC08214FF4354002F026FC08214BF27D
:1051B000015002F021FC08214BF2025002F01CFCCD
:1051C00003214FF4424002F017FC24214FF43A40EF
:1051D00002F012FC24214BF6012002F00DFC2421E8
:1051E0004BF6022002F008FC00214FF43C4002F094
:1051F00003FC78214BF6014002F0FEFB00214BF648
:10520000024002F0F9FB00214FF43D4002F0F4FBB4
:1052100078214BF6015002F0EFFB00214BF60250D3
:1052200002F0EAFB00214FF43E4002F0E5FB64216E
:105230004BF6016002F0E0FB00214FF4514002F018
:10524000DBFB33214DF2011002F0D6FB00214DF2C1
:10525000021002F0D1FB34214DF2031002F0CCFB1E
:1052600000214DF2041002F0C7FB3A214DF2051067
:1052700002F0C2FB00214DF2061002F0BDFB4A21F4
:105280004DF2071002F0B8FB00214DF2081002F0B9
:10529000B3FB5C214DF2091002F0AEFB00214DF290
:1052A0000A1002F0A9FB81214DF20B1002F0A4FBC1
:1052B00000214DF20C1002F09FFBA6214DF20D10C3
:1052C00002F09AFB00214DF20E1002F095FBE52151
:1052D0004DF20F1002F090FB01214DF2101002F080
:1052E0008BFB13214DF2111002F086FB01214DF2D0
:1052F000121002F081FB54214DF2131002F07CFBDE
:1053000001214DF2141002F077FB82214DF21510AD
:1053100002F072FB01214DF2161002F06DFBCA2162
:105320004DF2171002F068FB02214DF2181002F046
:1053300063FB00214DF2191002F05EFB02214DF2D9
:105340001A1002F059FB01214DF21B1002F054FB20
:1053500002214DF21C1002F04FFB34214DF21D10C2
:1053600002F04AFB02214DF21E1002F045FB6721BC
:105370004DF21F1002F040FB02214DF2201002F00E
:105380003BFB84214DF2211002F036FB02214DF24D
:10539000221002F031FBA4214DF2231002F02CFB6D
:1053A00002214DF2241002F027FBB7214DF2251007
:1053B00002F022FB02214DF2261002F01DFBCF214C
:1053C0004DF2271002F018FB02214DF2281002F0D6
:1053D00013FBDE214DF2291002F00EFB02214DF2EB
:1053E0002A1002F009FBF2214DF22B1002F004FB0F
:1053F00002214DF22C1002F0FFFAFE214DF22D1089
:1054000002F0FAFA03214DF22E1002F0F5FA102103
:105410004DF22F1002F0F0FA03214DF2301002F09D
:10542000EBFA33214DF2311002F0E6FA03214DF28E
:10543000321002F0E1FA6D214DF2331002F0DCFA85
:1054400000214FF4524002F0D7FA33214DF20120EF
:1054500002F0D2FA00214DF2022002F0CDFA01E072
:105460009404002034214DF2032002F0C5FA0021FB
:105470004DF2042002F0C0FA3A214DF2052002F06C
:10548000BBFA00214DF2062002F0B6FA4A214DF295
:10549000072002F0B1FA00214DF2082002F0ACFA28
:1054A0005C214DF2092002F0A7FA00214DF20A20FA
:1054B00002F0A2FA81214DF20B2002F09DFA0021A8
:1054C0004DF20C2002F098FAA6214DF20D2002F0C8
:1054D00093FA00214DF20E2002F08EFAE5214DF2F2
:1054E0000F2002F089FA01214DF2102002F084FA17
:1054F00013214DF2112002F07FFA01214DF212200A
:1055000002F07AFA54214DF2132002F075FA0121CB
:105510004DF2142002F070FA82214DF2152002F0B3
:105520006BFA01214DF2162002F066FACA214DF203
:10553000172002F061FA02214DF2182002F05CFA05
:1055400000214DF2192002F057FA02214DF21A20E3
:1055500002F052FA01214DF21B2002F04DFA022115
:105560004DF21C2002F048FA34214DF21D2002F0C9
:1055700043FA02214DF21E2002F03EFA67214DF25D
:105580001F2002F039FA02214DF2202002F034FAF5
:1055900084214DF2212002F02FFA02214DF2222027
:1055A00002F02AFAA4214DF2232002F025FA02216A
:1055B0004DF2242002F020FAB7214DF2252002F00E
:1055C0001BFA02214DF2262002F016FACF214DF2ED
:1055D000272002F011FA02214DF2282002F00CFAE5
:1055E000DE214DF2292002F007FA02214DF22A2095
:1055F00002F002FAF2214DF22B2002F0FDF9022115
:105600004DF22C2002F0F8F9FE214DF22D2002F08F
:10561000F3F903214DF22E2002F0EEF910214DF2A4
:105620002F2002F0E9F903214DF2302002F0E4F9D5
:1056300033214DF2312002F0DFF903214DF2322007
:1056400002F0DAF96D214DF2332002F0D5F9002194
:105650004FF4534002F0D0F933214DF2013002F003
:10566000CBF900214DF2023002F0C6F934214DF29F
:10567000033002F0C1F900214DF2043002F0BCF910
:105680003A214DF2053002F0B7F900214DF2063013
:1056900002F0B2F94A214DF2073002F0ADF90021D3
:1056A0004DF2083002F0A8F95C214DF2093002F009
:1056B000A3F900214DF20A3002F09EF981214DF24A
:1056C0000B3002F099F900214DF20C3002F094F900
:1056D000A6214DF20D3002F08FF900214DF20E306F
:1056E00002F08AF9E5214DF20F3002F085F901212F
:1056F0004DF2103002F080F913214DF2113002F01A
:105700007BF901214DF2123002F076F954214DF26D
:10571000133002F071F901214DF2143002F06CF9EE
:1057200082214DF2153002F067F901214DF2163059
:1057300002F062F9CA214DF2173002F05DF9022140
:105740004DF2183002F058F900214DF2193002F0F4
:1057500053F902214DF21A3002F04EF901214DF2B7
:105760001B3002F049F902214DF21C3002F044F9DD
:1057700034214DF21D3002F03FF902214DF21E306E
:1057800002F03AF967214DF21F3002F035F902219B
:105790004DF2203002F030F984214DF2213002F038
:1057A0002BF902214DF2223002F026F9A4214DF20C
:1057B000233002F021F902214DF2243002F01CF9CD
:1057C000B7214DF2253002F017F902214DF22630B3
:1057D00002F012F9CF214DF2273002F00DF902212B
:1057E0004DF2283002F008F9DE214DF2293002F0A6
:1057F00003F902214DF22A3002F0FEF8F2214DF2B7
:105800002B3002F0F9F802214DF22C3002F0F4F8BE
:10581000FE214DF22D3002F0EFF803214DF22E3033
:1058200002F0EAF810214DF22F3002F0E5F80321E2
:105830004DF2303002F0E0F833214DF2313002F019
:10584000DBF803214DF2323002F0D6F86D214DF233
:10585000333002F0D1F800214FF4544002F0CCF87C
:1058600033214DF2014002F0C7F800214DF2024011
:1058700002F0C2F834214DF2034002F0BDF80021DD
:105880004DF2044002F0B8F83A214DF2054002F022
:10589000B3F800214DF2064002F0AEF84A214DF275
:1058A000074002F0A9F800214DF2084002F0A4F8E8
:1058B0005C214DF2094002F09FF800214DF20A40B0
:1058C00002F09AF881214DF20B4002F095F8002188
:1058D0004DF20C4002F090F8A6214DF20D4002F07E
:1058E0008BF800214DF20E4002F086F8E5214DF2D2
:1058F0000F4002F081F801214DF2104002F07CF8D7
:1059000013214DF2114002F077F801214DF21240BF
:1059100002F072F854214DF2134002F06DF80121AB
:105920004DF2144002F068F882214DF2154002F069
:1059300063F801214DF2164002F05EF8CA214DF2E3
:10594000174002F059F802214DF2184002F054F8C5
:1059500000214DF2194002F04FF802214DF21A4099
:1059600002F04AF801214DF21B4002F045F800E038
:1059700004E302214DF21C4002F03EF834214DF2C6
:105980001D4002F039F802214DF21E4002F034F8B9
:1059900067214DF21F4002F02FF802214DF2204006
:1059A00002F02AF884214DF2214002F025F802216C
:1059B0004DF2224002F020F8A4214DF2234002F0E3
:1059C0001BF802214DF2244002F016F8B7214DF2E7
:1059D000254002F011F802214DF2264002F00CF8A9
:1059E000CF214DF2274002F007F802214DF2284066
:1059F00002F002F8DE214DF2294001F0FDFF022104
:105A00004DF22A4001F0F8FFF2214DF22B4001F057
:105A1000F3FF02214DF22C4001F0EEFFFE214DF28A
:105A20002D4001F0E9FF03214DF22E4001F0E4FF8B
:105A300010214DF22F4001F0DFFF03214DF23040E5
:105A400001F0DAFF33214DF2314001F0D5FF03219F
:105A50004DF2324001F0D0FF6D214DF2334001F0A4
:105A6000CBFF00214FF4554001F0C6FF33214DF22A
:105A7000015001F0C1FF00214DF2025001F0BCFFC6
:105A800034214DF2035001F0B7FF00214DF20450D4
:105A900001F0B2FF3A214DF2055001F0ADFF0021B7
:105AA0004DF2065001F0A8FF4A214DF2075001F0D7
:105AB000A3FF00214DF2085001F09EFF5C214DF242
:105AC000095001F099FF00214DF20A5001F094FFB6
:105AD00081214DF20B5001F08FFF00214DF20C504F
