:020000040800F2
:10000000C0D20120250300087132000883310008A6
:100010006D320008B52A00081360000800000000D7
:100020000000000000000000000000002154000853
:10003000AD2E0008000000004537000839550008C3
:100040003F0300083F0300083F0300083F03000888
:100050003F0300083F0300083F0300083F03000878
:100060003F0300083F0300083F0300083F03000868
:100070003F0300083F0300083F0300083F03000858
:100080003F0300083F0300083F0300083F03000848
:100090003F0300083F0300083F0300083F03000838
:1000A0003F0300083F0300083F0300083F03000828
:1000B0003F0300083F030008A55500083F03000860
:1000C0003F0300083F0300083F0300083F03000808
:1000D0003F030008655A0008255B0008795C0008AA
:1000E0003F0300083F0300083F0300083F030008E8
:1000F0003F0300083F0300083F0300083F030008D8
:100100003F030008F93900083F0300083F030008D7
:10011000BD570008115900083F030008DD550008CD
:100120003F0300083F0300083F0300083F030008A7
:100130003F0300083F0300083F0300083F03000897
:100140003F0300083F0300083F0300083F03000887
:100150003F0300083F0300083F0300083F03000877
:100160003F0300083F0300083F0300083F03000867
:100170003F0300083F0300083F0300083F03000857
:100180003F0300083F03000800F002F800F0B2F857
:100190000AA090E8000C82448344AAF10107DA45E2
:1001A00001D100F0A7F8AFF2090EBAE80F0013F082
:1001B000010F18BFFB1A43F00103184790F5000028
:1001C000B0F500000A444FF0000C10F8013B13F0AA
:1001D000070408BF10F8014B1D1108BF10F8015BA0
:1001E000641E05D010F8016B641E01F8016BF9D193
:1001F00013F0080F1EBF10F8014BAD1C0C1B09D1EA
:100200006D1E58BF01F801CBFAD505E014F8016B5B
:1002100001F8016B6D1EF9D59142D6D370470000ED
:100220000023002400250026103A28BF78C1FBD8FF
:10023000520728BF30C148BF0B6070476E2900F0DD
:10024000E184702900F09B8166290EF0858765297D
:100250000EF0828767290EF07F876129AFF3008057
:1002600003681B0A28BF41F08001692900F00C8156
:10027000642900F00981752900F006816F2900F0DA
:10028000E787782900F06781E92900F08187E42970
:1002900000F07E87F52900F07B87EF2900F0E487E6
:1002A000F82900F066810368DB0928BF41F080016E
:1002B000632900F0F086732900F0F586E32901F048
:1002C0000581F32901F00A81002070471FB50EF067
:1002D00039FF01F05FF80400002000210EF000F962
:1002E000401C6060002000210EF010F9E0601FBD8E
:1002F00010B510BD01F0F8F91146FFF7E7FF0AF05D
:100300005FFF01F077FC03B4FFF7F2FF03BC07F0D7
:10031000B8F8000030BF72B6704762B6704780F31D
:10032000088870470948804709480047FEE7FEE70C
:10033000FEE7FEE7FEE7FEE7FEE7FEE7FEE7FEE795
:1003400004480549054A064B704700003D55000822
:1003500089010008C0CC0120C0D20120C0CE0120FC
:10036000C0CE0120704710B5044600F0C9FB0068FC
:10037000005DC00602D504F1200010BD204610BD6E
:100380001CB50C46064B7B4469460090204600F0A5
:1003900060FE04460020694600F06EFE20461CBD4B
:1003A000EF0C00000FB4044910B503AA029800F046
:1003B0007FFE10BC5DF814FB040000200FB41CB5D8
:1003C000084B06AA7B4469460090059800F041FE60
:1003D00004460020694600F04FFE20461CBC5DF834
:1003E00014FB0000B10C000070B50446856900687C
:1003F000C10601D5302600E02026C00707D070BD19
:10040000D4E9012130469047206A401C20626D1ECD
:10041000F6D570BD70B5044685690078C00707D170
:1004200070BDD4E9012120209047206A401C206241
:100430006D1EF6D570BD70B50C460546012A05D077
:100440002878800600D5EA69002302E0012305E050
:100450005B1C934202D2E05C0028F9D1A869E6183F
:10046000C01AA861286A184428622846FFF7BCFF12
:1004700004E0D5E9012114F8010B9047B442F8D308
:100480002846FFF7C7FF70BD2DE9F041064600245E
:1004900010687529314616A510D000F048FB0028D9
:1004A00002DA404213A507E031688A0701D512A598
:1004B00002E0490704D511A5012401E000F040FB4A
:1004C00000210A2206F1240709E0B0FBF2FCB0FB90
:1004D000F2F302FB1C00303078541846491C002807
:1004E000F3D123462A463046BDE8F04100F031BB47
:1004F000000000002D0000002B0000002000000084
:10050000F0B40D460188090502D5214C7C4402E077
:100510001F4C7C440E34002100F1240608E002F058
:100520000F071209E75D42EA03721B097754491C61
:1005300052EA0307F3D102780023120704D5702D85
:1005400006D009B1022311342246F0BC00F001BBF1
:1005500001231034F8E770B504460D4621461068B3
:1005600000F0EEFA024629462046BDE8704000231E
:10057000C6E7D21D22F00703D3E90023C0E70368D2
:10058000126843F0200303600823C3610023B7E728
:1005900073EE00002DE9F05F894604464FF0000A33
:1005A000DFF874B1FB44C0F820A02046E16888471A
:1005B000002874D0252806D0D4E901219047206A6C
:1005C000401C2062F1E700265F462046E16888472C
:1005D0002028054607DB312D05D2781910F8200CAC
:1005E00008B10643F1E7B00701D526F00406C4F8C8
:1005F0001CA00027C4F818A02A2D09D0284606F010
:1006000039FF38B304EB8708303DC8F8185019E0BB
:1006100059F8041B204604EB87029161E168884782
:10062000012F054618D1E069002820DA26F02006BF
:100630001DE0D8F8180000EB800005EB40003038D2
:10064000C8F818002046E1688847054606F012FF02
:100650000028EED1012F0AD02E2D08D12046E168C6
:1006600088477F1C0546022F46F02006C4DBA069A0
:10067000002803DA404246F00106A061F00701D0ED
:1006800026F010066C2D0BD0682D09D04C2D39D0DA
:100690006A2D35D0742D35D07A2D33D016E038E060
:1006A000E1682F4620468847B842054609D16C2F9D
:1006B00026D04FF48060E16806432046884705460F
:1006C00004E06C2F1AD04FF4807006430DB3A5F1EF
:1006D0004100192802D8203546F400664A462946CA
:1006E000204626604E46FFF7A9FD80B101280BD0B9
:1006F000F61D26F0070000F1080956E74020E4E760
:100700008020D8E70020D6E706F104094DE7284607
:1007100052E7206ABDE8F09F03EE000070B5064680
:1007200000F0F6F90468054630460A22002100F080
:10073000F5FD2C6070BD401ECAB210F8011F8A4240
:1007400002D00029F9D10020704730B505460B468C
:100750002A4613F8014B12F8010B08B1A042F8D059
:100760001CB1002802D06D1CF1E7284630BD40EADC
:100770000103024630B59B0710D14FF0013400E071
:1007800008C208C91D1B9D4315EAC41FF8D013F009
:10079000FF0102F8011B0DD01B0AF8E711F8013B1D
:1007A000002B02F8013B05D011F8013B002B02F8A9
:1007B000013BF3D130BD10B5431C02E010F8011B22
:1007C00071B18107FAD14FF0013202C88C1A8C4303
:1007D00014EAC211F9D0C01A0A0603D0C01E10BD17
:1007E000C01A10BD0A0401D0801E10BD0902FCD041
:1007F000401E10BD40EA010370B59B072ED14FF09B
:100800000136042A2AD308C810C99D1B9D43121F14
:1008100015EAC61517D0D8B2E1B2401A50EA056100
:1008200010D198B2A1B2401A50EA05410AD123F082
:100830007F4024F07F41401A50EA052102D1180E72
:10084000A0EB146070BDA342DBD018BA21BA884275
:1008500001D9012070BD4FF0FF3070BD0AB90020F2
:1008600070BD10F8013B11F8014B63B1A3420AD1EE
:10087000521E08D010F8013B11F8014B1BB1A342E6
:1008800001D1521EEDD1181B70BD421E12F8013F5E
:10089000002BFBD111F8013B002B02F8013BF9D1F1
:1008A0007047032A40F2308010F0030C00F01580EE
:1008B00011F8013BBCF1020F624498BF11F801CB63
:1008C00000F8013B38BF11F8013BA2F1040298BFC8
:1008D00000F801CB38BF00F8013B11F0030300F032
:1008E0002580083AC0F0088051F8043B083A51F8D6
:1008F00004CBA0E80810F5E7121D5CBF51F8043BDB
:1009000040F8043BAFF30080D20724BF11F8013B4D
:1009100011F801CB48BF11F8012B24BF00F8013BAF
:1009200000F801CB48BF00F8012B704710B5203A02
:10093000C0F00B80B1E81850203AA0E81850B1E898
:100940001850A0E81850BFF4F5AF5FEA027C24BF4E
:10095000B1E81850A0E8185044BF18C918C0BDE845
:1009600010405FEA827C24BF51F8043B40F8043B0E
:1009700008BF7047D20728BF31F8023B48BF11F8C3
:10098000012B28BF20F8023B48BF00F8012B70471D
:100990004FF000020429C0F0128010F0030C00F0A8
:1009A0001B80CCF1040CBCF1020F18BF00F8012B26
:1009B000A8BF20F8022BA1EB0C0100F00DB85FEAF4
:1009C000C17C24BF00F8012B00F8012B48BF00F8C0
:1009D000012B70474FF0000200B51346944696462F
:1009E000203922BFA0E80C50A0E80C50B1F1200142
:1009F000BFF4F7AF090728BFA0E80C5048BF0CC0F0
:100A00005DF804EB890028BF40F8042B08BF70474D
:100A100048BF20F8022B11F0804F18BF00F8012BBF
:100A2000704710B5044610F0030F08BF11F0030F14
:100A300040F015804FF0013E121FC0F20E8051F8B9
:100A4000043BA3EB0E0C2CEA030C1CEACE1C08BFE3
:100A500040F8043BF0D0A1F1040102F10402521E5F
:100A600008DB11F8013B002B00F8013BF7D11146E0
:100A7000FFF78EFF204610BD4FF0013C50F8042BCD
:100A800051F8043B9A4221D1A2EB0C03934313EAA1
:100A9000CC1317D150F8042B51F8043B9A4215D1CE
:100AA000A2EB0C03934313EACC130BD150F8042BA5
:100AB00051F8043B9A4209D1A2EB0C03934313EA89
:100AC000CC13DBD04FF00000704700BFD01A01BA42
:100AD000B1FA81F101F0180122FA01F0CB40C1F125
:100AE0002001DBB2C0B2C01A2CFA01F3D11A914333
:100AF00011EAC311E6D170477047704770477047DD
:100B000010B500F047FC001D10BD00BFD5D9000096
:100B10000048704760CC012010B5FFF7F9FF00686E
:100B200010BD10B50446FFF7F3FF046010BD09685F
:100B30004A0501D540B27047C905FCD500B27047DF
:100B400009684A0501D5C0B27047C905FCD580B215
:100B500070472DE9F0470D4699469246044600F14C
:100B600024080168880604D5E06921F0100121609D
:100B700000E00120A84201DD471B00E00027A16939
:100B80007A1902EB0900081AA0612078C00602D485
:100B90002046FFF729FC002608E0D4E901211AF8D5
:100BA00006009047206A401C761C20624E45F4DB0C
:100BB0002078C0060AD52046FFF716FC06E0D4E9E7
:100BC000012130209047206A401C2062381EA7F186
:100BD0000107F4DC07E0D4E9012118F8050090478B
:100BE000206A401C2062281EA5F10105F3DC204686
:100BF000FFF710FC2078000602D50220BDE8F08740
:100C00000120FBE711680268006A530501D50870EE
:100C10000AE0D30501D5088006E0130603D5C21704
:100C2000C1E9000200E008600120704770472DE92B
:100C3000FF4F0C461E464FF0FF378BB0D2E9000144
:100C4000DDF860800A908A46C1F30A5505B93D4631
:100C5000002108464FF00000BAF1000F00F44000F8
:100C600005DA00EB80004FF4400101EA50004FEA42
:100C70009059B9F1010F00DDB9460A9850EA4A00CF
:100C80000ED044F61050A5F2FF3545432F14B8F1AD
:100C9000000F1ED07542291E1EDDC9F100021CE0A6
:100CA000B8F1010F4FF0000001D0302103E0F24312
:100CB00005E02154401CB042FBDB304600220021FD
:100CC00021540B99C1F80880C1E900200FB0BDE89C
:100CD000F08FBD1B6D1CDEE74A4600DA694206A8AC
:100CE00000F070FC06AB93E8070003AB83E8070055
:100CF00050460A9901F0BDF98DE80700A0F50050B3
:100D00001F3800900398002D09DD42F21F014A466A
:100D1000084403A90390684601F047FC08E0A0F5E9
:100D200000504A461F3803A90390684601F065FC4D
:100D30008DE807000004000C03D04FF0FF3041089D
:100D400000E01046B8F1000F03D0002200921546D3
:100D50001EE0751E05D400F021FB303262556D1E79
:100D6000F9D5B3460122084302D000227F1C04E0DB
:100D70002078302801D100227F1E002A099786D0D2
:100D80001DE0112D07DA00F009FB303262556D1CB1
:100D900050EA0102F5D1084302D00098C8B10EE034
:100DA0000021681E05E0235C625C63542254401EEF
:100DB000491C8142F7DBAB46A81B401E099000206E
:100DC00004F80B000B98099AC0F80880C0E9002BC2
:100DD0007CE711264FF0000859E72DE9F04F8846CF
:100DE0000446D21D22F0070191B0D1E90001CDE9FE
:100DF0000A0105F0B7FA02460B98C00F01D02D206A
:100E000007E02068810701D52B2002E0202101EABC
:100E1000C000032A099001D0072A05DB034641469A
:100E2000204600F009FB0BE12078800601D5E0693F
:100E300000E00620B8F1650F814606D0B8F1660FD4
:100E400018D0B8F1670F70D131E00020B9F1110F5F
:100E5000009001DB112301E009F101030AAA01A9B5
:100E60000CA8FFF7E4FEDDE90C70002609F101058E
:100E7000834647E001204B4600904FF000470AAA06
:100E800001A90CA8FFF7D3FEDDE90DB00C995D4672
:100E9000002610B909F101000D18B9EB050003D4C3
:100EA000C0F1FF3609F10105A5EB09002BE0B9F10E
:100EB000010F01DA4FF001090020B9F1110F009084
:100EC000484601DD112300E003460AAA01A90CA847
:100ED000FFF7ADFEDDE90C704D4600268346207815
:100EE00000070AD4AB4500DA5D4601A8012D04DDF8
:100EF000411911F8011C302907D04F4502DA17F1CA
:100F0000040F04DA012082460FE06D1EEEE7002F89
:100F100002DCED1B3E4403E0781CA84200DD7D1C92
:100F2000B81B00F1010A4FF000472078000703D4F6
:100F3000AA4501DB4FF0FF3A0021B7F1004F0DF158
:100F400043088DF8431024D002202B23002F01DA10
:100F50007F422D230A21021EA0F1010000DC5FB1B7
:100F600097FBF1FC97FBF1F201FB1C7C17460CF19F
:100F7000300C08F801CDEEE7A8F1010003702188DC
:100F8000090501D5452100E06521A0F1010800F81F
:100F9000011C09980FA9A1EB0807FF1D00B1012052
:100FA000411901EBEA70A1693844081A401EA0619A
:100FB0002078C00602D42046FFF716FA099828B117
:100FC000D4E901219047206A401C20622078C006A5
:100FD00022D52046FFF708FA1EE0002E04DBB345B9
:100FE00002DD01A8805D00E03020D4E901219047B6
:100FF000206A401C2062761CAAF101005FEA000A08
:101000000AD100F0C7F9C0680168405CD4E9012149
:101010009047206A401C2062281EA5F10105DCDCF7
:1010200007E0D4E9012118F8010B9047206A401C21
:101030002062381EA7F10107F3DC2046FFF7EAF92A
:10104000032011B043E6000001694A1C02610878E0
:10105000704700B58FB0CDE90131002105910549F8
:101060007944CDE9031011466846FFF793FA0FB0B3
:1010700000BD0000E5FFFFFF0A6802F8010B0A60EF
:10108000704710B5436913B1AFF3008001E0FFF77B
:10109000D2F9012010BD127800F124010A7000225B
:1010A0004A700122EDE711684FF0FF32E9E70000D6
:1010B000074B70B50D467B44FFF7CBFF044628462F
:1010C00000F0EEFA10B14FF0FF3070BD204670BD59
:1010D000B38300002DE9FF5F15468A460446DFF81A
:1010E000AC80F8440027D8E900103E46CDE9001056
:1010F00010E03AF816106A4602A800F0D5FA411C32
:1011000007D02178890603D5E269391891420DD8B4
:101110000744761C2078800602D5E069B84205DDD8
:10112000AE42E6DB3AF816000028E2D1A069C01B07
:10113000A0612046FFF758F9D8E90010CDE900106A
:10114000002017E03AF818106A4602A800F0ACFA3E
:10115000B0F1FF3F81460BD000250DF1080B05E0F3
:10116000D4E901211BF8050090476D1C4D45F7D3CC
:1011700008F10100B0428046E4DB206A3844206276
:101180002046FFF747F9BDE8FF9F000062E300003B
:101190002DE9F0418046D21D22F007020025D2E958
:1011A0000002F52915A614D0011E72F1000106DA1D
:1011B0000023D0EB030063EB020211A608E0D8F88D
:1011C00000108B0701D50FA602E0490701D50EA636
:1011D00001251146002408F1240704E000F0DEF8A0
:1011E00030323A55641C50EA0102F7D12B463246A0
:1011F00021464046BDE8F041FFF7ABBC00000000CF
:101200002D0000002B0000002000000030B4002161
:1012100000F1240408E002F00705D208303542EA64
:101220004372DB086554491C52EA0305F3D1046894
:10123000002310A2250708D504F020040C4304D095
:10124000C46901230CA2641EC46130BCFFF781BCD9
:1012500010B5044621461068FFF772FC024620468E
:10126000BDE810400023D1E7D21D22F00701D1E9EB
:101270000023CBE700000000300000000FB4002383
:1012800000B589B00CA900910B99CB60204B7B4431
:101290000693204B7B44079304236FF00042CDE973
:1012A00001321D4A7A446B460892024600200DF036
:1012B000B5FF09B05DF814FB70B506464FF0FF307E
:1012C00015460C46324686B00091CDE901016946CB
:1012D0000020049004A8FFF7D1FF034604982118CA
:1012E00025B108B10A4600E022462A6000280DD048
:1012F000002B02DD0098884208D03246081B694660
:101300000094CDE9010404A8FFF7B8FF06B070BD52
:10131000530200006B0200007F0100002DE9F0473E
:1013200091460F4680460446002614F8015B2DB115
:10133000FFF7E6FB0068405DC007F6D12B2D02D019
:101340002D2D18D0641E4A463946204600F0EAF892
:1013500027B13968A14201D1C7F800804FF00204DB
:1013600071050BD54042002803DDFFF7D1FB046077
:10137000A007BDE8F08746F48066E4E70028F8DAC5
:10138000FFF7C6FB04606FF00040F2E700487047CB
:1013900060CC01200048704780CC012030B5B0F10E
:1013A0000A024FEA900E71F100034EEA817EB0EB23
:1013B0000E0061EB91014FEA101E4EEA017E10EB28
:1013C0000E0041EB11114FEA102E4EEA016E10EBA8
:1013D0000E0041EB11214FEA104E4EEA014E10EB88
:1013E0000E0041EB1141401841F100014FEAD000DD
:1013F00040EA41704FEAD10110EB80054FEA8104C9
:1014000044EA907444EB01046D1944EB0404521B4C
:10141000A3414FF0000348BF0A3200D530BD401C45
:1014200041F1000130BD10B50446FFF769FB0068CB
:10143000005D00F0010010BD2DE9F0411F4604469B
:1014400003260168072A01F4006004DB08B116A531
:1014500005E016A503E008B115A500E015A521F0EB
:1014600010002060A069C01EA0610FB1401EA061E5
:101470002046FEF7B9FF4FB1D4E901213846904725
:10148000206A401C2062C01C206206E0206AFAE745
:10149000D4E9012115F8010B9047761EF8D22046B9
:1014A000FEF7B8FFBDE8F0814E414E006E616E0060
:1014B000494E4600696E660010B5436913B1AFF33B
:1014C000008001E0FFF706FE012010BD128800F148
:1014D000240182840022C2840122EDE711684FF0CA
:1014E000FF32E9E7426842B1016811F8013B23B1DC
:1014F000521EC0E90012184670470121C160881EC3
:10150000704742685AB1C368016843B983688B4227
:1015100005D0491E521CC0E90012002070474FF050
:10152000FF3070472DE9F05F824615468B46002755
:101530000AF10104B9460078302801D09DB113E0CA
:1015400014F8010B0127782803D0582801D045B1A1
:101550000AE00DB1102D07D1002714F8010B10255A
:1015600002E0082500E00A250026B0460EE005FB53
:10157000080005FB06F101271FFA80F801EB104671
:10158000B6F5803F00D3B94614F8010B294600F0A8
:10159000D0F80028EBDABBF1000F05D00FB1641EC4
:1015A00000E05446CBF80040B9F1000F06D0FFF739
:1015B000AFFA02210160C81EBDE8F09F48EA06406C
:1015C000FAE700002DE9F047814616468AB0334815
:1015D00078440DC88DE80D0030487844801C03AC79
:1015E0000DC884E80D0041F69B300844372190FB7C
:1015F000F1F290FBF1F5A5F1800501FB12041B3C13
:1016000002D56442012000E00020DFF890A080466F
:101610000027FA44AAF1BE0A0DE0E00709D03246DD
:10162000684607EB47010AEB810100F0E6FF8DE811
:10163000070064107F1C002CEFD1184F7F44AC3F93
:1016400018E0E80714D007EB04100DF1180A90E831
:101650000E008AE80E00C068F04201D19819089087
:10166000324606A903A800F0C8FF03AB83E80700D1
:101670006D10641C002DE4D132466946B8F1000FAC
:1016800003A802D000F091FF01E000F0B6FFC9E925
:101690000001C9F808200AB0BDE8F08700DF0000AB
:1016A000007B00F08000704770B516460C4605467A
:1016B000FFF726FA036893F80101012806D0FF2CF2
:1016C0000FD8185D68B101202C7070BDD3F80701E8
:1016D0003246214603F2071303442846BDE8704012
:1016E00018474FF0FF3070BD7546FFF74FFEAE460E
:1016F00005006946534620F00700854618B020B51E
:10170000FEF71EFEBDE820404FF000064FF0000738
:101710004FF000084FF0000B21F00701AC46ACE899
:10172000C009ACE8C009ACE8C009ACE8C0098D4606
:1017300070473A2800D2303820F02002412A01D3E5
:10174000A2F13700884201D34FF0FF30704700000C
:101750002DE9FF4F064689B00878FF2806D0491CBE
:101760002D2805D000244FF0000908E000200CE0EF
:101770000124F8E709EB8903491C00EB43090878C9
:10178000FF28F7D114B1C9F1000081461078002577
:101790002C46AA4629462D2801D02B2804D1521CBC
:1017A0002D2813D0002082468B461078FF280FD0BA
:1017B0004FF0000C0A21521CA5FB017804FB0181AB
:1017C00005FB0C11C5194BEB0104EEE70120EAE71C
:1017D000002108464FF00000BAF1000F02D000EBE4
:1017E00080004008C0F38158B8F1010F01DD4FF0CF
:1017F000FF380C9809EB000755EA040009D04FF0B8
:10180000020917F5FA7F0BDA4FEACA70C6E900B091
:1018100012E04FEACA70C6E900B00DB0BDE8F08F23
:10182000B7F5FA7F0DDDF0487844D0E90010C6E93D
:10183000001040EACA707060FFF76AF9C0F80090C3
:10184000EBE7391E02DAC8F1000200E0424600DA96
:10185000794206A8FFF7B6FE06AB93E8070003AB94
:1018600083E8070044F23E005BEA0401009058461A
:1018700004D144F21E012C465D460091210C09045E
:10188000014306D10099240444EA15442D0410397B
:10189000009104F07F41014306D10099240244EAFB
:1018A00015642D020839009104F07041014306D1FE
:1018B0000099240144EA15742D01091F009104F0D8
:1018C0004041014306D10099A40044EA9574AD005B
:1018D000891E009104F00041084304D100986D195D
:1018E0006441401E009042466846002FCDE9014504
:1018F00003A902DD00F095FE01E000F06AFEBAF1F6
:10190000000F04460D4601D084F0004440F2FF77FA
:1019100024F00040284303D0C4F30A50B84212D147
:10192000FFF7F6F8C0F80090C4F30A50B8420AD1A5
:10193000AE487844D0E90010C6E9001004F0004138
:101940000843706069E7C6E9005466E72DE9FF4F78
:101950001F464FF0000A4FF0FF38454691B0D7E9D7
:101960000146CDF83CA0FFF715FDC0680168405C5A
:101970001090B96912986D1C8847396A814688476A
:101980000028F6D1B9F1FF3F0AD0002E24F4D0642C
:1019900011DDB9F12B0F08D0B9F12D0F0BD102E0F9
:1019A000404615B03AE744F48064B96912986D1C5A
:1019B0008847761E8146600504A901D52D2000E0E8
:1019C0002B20002E01F1010B0DF130088DF81000D5
:1019D0003FDDB9F1690F08D0B9F1490F05D0B9F170
:1019E0006E0F02D0B9F14E0F1CD13B4601A80095F5
:1019F00080E85002DDE912126FF002000DF012FCD7
:101A0000C11CCED10EE0B96912986D1C8847814681
:101A10001398761E44F4007405600F98401C002E45
:101A20000F9016DDB9F1300FEDD0B9F1780F02D07B
:101A3000B9F1580F0DD10F9801280AD13B46CDE9D5
:101A40000054DDE91212001F02960DF0E9FBC11CE3
:101A5000A7D1109989453ED144F0800406E013993E
:101A6000681CAAF1010A44F400740860B9696D1C8D
:101A70001298761E884730288146F0D02BE01099C6
:101A8000894505D1200603D4761E44F0800418E071
:101A9000484605F0EFFC08B3761E0DF123018B4597
:101AA00044F4007408D2A9F130000BF8010B2006B1
:101AB00007D5AAF1010003E0200602D40AF10100D3
:101AC0008246A00502D51399681C0860B96912986E
:101AD0006D1C88478146002ED1DC53E0002E51DD7D
:101AE000B9F1650F02D0B9F1450F4BD1A00549D529
:101AF000B9696D1C1298761E24F440748847002E34
:101B000081460CDD2B2804D0B9F12D0F07D144F408
:101B10008074B96912986D1C8847761E8146E0056D
:101B200001D52D2100E02B2108F8011BCDF8008004
:101B300021E0761E0DF13901884544F400740CD281
:101B4000A9F1300010F0FF0088F8000002D10099E0
:101B5000884509D908F1010806E0E00501D52448C7
:101B600001E042F20F708246B96912986D1C8847F5
:101B7000814613980560002E04DD484605F07AFC86
:101B80000028D6D1F96912988847FF2053468BF870
:101B9000000088F8000000200A900B9004AA0CA90D
:101BA0000AA8FFF7D5FDA00502D46FF00100F8E602
:101BB00014F0240F0AD0E00714D13868DDE90A12C6
:101BC000031D3B600068C0E900120BE00AA96846EB
:101BD00005F0EAFBE00705D13868009A011D39607D
:101BE000006802602846DCE640DF000036DE0000C8
:101BF000F1D8FFFF0446AFF300802046FEF783FBD9
:101C00002DE9FF4F1F464FF03C0987B04FF00042CF
:101C1000DDE9141001F10108DDF858A002EA405096
:101C20000390002004908346054604460590B96958
:101C3000461E08988847AAF1010A0290BAF1000FDF
:101C400037DD02982E2815D01021FFF772FD0028ED
:101C50002ADB4FF0010B0499014316D0B9F1000FB4
:101C60000BDB4A46C11700F0F1F905430C43A9F11B
:101C7000040905E00120059007E008B145F00105E1
:101C800001200490059800B9361DB969089808F13B
:101C900001088847BBF1000FAAF1010A0290CDD0DC
:101CA0000999C1F80080C9E70298702808D0502827
:101CB00006D0F96908988847BBF1000F14D04FE0AF
:101CC000002002900120BBF1000F049009D0B969F7
:101CD000089808F101088847AAF10109B9F1000F35
:101CE00007DCF969089888476FF001000BB0BDE880
:101CF000F08F2B2804D02D280CD14FF0FF3004900A
:101D0000B969089808F101088847A9F10109B9F1F2
:101D1000000FE6DD411CE4D00A21FFF70AFD002890
:101D2000DFDB029908F1010801EB810100EB4100C2
:101D30000290B969089888470A21FFF7FAFC099AC6
:101D4000A9F10109B9F1000FC2F8008001DD0028F6
:101D5000E7DAF969089888470499029800FB016658
:101D600055EA040004D004F04041090002D006E026
:101D7000039898E0A40044EA9574AD00B61E04F000
:101D80000041080002D16D196441761E159810F0CB
:101D9000240F03D04FF00B095C4803E04FF02809F3
:101DA0006FF07D008246564507DAAAEB06018944AA
:101DB000B9F1410F01DD4FF0410901200021A9F1E6
:101DC000010200F043F9024628400B462140084337
:101DD00001D0012100E00021501E029143F1FF31AA
:101DE00028402140084301D0012000E00020029952
:101DF000834651EA0B014FD0002108464FF0000006
:101E0000039900F4400039B100EB80004FF4400129
:101E100000EBD07001EA60008015012802DD4FF070
:101E2000FF3000E013D0401C36D0029860B3BBF105
:101E3000000F0CD14A460120002100F007F928408C
:101E40002140084301D0012000E00020E0B1012042
:101E50004A46002100F0FAF8034640190A4661415B
:101E60002D1A8C4111D3B9F1400F09DD159810F0EE
:101E7000240F02D0AAF1340603E0AAF1170600E00D
:101E8000761C00254FF0004406E05B1E42F1FF3255
:101E900020EA030521EA0204CAF10100B04206DA91
:101EA0001B49039808430190002000900EE0039A1C
:101EB000C4F3D321E80A0A43164940EA44500A43CE
:101EC0003146CDE90002684605F0CAFA159810F0CF
:101ED000240F0BD01598C00715D13868DDE9001222
:101EE000031D3B600068C0E900120CE002A86946CF
:101EF00005F05AFA1598C00705D13868029A011DF5
:101F00003960006802604046F0E6000002FCFFFF16
:101F10000000F07F0000F03F2DE9FF4F92461D4684
:101F200085B04FF00041DDE9124BDDE914727F1EF0
:101F300001EA4B50414940F0FF4940EA01080021C5
:101F400022F020004928049102D04E2828D04CE0ED
:101F50003BA0012607C88DE80700A9690698641C04
:101F600088477F1E014606D41DF8060018B121F0EF
:101F7000200181420BD0E96906988847032E34D0AE
:101F8000082E32D06FF0010009B0BDE8F08F761C4A
:101F9000032E01D0082EE0D1601CCAF80000DCE757
:101FA000A9690698641C88477F1E2AD420F0200067
:101FB000412826D1A9690698641C88477F1E20D431
:101FC00020F020004E281CD1A9690698641C88477F
:101FD0007F1E48F4002849F48009CAF8004001D463
:101FE000282806D0E969069888475FEACB7012D0A6
:101FF00022E0A9690698641C88477F1E01D4002846
:1020000003DAE96906988847BCE72928F1D1641CFE
:10201000CAF80040E9E71BF0240F07D028680499AC
:10202000031D2B600068C0E9001805E02868021D48
:102030002A600068C0F800902046A5E70000F07F05
:10204000494E46494E49545900000000B2F1200360
:102050000AD5C2F1200301FA02F120FA03F300FAD3
:1020600002F041EA0301704700FA03F14FF000006B
:1020700070475FEA400C08BF91F0000F4FEA8C23D5
:102080004FEAC12243EA51514FEA1C5018BF00F5F4
:10209000F0404FEA300018BF41F000415FEA6C5C4D
:1020A00000F02980BCF1FF3F08BF40F0804070473E
:1020B000130C06BF12044FF0100C4FF0000C130E5F
:1020C00004BF12020CF1080C130F04BF12010CF133
:1020D000040C930F04BF92000CF1020CD30F04BF49
:1020E00052000CF1010C11464FF00002A0F11F004C
:1020F000A0EB0C00704711F0004F08BF704731F0A3
:1021000000413FF4D5AF0B0C06BF09044FF0100C93
:102110004FF0000C0B0E04BF09020CF1080C0B0F62
:1021200004BF09010CF1040C8B0F04BF89000CF1F2
:10213000020CCB0F04BF49000CF1010CCCF12003C1
:10214000A0EB0C0022FA03F302FA0CF241EA0301BD
:1021500000F10100704720F07F4C80EA030023F07B
:102160007F47ACEB070303F57C5300F0004003F11D
:10217000FF032DE980494FEA154B09B44FEA144398
:1021800025EA0B4E24EA03480FF2042606EB132738
:1021900049083E785FEA320203FB0667C7F500078D
:1021A00007FB06F64FEA54374FEAD64606F1020619
:1021B00007FB066CCCF1005C4FEA1C472CEA074C8D
:1021C00007FB06F40CFB06F504EB15464FEA9616E2
:1021D00034BF00204FF000404FEAD13706FB07FC28
:1021E0004FEA1C4C0CFB0BF7D21B03FB0CF761EB0B
:1021F00007010CFB0EF7B0EB074072EB17420CFB2C
:1022000008F734BFA2EB0742B2EB074261EB17417C
:102210004FEA0C444FEA910706FB07FC4FEA1C4CBF
:102220000CFB0BF7B0EBC74072EB573203FB0CF71C
:1022300034BFA2EBC742B2EBC74261EB57310CFB94
:102240000EF7B0EBC70072EB57720CFB08F734BF08
:10225000A2EBC702B2EBC70261EB5771039F4FEAD3
:10226000816141EA921104EBCC044FEAD1374FEA85
:10227000826206FB07FC42EA90124FEA80604FEA56
:102280001C4C0CFB0BF7D21B03FB0CF761EB07019B
:102290000CFB0EF7B0EB074072EB17420CFB08F794
:1022A00034BFA2EB0742B2EB074261EB17414FEAA2
:1022B0008C554FEA910704EB9C2406FB07FC4FEA80
:1022C0001C4C0CFB0BF7B0EBC74072EB573203FB17
:1022D0000CF734BFA2EBC742B2EBC74261EB5731F8
:1022E0000CFB0EF7B0EBC70072EB57720CFB08F754
:1022F00034BFA2EBC702B2EBC70261EB577115EB1B
:102300004C254FEA816141EA92114FEA82624FEA1D
:10231000D13742EA901206FB07FC44F100044FEA71
:1023200080604FEA1C4C0CFB0BF7D21B03FB0CF735
:1023300061EB07010CFB0EF7B0EB074072EB1742A5
:102340000CFB08F734BFA2EB0742B2EB074261EB8C
:10235000174115EB1C154FEA813141EA92414FEAD2
:10236000823242EA90424FEA80304FEA0C7644F1E2
:10237000000448EA03434EEA0B484FF0000EB2EB6C
:10238000080C71EB030724BF624639464EEB0E0E74
:102390004FF0000B0018524149414BEB0B0BB2EBD5
:1023A000080C71EB03077BF1000B24BF6246394632
:1023B0004EEB0E0E4FF0000B0018524149414BEB13
:1023C0000B0BB2EB080C71EB03077BF1000B24BF86
:1023D000624639464EEB0E0E51EA020718BF46F030
:1023E000010616EB0E7655F1000254F1000103D5FB
:1023F000BDE88901BDE80088BDE88901BDE8004865
:10240000B619524141EB0101A3F1010370478080ED
:102410007F7E7D7C7B7A797877767675747372713E
:1024200071706F6E6E6D6C6C6B6A6A6968686766F6
:1024300066656464636362616160605F5F5E5E5D88
:102440005D5C5C5B5B5A5A595958585757565655FC
:1024500055555454535352525251515050504F4F5E
:102460004F4E4E4D4D4D4C4C4C4B4B4B4A4A4A49AE
:1024700049494848484747474746464645454544F1
:1024800044444443434343424242424141410000A9
:1024900046EA0646A3F570534FEA164646EA425608
:1024A0004FEAD22242EA415210B54FEAD121A3F1BC
:1024B000010300F017F820F0004000F1010C00F0DB
:1024C000004701EB00501146BCF5006F40EA0700E1
:1024D00000D210BD02484FF0000140EA070010BDD5
:1024E0000000F07F002B26D4770021D01CB54FEAE6
:1024F000370703B44FF010004FF010014FF0000009
:102500000FBCBDE810400BF1010BBBF1010F08BF80
:102510005FEA170722BF12F1010211F101014FF02A
:10252000004143F1000300F0004043EA000070471F
:10253000F9D35708DAE746EA064613F1400F4FEAA7
:1025400016461FDD13F1200FDFBF16430A46002198
:1025500020335B42C8D0C3F1200746EA064602FAA0
:1025600007F74FEA164646EA0706C3F1200722FAA4
:1025700003F201FA07F721FA03F14FF0000342EAF0
:102580000702B1E746EA020646EA06464FEA164661
:1025900046EA0106BCBF46EA0646360C4FF0000389
:1025A0004FF000024FF000019EE72DE9C04893462E
:1025B00030B491E8380007C831EA400C48BF34EA2B
:1025C000430C03D5FFF7C7FDFFF78CFFF0BCBDE858
:1025D00000882DE9C048934630B491E8380007C818
:1025E00031EA400C48BF34EA430C03D5FFF7B3FD92
:1025F000FFF74EFFF0BCBDE800882DE9C0489346C8
:1026000030B491E8380007C810F0804F08BF13F0CD
:10261000804F03D100F019F8FFF764FFF0BCBDE86C
:1026200000882DE9C048934630B491E8380007C8C7
:1026300010F0804F08BF13F0804F03D100F005F871
:10264000FFF726FFF0BCBDE8008820F07F4780EA56
:10265000030023F07F4C07EB0C03A3F57C5300F041
:102660000040A3F1FE0392F0000F00F0B38095F05C
:10267000000F00F077802DE901494FEA11404FEA41
:10268000144621EA004800FB06FC24EA064708FB42
:1026900006F607FB08F800FB07F718EB06484CEBBB
:1026A000164C4FEA124B18EB07484FEA15464CEB15
:1026B000174022EA0B4E0BFB06FC25EA06470EFBF1
:1026C00006F607FB0EFE0BFB07F71EEB064E4CEB68
:1026D000164C4FF000061EEB074E4CEB174B18EB59
:1026E0000B0840F1000018EB0E0B58EB000840F10E
:1026F00000008F1A4FF000013CBFC943661B14BF96
:10270000B5EB040C00213CBFC943F61B4FEA17444C
:102710004EEA8E0E27EA04454FEA1C4704FB076287
:102720002CEA074C05FB07F70CFB05F604FB0CFC39
:1027300016EB074642EB174216EB0C4642EB1C42E7
:102740001BEB060658EB0202414146EA9E0601D504
:10275000BDE80189B619524141EB0101A3F1010322
:10276000BDE801894FEA14454FEA114724EA0546BE
:1027700021EA074C05FB07F406FB07F70CFB06F103
:1027800005FB0CFC11EB074144EB17444FEA1247E1
:1027900011EB0C4144EB1C4422EA074C05FB07F209
:1027A00006FB07F70CFB06F605FB0CFC16EB0746D1
:1027B00042EB174216EB0C4642EB1C456A1854F1EB
:1027C000000148BF7047B619524141EB0101A3F126
:1027D0000103704795F0000F37D04FEA11424FEADE
:1027E000144721EA024624EA074C02FB07F106FBE4
:1027F00007F70CFB06F402FB0CFC14EB074441EB5F
:1028000017414FEA154714EB0C4441EB1C4125EAF4
:10281000074C02FB07F506FB07F70CFB06F602FB6D
:102820000CFC16EB074645EB174516EB0C4645EB43
:102830001C42121951F1000148BF7047B6195241AC
:1028400041EB0101A3F1010370474FEA14454FEA40
:10285000114724EA054621EA074C05FB07F106FB70
:1028600007F70CFB06F24FF0000605FB0CFC12EB21
:10287000074241EB174112EB0C4251EB1C4148BFA0
:102880007047921841EB0101A3F10103704700006A
:102890000FE008F035FC0BF0C5FD0BF0E1FD00F09A
:1028A00007FB00F01DFB642005F0B6FE01A0FDF75C
:1028B00079FDEEE70D0A2066696E697368206F6E18
:1028C000652074696D652021210000002DE9F0412B
:1028D0002DED048B9AB0B0EE408AF0EE608A05468A
:1028E00023208DF8040021208DF8050005F0ECF977
:1028F00080462BA005F0F1F9064632462AA1404653
:1029000005F0B2F9B0EE480AF0EE680A05F0C4F935
:102910000646324628A1404605F0A6F928460CF0A6
:10292000C8F841EC190BB0EE490AF0EE690A05F05F
:10293000B3F90646324621A1404605F095F94046D6
:1029400005F06AFA0746404605F0D6F93846FDF725
:1029500032FF84B220128DF80600E0B28DF8070035
:102960002246394602A8FEF75CF82A2101AA201D5A
:102970001154E1B2384605F01DFE01AA611D505404
:102980002621A01D1154E01DC1B201A80AF068FB68
:10299000384604F079FD1AB0BDEC048BBDE8F08137
:1029A0003030303900000000627573696E657373F2
:1029B0005479706500000000585F56006D6F00008C
:1029C0002DE9F0412DED048B9AB0B0EE408AF0EE87
:1029D000608A054623208DF8040021208DF805002B
:1029E00005F072F980462BA005F077F906463246CD
:1029F0002AA1404605F038F9B0EE480AF0EE680A20
:102A000005F04AF90646324628A1404605F02CF961
:102A100028460CF04EF841EC190BB0EE490AF0EEE6
:102A2000690A05F039F90646324621A1404605F00B
:102A30001BF9404605F0F0F90746404605F05CF901
:102A40003846FDF7B8FE84B220128DF80600E0B2D9
:102A50008DF807002246394602A8FDF7E2FF2A2139
:102A600001AA201D1154E1B2384605F0A3FD01AAC8
:102A7000611D50542621A01D1154E01DC1B201A8B2
:102A80000AF07EFA384604F0FFFC1AB0BDEC048B65
:102A9000BDE8F081303031300000000062757369AC
:102AA0006E6573735479706500000000585F5600BE
:102AB0006D6F000000BFFEE770B500254FF4803455
:102AC00004E0802000F084FF00B103E02000A4F1C6
:102AD0000104F6D100BF0CB9032070BD40F2FF50D5
:102AE00000F04CFF2846F8E770B5044605E01648AC
:102AF000056805F0450000B100E0F8E700BF0420DC
:102B000000F066FF20B1042000F038FF032070BD04
:102B1000012000F05DFF20B1012000F02FFF012017
:102B2000F5E7094824380068A04201D01020EEE7FC
:102B300040F2FF5000F022FF0348203800680821CF
:102B40000840C0B2E3E70000342C014070B5002615
:102B50004FF4803505E01148046804F0450000B1E9
:102B600003E02800A5F10105F5D100BF15B104F07F
:102B7000040028B10326042000F000FF304670BD99
:102B8000012000F025FF18B10126012000F0F6FE1B
:102B900040F2FF5000F0F2FE3046F0E7342C0140E6
:102BA00010B505E00B48046804F0450000B100E0F2
:102BB000F8E700BF042000F00BFF20B1042000F074
:102BC000DDFE032010BD40F2FF5000F0D7FE0020D4
:102BD000F8E70000342C01402DE9F04105460E468F
:102BE0004FF0000805E02048076807F0450000B1F5
:102BF00000E0F8E700BF042000F0EAFE28B104205E
:102C000000F0BCFE0320BDE8F081012000F0E0FEF2
:102C100020B1012000F0B2FE0120F4E71248243870
:102C20000068A84201D01020EDE740F2FF5000F00C
:102C3000A5FE0D482038046804F4604018B9200C43
:102C400030804046DFE704F4005008B11320DAE793
:102C500004F4804008B11020D5E704F4004008B126
:102C60000F20D0E74046CEE7342C014070B5002657
:102C70004FF4803505E00F48046804F0450000B1CA
:102C800003E02800A5F10105F5D100BF15B104F05E
:102C9000040028B10326042000F070FE304670BD09
:102CA00004F0400018B10026402000F067FE3046D6
:102CB000F5E70000342C014021B1026842F0010226
:102CC000026003E0026822F0010202607047000027
:102CD000016821F001010160002101604160816013
:102CE000C1600161212141614A49884204D13D21ED
:102CF000484A103A91608CE046491831884205D123
:102D00004FF47461434A103A916082E04149303196
:102D1000884205D14FF474113E4A103A916078E030
:102D20003C494831884205D14FF07461394A103A24
:102D300091606EE037496031884204D13649354AA6
:102D4000103AD16065E033497831884204D1334983
:102D5000304A103AD1605CE02E499031884204D16B
:102D60002F492C4A103AD16053E02A49A8318842B1
:102D700005D14FF03D51274A103AD16049E0294929
:102D8000884204D13D21274A083A116041E0254993
:102D90001831884205D14FF47461224A083A116013
:102DA00037E020493031884205D14FF474111D4A73
:102DB000083A11602DE01B494831884205D14FF097
:102DC0007461184A083A116023E01649603188425C
:102DD00004D11149134A121F11601AE011497831C8
:102DE000884204D10D490F4A121F116011E00D49AC
:102DF0009031884204D10A490A4A121F116008E042
:102E00000849A831884204D14FF03D51054A121FAC
:102E100011607047106002403D000020400F00200C
:102E200000003D201064024021B1026842F02002FF
:102E3000026003E0026822F020020260704701464F
:102E400000200A6802F001020AB1012000E000201F
:102E50007047000010B500220268134B1A40CC687E
:102E60000B6823434C6923438C692343CC69234378
:102E70000C6A23434C6A23438C6A23434C6B2343E1
:102E80008C6B23431A430260426922F00702D1E9A6
:102E90000B3423431A4342610B6943604B688360E0
:102EA0008B68C36010BD00003F801CF070470000BD
:102EB00010B506A0FDF776FA05F090FA08F006FCCA
:102EC0000BF018FA05F0B6FF10BD00000D0A2065E2
:102ED0006E7465722044726F70476F6F6473000088
:102EE00010B507A0FDF75EFA05F044FA08F0F0FA15
:102EF0000BF04CFA05F01EFB05F0A6FD10BD00001E
:102F00000D0A20656E7465722044726F7050616E98
:102F1000000000002DE9FC4107460D460026002474
:102F200000200090019008205B4908601020486054
:102F3000402088600020C8604FF480600861084627
:102F400000F092FD1020FFF7CFFD044614B120469B
:102F5000BDE8FC815148008800044F4908603720D3
:102F60004860402088600020C8604FF4806008619D
:102F7000084600F079FD3720FFF7B6FD04460CB196
:102F80002046E5E74FF0FF304549086008204860DB
:102F9000302088600220C86000200861012048615C
:102FA000084600F0FBFC00203B49086033204860E5
:102FB000402088600020C8604FF4806008610846A7
:102FC00000F052FD3320FFF78FFD04460CB1204680
:102FD000BEE70CE04FF4001000F0FAFC38B13148C5
:102FE00000684DF82600761C022E00D307E02D481D
:102FF0004C38006840F22A6108400028EAD000BF3F
:10300000082000F0E5FC20B1082000F0B7FC042007
:103010009EE7022000F0DCFC20B1022000F0AEFCB4
:10302000022095E7202000F0D3FC20B1202000F002
:10303000A5FC06208CE74FF4007000F0C9FC28B115
:103040004FF4007000F09AFC072081E740F2FF5037
:1030500000F094FC00980006009901F47F4140EADA
:103060000120009901F47F0140EA1120009940EA13
:103070001160686001980006019901F47F4140EAFF
:103080000120019901F47F0140EA1120019940EAF1
:103090001160286020465BE75804002010000020E3
:1030A0006C040020802C0140F0B50A46002100236A
:1030B000002400BF3DE0012505FA01F3156805EA8B
:1030C00003049C4234D105684F000326BE40B5433B
:1030D000056015794E00B5400668354305601579E1
:1030E000012D02D01579022D16D185684F000326D7
:1030F000BE40B543856055794E00B540866835437E
:103100008560456801268E40B543456045689679DF
:103110008E40B6B235434560C5684F000326BE40B9
:10312000B543C560D5794E00B540C6683543C56026
:10313000491C1029BFD3F0BDF0B5002300244D0772
:10314000ED0E02FA05F3CE1000F1200555F82650D9
:103150004E07F70E0F26BE40B543CF1000F12006F4
:1031600046F82750CE1000F1200555F8265045EAC4
:103170000304CE1000F1200545F82640F0BD018380
:10318000704700BFFEE700001CB504460020019018
:103190000090224800880004214908600D20486002
:1031A000402088600020C8604FF4806008610846B5
:1031B00000F05AFC1B480068009002E019480068C3
:1031C0000090009800F045000028F7D0012000F0A2
:1031D000FFFB20B1012000F0D1FB01201CBD042029
:1031E00000F0F6FB20B1042000F0C8FB0320F5E757
:1031F0000C48243800680D2801D01020EEE740F27A
:10320000FF5000F0BBFB0748203800680190019890
:10321000C0F3432020700020E0E7000010000020F1
:1032200058040020342C01401CB50121112000F06D
:103230008BFA1C20009000208DF8040003208DF8EC
:10324000050001208DF8070069460648FFF72CFFAE
:103250000120009002208DF8070069460248FFF720
:1032600023FF1CBD001002400000024000BFFEE72B
:103270007047000070B5002100230F22C4781CB3F2
:10328000174C246804F4E064C4F5E064C4F3072137
:10329000C1F10404E3B20A4144789C40E1B284786D
:1032A000144021430C07210E0E4C0578615504781B
:1032B00004F01F050124AC4005786D11AD0005F147
:1032C000E025C5F8004109E0047804F01F05012459
:1032D000AC40054D0678761145F8264070BD0000DB
:1032E0000CED00E000E400E080E100E00249014371
:1032F000024A1160704700000000FA050CED00E082
:1033000070B5404800782D2800D170BD3D4804F0CC
:1033100041FD05463DB904F017FD064631463AA089
:10332000FDF740F8F1E73DA1284604F013FD0446FF
:1033300004B961E03DA12069FDF79EFBB0B93DA154
:10334000284604F007FD044604B955E03C4960698D
:1033500008603CA1284604F0FDFC044604B94BE09B
:103360003748001D2169FDF702FA45E038A12069C0
:10337000FDF782FB00283ED137A1284604F0EAFC85
:10338000044604B938E094ED061BB0EE410AF0EEB5
:10339000610A51EC100B0BF05DFB3049086030A165
:1033A000284604F0D7FC044604B925E094ED060B4A
:1033B0002C4880ED000B2CA1284604F0CBFC0446E1
:1033C00004B919E094ED060B284880ED000B28A104
:1033D000284604F0BFFC044604B90DE094ED061B3A
:1033E000B0EE410AF0EE610A51EC100B0BF032FB2B
:1033F0002049086000E000BF284604F07DFC00BFC3
:1034000083E700004C1B00204572726F72206265DA
:10341000666F72653A205B25735D0A006275736999
:103420006E6573735479706500000000303030377A
:10343000000000006572726F72436F6465000000E7
:1034400040CA01206572726F7244657363000000A8
:103450003030313100000000436F00004403002091
:10346000464400004803002042440000500300206E
:103470006D6F00005803002070B5404800782D287B
:1034800000D170BD3D4804F085FC05463DB904F00F
:103490005BFC064631463AA0FCF784FFF1E73DA10C
:1034A000284604F057FC044604B961E03DA12069B8
:1034B000FDF7E2FAB0B93DA1284604F04BFC044602
:1034C00004B955E03C49606988663CA1284604F08F
:1034D00041FC044604B94BE037486C302169FDF7E4
:1034E00046F945E038A12069FDF7C6FA00283ED12B
:1034F00037A1284604F02EFC044604B938E094EDC8
:10350000061BB0EE410AF0EE610A51EC100B0BF015
:10351000A1FA3049086030A1284604F01BFC04469B
:1035200004B925E094ED060B2C4880ED000B2CA18E
:10353000284604F00FFC044604B919E094ED060B8C
:10354000284880ED000B28A1284604F003FC04461F
:1035500004B90DE094ED061BB0EE410AF0EE610AED
:1035600051EC100B0BF076FA2049086000E000BF28
:10357000284604F0C1FB00BF83E70000FC1F0020C9
:103580004572726F72206265666F72653A205B25C4
:10359000735D0A00627573696E6573735479706543
:1035A0000000000030303038000000006572726F9B
:1035B00072436F646500000040CA01206572726F3B
:1035C0007244657363000000303031320000000047
:1035D000436F00005C0300204644000060030020AD
:1035E00042440000680300206D6F0000700300205B
:1035F00070B5364800782D2800D170BD334804F0EE
:10360000C9FB05463DB904F09FFB0646314630A094
:10361000FCF7C8FEF1E733A1284604F09BFB044603
:1036200004B94DE033A12069FDF726FAB8B933A1FA
:10363000284604F08FFB044604B941E03249606932
:10364000C1F8D00031A1284604F084FB044604B937
:1036500036E02D48D4302169FDF789F830E02EA1FD
:103660002069FDF709FA50B92DA1284604F072FB34
:10367000044604B924E02C496069086020E02BA1CD
:103680002069FDF7F9F950B925A1284604F062FB3D
:10369000044604B914E027496069086010E026A1D7
:1036A0002069FDF7E9F950B91DA1284604F052FB45
:1036B000044604B904E022496069086000E000BFE4
:1036C000284604F019FB00BF97E70000A41D002066
:1036D0004572726F72206265666F72653A205B2573
:1036E000735D0A00627573696E65737354797065F2
:1036F0000000000030303133000000006572726F4E
:1037000072436F646500000040CA01206572726FE9
:1037100072446573630000003030313500000000F2
:10372000526573756C7400003403002030303137FB
:103730000000000038030020303031390000000064
:103740003C0300207047000029B1064A126802437A
:10375000044B1A6004E0034A12688243014B1A606A
:10376000704700003038024029B1064A126802430F
:10377000044B1A6004E0034A12688243014B1A604A
:10378000704700004038024029B1064A12680243DF
:10379000044B1A6004E0034A12688243014B1A602A
:1037A000704700002038024029B1064A12680243DF
:1037B000044B1A6004E0034A12688243014B1A600A
:1037C000704700004438024029B1064A126802439B
:1037D000044B1A6004E0034A12688243014B1A60EA
:1037E0007047000024380240F0B500210022002478
:1037F000022500260223324F3F6807F00C0121B159
:10380000042905D0082937D105E02E4F076036E09E
:103810002D4F076033E02A4F3F1F3F68C7F38056A4
:10382000274F3F1F3F6807F03F036EB1264FB7FB9E
:10383000F3F7DFF88CC0ACF1040CDCF800C0CCF37B
:10384000881C07FB0CF40CE01E4FB7FBF3F7DFF806
:1038500070C0ACF1040CDCF800C0CCF3881C07FB92
:103860000CF4174F3F1F3F68C7F301477F1C7D00D3
:10387000B4FBF5F7076002E0124F076000BF00BF1E
:103880000F4F3F6807F0F0010909104F7A5C076895
:10389000D74047600A4F3F6807F4E051890A0B4F51
:1038A0007A5C4768D7408760054F3F6807F46041FE
:1038B000490B064F7A5C4768D740C760F0BD0000EF
:1038C000083802400024F40000127A004D00002065
:1038D0007CB50546002400200090019000260DB123
:1038E000022600E000262248006800F0007008B1BF
:1038F0000E207CBD1F49098888B26946FFF70AFB84
:1039000004460CB12046F4E7019800F4802060B32F
:103910001848008800041849086037204860402093
:1039200088600020C8604FF480600861084600F09D
:103930009BF83720FFF7D8F804460CB12046D8E7AB
:103940000D48066006200C49486040208860002031
:10395000C8604FF480600861084600F085F80620D2
:10396000FFF7C2F804462046C3E72520C1E7000060
:10397000142C014010000020580400200149086068
:1039800070470000382C01400146034A106820F0BF
:10399000FF00084310607047042C014000210B4BCE
:1039A00002681A601B1D42681A601A1D116821F016
:1039B000F701D0E902231A4303691A4343691A4302
:1039C0001143024A0832116070470000242C014064
:1039D00001460020034A12680A400AB1012000E0B3
:1039E00000207047342C01400248006800F00300BA
:1039F00070470000002C014010B500F07FFC10BDA6
:103A000000210A4A116847F6FF629143027D8368EC
:103A10001A4343681A43C3681A4303681A43036985
:103A20001A431143014A116070470000042C014001
:103A300000200B490860091D0860091D0860091D68
:103A40000860074924310860091D0860091D0860E5
:103A500004480349383108600020091D0860704798
:103A6000002C0140FF07C0000021094B02681A60CA
:103A70001A1D11686FF30A01D0E901231A43C368C4
:103A80001A4303691A431143014A121D116070471A
:103A9000082C01400149086070470000002C0140DB
:103AA00070B590B004460E46154600BF1A48FFF7A1
:103AB000C6F90028FAD11848FFF70AF94FF000605C
:103AC00001901648029003940495002005900690FA
:103AD0004FF48060079080000890800009900020DB
:103AE0000A904FF440300B9004200C9003200D906E
:103AF0004FF400000E9080100F9001A90648FFF7C8
:103B0000A9F920210448FFF78FF901210248FFF7A6
:103B1000D3F810B070BD000058640240802C014002
:103B200070B50446002516480078032802D12725E1
:103B3000284670BD1248007838B111480078012835
:103B400003D00F480078022817D1B4F5805F02D166
:103B500027252846EDE7E0B2FFF7BAFE054665B92E
:103B60000848006820F4C05006490860084600680C
:103B7000204308600846006808602846D9E700002E
:103B80000C000020042C0140F0B50146002000226A
:103B9000BE4B1B7881F85630BD4B1B88A1F85430C2
:103BA000BC4B1B681A0E93090B70C2F383034B7056
:103BB00002F003038B70B74B1B68C3F30742CA7054
:103BC000B44B1B88C3F307220A71B24B1A784A71AF
:103BD0005B681A0E1301CB80AE4B5B68C3F30742E0
:103BE000CB8843EA1213CB8002F00F030B72A94B70
:103BF0009B88C3F30722D3094B72C2F380138B72E5
:103C0000C2F34013CB72C2F300130B7300234B7348
:103C10009E4B1B783BB19D4B1B78012B03D09B4BDC
:103C20001B78032B4FD193071B0D0B61994B1A790E
:103C30000B6943EA82030B61964B9B681A0E0B6972
:103C400043EA92130B61C2F3C2030B7502F0070340
:103C50004B75904B9B68C3F3074253098B75C2F3B6
:103C60008203CB7593075B0F0B768A4B1B89C3F3DB
:103C700007220B7E43EAD2130B760B695B1C0024F0
:103C8000C1E912340B7E9B1C012404FA03F3DC17F8
:103C9000D1E91256A5FB037C06FB03C305FB0433E5
:103CA000C1E912730C7A0123A3400B650024D1E90A
:103CB00012650B6DA6FB037C05FB03C306FB0433F7
:103CC000C1E912732EE0714B1B78022B2AD1714B84
:103CD0001A7993069B0A0B616E4B9B681A0E0B694F
:103CE00043EA02230B616B4B9B68C3F307420B69EA
:103CF00013430B61674B1B89C3F307220B695B1CE2
:103D00004FF40074A3FB04464FF480630025A4FB2A
:103D1000037C06FB03C304FB0533C1E912734FF4B4
:103D200000730B65C2F3801301F8193F93065B0E15
:103D30004B70584B1A7A4B7843EAD2134B7002F00F
:103D40007F038B70534BDB681A0ED309CB70C2F321
:103D500041130B71C2F382034B7193071B0F8B71DD
:103D60004C4BDB68C3F307428B7943EA92138B71A8
:103D7000C2F34013CB7100230B7202F001034B72AC
:103D8000444B9B89C3F30722D3098B72C2F3801380
:103D9000CB72C2F340130B73C2F300134B73C2F325
:103DA00081038B7302F00303CB733A4B1A7B5308E6
:103DB0000B7401234B74384B1B681A0ECA741939E3
:103DC000354B1B68C3F307421402CC85324B1B886A
:103DD000C3F30722CB8D1343CB852F4B1A781406E0
:103DE0000C635B681A0E0B6B43EA02440C632A4BAC
:103DF0005B68C3F307420B6B43EA02240C63264B58
:103E00009B88C3F307220B6B13430B63224B1A7976
:103E100034235A54204B9B681A0E35235A541E4B98
:103E20009B68C3F3074214068C631B4B1B89C3F3C7
:103E300007228B6B43EA02448C63174B1A7A8B6B15
:103E400043EA02248C63144BDB681A0E8B6B13431A
:103E50008B63114BDB68C3F307423C235B5C43EA93
:103E600012143C235C5413071C0DCC870A4B9B890E
:103E7000C3F30722CB8F1343CB87074B1A7B54081E
:103E800040235C54012441235C54F0BD0C0000200D
:103E90001000002084040020940400203EB500247B
:103EA00001213F48FFF750FC0121C802FFF77CFCCD
:103EB0000121C802FFF788FC4FF4F850019002205E
:103EC0008DF808008DF8090000208DF80A00012007
:103ED0008DF80B0001A93348FFF7E6F804200190A4
:103EE00001A93148FFF7E0F80C2208212D48FFF71F
:103EF00023F90C2209212B48FFF71EF90C220A2175
:103F00002848FFF719F90C220B212648FFF714F96E
:103F10000C2211462348FFF70FF90C2202212248F8
:103F2000FFF70AF900214FF40060FFF74DFCFFF79F
:103F30007FFD31208DF8000000208DF801008DF804
:103F4000020001208DF803006846FFF793F900F0A6
:103F5000E3F8044614B900F02DF804461CB91348E0
:103F6000FFF712FE044634B91049B1F854100804A2
:103F700000F06CFD044624B94FF40060FFF7D0FD5B
:103F800004461CB10A480078032806D10020FFF738
:103F9000FBFC002000F072FD044620463EBD000000
:103FA0000C00400000080240000C0240A804002061
:103FB0000C00002038B5002401200090FFF714FD0C
:103FC00010B92524204638BD4D480078042824D057
:103FD00000204C49086002204860C0208860002012
:103FE000C8604FF4806008610846FFF73DFDFEF7AA
:103FF000ADFD04460CB12046E5E74348006843495F
:1040000008604148001D006848603F48083000686B
:1040100088603D480C300068C8603948007858B165
:1040200037480078012807D035480078062803D0A3
:1040300033480078022816D1002032490860032056
:104040004860402088600020C8604FF480600861AC
:104050000846FFF709FD69460320FEF7BDFD04464B
:104060000CB12046AFE726480078032816D1BDF8EA
:104070000000000423490860032048604020886055
:104080000020C8604FF4806008610846FFF7ECFC30
:10409000FEF75CFD04460CB1204694E71848007812
:1040A00004282AD0BDF8000019490860BDF80000B6
:1040B00000041449086009204860C020886000207E
:1040C000C8604FF4806008610846FFF7CDFCFEF73A
:1040D0003DFD04460CB1204675E70B4800680D49CC
:1040E00008600948001D00684860074808300068FB
:1040F000886005480C300068C860002063E7000055
:104100000C00002058040020142C014094040020CE
:1041100010000020840400202DE9F047002700242F
:1041200000260025A046A14676206E49087500208D
:10413000086048608860C86008610846FFF760FC56
:104140000320FFF7A7FC6848006840F480706649C8
:10415000086000BF12E00020644908604860886081
:10416000C8604FF4806008610846FFF77DFCFEF7E9
:10417000A3FC044604B903E0781CC7B24A2FEADB6B
:1041800000BF14B12046BDE8F0874FF4D570574901
:10419000086008204860402088600020C8604FF414
:1041A000806008610846FFF75FFCFEF75FFD04468C
:1041B00024B901204E4908704FF0804900204B4936
:1041C000086037204860402088600020C8604FF4B5
:1041D000806008610846FFF747FC3720FEF784FC43
:1041E0000446002C4CD135E00020404908603720BF
:1041F0004860402088600020C8604FF480600861FB
:104200000846FFF731FC3720FEF76EFC04460CB180
:104210002046B8E7374849EA0000344908602920B9
:104220004860402088600020C8604FF480600861CA
:104230000846FFF719FCFEF7B3FC04460CB1204614
:10424000A1E7294810300668012080EAD67080F086
:1042500001086D1CB8F1000F03D14FF6FF708542C5
:10426000C2D34FF6FF70854202D31B2420468AE753
:1042700006F08040060033D002201D4908702FE070
:104280001DE01D48194908600120486040208860F1
:104290000020C8604FF4806008610846FFF7E4FB27
:1042A000FEF77EFC04460CB120466CE70E48103049
:1042B0000668012080EAD67080F001086D1CB8F114
:1042C000000F03D14FF6FF708542DAD34FF6FF702F
:1042D000854202D31B24204655E703200449087079
:1042E000204650E740040020042C014058040020E0
:1042F0000C000020000010800080FF8010B54FF4FB
:104300008070FFF765FB78B34C480078012814D122
:1043100000204B4908600C20486040208860002045
:10432000C8604FF4806008610846FFF79DFB0C20D1
:10433000FEF7DAFB4349087002E0002041490870AB
:104340004148006840F480703F490860081D0068DB
:104350004CF23A3188433C49091D086001203B4931
:1043600008703848007810BDFFE70220FFF730FBE7
:1043700078B10220FFF702FB3348001D00684CF2C1
:104380003A3188433049091D086002202D490870E0
:10439000E9E70820FFF71CFB78B10820FFF7EEFAE9
:1043A0002948001D00684CF23A3188432649091D0E
:1043B0000860042023490870D5E72020FFF708FB98
:1043C00078B12020FFF7DAFA1F48001D00684CF290
:1043D0003A3188431C49091D0860062019490870B4
:1043E000C1E71020FFF7F4FA78B11020FFF7C6FA02
:1043F0001548001D00684CF23A3188431249091DE6
:10440000086005200F490870ADE74FF40070FFF712
:10441000DFFA80B14FF40070FFF7B0FA0A48001DD0
:1044200000684CF23A3188430749091D08600720AB
:104430000449087097E7002095E700001500002068
:104440005804002016000020382C014017000020DE
:104450002DE9F84F8146174698460A9C4FF0000A0E
:10446000D3464D464FF0FF36B9F1000F02D126205A
:10447000BDE8F88F00208649086086480078022849
:1044800005D10402780A40EAC8574FEA682800209C
:10449000814988604860401E086001204861002012
:1044A000C86008610846FFF779FA7948183800684B
:1044B00000F0007008B10E20DAE7002C21DDB4F521
:1044C000006F1EDC601E2040D8B9204604F068F85A
:1044D0000090724804601020704948604020886055
:1044E0000020C8604FF4806008610846FFF7BCFAFE
:1044F0001020FEF7F9FA8246BAF1000F03D05046B9
:10450000B6E72620B4E700980001634988600846B2
:1045100044604FF0FF300860012048610220C8600D
:10452000002008610846FFF739FA5C48076011204F
:104530005A494860402088600020C8604FF480607D
:1045400008610846FFF790FA1120FEF7CDFA82467F
:10455000BAF1000F01D050468AE751480078002890
:104560005CD1FBF7D8FE18E04FF40040FFF730FABB
:1045700078B14FF0000B06E045485430006845F82C
:104580002B000BF1010BBBF1080FF5D32035454E85
:1045900003E00EB904206BE7761E3D480830006842
:1045A00040F22A6108400028DED00820FFF710FA08
:1045B00020B10820FFF7E2F9042059E70220FFF7B5
:1045C00007FA20B10220FFF7D9F9022050E7202096
:1045D000FFF7FEF920B12020FFF7D0F9062047E7CA
:1045E0004FF40070FFF7F4F928B14FF40070FFF7B3
:1045F000C5F907203CE704E02548543000682860EE
:104600002D1D4FF40010FFF7E3F90028F4D1FBF75C
:1046100084FE40F2FF50FFF7B1F936E02048007801
:10462000012832D100202049087020490870204913
:10463000087017481030006840F22A3108431449C6
:10464000103108601248006840F008001049086006
:10465000002221464846FFF723FA00E0761E15485F
:10466000006800F0006038B91148007820B90E48A1
:10467000007808B9002EF1D10EB90420F8E60A48F6
:10468000007810B1084890F800A05046F0E600000D
:104690002C2C01400C0000206C0400205804002049
:1046A00014000020FFFF7F001600002015000020EE
:1046B00017000020006402402DE9FE4F83460E469D
:1046C000914600200290002534462148007818B118
:1046D000680240EAD45564020BF00300F0B14FF0D9
:1046E000000A18E04FF4007000904FEA4A200719C2
:1046F00045EBE0733A461748FFF7AAFE02904FF4E5
:10470000007214495846FCF7CCF80BF5007B0AF10F
:10471000010000F0FF0ACA45E4DB16E0B9F1010F21
:1047200009D14FF4007022462B4600905846FFF7FF
:104730008FFE029009E04FF4007022462B46CDE92F
:104740000009584600F008F802900298BDE8FE8F74
:104750000C000020000500202DE9FF5F1746984659
:10476000DDE90E464FF00009CA464FF0FF35AC496F
:10477000009808600020AB490860AB480078022828
:1047800005D10402780A40EAC8574FEA6828002099
:10479000A64988604860401E0860012048610020EA
:1047A000C86008610846FFF7F9F89E4818380068A5
:1047B00000F0007018B10E2004B0BDE8F09F002C8E
:1047C00021DDB4F5006F1EDC601E2040D8B9204604
:1047D00003F0E6FE83469648046010209449486042
:1047E000402088600020C8604FF48060086108465F
:1047F000FFF73AF91020FEF777F98146B9F1000F7B
:1048000003D04846D8E72620D6E7012E71D906FB0B
:1048100004F0B0F1007F01D32620CDE74FEA0B1062
:104820008249886006FB04F048604FF0FF30086062
:10483000012048610220C860002008610846FFF797
:10484000ADF87B48076012207949486040208860B5
:104850000020C8604FF4806008610846FFF704F943
:104860001220FEF741F98146B9F1000F01D0484608
:10487000A2E77048007800287ED1FBF74CFD1EE0CF
:104880004FF40040FFF7A4F8A8B14FF0000A08E089
:104890006448543000686249096841F82A000AF106
:1048A000010ABAF1080FF3D35D48006820305C4973
:1048B0000860614D03E00DB904207DE76D1E594885
:1048C0000830006840F22A3108400028D8D008207B
:1048D000FFF77EF820B10820FFF750F804206BE7BF
:1048E0000220FFF775F828B10220FFF747F80220F1
:1048F00062E792E02020FFF76BF820B12020FFF75D
:104900003DF8062058E74FF40070FFF761F828B132
:104910004FF40070FFF732F807204DE70AE04148F6
:10492000543000683E49096808603D480068001D31
:104930003B4908604FF40010FFF74AF80028EED119
:104940004FF48070FFF744F820B33748007838B14F
:1049500035480078012803D033480078022819D15F
:104960000020334908600C20486040208860002007
:10497000C8604FF4806000E013E008610846FFF76C
:1049800073F80C20FEF7B0F88146B9F1000F01D0A2
:10499000484611E7FBF7C1FC40F2FF50FEF7EEFF7F
:1049A0003BE024480078012837D1002023490870D3
:1049B000012023490870002022490870194810304E
:1049C000006840F22A310843164910310860154842
:1049D000006840F008001349086006FB04F100225B
:1049E0000098FFF75DF800E06D1E1748006800F0C2
:1049F000006008B9002DF7D10DB90420DCE600BF36
:104A00001048007818B90D4800780028F8D00B48F5
:104A1000007810B1094890F800904846CCE60000B4
:104A2000180000202C2C01400C0000206C040020F9
:104A30005804002014000020FFFF7F001600002013
:104A400015000020170000200064024010B5044645
:104A50000948046007200849486040208860002019
:104A6000C8604FF4806008610846FEF7FDFF07202C
:104A7000FEF73AF810BD000058040020014600205F
:104A8000012900D011B9024B197000E026207047AF
:104A9000140000202DE9FF5F86B017469846149D4C
:104AA0000026002005900490002481460390824651
:104AB00002900195DDF818B0DDF818B0BBF1000FD9
:104AC00003D126200AB0BDE8F09F0020C949086044
:104AD000C94988604860401E086001204861002084
:104AE000C86008610846FEF759FFC24818380068D8
:104AF00000F0007008B10E20E4E7C04800780228FA
:104B000005D10502780A40EAC8574FEA6828002D07
:104B10001FDDB5F5006F1CDC681E2840C8B92846AB
:104B200003F03EFD0590B64805601020B44948608A
:104B3000402088600020C8604FF48060086108460B
:104B4000FEF792FF1020FDF7CFFF06461EB130465C
:104B5000B8E72620B6E7AB4800880004A8490860FB
:104B60000D204860402088600020C8604FF48060BD
:104B700008610846FEF778FF0D20FDF7B5FF0646F1
:104B80000EB130469EE79B481838006803904FF0FE
:104B9000FF341CE0641E9B480088000498490860AC
:104BA0000D204860402088600020C8604FF480607D
:104BB00008610846FEF758FF0D20FDF795FF0646F1
:104BC0000EB130467EE78B48183800680390039892
:104BD00000F4807008B9002CDCD10CB9292071E7F1
:104BE0008748076018208649486040208860002078
:104BF000C8604FF4806008610846FEF735FF182052
:104C0000FDF772FF06460EB130465BE700207E4995
:104C100008700598000178498860084645604FF0A3
:104C2000FF300860012048610020C8600861084624
:104C3000FEF7B4FE4FF0FF347448007800287ED1B0
:104C4000FBF769FB45E04FF48040FEF7C1FED8B3A7
:104C50000198A0EB0900202822D20198A0EB0900BE
:104C600000F0030020B90198A0EB0900800804E0DF
:104C70000198A0EB09008008401C02904FF0000A48
:104C80000AE05C495431DBF8000008600AF1010ACF
:104C90000BF1040B09F1040902988245F1D310E0ED
:104CA0004FF0000A06E05BF82A00524954310860D0
:104CB0000AF1010ABAF1080FF5D30BF1200B09F143
:104CC00020096FF0404404E0FFE70CB90420F9E646
:104CD000641E48480830006840F21A610840002805
:104CE000B1D00820FEF774FE20B10820FEF746FE82
:104CF0000420E7E60220FEF76BFE20B10220FEF75B
:104D00003DFE0220DEE61020FEF762FE20B11020FC
:104D1000FEF734FE0520D5E64FF40070FEF758FE8E
:104D200030B14FF40070FEF729FE0720CAE606E016
:104D3000FBF7F3FA40F2FF50FEF720FE41E0334864
:104D4000007801283DD10020314908702E490870B3
:104D50003049087027481030006840F21A31084383
:104D6000244910310860402229460698FEF798FE33
:104D70002048006840F008001E49086000E0641EFA
:104D80002548006800F0006008B9002CF7D11CB974
:104D9000FFF784F8042095E64FF0FF3400E0641E2E
:104DA0001C48007820B91A48007808B9002CF6D1C0
:104DB0000CB9042086E61648007810B11448007833
:104DC00080E640F2FF50FEF7D9FD04A8FEF7DCF9BB
:104DD000064603E004A8FEF7D7F906463EB99DF85B
:104DE00010000728F6D09DF810000628F2D03046B3
:104DF00068E600002C2C01406C0400200C00002010
:104E0000580400201000002015000020140000208D
:104E10001600002017000020006402402DE9FE4F1C
:104E20000646894692460020029000254C462148BD
:104E3000007818B1680240EAD455640206F0030015
:104E4000F0B14FF0000B18E04FF4007231461A48F1
:104E5000FBF727FD4FF4007000904FEA4B20071935
:104E600045EBE0733A461448FFF714FE029006F54E
:104E700000760BF1010000F0FF0BD345E4DB16E0F8
:104E8000BAF1010F09D14FF4007022462B46009071
:104E90003046FFF7FFFD029009E04FF40070224614
:104EA0002B46CDE9000A304600F008F8029002983F
:104EB000BDE8FE8F0C000020000500202DE9FF5FFB
:104EC00084B0DDE9124700260020039002900025FF
:104ED00080468146019007FB04FBDDF810A0DDF859
:104EE00010A0BAF1000F03D1262008B0BDE8F09F52
:104EF0000020DC490860DC4988604860401E08608A
:104F0000012048610020C86008610846FEF746FDA0
:104F1000D4481838006800F0007008B10E20E4E7AB
:104F2000D2480078022808D10402DDE90601400ACF
:104F300040EAC1504912CDE90601002C1FDDB4F54D
:104F4000006F1CDC601E2040C8B9204603F028FB1F
:104F50000390C74804601020C5494860402088601D
:104F60000020C8604FF4806008610846FEF77CFDB1
:104F70001020FDF7B9FD06461EB13046B5E72620E4
:104F8000B3E7012F6FD907FB04F0B0F1007F01D325
:104F90002620AAE7B548007838B1B448007801283F
:104FA00003D0B248007802282DD1B248008800040E
:104FB000AF49086037204860402088600020C86002
:104FC0004FF4806008610846FEF74EFD3720FDF77C
:104FD0008BFD06460EB1304687E7A54807601720CF
:104FE000A3494860402088600020C8604FF480607A
:104FF00008610846FEF738FD1720FDF775FD0646E7
:105000000EB1304671E79A49069808601920486049
:10501000402088600020C8604FF480600861084626
:10502000FEF722FD1920FDF75FFD06460EB1304662
:105030005BE7039800018C49886007FB04F0486037
:105040004FF0FF300860012048610020C86008610F
:105050000846FEF7A3FC88480078002874D1451E56
:10506000FBF759F942E0E4E04FF48040FEF7B0FC72
:10507000B8B3ABEB080020281FD2ABEB080000F060
:10508000030018B9ABEB0800800803E0ABEB0800A5
:105090008008401C01904FF000090AE0714954312A
:1050A000DAF80000086009F101090AF1040A08F1C0
:1050B000040801988145F1D310E04FF0000906E0A3
:1050C0005AF8290067495431086009F10109B9F11A
:1050D000080FF5D30AF1200A08F120086FF04045C7
:1050E00004E0FFE70DB90420FFE66D1E5D480830BF
:1050F000006840F21A3108400028B5D00820FEF7B9
:1051000067FC20B10820FEF739FC0420EDE6022000
:10511000FEF75EFC20B10220FEF730FC0220E4E640
:105120001020FEF755FC20B11020FEF727FC0520CB
:10513000DBE64FF40070FEF74BFC30B14FF400702B
:10514000FEF71CFC0720D0E62CE04FF48070FEF741
:105150003FFC00B34548007838B144480078012846
:1051600003D042480078022815D100204049086049
:105170000C204860402088600020C8604FF48060A8
:1051800008610846FEF770FC0C20FDF7ADFC0646F2
:105190000EB13046A9E6FBF7C0F840F2FF50FEF72B
:1051A000EDFB46E034480078012842D10020334925
:1051B00008700120324908700020324908702948DF
:1051C0001030006840F21A31084326491031086057
:1051D00007FB04F140220498FEF762FC21480068B6
:1051E00040F008001F4908604FF0FF3500E06D1ED9
:1051F0002548006800F0006008B9002DF7D11DB9FE
:10520000FEF74CFE042070E64FF0FF3500E06D1E07
:105210001C48007820B91948007808B9002DF6D14B
:105220000DB9042061E61548007810B113480078E4
:105230005BE640F2FF50FEF7A1FB02A8FDF7A4FFDA
:10524000064603E002A8FDF79FFF06463EB99DF81B
:1052500008000728F6D09DF808000628F2D030464E
:1052600043E600002C2C01406C0400200C000020C0
:105270005804002010000020140000201600002018
:1052800015000020170000200064024000B587B020
:1052900001210846FEF758FA01210803FEF784FAB7
:1052A0003820059002208DF8180000208DF81A0093
:1052B00003208DF8190001208DF81B0005A9224854
:1052C000FDF7F2FE052203211F48FDF735FF0522F9
:1052D00004211D48FDF730FF052211461A48FDF74D
:1052E0002BFF01210803FEF76FFA00214FF48050D5
:1052F000FEF76AFA0020ADF800004FF48270ADF8B6
:1053000002000020ADF804000220ADF806000120E4
:10531000ADF808004002ADF80A003820ADF80C00E6
:105320000020ADF80E000720ADF8100069460748D0
:1053300000F058F80121054800F03AF8FF2000F08D
:1053400007F807B000BD0000000402400030014033
:1053500010B5044600BF02210A4800F035F80028C5
:10536000F9D02146074800F03BF800BF012105486D
:1053700000F02AF80028F9D0024800F02EF8C0B258
:1053800010BD00000030014010B5044607480088F9
:105390004FF6C77108400549088008460088204339
:1053A00008800121014800F003F810BD00300140E1
:1053B00021B1028842F04002028004E002884FF6E8
:1053C000BF731A40028070470246002013890B40C9
:1053D0000BB1012000E0002070470146888970472A
:1053E0008181704710B50022028802F441520B8877
:1053F0004C8823438C882343CC8823430C89234344
:105400004C8923438C892343CC8923431A4302804C
:10541000838B4FF2FF74234083830B8A038210BD7A
:10542000704700000CB500200190009034480068DF
:1054300040F480303249086000BF3148006800F411
:10544000003000900198401C0190009818B9019814
:10545000B0F5A04FF1D12A48006800F4003010B137
:105460000120009001E0002000900098012846D122
:1054700023484030006840F08050214940310860A6
:105480002048006840F440401E4908601C4808302D
:1054900000681B49083108600846006840F4004075
:1054A00008600846006840F4A05008601648091FCC
:1054B0000860081F006840F08070091F086000BF86
:1054C0000F48006800F000700028F9D040F2057025
:1054D0000E4908600A480830006820F003000849B7
:1054E000083108600846006840F00200086000BF0C
:1054F00003480830006800F00C000828F8D10CBD03
:10550000003802400070004008544007003C024050
:10551000042808D14FF0E021096941F004014FF05F
:10552000E022116107E04FF0E021096921F0040158
:105530004FF0E022116170477047000010B5154828
:10554000006840F47000134908601348006840F098
:1055500001001149086000200F49083108600E4819
:1055600000680E4908400C4908600D48091D086094
:10557000081F006820F48020091F086000200649E9
:105580000C310860FFF74EFF4FF000600149803991
:10559000086010BD88ED00E000380240FFFFF6FE15
:1055A0001030002410B501210A4800F079F80128D4
:1055B0000AD10949086980470021064800F08CF8A3
:1055C0006421044800F086F80121024800F04DF8FB
:1055D00010BD0000000800402002002010B501218D
:1055E000094800F05DF868B10848008840F40040C0
:1055F000064908800121044800F037F800210248DC
:1056000000F036F810BD0000001400401C0000201F
:105610007FB505460C4601212020FEF7A5F801952F
:10562000ADF800400020ADF80800ADF80200694672
:105630000B4800F053F801221146094800F041F8E8
:1056400037208DF80C0000208DF80D0001208DF81A
:105650000E008DF80F0003A8FDF70CFE7FBD0000C3
:1056600000140040CA4302827047CA430282704756
:1056700021B1028842F00102028004E002884FF664
:10568000FE731A40028070470146486A704702461E
:105690000020138A0B400BB1012000E0002070476E
:1056A00030B50246002000230024158A05EA0103D4
:1056B000958905EA010413B10CB1012000E0002036
:1056C00030BD1AB183890B43838102E083898B4308
:1056D00083817047C162704741627047002202882F
:1056E000184B98420ED0184B98420BD0B0F1804F17
:1056F00008D0164B984205D0154B984202D0154B56
:10570000984204D14FF68F731A404B881A43124BBC
:10571000984207D0114B984204D04FF6FF431A40ED
:105720000B891A4302804B68C3620B880385054BC3
:10573000984202D0044B984201D18B7A0386012310
:1057400083827047000001400004014000040040D3
:1057500000080040000C0040001000400014004011
:105760007FB504460D4601210420FDF7FDFFADF88D
:1057700000500020ADF802000194ADF80800694621
:105780000D48FFF7ABFF012211460B48FFF799FFC9
:1057900001210948FFF76CFF1E208DF80C00032043
:1057A0008DF80D008DF80E0001208DF80F0003A874
:1057B000FDF760FD7FBD00000008004010B540F21D
:1057C00025514C4800F063FB002878D04948001D63
:1057D0000088C4B24848006838B9232C04D1464830
:1057E0000068401C4449086010BD43480068012817
:1057F0000BD1212C05D140480068401C3E4908606F
:1058000002E000203C490860EEE73B4800680228BF
:1058100008D120023949086037480068401C3649E1
:105820000860E1E73448006803280AD1334800687B
:1058300020443249086030480068401C2E49086006
:10584000D2E72D480068042852D12D480068401C3A
:105850002B49086008460068FA2802DD00F044FA87
:10586000C2E72748006825490968884205DC2448C2
:105870000068401E23490C54B6E7214801681F48C0
:105880000068401C814204D12A2C01D000F02CFA7F
:10589000AAE71B48016819480068801C814202D1B0
:1058A00019480470A0E71648016814480068C01C35
:1058B00081421CD1262C03D000F016FA16E017E026
:1058C0000E4801780F4802F075FE0F4909788842AA
:1058D0000AD14FF496710D48FBF75AF809490B4865
:1058E000FAF745FFFDF784FE00F0FEF97CE77BE761
:1058F00000BF79E7004C0040380000203000002055
:1059000034000020781C00203C000020A41D002052
:1059100010B540F225514C4800F0B9FA002877D074
:1059200049488088C4B24948006838B9232C04D15A
:1059300046480068401C4549086010BD434800685F
:1059400001280BD1212C05D140480068401C3F495B
:10595000086002E000203D490860EEE73B4800682F
:10596000022808D120023A49086038480068401CE3
:1059700036490860E1E73548006803280AD1344811
:10598000006820443249086030480068401C2F49B4
:105990000860D2E72D480068042852D12D480068DD
:1059A000401C2C49086008460068FA2802DD00F017
:1059B000B7F9C2E72748006825490968884205DC2D
:1059C00024480068401E24490C54B6E72148016869
:1059D0001F480068401C814204D12A2C01D000F0ED
:1059E0009FF9AAE71B48016819480068801C81429A
:1059F00002D11A480470A0E71648016814480068EC
:105A0000C01C81421CD1262C03D000F089F916E07D
:105A100017E00F480178104802F0CCFD0F490978D3
:105A200088420AD14FF496710D48FAF7B1FF0A493E
:105A30000B48FAF79CFEFDF71FFD00F071F97CE7BB
:105A40007BE700BF79E700000050004048000020DD
:105A50004000002044000020D01E00204C00002008
:105A6000FC1F002010B540F225511D4800F00FFA30
:105A700010B31B4800F0C4FAC4B21A48008800F4FE
:105A80000040C8B91748008800F4804060B10A2C73
:105A900003D000201349088020E01248008840F419
:105AA00000401049088019E00D2C06D10D480088EF
:105AB00040F480400B49088010E00A480088C0F399
:105AC0000D0009490C5407480088401C054908800E
:105AD00008460088C72801DD0020088010BD0000AE
