:020000040800F2
:10000000F0C1012015030008BD1D0008B51D000842
:10001000B91D0008751C00087F31000800000000B1
:100020000000000000000000000000008D25000816
:10003000DD1C00080000000055220008A52600086D
:100040002F0300082F0300082F0300082F030008C8
:100050002F0300082F0300082F0300082F030008B8
:100060002F0300082F0300082F0300082F030008A8
:100070002F0300082F0300082F0300082F03000898
:100080002F0300082F0300082F0300082F03000888
:100090002F0300082F0300082F0300082F03000878
:1000A0002F0300082F0300082F0300082F03000868
:1000B0002F0300082F030008112700082F03000852
:1000C0002F0300082F0300082F0300082F03000848
:1000D0002F030008D12B0008912C0008E52D000803
:1000E0002F0300082F0300082F0300082F03000828
:1000F0002F0300082F0300082F0300082F03000818
:100100002F030008052400082F0300082F03000810
:10011000292900087D2A00082F0300084927000824
:100120002F0300082F0300082F0300082F030008E7
:100130002F0300082F0300082F0300082F030008D7
:100140002F0300082F0300082F0300082F030008C7
:100150002F0300082F0300082F0300082F030008B7
:100160002F0300082F0300082F0300082F030008A7
:100170002F0300082F0300082F0300082F03000897
:100180002F0300082F03000800F002F800F0B2F877
:100190000AA090E8000C82448344AAF10107DA45E2
:1001A00001D100F0A7F8AFF2090EBAE80F0013F082
:1001B000010F18BFFB1A43F001031847187C000019
:1001C000387C00000A444FF0000C10F8013B13F09B
:1001D000070408BF10F8014B1D1108BF10F8015BA0
:1001E000641E05D010F8016B641E01F8016BF9D193
:1001F00013F0080F1EBF10F8014BAD1C0C1B09D1EA
:100200006D1E58BF01F801CBFAD505E014F8016B5B
:1002100001F8016B6D1EF9D59142D6D370470000ED
:100220000023002400250026103A28BF78C1FBD8FF
:10023000520728BF30C148BF0B6070476E2900F0DD
:10024000C184702900F09381662907F05E836529D7
:1002500007F05B83672907F058836129AFF30080BB
:1002600003681B0A28BF41F08001692900F004815E
:10027000642900F00181752900F0FE806F2900F0EB
:10028000C787782900F05F81E92900F06187E429B8
:1002900000F05E87F52900F05B87EF2900F0C48746
:1002A000F82900F05E810368DB0928BF41F0800176
:1002B000632900F0D086732900F0D586E32901F088
:1002C0005580F32901F05A80002070471FB507F0D0
:1002D00017FB00F0B7FF04000020002106F04CFDE2
:1002E000401C60600020002106F05CFDE0601FBD46
:1002F00010B510BD01F0D8F81146FFF7E7FF04F084
:1003000077F901F0F6F803B4FFF7F2FF03BC03F04E
:10031000DAFE00000948804709480047FEE7FEE78B
:10032000FEE7FEE7FEE7FEE7FEE7FEE7FEE7FEE7A5
:1003300004480549054A064B70470000A9260008F5
:1003400089010008F0BB0120F0C10120F0BD0120AF
:10035000F0BD0120704710B5044600F0B1FB006805
:10036000005DC00602D504F1200010BD204610BD7E
:100370001CB50C46064B7B4469460090204600F0B5
:1003800048FE04460020694600F056FE20461CBD8B
:10039000BF0C00000FB4044910B503AA029800F086
:1003A00067FE10BC5DF814FB040000200FB41CB500
:1003B000084B06AA7B4469460090059800F029FE88
:1003C00004460020694600F037FE20461CBC5DF85C
:1003D00014FB0000810C000070B5044685690068BC
:1003E000C10601D5302600E02026C00707D070BD29
:1003F000D4E9012130469047206A401C20626D1EDE
:10040000F6D570BD70B5044685690078C00707D180
:1004100070BDD4E9012120209047206A401C206251
:100420006D1EF6D570BD70B50C460546012A05D087
:100430002878800600D5EA69002302E0012305E060
:100440005B1C934202D2E05C0028F9D1A869E6184F
:10045000C01AA861286A184428622846FFF7BCFF22
:1004600004E0D5E9012114F8010B9047B442F8D318
:100470002846FFF7C7FF70BD2DE9F041064600246E
:1004800010687529314616A510D000F030FB002801
:1004900002DA404213A507E031688A0701D512A5A8
:1004A00002E0490704D511A5012401E000F028FB72
:1004B00000210A2206F1240709E0B0FBF2FCB0FBA0
:1004C000F2F302FB1C00303078541846491C002817
:1004D000F3D123462A463046BDE8F04100F019BB6F
:1004E000000000002D0000002B0000002000000094
:1004F000F0B40D460188090502D5214C7C4402E088
:100500001F4C7C440E34002100F1240608E002F068
:100510000F071209E75D42EA03721B097754491C71
:1005200052EA0307F3D102780023120704D5702D95
:1005300006D009B1022311342246F0BC00F0E9BA1A
:1005400001231034F8E770B504460D4621461068C3
:1005500000F0D6FA024629462046BDE87040002346
:10056000C6E7D21D22F00703D3E90023C0E70368E2
:10057000126843F0200303600823C3610023B7E738
:100580002B7600002DE9F05F894604464FF0000A03
:10059000DFF874B1FB44C0F820A02046E16888472A
:1005A000002874D0252806D0D4E901219047206A7C
:1005B000401C2062F1E700265F462046E16888473C
:1005C0002028054607DB312D05D2781910F8200CBC
:1005D00008B10643F1E7B00701D526F00406C4F8D8
:1005E0001CA00027C4F818A02A2D09D0284603F023
:1005F00063FD38B304EB8708303DC8F8185019E0A4
:1006000059F8041B204604EB87029161E168884792
:10061000012F054618D1E069002820DA26F02006CF
:100620001DE0D8F8180000EB800005EB40003038E2
:10063000C8F818002046E1688847054603F03CFDED
:100640000028EED1012F0AD02E2D08D12046E168D6
:1006500088477F1C0546022F46F02006C4DBA069B0
:10066000002803DA404246F00106A061F00701D0FD
:1006700026F010066C2D0BD0682D09D04C2D39D0EA
:100680006A2D35D0742D35D07A2D33D016E038E070
:10069000E1682F4620468847B842054609D16C2FAD
:1006A00026D04FF48060E16806432046884705461F
:1006B00004E06C2F1AD04FF4807006430DB3A5F1FF
:1006C0004100192802D8203546F400664A462946DA
:1006D000204626604E46FFF7B1FD80B101280BD0C1
:1006E000F61D26F0070000F1080956E74020E4E770
:1006F0008020D8E70020D6E706F104094DE7284618
:1007000052E7206ABDE8F09FBB750000401ECAB2E8
:1007100010F8011F8A4202D00029F9D10020704749
:1007200030B505460B462A4613F8014B12F8010B6B
:1007300008B1A042F8D01CB1002802D06D1CF1E72E
:10074000284630BD40EA0103024630B59B0710D170
:100750004FF0013400E008C208C91D1B9D4315EA93
:10076000C41FF8D013F0FF0102F8011B0DD01B0AC3
:10077000F8E711F8013B002B02F8013B05D011F816
:10078000013B002B02F8013BF3D130BD10B5431CF7
:1007900002E010F8011B71B18107FAD14FF001326C
:1007A00002C88C1A8C4314EAC211F9D0C01A0A0686
:1007B00003D0C01E10BDC01A10BD0A0401D0801E97
:1007C00010BD0902FCD0401E10BD40EA010370B507
:1007D0009B072ED14FF00136042A2AD308C810C92E
:1007E0009D1B9D43121F15EAC61517D0D8B2E1B262
:1007F000401A50EA056110D198B2A1B2401A50EAED
:1008000005410AD123F07F4024F07F41401A50EA8D
:10081000052102D1180EA0EB146070BDA342DBD0FD
:1008200018BA21BA884201D9012070BD4FF0FF30BB
:1008300070BD0AB9002070BD10F8013B11F8014BE2
:1008400063B1A3420AD1521E08D010F8013B11F83F
:10085000014B1BB1A34201D1521EEDD1181B70BD3B
:10086000032A40F2308010F0030C00F0158011F8DC
:10087000013BBCF1020F624498BF11F801CB00F8B4
:10088000013B38BF11F8013BA2F1040298BF00F808
:1008900001CB38BF00F8013B11F0030300F02580C5
:1008A000083AC0F0088051F8043B083A51F804CBEC
:1008B000A0E80810F5E7121D5CBF51F8043B40F8B2
:1008C000043BAFF30080D20724BF11F8013B11F8BD
:1008D00001CB48BF11F8012B24BF00F8013B00F801
:1008E00001CB48BF00F8012B704710B5203AC0F08B
:1008F0000B80B1E81850203AA0E81850B1E8185021
:10090000A0E81850BFF4F5AF5FEA027C24BFB1E85D
:100910001850A0E8185044BF18C918C0BDE81040CE
:100920005FEA827C24BF51F8043B40F8043B08BFD7
:100930007047D20728BF31F8023B48BF11F8012B9E
:1009400028BF20F8023B48BF00F8012B70474FF04A
:1009500000020429C0F0128010F0030C00F01B808C
:10096000CCF1040CBCF1020F18BF00F8012BA8BF9A
:1009700020F8022BA1EB0C0100F00DB85FEAC17C5E
:1009800024BF00F8012B00F8012B48BF00F8012B11
:1009900070474FF0000200B5134694469646203942
:1009A00022BFA0E80C50A0E80C50B1F12001BFF428
:1009B000F7AF090728BFA0E80C5048BF0CC05DF88E
:1009C00004EB890028BF40F8042B08BF704748BFDC
:1009D00020F8022B11F0804F18BF00F8012B704750
:1009E00010B5044610F0030F08BF11F0030F40F0DC
:1009F00015804FF0013E121FC0F20E8051F8043BEB
:100A0000A3EB0E0C2CEA030C1CEACE1C08BF40F82A
:100A1000043BF0D0A1F1040102F10402521E08DBF4
:100A200011F8013B002B00F8013BF7D11146FFF70D
:100A30008EFF204610BD00004FF0013C50F8042B03
:100A400051F8043B9A4221D1A2EB0C03934313EAE1
:100A5000CC1317D150F8042B51F8043B9A4215D10E
:100A6000A2EB0C03934313EACC130BD150F8042BE5
:100A700051F8043B9A4209D1A2EB0C03934313EAC9
:100A8000CC13DBD04FF00000704700BFD01A01BA82
:100A9000B1FA81F101F0180122FA01F0CB40C1F165
:100AA0002001DBB2C0B2C01A2CFA01F3D11A914373
:100AB00011EAC311E6D1704770477047704770471D
:100AC00010B500F0BFFB001D10BD00BFAD620000FF
:100AD000004870478CBB012010B5FFF7F9FF006894
:100AE00010BD10B50446FFF7F3FF046010BD0968A0
:100AF0004A0501D540B27047C905FCD500B2704720
:100B000009684A0501D5C0B27047C905FCD580B255
:100B100070472DE9F0470D4699469246044600F18C
:100B200024080168880604D5E06921F010012160DD
:100B300000E00120A84201DD471B00E00027A16979
:100B40007A1902EB0900081AA0612078C00602D4C5
:100B50002046FFF741FC002608E0D4E901211AF8FD
:100B600006009047206A401C761C20624E45F4DB4C
:100B70002078C0060AD52046FFF72EFC06E0D4E90F
:100B8000012130209047206A401C2062381EA7F1C6
:100B90000107F4DC07E0D4E9012118F805009047CB
:100BA000206A401C2062281EA5F10105F3DC2046C6
:100BB000FFF728FC2078000602D50220BDE8F08768
:100BC0000120FBE711680268006A530501D508702F
:100BD0000AE0D30501D5088006E0130603D5C21745
:100BE000C1E9000200E008600120704770472DE96C
:100BF000FF4F0C461E464FF0FF378BB0D2E9000185
:100C0000DDF860800A908A46C1F30A5505B93D4671
:100C1000002108464FF00000BAF1000F00F4400038
:100C200005DA00EB80004FF4400101EA50004FEA82
:100C30009059B9F1010F00DDB9460A9850EA4A000F
:100C40000ED044F61050A5F2FF3545432F14B8F1ED
:100C5000000F1ED07542291E1EDDC9F100021CE0E6
:100C6000B8F1010F4FF0000001D0302103E0F24352
:100C700005E02154401CB042FBDB3046002200213D
:100C800021540B99C1F80880C1E900200FB0BDE8DC
:100C9000F08FBD1B6D1CDEE74A4600DA694206A8EC
:100CA00000F070FB06AB93E8070003AB83E8070096
:100CB00050460A9900F023FC8DE80700A0F500508B
:100CC0001F3800900398002D09DD42F21F014A46AB
:100CD000084403A90390684600F082FE08E0A0F5EE
:100CE00000504A461F3803A90390684600F08CFE66
:100CF0008DE807000004000C03D04FF0FF304108DE
:100D000000E01046B8F1000F03D000220092154613
:100D10001EE0751E05D400F099FA303262556D1E42
:100D2000F9D5B3460122084302D000227F1C04E01B
:100D30002078302801D100227F1E002A099786D012
:100D40001DE0112D07DA00F081FA303262556D1C7A
:100D500050EA0102F5D1084302D00098C8B10EE074
:100D60000021681E05E0235C625C63542254401E2F
:100D7000491C8142F7DBAB46A81B401E09900020AE
:100D800004F80B000B98099AC0F80880C0E9002B02
:100D90007CE711264FF0000859E72DE9F04F88460F
:100DA0000446D21D22F0070191B0D1E90001CDE93E
:100DB0000A0102F0E6F902460B98C00F01D02D207F
:100DC00007E02068810701D52B2002E0202101EAFD
:100DD000C000032A099001D0072A05DB03464146DB
:100DE000204600F079FA0BE12078800601D5E06911
:100DF00000E00620B8F1650F814606D0B8F1660F15
:100E000018D0B8F1670F70D131E00020B9F1110F9F
:100E1000009001DB112301E009F101030AAA01A9F5
:100E20000CA8FFF7E4FEDDE90C70002609F10105CE
:100E3000834647E001204B4600904FF000470AAA46
:100E400001A90CA8FFF7D3FEDDE90DB00C995D46B2
:100E5000002610B909F101000D18B9EB050003D403
:100E6000C0F1FF3609F10105A5EB09002BE0B9F14E
:100E7000010F01DA4FF001090020B9F1110F0090C4
:100E8000484601DD112300E003460AAA01A90CA887
:100E9000FFF7ADFEDDE90C704D4600268346207855
:100EA00000070AD4AB4500DA5D4601A8012D04DD38
:100EB000411911F8011C302907D04F4502DA17F10A
:100EC000040F04DA012082460FE06D1EEEE7002FCA
:100ED00002DCED1B3E4403E0781CA84200DD7D1CD3
:100EE000B81B00F1010A4FF000472078000703D437
:100EF000AA4501DB4FF0FF3A0021B7F1004F0DF199
:100F000043088DF8431024D002202B23002F01DA50
:100F10007F422D230A21021EA0F1010000DC5FB1F7
:100F200097FBF1FC97FBF1F201FB1C7C17460CF1DF
:100F3000300C08F801CDEEE7A8F10100037021881C
:100F4000090501D5452100E06521A0F1010800F85F
:100F5000011C09980FA9A1EB0807FF1D00B1012092
:100F6000411901EBEA70A1693844081A401EA061DA
:100F70002078C00602D42046FFF72EFA099828B13F
:100F8000D4E901219047206A401C20622078C006E5
:100F900022D52046FFF720FA1EE0002E04DBB345E1
:100FA00002DD01A8805D00E03020D4E901219047F6
:100FB000206A401C2062761CAAF101005FEA000A48
:100FC0000AD100F03FF9C0680168405CD4E9012112
:100FD0009047206A401C2062281EA5F10105DCDC38
:100FE00007E0D4E9012118F8010B9047206A401C62
:100FF0002062381EA7F10107F3DC2046FFF702FA52
:10100000032011B043E6000001694A1C0261087820
:10101000704700B58FB0CDE9013100210591054938
:101020007944CDE9031011466846FFF7ABFA0FB0DB
:1010300000BD0000E5FFFFFF0A6802F8010B0A602F
:10104000704710B5436913B1AFF3008001E0FFF7BB
:10105000EAF9012010BD127800F124010A70002283
:101060004A700122EDE711684FF0FF32E9E7000016
:10107000074B70B50D467B44FFF7CBFF044628466F
:1010800000F0EEF910B14FF0FF3070BD204670BD9A
:101090005B3500002DE9FF5F15468A460446DFF800
:1010A000AC80F8440027D8E900103E46CDE9001096
:1010B00010E03AF816106A4602A800F0D5F9411C73
:1010C00007D02178890603D5E269391891420DD8F5
:1010D0000744761C2078800602D5E069B84205DD19
:1010E000AE42E6DB3AF816000028E2D1A069C01B48
:1010F000A0612046FFF770F9D8E90010CDE9001093
:10110000002017E03AF818106A4602A800F0ACF97F
:10111000B0F1FF3F81460BD000250DF1080B05E033
:10112000D4E901211BF8050090476D1C4D45F7D30C
:1011300008F10100B0428046E4DB206A38442062B6
:101140002046FFF75FF9BDE8FF9F00004A6B0000F3
:101150002DE9F0418046D21D22F007020025D2E998
:101160000002F52915A614D0011E72F1000106DA5D
:101170000023D0EB030063EB020211A608E0D8F8CD
:1011800000108B0701D50FA602E0490701D50EA676
:1011900001251146002408F1240704E000F056F868
:1011A00030323A55641C50EA0102F7D12B463246E0
:1011B00021464046BDE8F041FFF7ABBC000000000F
:1011C0002D0000002B0000002000000030B40021A2
:1011D00000F1240408E002F00705D208303542EAA5
:1011E0004372DB086554491C52EA0305F3D10468D5
:1011F000002310A2250708D504F020040C4304D0D6
:10120000C46901230CA2641EC46130BCFFF781BC19
:1012100010B5044621461068FFF772FC02462046CE
:10122000BDE810400023D1E7D21D22F00701D1E92B
:101230000023CBE7000000003000000000487047AA
:101240008CBB012000487047ACBB012030B5B0F129
:101250000A024FEA900E71F100034EEA817EB0EB74
:101260000E0061EB91014FEA101E4EEA017E10EB79
:101270000E0041EB11114FEA102E4EEA016E10EBF9
:101280000E0041EB11214FEA104E4EEA014E10EBD9
:101290000E0041EB1141401841F100014FEAD0002E
:1012A00040EA41704FEAD10110EB80054FEA81041A
:1012B00044EA907444EB01046D1944EB0404521B9E
:1012C000A3414FF0000348BF0A3200D530BD401C97
:1012D00041F1000130BD00002DE9F0411F460446F8
:1012E00003260168072A01F4006004DB08B116A593
:1012F00005E016A503E008B115A500E015A521F04D
:1013000010002060A069C01EA0610FB1401EA06146
:101310002046FFF761F84FB1D4E9012138469047E4
:10132000206A401C2062C01C206206E0206AFAE7A6
:10133000D4E9012115F8010B9047761EF8D220461A
:10134000FFF760F8BDE8F0814E414E006E616E001F
:10135000494E4600696E660010B5436913B1AFF39C
:10136000008001E0FFF796FE012010BD128800F119
:10137000240182840022C2840122EDE711684FF02B
:10138000FF32E9E72DE9F047814616468AB0334837
:1013900078440DC88DE80D0030487844801C03ACBB
:1013A0000DC884E80D0041F69B300844372190FBBE
:1013B000F1F290FBF1F5A5F1800501FB12041B3C55
:1013C00002D56442012000E00020DFF890A08046B2
:1013D0000027FA44AAF1BE0A0DE0E00709D0324620
:1013E000684607EB47010AEB810100F00DFB8DE831
:1013F000070064107F1C002CEFD1184F7F44AC3FD6
:1014000018E0E80714D007EB04100DF1180A90E873
:101410000E008AE80E00C068F04201D198190890C9
:10142000324606A903A800F0EFFA03AB83E80700F1
:101430006D10641C002DE4D132466946B8F1000FEE
:1014400003A802D000F0CCFA01E000F0DDFAC9E90F
:101450000001C9F808200AB0BDE8F087E86800007C
:10146000007B00F08000704770B516460C460546BC
:10147000FFF726FB036893F80101012806D0FF2C33
:101480000FD8185D68B101202C7070BDD3F807012A
:101490003246214603F2071303442846BDE8704054
:1014A00018474FF0FF3070BD7546FFF7C7FEAE46D8
:1014B00005006946534620F00700854618B020B560
:1014C000FEF736FFBDE820404FF000064FF0000762
:1014D0004FF000084FF0000B21F00701AC46ACE8DC
:1014E000C009ACE8C009ACE8C009ACE8C0098D4649
:1014F00070470446AFF300802046FEF704FF5FEA22
:10150000400C08BF91F0000F4FEA8C234FEAC12234
:1015100043EA51514FEA1C5018BF00F5F0404FEA22
:10152000300018BF41F000415FEA6C5C00F0298098
:10153000BCF1FF3F08BF40F080407047130C06BF6E
:1015400012044FF0100C4FF0000C130E04BF1202E7
:101550000CF1080C130F04BF12010CF1040C930FD3
:1015600004BF92000CF1020CD30F04BF52000CF127
:10157000010C11464FF00002A0F11F00A0EB0C007F
:10158000704711F0004F08BF704731F000413FF441
:10159000D5AF0B0C06BF09044FF0100C4FF0000C38
:1015A0000B0E04BF09020CF1080C0B0F04BF09015C
:1015B0000CF1040C8B0F04BF89000CF1020CCB0F53
:1015C00004BF49000CF1010CCCF12003A0EB0C008E
:1015D00022FA03F302FA0CF241EA030100F10100DE
:1015E000704720F07F4C80EA030023F07F47ACEB8C
:1015F000070303F57C5300F0004003F1FF032DE9DE
:1016000080494FEA154B09B44FEA144325EA0B4EC3
:1016100024EA03480FF2042606EB132749083E7814
:101620005FEA320203FB0667C7F5000707FB06F611
:101630004FEA54374FEAD64606F1020607FB066C1E
:10164000CCF1005C4FEA1C472CEA074C07FB06F480
:101650000CFB06F504EB15464FEA961634BF002046
:101660004FF000404FEAD13706FB07FC4FEA1C4C15
:101670000CFB0BF7D21B03FB0CF761EB07010CFB18
:101680000EF7B0EB074072EB17420CFB08F734BFC4
:10169000A2EB0742B2EB074261EB17414FEA0C4461
:1016A0004FEA910706FB07FC4FEA1C4C0CFB0BF7BB
:1016B000B0EBC74072EB573203FB0CF734BFA2EB21
:1016C000C742B2EBC74261EB57310CFB0EF7B0EBF0
:1016D000C70072EB57720CFB08F734BFA2EBC702CE
:1016E000B2EBC70261EB5771039F4FEA816141EA98
:1016F000921104EBCC044FEAD1374FEA826206FB29
:1017000007FC42EA90124FEA80604FEA1C4C0CFB47
:101710000BF7D21B03FB0CF761EB07010CFB0EF779
:10172000B0EB074072EB17420CFB08F734BFA2EB9B
:101730000742B2EB074261EB17414FEA8C554FEA83
:10174000910704EB9C2406FB07FC4FEA1C4C0CFBA6
:101750000BF7B0EBC74072EB573203FB0CF734BF0B
:10176000A2EBC742B2EBC74261EB57310CFB0EF75D
:10177000B0EBC70072EB57720CFB08F734BFA2EB5B
:10178000C702B2EBC70261EB577115EB4C254FEA6C
:10179000816141EA92114FEA82624FEAD13742EA0F
:1017A000901206FB07FC44F100044FEA80604FEA08
:1017B0001C4C0CFB0BF7D21B03FB0CF761EB070176
:1017C0000CFB0EF7B0EB074072EB17420CFB08F76F
:1017D00034BFA2EB0742B2EB074261EB174115EBB6
:1017E0001C154FEA813141EA92414FEA823242EAC6
:1017F00090424FEA80304FEA0C7644F1000448EA08
:1018000003434EEA0B484FF0000EB2EB080C71EBAD
:10181000030724BF624639464EEB0E0E4FF0000B15
:101820000018524149414BEB0B0BB2EB080C71EB2A
:1018300003077BF1000B24BF624639464EEB0E0EC8
:101840004FF0000B0018524149414BEB0B0BB2EB30
:10185000080C71EB03077BF1000B24BF624639468D
:101860004EEB0E0E51EA020718BF46F0010616EBCA
:101870000E7655F1000254F1000103D5BDE889014F
:10188000BDE80088BDE88901BDE80048B6195241AD
:1018900041EB0101A3F10103704780807F7E7D7CD5
:1018A0007B7A7978777676757473727171706F6EF2
:1018B0006E6D6C6C6B6A6A6968686766666564649D
:1018C000636362616160605F5F5E5E5D5D5C5C5B27
:1018D0005B5A5A5959585857575656555555545496
:1018E000535352525251515050504F4F4F4E4E4DF4
:1018F0004D4D4C4C4C4B4B4B4A4A4A494949484840
:10190000484747474746464645454544444444437F
:1019100043434342424242414141002B26D4770097
:1019200021D01CB54FEA370703B44FF010004FF039
:1019300010014FF000000FBCBDE810400BF1010B8F
:10194000BBF1010F08BF5FEA170722BF12F10102C6
:1019500011F101014FF0004143F1000300F000409C
:1019600043EA00007047F9D35708DAE746EA06462B
:1019700013F1400F4FEA16461FDD13F1200FDFBFB2
:1019800016430A46002120335B42C8D0C3F120072A
:1019900046EA064602FA07F74FEA164646EA0706FF
:1019A000C3F1200722FA03F201FA07F721FA03F143
:1019B0004FF0000342EA0702B1E746EA020646EAB0
:1019C00006464FEA164646EA0106BCBF46EA064608
:1019D000360C4FF000034FF000024FF000019EE77D
:1019E0002DE9C048934630B491E8380007C831EA81
:1019F000400C48BF34EA430C03D5FFF7F2FDFFF774
:101A00008CFFF0BCBDE800882DE9C048934630B497
:101A100091E8380007C810F0804F08BF13F0804FDE
:101A200003D100F005F8FFF778FFF0BCBDE80088AF
:101A300020F07F4780EA030023F07F4C07EB0C0384
:101A4000A3F57C5300F00040A3F1FE0392F0000FD9
:101A500000F0B38095F0000F00F077802DE9014988
:101A60004FEA11404FEA144621EA004800FB06FC09
:101A700024EA064708FB06F607FB08F800FB07F711
:101A800018EB06484CEB164C4FEA124B18EB074884
:101A90004FEA15464CEB174022EA0B4E0BFB06FCB7
:101AA00025EA06470EFB06F607FB0EFE0BFB07F7C3
:101AB0001EEB064E4CEB164C4FF000061EEB074E8D
:101AC0004CEB174B18EB0B0840F1000018EB0E0B1A
:101AD00058EB000840F100008F1A4FF000013CBFA6
:101AE000C943661B14BFB5EB040C00213CBFC943BE
:101AF000F61B4FEA17444EEA8E0E27EA04454FEADA
:101B00001C4704FB07622CEA074C05FB07F70CFB9C
:101B100005F604FB0CFC16EB074642EB174216EBEE
:101B20000C4642EB1C421BEB060658EB02024141FD
:101B300046EA9E0601D5BDE80189B619524141EB3E
:101B40000101A3F10103BDE801894FEA14454FEA01
:101B5000114724EA054621EA074C05FB07F406FB7A
:101B600007F70CFB06F105FB0CFC11EB074144EBFE
:101B700017444FEA124711EB0C4144EB1C4422EA94
:101B8000074C05FB07F206FB07F70CFB06F605FB07
:101B90000CFC16EB074642EB174216EB0C4642EBE9
:101BA0001C456A1854F1000148BF7047B6195241EC
:101BB00041EB0101A3F10103704795F0000F37D00D
:101BC0004FEA11424FEA144721EA024624EA074C41
:101BD00002FB07F106FB07F70CFB06F402FB0CFC0B
:101BE00014EB074441EB17414FEA154714EB0C4443
:101BF00041EB1C4125EA074C02FB07F506FB07F702
:101C00000CFB06F602FB0CFC16EB074645EB1745F2
:101C100016EB0C4645EB1C42121951F1000148BF6E
:101C20007047B619524141EB0101A3F1010370471E
:101C30004FEA14454FEA114724EA054621EA074CCA
:101C400005FB07F106FB07F70CFB06F24FF0000659
:101C500005FB0CFC12EB074241EB174112EB0C4267
:101C600051EB1C4148BF7047921841EB0101A3F1B1
:101C70000103704700BFFEE770B5044605E0164853
:101C8000056805F0450000B100E0F8E700BF04205A
:101C900000F0ACFB20B1042000F0A2FB032070BDDB
:101CA000012000F0A3FB20B1012000F099FB0120EE
:101CB000F5E7094824380068A04201D01020EEE77B
:101CC00040F2FF5000F08CFB0348203800680821E8
:101CD0000840C0B2E3E70000342C01407047F0B583
:101CE0000A4600210023002400BF3DE0012505FA3B
:101CF00001F3156805EA03049C4234D105684F00DE
:101D00000326BE40B543056015794E00B540066810
:101D1000354305601579012D02D01579022D16D1B4
:101D200085684F000326BE40B543856055794E0057
:101D3000B540866835438560456801268E40B543C9
:101D40004560456896798E40B6B235434560C568B2
:101D50004F000326BE40B543C560D5794E00B5405F
:101D6000C6683543C560491C1029BFD3F0BDF0B526
:101D7000002300244D07ED0E02FA05F3CE1000F10A
:101D8000200555F826504E07F70E0F26BE40B543E6
:101D9000CF1000F1200646F82750CE1000F12005A4
:101DA00055F8265045EA0304CE1000F1200545F809
:101DB0002640F0BD00BFFEE700BFFEE77047000011
:101DC00070B5002100230F22C4781CB3174C24687F
:101DD00004F4E064C4F5E064C4F30721C1F1040431
:101DE000E3B20A4144789C40E1B284781440214334
:101DF0000C07210E0E4C05786155047804F01F0580
:101E00000124AC4005786D11AD0005F1E025C5F861
:101E1000004109E0047804F01F050124AC40054DA1
:101E20000678761145F8264070BD00000CED00E004
:101E300000E400E080E100E002490143024A116051
:101E4000704700000000FA050CED00E070B538485E
:101E500000782D2800D170BD354802F07DFA054686
:101E60003DB902F053FA0646314632A0FEF792FA27
:101E7000F1E735A1284602F04FFA044604B94EE0D6
:101E800035A12069FEF7D8FDB0B935A1284602F08A
:101E900043FA044604B942E034496069086034A159
:101EA000284602F039FA044604B938E02F48001DEC
:101EB0002169FEF747FC32E030A12069FEF7BCFD46
:101EC00060BB30A1284602F027FA044604B926E098
:101ED0002D49606908602DA1284602F01DFA0446CC
:101EE00004B91CE094ED060B294880ED000B29A1F4
:101EF000284602F011FA044604B910E094ED060BEE
:101F0000254880ED000B25A1284602F005FA04467D
:101F100004B904E022496069086000E000BF284677
:101F200002F0CCF92D200249087000BF93E70000B1
:101F3000440B00204572726F72206265666F726595
:101F40003A205B25735D0A00627573696E65737371
:101F50005479706500000000303030370000000018
:101F60006572726F72436F646500000060B9012092
:101F70006572726F724465736300000030303131F6
:101F800000000000436F00003C03002046440000B6
:101F90004003002042440000480300206D6F000011
:101FA0005003002070B5384800782D2800D170BD4E
:101FB000354802F0D1F905463DB902F0A7F90646C9
:101FC000314632A0FEF7E6F9F1E735A1284602F0E6
:101FD000A3F9044604B94EE035A12069FEF72CFDB3
:101FE000B0B935A1284602F097F9044604B942E099
:101FF00034496069886634A1284602F08DF90446A8
:1020000004B938E02F486C302169FEF79BFB32E0C1
:1020100030A12069FEF710FD60BB30A1284602F018
:102020007BF9044604B926E02D49606908602DA1BA
:10203000284602F071F9044604B91CE094ED060B41
:10204000294880ED000B29A1284602F065F90446D5
:1020500004B910E094ED060B254880ED000B25A196
:10206000284602F059F9044604B904E0224960699F
:10207000086000E000BF284602F020F92D20024948
:10208000087000BF93E700002C0F00204572726FAC
:1020900072206265666F72653A205B25735D0A0087
:1020A000627573696E657373547970650000000022
:1020B00030303038000000006572726F72436F6418
:1020C0006500000060B901206572726F724465732B
:1020D000630000003030313200000000436F000028
:1020E00054030020464400005803002042440000EE
:1020F000600300206D6F00006803002070B5374852
:1021000000782D2800D170BD344802F025F905462D
:102110003DB902F0FBF80646314631A0FEF73AF928
:10212000F1E734A1284602F0F7F8044604B94DE07F
:1021300034A12069FEF780FCB8B934A1284602F02A
:10214000EBF8044604B941E033496069C1F8D000B6
:1021500032A1284602F0E0F8044604B936E02E48E1
:10216000D4302169FEF7EEFA30E02FA12069FEF7A6
:1021700063FC50B92EA1284602F0CEF8044604B9FB
:1021800024E02D496069086020E02CA12069FEF759
:1021900053FC50B926A1284602F0BEF8044604B903
:1021A00014E028496069086010E027A12069FEF763
:1021B00043FC50B91EA1284602F0AEF8044604B90B
:1021C00004E023496069086000E000BF284602F08F
:1021D00075F82D200149087000BF94E7380D0020E4
:1021E0004572726F72206265666F72653A205B2578
:1021F000735D0A00627573696E65737354797065F7
:102200000000000030303133000000006572726F52
:1022100072436F646500000060B901206572726FDF
:1022200072446573630000003030313500000000F7
:10223000526573756C7400002C0300203030313708
:102240000000000030030020303031390000000071
:10225000340300207047000029B1064A1268024387
:10226000044B1A6004E0034A12688243014B1A606F
:10227000704700003038024029B1064A1268024314
:10228000044B1A6004E0034A12688243014B1A604F
:10229000704700004038024029B1064A12680243E4
:1022A000044B1A6004E0034A12688243014B1A602F
:1022B000704700002038024029B1064A12680243E4
:1022C000044B1A6004E0034A12688243014B1A600F
:1022D000704700004438024029B1064A12680243A0
:1022E000044B1A6004E0034A12688243014B1A60EF
:1022F0007047000024380240F0B50021002200247D
:10230000022500260223324F3F6807F00C0121B15D
:10231000042905D0082937D105E02E4F076036E0A3
:102320002D4F076033E02A4F3F1F3F68C7F38056A9
:10233000274F3F1F3F6807F03F036EB1264FB7FBA3
:10234000F3F7DFF88CC0ACF1040CDCF800C0CCF380
:10235000881C07FB0CF40CE01E4FB7FBF3F7DFF80B
:1023600070C0ACF1040CDCF800C0CCF3881C07FB97
:102370000CF4174F3F1F3F68C7F301477F1C7D00D8
:10238000B4FBF5F7076002E0124F076000BF00BF23
:102390000F4F3F6807F0F0010909104F7A5C07689A
:1023A000D74047600A4F3F6807F4E051890A0B4F56
:1023B0007A5C4768D7408760054F3F6807F4604103
:1023C000490B064F7A5C4768D740C760F0BD0000F4
:1023D000083802400024F40000127A004D0000206A
:1023E0000149086070470000382C01400146002078
:1023F000034A12680A400AB1012000E00020704739
:10240000342C014010B500F017F810BD0021094B25
:1024100002681A601A1D11686FF30A01D0E90123DE
:102420001A43C3681A4303691A431143014A121D30
:1024300011607047082C014010B54FF48070FFF711
:10244000D5FF78B34C480078012814D100204B49BF
:1024500008600C204860402088600020C8604FF46D
:10246000806008610846FFF7D1FF0C20FFF704FCED
:102470004349087002E00020414908704148006863
:1024800040F480703F490860081D00684CF23A3102
:1024900088433C49091D086001203B4908703848C1
:1024A000007810BDFFE70220FFF7A0FF78B10220FF
:1024B000FFF796FF3348001D00684CF23A3188431D
:1024C0003049091D086002202D490870E9E70820FD
:1024D000FFF78CFF78B10820FFF782FF2948001D25
:1024E00000684CF23A3188432649091D08600420EF
:1024F00023490870D5E72020FFF778FF78B1202026
:10250000FFF76EFF1F48001D00684CF23A31884308
:102510001C49091D0860062019490870C1E71020F0
:10252000FFF764FF78B11020FFF75AFF1548001D30
:1025300000684CF23A3188431249091D08600520B1
:102540000F490870ADE74FF40070FFF74FFF80B1FF
:102550004FF40070FFF744FF0A48001D00684CF27A
:102560003A3188430749091D08600720044908706B
:1025700097E7002095E70000150000205004002098
:1025800016000020382C0140170000207047000082
:102590000CB50020019000903448006840F4803071
:1025A0003249086000BF3148006800F400300090F4
:1025B0000198401C0190009818B90198B0F5A04FFF
:1025C000F1D12A48006800F4003010B101200090D9
:1025D00001E0002000900098012846D123484030B7
:1025E000006840F080502149403108602048006870
:1025F00040F440401E4908601C48083000681B49F0
:10260000083108600846006840F400400860084649
:10261000006840F4A05008601648091F0860081FB1
:10262000006840F08070091F086000BF0F48006814
:1026300000F000700028F9D040F205700E490860E3
:102640000A480830006820F0030008490831086093
:102650000846006840F00200086000BF03480830E8
:10266000006800F00C000828F8D10CBD00380240CA
:102670000070004008544007003C0240042808D184
:102680004FF0E021096941F004014FF0E0221161AF
:1026900007E04FF0E021096921F004014FF0E0224A
:1026A000116170477047000010B51548006840F48C
:1026B0007000134908601348006840F00100114998
:1026C000086000200F49083108600E4800680E4974
:1026D00008400C4908600D48091D0860081F006883
:1026E00020F48020091F0860002006490C31086092
:1026F000FFF74EFF4FF0006001498039086010BDC0
:1027000088ED00E000380240FFFFF6FE10300024A4
:1027100010B501210A4800F079F801280AD10949C9
:10272000086980470021064800F08CF864210448BD
:1027300000F086F80121024800F04DF810BD0000BD
:10274000000800401402002010B50121094800F0E3
:102750005DF868B10848008840F4004006490880E8
:102760000121044800F037F80021024800F036F853
:1027700010BD0000001400401C0000207FB505467D
:102780000C4601212020FFF777FD0195ADF80040B0
:102790000020ADF80800ADF8020069460B4800F0D3
:1027A00053F801221146094800F041F837208DF80E
:1027B0000C0000208DF80D0001208DF80E008DF822
:1027C0000F0003A8FFF7FCFA7FBD000000140040D3
:1027D000CA4302827047CA430282704721B102880D
:1027E00042F00102028004E002884FF6FE731A40B4
:1027F000028070470146486A704702460020138AEB
:102800000B400BB1012000E00020704730B50246BC
:10281000002000230024158A05EA0103958905EAB2
:10282000010413B10CB1012000E0002030BD1AB149
:1028300083890B43838102E083898B4383817047C3
:10284000C16270474162704700220288184B98426B
:102850000ED0184B98420BD0B0F1804F08D0164BD9
:10286000984205D0154B984202D0154B984204D19E
:102870004FF68F731A404B881A43124B984207D079
:10288000114B984204D04FF6FF431A400B891A436C
:1028900002804B68C3620B880385054B984202D0C7
:1028A000044B984201D18B7A0386012383827047BF
:1028B0000000014000040140000400400008004006
:1028C000000C004000100040001400407FB504469A
:1028D0000D4601210420FFF7CFFCADF80050002089
:1028E000ADF802000194ADF8080069460D48FFF705
:1028F000ABFF012211460B48FFF799FF0121094860
:10290000FFF76CFF1E208DF80C0003208DF80D00E2
:102910008DF80E0001208DF80F0003A8FFF750FA84
:102920007FBD00000008004010B540F225514C4822
:1029300000F063FB002878D04948001D0088C4B22D
:102940004848006838B9232C04D146480068401C28
:102950004449086010BD4348006801280BD1212C70
:1029600005D140480068401C3E49086002E0002054
:102970003C490860EEE73B480068022808D1200285
:102980003949086037480068401C36490860E1E76B
:102990003448006803280AD133480068204432498B
:1029A000086030480068401C2E490860D2E72D4876
:1029B0000068042851D12D480068401C2B4908604C
:1029C00008460068FA2802DD00F044FAC2E727480A
:1029D000006825490968884205DC24480068401ED3
:1029E00023490C54B6E7214801681F480068401C81
:1029F000814204D12A2C01D000F02CFAAAE71B480E
:102A0000016819480068801C814202D1194804708D
:102A1000A0E71648016814480068C01C81421BD119
:102A2000262C03D000F016FA15E016E00E480178C7
:102A30000F4801F00FFD0F490978884209D1C821DC
:102A40000D48FDF784FF0A490B48FDF77BFEFFF7B1
:102A500055FB00F0FFF97DE77CE700BF7AE7000057
:102A6000004C0040380000203000002034000020DE
:102A7000700C00203C000020380D002010B540F202
:102A800025514C4800F0B9FA002877D04948808891
:102A9000C4B24948006838B9232C04D146480068BC
:102AA000401C4549086010BD4348006801280BD10F
:102AB000212C05D140480068401C3F49086002E0D5
:102AC00000203D490860EEE73B480068022808D135
:102AD00020023A49086038480068401C36490860BE
:102AE000E1E73548006803280AD1344800682044EB
:102AF0003249086030480068401C2F490860D2E71E
:102B00002D480068042852D12D480068401C2C49EB
:102B1000086008460068FA2802DD00F0B7F9C2E74D
:102B20002748006825490968884205DC2448006870
:102B3000401E24490C54B6E7214801681F4800682C
:102B4000401C814204D12A2C01D000F09FF9AAE751
:102B50001B48016819480068801C814202D11A484C
:102B60000470A0E71648016814480068C01C814240
:102B70001CD1262C03D000F089F916E017E00F488D
:102B80000178104801F066FC0F49097888420AD1A3
:102B90004FF496710D48FDF7DAFE0A490B48FDF730
:102BA000D1FDFFF7FFF900F071F97CE77BE700BF8B
:102BB00079E700000050004048000020400000205D
:102BC00044000020000E00204C0000202C0F0020AC
:102BD00010B540F225511D4800F00FFA10B31B4804
:102BE00000F0C4FAC4B21A48008800F40040C8B922
:102BF0001748008800F4804060B10A2C03D0002000
:102C00001349088020E01248008840F40040104931
:102C1000088019E00D2C06D10D48008840F4804052
:102C20000B49088010E00A480088C0F30D000949EC
:102C30000C5407480088401C054908800846008855
:102C4000C72801DD0020088010BD000000100140F1
:102C5000080000207003002010B54FF0FF30074936
:102C600008604FF496710648FDF771FE0020054993
:102C70000860054908600549087010BD2000002063
:102C8000180A002024000020280000202C0000202A
:102C900010B540F225514C4800F0AFF9002878D02B
:102CA0004948001D0088C4B24848006838B9232C40
:102CB00004D146480068401C4449086010BD4348A0
:102CC000006801280BD1212C05D140480068401C28
:102CD0003E49086002E000203C490860EEE73B48BE
:102CE0000068022808D12002394908603748006886
:102CF000401C36490860E1E73448006803280AD1DF
:102D00003348006820443249086030480068401C5D
:102D10002E490860D2E72D480068042852D12D487A
:102D20000068401C2B49086008460068FA2802DD4C
:102D3000FFF792FFC2E727480068254909688842E3
:102D400005DC24480068401E23490C54B6E721489E
:102D500001681F480068401C814204D12A2C01D020
:102D6000FFF77AFFAAE71B48016819480068801C32
:102D7000814202D119480470A0E71648016814483E
:102D80000068C01C81421CD1262C03D0FFF764FFD1
:102D900016E017E00E4801780F4801F05BFB0F4981
:102DA000097888420AD14FF496710D48FDF7CFFD9E
:102DB00009490B48FDF7C6FCFFF748F8FFF74CFF41
:102DC0007CE77BE700BF79E7004400402800002053
:102DD0002000002024000020180A00202C000020E1
:102DE000440B002010B540F22551164800F005F9BB
:102DF00000B3144800F0BAF9C4B21348008800F4D4
:102E00000040B8B910480088B0F5C87F13DA002137
:102E10000E48FFF717FD0C48008818B901210B4830
:102E2000FFF7DCFC084801880088401C064A108037
:102E30000748445405E00448008840F40040024933
:102E4000088010BD004800401C0000200014004015
:102E50008808002010B54FF0FF3007490860C821EE
:102E60000648FDF774FD0020054908600549086023
:102E70000549087010BD000030000020700C0020D3
:102E800034000020380000203C00002010B54FF036
:102E9000FF30074908604FF496710648FDF757FD6B
:102EA000002005490860054908600549087010BD03
:102EB00040000020000E00204400002048000020B8
:102EC0004C00002001F40072B2F5007F00D100BF79
:102ED000CA430280704721B1828942F40052828144
:102EE00004E082894DF6FF731A408281704700002A
:102EF00010B504463248844208D101211020FFF762
:102F0000EBF900211020FFF7E7F957E02D48844244
:102F100009D101214804FFF7BFF900214FF4003027
:102F2000FFF7BAF94AE02848844209D10121880410
:102F3000FFF7B2F900214FF48020FFF7ADF93DE033
:102F40002248844209D10121C804FFF7A5F90021D4
:102F50004FF40020FFF7A0F930E01D48844209D16A
:102F600001210805FFF798F900214FF48010FFF7C1
:102F700093F923E01748844208D101212020FFF76C
:102F8000ABF900212020FFF7A7F917E0124884428F
:102F900009D101218807FFF77FF900214FF0804018
:102FA000FFF77AF90AE00D48844207D10121400574
:102FB000FFF772F900216005FFF76EF910BD000000
:102FC000001001400044004000480040004C004018
:102FD000005000400014014000780040007C004098
:102FE00002460020B1F5007F00D100BF13880B40DE
:102FF0000BB1012000E00020704770B502460024AC
:1030000000230025002040F66A16B14200D100BF1F
:10301000C1F3421501F01F03012606FA03F3012D47
:1030200002D19689334006E0022D02D1168A334040
:1030300001E0968A33400C12012606FA04F4168841
:10304000344013B10CB1012000E0002070BDF0B598
:103050000346002400260025002040F66A17B942E6
:1030600000D100BF1846C1F3421401F01F0601272A
:1030700007FA06F5012C01D10C3004E0022C01D135
:10308000103000E014301AB107682F43076002E0E7
:103090000768AF430760F0BD2DE9FF4705460E46C0
:1030A0000024A14600BFA046B08900B100BF2C8A11
:1030B00024F44054F08804432C82AC8941F20C6023
:1030C0008443B08831890843718908430443AC8143
:1030D000AC8A24F44074B0890443AC826846FFF79C
:1030E0000BF92048854202D01F48854202D1DDF805
:1030F0000C9001E0DDF80890A88900F4004040B190
:1031000009EBC90000EB091031684900B0FBF1F789
:1031100007E009EBC90000EB091031688900B0FB3A
:10312000F1F76420B7FBF0F004012009642101FBF2
:103130001078A88900F4004040B1322000EBC800AC
:10314000B0FBF1F000F00700044308E0322000EB90
:1031500008106421B0FBF1F000F00F0004432C8153
:10316000BDE8FF8700100140001401400146888837
:10317000C0F308007047C1F308028280704700BFA7
:10318000FEE703B401984100009850EAC12018BF3F
:1031900004204A0D18BF40F0010040F2FF72B2EB6C
:1031A000515F08BF40F00200012808BF052002B0AF
:1031B00070472DED020B019820F0004001909DED2D
:1031C000000B02B0704700002DE9F0412DED020B1D
:1031D0009FED3D0B2DED028B9FED3D8BDDE9025404
:1031E000C4F30A50A0F2FF36142E37DA002E18DA94
:1031F00053EC102B9DED020B51EC100B03F0F4FD82
:1032000053EC182B04F084F957D2002CA4BF0024EF
:10321000254652DA24F00040284318BF2E4C4CD0EB
:103220001AE02E4820FA06F704EA070028431FD0C8
:1032300053EC102B9DED020B51EC100B03F0D4FD61
:1032400053EC182B04F064F937D2002C03DA4FF456
:103250008010F0400444BC4300252EE0332E07DCF0
:10326000A6F114004FF0FF3121FA00F73D4206D1DC
:103270009DED020BBDEC028B02B0BDE8F08153EC7A
:10328000102B9DED020B51EC100B04F077F953EC71
:10329000182B04F03DF910D2002C0DDA142E08BFC3
:1032A000641C09D0C6F13400012101FA00F0284461
:1032B000A84238BF641C0546BD43CDE902549DEDCC
:1032C000020BD7E7000000009C7500883CE4377EC5
:1032D00000000000000000000000F0BFFFFF0F0032
:1032E0002DE9F04D2DED040B2DED0C8B96B0DDE9A5
:1032F0002350259CDDF888A025F0004624F00048E6
:10330000BAF1000F14BF0121002101EB4502FE4973
:1033100053184A1093422AD3002814BF01230023D4
:1033200003EB44030B44F9498B4220D358EA0001D4
:103330009FEDF78B6FD0DFF8E0B35D4503D1BAF1B5
:10334000000F05D187E0BAF1000F08BF002100D0BF
:10335000012101EB450111F5001F08D8002814BF19
:103360000121002101EB440111F5001F0BD99DED56
:10337000241B9DED220B16B0BDEC0C8B04B0BDE8F8
:10338000F04D00F05DBE0027002DBCBFE34988452D
:1033900021DAE3498845A8BF02271CDAC3451ADCB5
:1033A000E04901EB2851142908DDC1F1340220FA6B
:1033B00002F101FA02F282420DD108E058B9C1F1DE
:1033C000140228FA02F101FA02F2424503D101F097
:1033D0000101C1F1020756EA0A011DD1002C1BDAD6
:1033E000002D18BF022F01D0012F0AD00220FDF7B7
:1033F00078FB16B0BDEC0C8B04B0BDE8F04D00F0CE
:1034000007BE0220FDF76DFB00F002FE51EC100B31
:1034100003F0DEFC83E01EE09FEDC39B9FEDC4AB99
:10342000002872D1BD4880452DD105F1804010F5AE
:10343000801008BFBAF1000F0DD0B34515DC002C89
:10344000A1BF9DED240B16B0BDEC0C8B04B0A8BF42
:10345000BDE8F08D12E0B0EE480AF0EE680A16B052
:10346000BDEC0C8B04B0BDE8F08D002C06DA9DEDB0
:10347000240B51EC100B03F0ABFC50E0AE48784449
:1034800090ED000BEBE7D8454FD1002C4ADA2EB176
:1034900086423BD1BAF1000F44D126E0BAF1000FC9
:1034A00013D00220FDF71DFB00F0E6FD8DED020BB1
:1034B0009DED220B8DED000B10EE900A039961F348
:1034C0001E0003909DED020BC9E78DED029B9DED63
:1034D000220B19EE901A10EE900A8DED000B61F39D
:1034E0001E0003909DED020BB9E78DED02AB9DED43
:1034F000220B1AEE901A10EE900A8DED000B61F37C
:103500001E0003909DED020BA9E729E00ADA9DED6C
:10351000220B51EC180B53EC102B03F021FD41EC66
:10352000100B9CE79DED220B99E7864218DAB4F167
:10353000804F0DD0A4F10050B0F1FF5010D1002DFC
:103540000EDB9DED220B51EC100B02F055F9E6E776
:103550009DED220B53EC102B51EC100B00F0AEBC88
:103560009DED220B51EC100B01F028F8BAF1000F81
:10357000CDE90C0134D19FED720BDEB1A6F1E04034
:10358000B0F17F602CD1002D01DD002C0DDA002D73
:1035900001DD002C1FDB002D16DA002C14DB012FBF
:1035A00008BF9FED690B3FF45AAFB0EE490AF0EE49
:1035B000690A54E7022F18BF002D0CD0012F0AD141
:1035C000002DFFF64CAF06E0002DB8BF002C07DA47
:1035D000012F3FF444AFB0EE4A0AF0EE6A0A3EE72C
:1035E000012000EBE57A5AEA07000CD05848002584
:1035F00080457CDD57495848884514DDB0420DDBD5
:10360000002C19DB2BE00120FDF76BFA16B0BDECA6
:103610000C8B04B0BDE8F04D00F01EBDB34502DCDC
:10362000002C09DC1BE0864202DA002C17DA03E0EA
:103630005E4527DD002C12DD0220FDF752FA00F076
:103640001BFD10EE901A19EE900A8DED020B8DED18
:10365000009B61F31E0003909DED020BFFE602202C
:10366000FDF73FFA00F018FD10EE901A18EE900AE0
:103670008DED020B8DED008B61F31E0003909DED2F
:10368000020BECE69DED220B53EC182B51EC100BCA
:1036900004F04CF89FED320BCDE90A0153EC102BEE
:1036A0009DED0A0B51EC100B03F034FE9FED2E1B29
:1036B00053EC112B03F062FF9DED0A1B53EC112B11
:1036C00003F028FE9FED2A1B53EC112B03F056FF4D
:1036D0009DED0A0B41EC190B53EC102B51EC100B28
:1036E00003F018FE53EC192B03F014FE00E07EE00B
:1036F0009FED210B41EC1A0B53EC102B9DED0A0BA7
:1037000051EC100B3CE00000FFFF1F00FFFF0F001B
:10371000000000000000F03F0000F03F0000F07FDC
:103720000000404301FCFFFF000000000000F07FAC
:1037300000000000000000007647000000000000CC
:103740000000000000000080000000000000F0FF0A
:103750000000E0410000F043FFFFEF3F00000000E9
:10376000000000000000D03F555555555555D53F38
:10377000000000000000E03F000000604715F73F38
:1037800003F0C8FD41EC190B9FEDFD0B51EC1A0B3A
:1037900053EC102B03F0BEFD41EC1A0B9FEDFA0B1E
:1037A00053EC102B9DED0A0B51EC100B03F0B2FD06
:1037B00053EC1A2B03F0BAFF41EC1A0B51EC190B26
:1037C00053EC1A2B03F010FB0690CDE906519DED4A
:1037D000060B53EC192B51EC100B03F0A7FF53EC25
:1037E0001A2B03F0CBFE41EC100B00F09FB9002028
:1037F000B6F5801F0EDA9FEDE60B53EC102B9DED16
:103800000C0B51EC100B03F085FDCDE90C016FF0B2
:1038100034000E4600EB2650A0F2FF38C6F313002A
:10382000DD4940F07F6646F040568842D8BF00240C
:1038300009DDDA498142C8BF012404DC0024A6F571
:10384000801608F10108D648784400EBC4000D96B4
:1038500090ED00BB9DED0C0B53EC1B2B51EC100BB2
:1038600003F064FF9DED0C0B41EC1A0B53EC1B2B8A
:1038700051EC100B03F0B8FA41EC100B51EC180BA3
:1038800053EC102B03F06CFB41EC1C0B51EC1A0BAE
:1038900053EC1C2B03F03EFD41EC190BC1488DEDA0
:1038A000109B7844109590ED000B4FF0005040EACB
:1038B000660000EB84408DED0A0B00F500200B90B4
:1038C0009DED0A0B53EC1B2B51EC100B03F02EFF5C
:1038D0009DED0C1B53EC112B03F050FE41EC100B33
:1038E00053EC102B9DED100B51EC100B03F012FD5F
:1038F0009DED0A0B41EC1B0B53EC102B9DED100BB7
:1039000051EC100B03F006FD53EC1A2B03F036FEBE
:1039100053EC1B2B03F00AFF53EC1C2B03F0FAFCB7
:1039200041EC1B0B53EC192B51EC190B03F0F2FC7F
:1039300041EC1A0B9C480621B0EE4A0AF0EE6A0AE6
:10394000784400F0E9FAB0EE40CAF0EE60CA53ECF9
:103950001A2B51EC1A0B03F0DDFC53EC1C2B03F07B
:10396000D9FC9DED100B41EC1A0B53EC192B51ECCB
:10397000100B03F039FA53EC1B2B03F0CBFC53EC88
:103980001A2B03F031FA9DED100B41EC1A0B53EC9E
:10399000102B51EC100B03F0BDFC41EC1C0B9FED08
:1039A00084DB53EC1D2B03F01FFA53EC1A2B03F0AE
:1039B0001BFA0A90CDE90A519DED0A0B53EC1D2B21
:1039C00051EC100B03F0B2FE53EC1C2B03F0AEFED7
:1039D00053EC1A2B03F0D2FD9DED0A0B41EC1C0BAE
:1039E00053EC102B9DED100B51EC100B03F092FCDF
:1039F00041EC1A0B53EC192B51EC1C0B03F08AFC15
:103A00009DED0A0B41EC190B53EC102B51EC1B0BE9
:103A100003F080FC53EC192B03F0E6F941EC190B91
:103A200051EC1A0B53EC192B03F0DEF91090CDE991
:103A300010519DED100B53EC1A2B51EC100B03F0B1
:103A400075FE53EC192B03F099FD41EC190B9FED1A
:103A50005A0B53EC102B9DED100B51EC100B03F097
:103A600059FC41EC1A0B9FED560B51EC190B53EC22
:103A7000102B03F04FFC41EC190B9FED530B53EC53
:103A8000102B9DED100B51EC100B03F043FC53EC8D
:103A9000192B03F0A9F941EC100B4D48784400EBC9
:103AA000C40090ED001B51EC100B53EC112B03F0F4
:103AB0009BF941EC190B404603F0D9FBCDE90A0113
:103AC00053EC192B51EC1A0B03F08EF941EC100B4F
:103AD0004048784400EBC40090ED00BB51EC100B63
:103AE00053EC1B2B03F080F99DED0A1B53EC112BBB
:103AF00003F07AF90690CDE906519DED0A0B53ECDF
:103B0000102B9DED060B51EC100B03F00FFE53EC48
:103B10001B2B03F00BFE53EC1A2B03F007FE53ECA8
:103B2000192B03F02BFD41EC100B00BF781EB0EEFB
:103B300048AAF0EE68AA5AEA000008BF9FED268B5B
:103B40009DED241B53EC102B8DED001B00959DED7E
:103B5000240B51EC100B03F0DDFB9DED000B41EC51
:103B6000190B53EC102B9DED240B51EC100B03F0B3
:103B7000DDFD9DED061B53EC112B03F0CBFB2FE07D
:103B8000FE822B654715F73F44DF5DF80BAE543ED0
:103B900000000000000040438E9803007AB60B003E
:103BA0001C4300005243000054420000000000008B
:103BB0000000000000000840000000E009C7EE3FE0
:103BC000FD033ADC09C7EE3FF5015B14E02F3EBE72
:103BD000E8400000A2400000000000000000F0BF2C
:103BE00053EC192B03F000F99DED060B41EC190B7A
:103BF00053EC102B9DED000B51EC100B03F08AFBE6
:103C0000CDE910019DED100B51EC190B53EC102B6D
:103C100003F0EAF8CDE902010C46AB498C422FDBF8
:103C2000611A084318D19DED100B53EC102B9DED3C
:103C3000020B51EC100B03F079FD41EC1B0B9FEDD7
:103C4000A40B51EC190B53EC102B03F0CDF853ECF3
:103C50001B2B03F05DFC2DD20220FCF742FF00F08D
:103C60000BFA10EE901A18EE900A8DED020B8DED06
:103C7000008B61F31E0003909DED020BFFF7EFBB7D
:103C8000954A24F00041914214D3944921440843B9
:103C90007FF4E5AC9DED100B53EC102B9DED020B6A
:103CA00051EC100B03F042FD53EC192B03F030FCE8
:103CB0007FF6D5AC24F0004089498A4A002601EB02
:103CC000205182422BDA481C4FF4801121FA00F077
:103CD0002044854AC0F30A517A44A1F2FF3192EDA3
:103CE000000B824A8DED0A0BCA4020EA0202C0F3A3
:103CF000130040F48010C1F1140120FA01F60B9278
:103D0000002CB8BF76429DED0A0B53EC102B9DEDB5
:103D1000100B51EC100B03F009FDCDE910019DEDE6
:103D2000100B51EC190B53EC102B03F05DF89FEDC9
:103D3000700B0A90CDE90A5153EC102B9DED0A0B44
:103D400051EC100B03F0E6FA41EC1B0B9FED6A0BF4
:103D500053EC102B9DED0A0B51EC100B03F0DAFA2B
:103D60009DED100B41EC1C0B53EC102B9DED0A0B41
:103D700051EC100B03F0DAFC53EC192B03F0FEFBB3
:103D80009FED5F1B53EC112B03F0C4FA53EC1C2B7B
:103D900003F02AF841EC190B51EC1B0B53EC192BD7
:103DA00003F022F8CDE902019DED020B53EC1B2B31
:103DB00051EC100B03F0BAFC53EC192B03F0DEFBB3
:103DC0009DED020B41EC190B53EC102B51EC100B39
:103DD00003F0A0FACDE90A014B489DED0A0B05213D
:103DE000784400F099F89DED0A1B51EC100B53EC50
:103DF000112B03F08FFA9DED021B53EC112B03F0F6
:103E0000BDFBCDE906019DED020B53EC192B51ECE6
:103E1000100B03F07FFA53EC192B02F0E5FF9FED36
:103E20003C0B41EC190B53EC102B9DED060B51ECA8
:103E3000100B03F07BFC9DED060B41EC1B0B53ECD0
:103E4000102B9DED020B51EC100B03F063FA53ECB9
:103E50001B2B03F085F853EC192B03F067FC9DED49
:103E6000021B53EC112B03F061FC53EC1A2B03F0F3
:103E700085FBCDE9020101EB065001150029C8BF01
:103E8000039015DC9DED020B324651EC100B03F054
:103E900070FDFFF776F9042808BF00F0FDF8324600
:103EA0009DED020B51EC100B03F063FDCDE9020117
:103EB0009DED020B51EC180B53EC102B03F02AFA7A
:103EC000FFF72DBB00000000000090400000000044
:103ED000FE822B654715973C00CC904000346F3F25
:103EE00001FCFFFF0000E03F1C3F0000FFFF0F0050
:103EF00000000000432EE63F396CA80C615C20BE38
:103F0000EF39FAFE422EE63FE43D000000000000DB
:103F1000000000000000004070B504462DED028B4B
:103F20004D1E00EBC500B0EE408AF0EE608A90EDC9
:103F3000000B35F0060017D053EC182B51EC100B8A
:103F400003F0E8F941EC100B6D1E04EBC50090ED99
:103F5000001B51EC100B53EC112B02F045FF41EC10
:103F6000100B35F00600E7D1022D36D0042D1CD001
:103F7000062D1CBFBDEC028B70BD53EC182B51EC11
:103F8000100B03F0C7F994ED0A1B53EC112B02F050
:103F90002BFF53EC182B03F0BDF994ED081B53ECE9
:103FA000112B02F021FF41EC100B53EC182B51ECBC
:103FB000100B03F0AFF994ED061B53EC112B02F03C
:103FC00013FF53EC182B03F0A5F994ED040B53ECFD
:103FD000102B02F009FF41EC100B53EC182B51ECA5
:103FE000100B03F097F994ED021B53EC112B02F028
:103FF000FBFE53EC182B03F08DF994ED001B53ECF2
:10400000112B02F0F1FEBDEC028B41EC100B70BDE8
:104010009FED070B10B553EC102B9FED070B51ECE8
:10402000100B02F09DFF41EC100B10BD00000000D2
:104030000000000000000000000000000000F03F51
:1040400010B553EC112B51EC100B02F0CDFE41ECEE
:10405000100B10BD000000009FED050B10B553ECD8
:10406000102B51EC100B02F07BFF41EC100B10BD3C
:1040700000000000000000009FED050B10B553ECA0
:10408000102B51EC100B03F045F941EC100B10BD57
:1040900000000000000000709FED050B10B553EC10
:1040A000102B51EC100B03F035F941EC100B10BD47
:1040B000000000000000001030380A2801D2012062
:1040C000704700207047014600BF704710B5044696
:1040D0002146002000F08CFB10BD10B5044621469F
:1040E000002000F097FB10BD70B50446002509487C
:1040F000008800F4004058B1002006490988C1F347
:104100000E01054A505421461046FCF709FB0546AE
:10411000284670BD1C0000208808002010B500BF94
:104120001748008800F040000028F9D02B201449DF
:10413000091D08800F2000F0BFF900BF104800885B
:1041400000F040000028F9D02B200D49091D0880FF
:104150000F2000F0B1F900BF0948008800F04000CE
:104160000028F9D02B200649091D08804FF4FA7069
:1041700000F0A2F9142203A103A000F007F810BD7B
:10418000004800404F4B0000415400002DE9F04131
:1041900006460D4614460027002013490880314684
:1041A00012A001F063FBE5B1DCB113E00A2000F0DE
:1041B00083F90D48008800F4004058B12846FFF705
:1041C00093FF20B129460BA0FCF7E4F806E000209D
:1041D00005490880601E80B20400E7D100BF04B921
:1041E00001273846BDE8F0811C00002025730D0A28
:1041F0000000000061636B3A25730D0A00000000A7
:1042000070B505460E46AC6806B970BD0CB9AE6017
:1042100009E000E0246814B120680028FAD1314692
:10422000204601F020FB00BFEFE7000070B5064616
:104230000D46144604B970BD206A18B10649206ABB
:1042400009688847284600F0EFF82062214630468A
:10425000FFF7D6FF00BFEEE71003002010B52DEDED
:10426000028BB0EE408AF0EE608A00F065F80446FA
:1042700044B10320E06084ED068B51EC180B02F092
:10428000C7FF60612046BDEC028B10BD10B500F089
:1042900053F804460CB10620E060204610BD70B50E
:1042A000054600F049F804462CB10420E060284699
:1042B00000F0BAF82061204670BD000070B50446D9
:1042C0001EE02568A08900F4807020B9A06810B1B4
:1042D000A068FFF7F3FFA08900F4807028B9206977
:1042E00018B10949206909688847206A18B1064948
:1042F000206A0968884720460349096888472C4690
:10430000002CDED170BD00001003002001480068C1
:10431000704700000803002070B505460E46AC68E3
:1043200000E024682CB13146206A00F057F80028DC
:10433000F7D1204670BD000010B528200549096856
:10434000884704461CB128212046FCF722FB204662
:1043500010BD00000C03002010B5044600221146D9
:10436000204600F001F810BD2DE9F04780460D46CB
:1043700016460024FFF7E0FF0746002012490860B8
:104380000FB9BDE8F087404601F02DFA8146494655
:10439000384600F00BFE044624B93846FFF78EFF7E
:1043A0000020EEE766B1204601F01DFA04462078B1
:1043B00030B13846FFF782FF034804600020E0E791
:1043C00005B12C603846DCE70803002010B5044630
:1043D00000221146204601F0B9F910BD70B504461F
:1043E0000D462CB9AC4201D0012070BD0020FCE785
:1043F0000DB90120F9E705E0207808B90020F4E7BD
:10440000641C6D1C2078FBF7A6FF06462878FBF796
:10441000A2FF8642F0D02078FBF79DFF0646287861
:10442000FBF799FF301AE0E770B504462046FCF729
:10443000ADF9451C2846064909688847060000D1A1
:1044400070BD2A4621463046FCF70AFA3046F7E7A7
:104450000C03002010B502460B46002104E012F8C0
:10446000010B4840044C215C1800A3F10104E3B2A5
:10447000F5D1C843C0B210BDFE79000810B504469E
:104480006FF00400FEF7FAF8E11704EB5171C1F385
:10449000C701074A11701046007800EB4001C1EBDC
:1044A000C0104FF6FF7101EAC0000249088010BD3C
:1044B000000000200200002070B504464FF4077091
:1044C00094FBF0F0C6B24FF4077094FBF0F100FBE0
:1044D000114085B205E04FF4077000F009F8701E36
:1044E000C6B2002EF7D115B1284600F001F870BD14
:1044F0000146114A12884A434FF0E0235A610022D4
:104500009A611A46126942F001021A6100BF4FF027
:10451000E022106900F001021AB100F48032002A92
:10452000F5D04FF0E022126922F001024FF0E023B3
:104530001A6100229A6170470200002010B54FF402
:104540000C71002000F066F9184908604FF40C71F6
:10455000002000F05FF9154948604FF40A7100200F
:1045600000F058F9124908604FF40A71002000F079
:1045700051F9104908604FF40071002000F04AF929
:104580000D4908600948006868B10848406850B1A2
:104590000748006838B10748006820B1084600683D
:1045A00008B1002010BD0120FCE70000BC01002084
:1045B000C4010020C8010020D401002082B0CDE950
:1045C000000121F0004001909DED000B02B051EC84
:1045D000100B704700BF054A128802F04002002A03
:1045E000F9D0C2B2014B9A80704700000010014020
:1045F00000BF00BF4FF4A060FDF71EFCA820FFF72E
:104600003DFF4FF4E13001F075FA4FF4E13001F075
:10461000CBFA4FF4E13001F051F94FF4E13001F001
:10462000A3F94FF4E13001F0F7F90A484168A820F6
:104630008847002000F046F8022000F043F8FFF71A
:104640007DFF00F005F903E04FF47A70FFF734FFC7
:10465000FAE70000140200202DE9F04104460E465E
:104660001548005D38B9144820380168204688474D
:104670000120BDE8F081114850F82400B04219D95A
:104680000F4850F82400B6FBF0F10B480C3850F8F6
:10469000240030F81120002508E0002306480C38DB
:1046A00050F824004F1920F817306D1C9542F4DBA8
:1046B0000020DEE70220DCE780000020187B0008F5
:1046C0000C7B000810B504460C4951F824104A0030
:1046D0000B4951F82400002100F0B0F8094951F8C5
:1046E000242007490C3951F82400002100F0A6F8D5
:1046F000012103480C30015510BD0000007B00086B
:1047000074000020187B00082DE9F04704460F468E
:104710000025A9462348005D20B9224820380168B9
:10472000204688471FB94FF0FF30BDE8F0871E488C
:1047300050F82400B7FBF0F61B4850F82400B7FBF4
:10474000F0F100FB117000B1761C184850F82400FD
:10475000451E22E013480C3850F8240030F81500AC
:1047600010B909F1010901E04FF00009B14513D179
:104770004FF0000809E00B480C3850F8240005EB16
:10478000080220F8126008F10108B045F3D306488A
:1047900050F824006843C8E76D1E002DDADA4FF0A8
:1047A000FF30C2E7800000200C7B0008007B00087F
:1047B00010B501460023002207E00B4850F8210005
:1047C00030F8120000B15B1C521C084850F8210060
:1047D0009042F2D864205843044C54F82140B0FB76
:1047E000F4F0C0B210BD000074000020007B00088F
:1047F00070B505460C4604B970BD054850F8250053
:10480000261A31462846FFF727FF00BFF4E70000CD
:104810006800002070B504460E4631462046FFF77A
:1048200073FF0546681C08B9002070BD024850F8A7
:1048300024002844F9E700006800002030B5034652
:1048400001E003F8011B1400A2F10102F9D130BD0F
:10485000F0B5CBB04FF496716846FCF79AF8232078
:104860008DF8000021208DF80100FFF70FFD0646AE
:1048700025A0FFF714FD07463A4625A13046FFF76D
:10488000D5FC9FED270BFFF7E9FC07463A4626A12A
:104890003046FFF7CBFC9FED260BFFF7DFFC07460A
:1048A0003A4625A13046FFF7C1FC3046FFF78EFDA2
:1048B00005463046FFF702FD2846FBF767FF84B246
:1048C00020128DF80200E0B28DF80300224629463E
:1048D00001A8FCF785F82A21201D0DF80010E1B28F
:1048E0002846FFF7B7FD611D0DF801002621A01D28
:1048F0000DF80010694612A0FBF74CFD2846FFF7A3
:10490000E5FB4BB0F0BD000030303134000000005A
:10491000627573696E657373547970650000000089
:10492000CDCCCCCCCCCCE43F486569676874000042
:10493000736891ED7C3FB53F44657074680000007A
:10494000257300002DE9F04705460C4620785B28CA
:1049500004D0264804600020BDE8F0870520E86008
:10496000601C00F040FF044620785D2801D1601CE7
:10497000F2E7FFF7E1FC0646A860A86808B9002046
:10498000EAE7204600F02FFF80464146304600F01F
:104990000DFB074600F027FF04460CB90020DBE7BB
:1049A00017E0FFF7C9FC070000D1D5E737607E604C
:1049B0003E46601C00F017FF81464946304600F035
:1049C000F5FA804600F00FFF04460CB90020C3E75B
:1049D00000BF20782C28E4D020785D2801D1601C0D
:1049E000BAE7024804600020B6E700000803002090
:1049F000014600220878302806DB0878392803DCD5
:104A000008783038024415E00878412806DB087839
:104A1000462803DC0878373802440BE00878612820
:104A200006DB0878662803DC08785738024401E082
:104A3000002070471201491C0878302806DB0878EE
:104A4000392803DC08783038024415E0087841281A
:104A500006DB0878462803DC0878373802440BE088
:104A60000878612806DB0878662803DC0878573860
:104A7000024401E00020DCE71201491C08783028DC
:104A800006DB0878392803DC08783038024415E062
:104A90000878412806DB0878462803DC0878373890
:104AA00002440BE00878612806DB0878662803DCFE
:104AB00008785738024401E00020BAE71201491C87
:104AC0000878302806DB0878392803DC0878303885
:104AD000024415E00878412806DB0878462803DC04
:104AE0000878373802440BE00878612806DB08783C
:104AF000662803DC08785738024401E0002098E774
:104B0000104696E72DE9F0412DED0E8B05460C463B
:104B10009FED660BB0EE408AF0EE608A9FED650B6C
:104B2000B0EE40AAF0EE60AA9FED600BB0EE409AA6
:104B3000F0EE609A0026012720782D2806D19FEDFF
:104B40005F0BB0EE40AAF0EE60AA641C207830281B
:104B500000D1641C2078312821DB207839281EDC24
:104B600000BF14F8011BA1F1300002F080FB41EC02
:104B70001B0B9FED540B53EC102B51EC180B02F058
:104B8000C9FB41EC1C0B53EC1B2B02F02DF941EC43
:104B9000180B2078302802DB20783928E1DD2078D6
:104BA0002E282FD1607830282CDB6078392829DC3A
:104BB000641C00BF14F8011BA1F1300002F057FB88
:104BC00041EC1B0B9FED3F0B53EC102B51EC180BE2
:104BD00002F0A0FB41EC1C0B53EC1B2B02F004F980
:104BE00041EC180B9FED330B53EC102B51EC190BD0
:104BF00002F09CFD41EC190B2078302802DB207874
:104C00003928D7DD2078652802D02078452819D1A9
:104C1000641C20782B2801D1641C05E020782D2805
:104C200002D14FF0FF37641C06E014F8010B303856
:104C300006EB860100EB41062078302802DB207865
:104C40003928F2DD06FB07F002F011FB41EC1E0BE8
:104C500053EC192B02F0C8F841EC1D0BB0EE4D1AC5
:104C6000F0EE6D1A9FED170BFEF73AFBB0EE40BA6F
:104C7000F0EE60BA53EC182B51EC1A0B02F04AFB21
:104C800041EC1C0B53EC1B2B02F044FB41EC180BCA
:104C900085ED068B51EC180B02F0BAFA686103201F
:104CA000E8602046BDEC0E8BBDE8F08100000000FE
:104CB00000000000000000000000F03F00000000C5
:104CC0000000F0BF00000000000024402DE9F04784
:104CD00006460C4620787B2804D04048046000201B
:104CE000BDE8F0870620F060601C00F07CFD044603
:104CF00020787D2801D1601CF2E7FFF71DFB0546F7
:104D0000B060B06808B90020EAE7204600F06BFD0B
:104D100080464146284600F063F8074600F063FDF0
:104D200004460CB90020DBE72869286200202861CE
:104D300020783A2803D0294804600020D0E7601C7E
:104D400000F051FD80464146284600F02FF9074605
:104D500000F049FD04460CB90020C1E731E0FFF73F
:104D6000EBFA070000D1BBE72F607D603D46601C79
:104D700000F039FD81464946284600F031F880466A
:104D800000F031FD04460CB90020A9E7286928622B
:104D90000020286120783A2803D0104804600020C1
:104DA0009EE7601C00F01FFD81464946284600F042
:104DB000FDF8804600F017FD04460CB900208FE78F
:104DC00000BF20782C28CAD020787D2801D1601C13
:104DD00086E702480460002082E700000803002004
:104DE0002DE9F05F8346884608F10104002798F812
:104DF0000000222805D06A48C0F800800020BDE8E5
:104E0000F09F04E014F8011B5C2900D1641C207899
:104E1000222804D0207810B1781C0700F2D1781C29
:104E20006049096888478146B9F1000F01D1002027
:104E3000E5E708F101044D469EE020785C2804D0A7
:104E400014F8010B05F8010B96E0641C2078722819
:104E500018D006DC622809D066280BD06E287DD1D8
:104E60000CE0742812D07528F9D113E0082005F859
:104E7000010B7FE00C2005F8010B7BE00A2005F810
:104E8000010B77E00D2005F8010B73E0092005F810
:104E9000010B6FE0601CFFF7ABFD0646241DB6F565
:104EA0005C4F02D3B6F5604F00D306B962E0B6F5A9
:104EB000584F1CD3B6F55C4F19D260785C2802D1EC
:104EC000A078752800D055E0E01CFFF791FD8246E0
:104ED000A41DBAF55C4F02D3BAF5604F00D349E088
:104EE000C6F30901504661F39F2000F58036042780
:104EF000802E01D2012708E0B6F5006F01D202270B
:104F000003E0B6F5803F00D203273D44012F20D0B7
:104F1000022F15D0032F0AD0042F24D106F0BF0092
:104F200040F08001681E05460170B60900BF06F01A
:104F3000BF0040F08001681E05460170B60900BF41
:104F400006F0BF0040F08001681E05460170B609FA
:104F500000BF1548C05D3043C1B200E006E0681EE6
:104F60000546017000BF00BF3D4403E0207805F80E
:104F7000010B00BF00BF641C2078222803D02078DA
:104F800000287FF45AAF002028702078222800D112
:104F9000641CCBF810900420CBF80C0020462EE7C0
:104FA000080300200C030020247B000870B5054690
:104FB0000C460CB9002070BD042224A12046FBF74A
:104FC00004FC18B90220E860201DF4E7052221A1A5
:104FD0002046FBF7FAFB18B90020E860601DEAE7FD
:104FE00004221EA12046FBF7F0FB20B90120E86057
:104FF0006861201DDFE72078222804D12146284659
:10500000FFF7EEFED7E720782D2805D0207830284E
:1050100007DB2078392804DC21462846FFF772FD9B
:10502000C9E720785B2804D121462846FFF78AFC8F
:10503000C1E720787B2804D121462846FFF746FEA9
:10504000B9E7084804600020B5E700006E756C6C95
:105050000000000066616C73650000007472756585
:1050600000000000080300202DE9F74F82B08346BE
:105070004FF0000805200190DBF80890002700257C
:105080000020009002E07F1CD9F80090B9F1000FD9
:10509000F9D17FB903204C49096888478046B8F1A7
:1050A000000F03D049A14046FBF74CFB404605B03A
:1050B000BDE8F08FB80044490968884706460EB934
:1050C0000020F4E7B9003046FBF763FCDBF80890FA
:1050D0001FE0DDE90312491C484600F037FB824619
:1050E00029466D1C46F821A0BAF1000F0DD050469C
:1050F000FBF74CFB801C049909B1012100E0002161
:10510000014401980844019001E001200090D9F881
:105110000090B9F1000F02D000980028D9D0009873
:1051200020B929490198096888478046B8F1000FDD
:1051300001D101200090009890B1002508E056F8B8
:10514000250020B156F825002149096888476D1CC3
:10515000BD42F4DB30461E49096888470020A6E7B7
:105160005B2088F8000008F1010400202070002571
:105170001CE056F825102046FBF7E4FA56F8250007
:10518000FBF704FB0444781EA84209D02C2004F845
:10519000010B049810B1202004F8010B00202070AE
:1051A00056F825000A49096888476D1CBD42E0DBB6
:1051B00030460749096888475D2004F8010B002044
:1051C00004F8010B404672E70C0300205B5D000011
:1051D0001003002070B52DED088B054695ED060BEC
:1051E000B0EE408AF0EE608A686902F040F841EC67
:1051F0001B0B53EC182B02F099FA41EC1A0BB0EE92
:105200004A0AF0EE6A0AFDF7D4FFB0EE409AF0EEDB
:10521000609A9FED520B53EC102B51EC190B02F0DE
:105220003DF81ED89FED4F0B53EC102B51EC180B93
:1052300002F034F815D89FED4D0B53EC102B51ECC8
:10524000180B02F065F90CD815204A4909688847FF
:105250000446002C7ED048A120466A69FBF7A6F8D8
:1052600078E040204349096888470446002C71D003
:10527000B0EE480AF0EE680AFDF7A6FFB0EE40BABD
:10528000F0EE60BA53EC182B51EC1B0B02F04EFA07
:1052900041EC1A0BB0EE4A0AF0EE6A0AFDF789FFFC
:1052A000B0EE409AF0EE609A9FED2C0B53EC102B71
:1052B00051EC190B01F0F2FF19D8B0EE480AF0EEEC
:1052C000680AFDF776FFB0EE409AF0EE609A9FED27
:1052D0002B0B53EC102B51EC190B01F0DFFF06D216
:1052E00053EC182B27A12046FBF760F832E0B0EE14
:1052F000480AF0EE680AFDF75CFFB0EE409AF0EE67
:10530000609A9FED220B53EC102B51EC190B01F01E
:10531000C5FF12D3B0EE480AF0EE680AFDF749FF68
:10532000B0EE409AF0EE609A9FED1A0B53EC102B02
:1053300051EC190B02F0ECF806D253EC182B17A124
:105340002046FBF733F805E053EC182B14A1204658
:10535000FBF72CF82046BDEC088B70BD0000000068
:105360000000B03C0000C0FFFFFFDF410000000074
:105370000000E0C10C0300202564000044F3C2E4F7
:10538000E4E9634C252E3066000000008DEDB5A0E9
:10539000F7C6B03E0000000065CDCD412565000098
:1053A000256600002DE9F74F88B0884616464FF075
:1053B0000009CA460020079007200490002508989D
:1053C0008068029000270020019003E07F1C029873
:1053D0000068029002980028F8D14FBB16B108F17E
:1053E000040100E0032108468949096888470790BD
:1053F000079818B900200BB0BDE8F08F079C7B2000
:1054000004F8010B66B10A2004F8010B002503E043
:10541000092004F8010B6D1CA8F10100A842F7DC7B
:105420007D2004F8010B002004F8010B0798E2E747
:10543000B8007749096888478146B9F1000F01D162
:105440000020D8E7B8007249096888478246BAF157
:10545000000F05D148466F49096888470020CAE710
:10546000B9004846FBF795FAB9005046FBF791FAA8
:1054700008988068029008F1010816B10498404429
:1054800004902DE00299086A00F0CCF805904AF8E3
:10549000250032464146029800F058F929466D1C15
:1054A000069049F821000598A8B1069898B1069889
:1054B000FBF76CF983460598FBF768F90BEB0001E5
:1054C000891C16B108F1020000E000200144049894
:1054D0000844049001E001200190029800680290C5
:1054E00002980028CED1019820B94949049809684A
:1054F00088470790079808B9012001900198F0B1FA
:10550000002510E05AF8250020B15AF8250041493D
:105510000968884759F8250020B159F825003D4908
:10552000096888476D1CBD42ECDB50463949096863
:105530008847484637490968884700205BE77B2150
:10554000079801700798441C16B10A2004F8010B53
:105550000020207000253EE05EB10020039005E0B1
:10556000092004F8010B0398401C03900398404560
:10557000F6DB5AF825102046FBF7E4F85AF8250028
:10558000FBF704F904443A2004F8010B16B1092092
:1055900004F8010B59F825102046FBF7D3F859F809
:1055A0002500FBF7F3F80444781EA84202D02C2013
:1055B00004F8010B16B10A2004F8010B002020703A
:1055C0005AF8250013490968884759F825001149F8
:1055D000096888476D1CBD42BEDB50460D4909680D
:1055E000884748460B49096888474EB1002503E0C3
:1055F000092004F8010B6D1CA8F10100A842F7DC9A
:105600007D2004F8010B002004F8010B0798F2E656
:105610000C0300201003002010B50446206900F0A0
:1056200001F810BD2DE9F04707464FF0000827B9F3
:1056300040A0FEF7F9FEBDE8F0873D460DE0494683
:105640003DA0FBF763F810B108F1010804E0B9F1DF
:10565000200F01DA08F105086D1C95F80090B9F1EA
:10566000000F04D008F101005FEA0008E7D108F15B
:10567000030033490968884706460EB90020DAE777
:1056800034463D46222004F8010B47E028781F28C5
:105690000ADD2878222807D028785C2804D015F85D
:1056A000010B04F8010B39E05C2004F8010B15F83C
:1056B000011B89460C2919D006DC082912D00929BA
:1056C00020D00A2922D115E00D2917D0222905D092
:1056D0005C291BD15C2004F8010B1EE0222004F899
:1056E000010B1AE0622004F8010B16E0662004F8B2
:1056F000010B12E06E2004F8010B0EE0722004F89A
:10570000010B0AE0742004F8010B06E04A460DA1E3
:105710002046FAF74BFE641D00BF00BF2878002822
:10572000B4D1222004F8010B002004F8010B30460C
:1057300081E7000000000000225C080C0A0D09004F
:105740000C03002075253034780000002DE9F0416D
:1057500004460D461646002714B90020BDE8F08126
:10576000207B07282CD2DFE800F0090E0413181D57
:10577000240015A0FEF758FE074621E014A0FEF70E
:1057800053FE07461CE014A0FEF74EFE074617E046
:105790002046FFF71FFD074612E02046FFF73CFFBB
:1057A00007460DE0324629462046FFF75DFC0746D6
:1057B00006E0324629462046FFF7F4FD074600BFC3
:1057C00000BF3846CAE700006E756C6C0000000030
:1057D00066616C73650000007472756500000000FE
:1057E00001460868704700E0401C20B1017811B103
:1057F00001782029F8DD704700B52DED048B83B0CA
:1058000041EC190B01F0C6FE41EC180B18EE100A22
:1058100018EE901A8DED008B002818BF0120084368
:1058200020F00040C0F17F6000F1E040C00F14D0D4
:1058300019EE101A19EE900A8DED009B002918BF81
:105840000121084320F00040C0F17F6000F1E040FA
:10585000C00F04BF0120FBF744F951EC180B03B053
:10586000BDEC048B00BD0160486070470FB438B5D3
:1058700005A800900F48009A0499FAF779FD0020D6
:1058800000900C48FAF782FF85B200240DE000BFBB
:1058900040210948FDF7A4FB0028F9D00548015D27
:1058A0000548FDF768FC601C84B2AC42EFDB38BCF5
:1058B0005DF814FBF80600200048004010B588B0E1
:1058C000044601210846FCF7C7FC01214804FCF707
:1058D000D3FC072202212248FCF749FA07220321C0
:1058E0001F48FCF744FA0C20059002208DF81800A0
:1058F0008DF8190000208DF81A0001208DF81B008A
:1059000005A91748FCF7EBF901940020ADF8080051
:10591000ADF80A00ADF80C00ADF810000C20ADF8A1
:105920000E0001A90F48FDF7B7FB26208DF81C00DB
:1059300000208DF81D0003208DF81E0001208DF839
:105940001F0007A8FCF73CFA012240F22551054848
:10595000FDF77DFB01210348FDF7BDFA08B010BD3E
:10596000000002400044004010B588B00446012108
:105970000420FCF771FC0121C804FCF77DFC08221F
:105980000B212348FCF7F3F908220A212048FCF7F1
:10599000EEF94FF44060059002208DF818008DF864
:1059A000190000208DF81A0001208DF81B0005A9B0
:1059B0001748FCF794F901940020ADF80800ADF801
:1059C0000A00ADF80C00ADF810000C20ADF80E0088
:1059D00001A91048FDF760FB34208DF81C00002061
:1059E0008DF81D0003208DF81E0001208DF81F008A
:1059F00007A8FCF7E5F9012240F225510548FDF71B
:105A000026FB01210348FDF766FA08B010BD00002F
:105A100000080240004C004010B588B00446012147
:105A20000420FCF719FC01210820FCF715FC0121DA
:105A30000805FCF721FC08220C212B48FCF797F9FC
:105A4000082202212948FCF792F94FF48050059072
:105A500002208DF818008DF8190000208DF81A002A
:105A600001208DF81B0005A91F48FCF738F9042018
:105A7000059002208DF818008DF8190000208DF88F
:105A80001A0001208DF81B0005A91848FCF727F91A
:105A900001940020ADF80800ADF80A00ADF80C0044
:105AA000ADF810000C20ADF80E0001A91048FDF76C
:105AB000F3FA35208DF81C0000208DF81D0003201E
:105AC0008DF81E0001208DF81F0007A8FCF778F95B
:105AD000012240F225510648FDF7B9FA0121044898
