:020000040800F2
:10000000C0D2012025030008C5250008D724000818
:10001000C12500086D1E000867530008000000009D
:10002000000000000000000000000000754700080C
:100030006522000800000000992A00088D48000889
:100040003F0300083F0300083F0300083F03000888
:100050003F0300083F0300083F0300083F03000878
:100060003F0300083F0300083F0300083F03000868
:100070003F0300083F0300083F0300083F03000858
:100080003F0300083F0300083F0300083F03000848
:100090003F0300083F0300083F0300083F03000838
:1000A0003F0300083F0300083F0300083F03000828
:1000B0003F0300083F030008F94800083F03000819
:1000C0003F0300083F0300083F0300083F03000808
:1000D0003F030008B94D0008794E0008CD4F0008D5
:1000E0003F0300083F0300083F0300083F030008E8
:1000F0003F0300083F0300083F0300083F030008D8
:100100003F0300084D2D00083F0300083F0300088F
:10011000114B0008654C00083F03000831490008F6
:100120003F0300083F0300083F0300083F030008A7
:100130003F0300083F0300083F0300083F03000897
:100140003F0300083F0300083F0300083F03000887
:100150003F0300083F0300083F0300083F03000877
:100160003F0300083F0300083F0300083F03000867
:100170003F0300083F0300083F0300083F03000857
:100180003F0300083F03000800F002F800F0B2F857
:100190000AA090E8000C82448344AAF10107DA45E2
:1001A00001D100F0A7F8AFF2090EBAE80F0013F082
:1001B000010F18BFFB1A43F00103184778C800006D
:1001C00098C800000A444FF0000C10F8013B13F0EF
:1001D000070408BF10F8014B1D1108BF10F8015BA0
:1001E000641E05D010F8016B641E01F8016BF9D193
:1001F00013F0080F1EBF10F8014BAD1C0C1B09D1EA
:100200006D1E58BF01F801CBFAD505E014F8016B5B
:1002100001F8016B6D1EF9D59142D6D370470000ED
:100220000023002400250026103A28BF78C1FBD8FF
:10023000520728BF30C148BF0B6070476E2900F0DD
:10024000C984702900F09B8166290CF00081652922
:100250000CF0FD8067290CF0FA806129AFF3008073
:1002600003681B0A28BF41F08001692900F00C8156
:10027000642900F00981752900F006816F2900F0DA
:10028000CF87782900F06781E92900F06987E429A0
:1002900000F06687F52900F06387EF2900F0CC872E
:1002A000F82900F066810368DB0928BF41F080016E
:1002B000632900F0D886732900F0DD86E32901F078
:1002C0005D80F32901F06280002070471FB50CF0BB
:1002D000B9F800F0BFFF0400002000210BF0EEFA97
:1002E000401C6060002000210BF0FEFAE0601FBDA2
:1002F00010B510BD01F0E0F81146FFF7E7FF08F078
:100300006FFE01F0FEF803B4FFF7F2FF03BC06F046
:100310005EF9000030BF72B6704762B6704780F376
:10032000088870470948804709480047FEE7FEE70C
:10033000FEE7FEE7FEE7FEE7FEE7FEE7FEE7FEE795
:1003400004480549054A064B7047000091480008DB
:1003500089010008C0CC0120C0D20120C0CE0120FC
:10036000C0CE0120704710B5044600F0B1FB006814
:10037000005DC00602D504F1200010BD204610BD6E
:100380001CB50C46064B7B4469460090204600F0A5
:1003900048FE04460020694600F056FE20461CBD7B
:1003A000BF0C00000FB4044910B503AA029800F076
:1003B00067FE10BC5DF814FB040000200FB41CB5F0
:1003C000084B06AA7B4469460090059800F029FE78
:1003D00004460020694600F037FE20461CBC5DF84C
:1003E00014FB0000810C000070B5044685690068AC
:1003F000C10601D5302600E02026C00707D070BD19
:10040000D4E9012130469047206A401C20626D1ECD
:10041000F6D570BD70B5044685690078C00707D170
:1004200070BDD4E9012120209047206A401C206241
:100430006D1EF6D570BD70B50C460546012A05D077
:100440002878800600D5EA69002302E0012305E050
:100450005B1C934202D2E05C0028F9D1A869E6183F
:10046000C01AA861286A184428622846FFF7BCFF12
:1004700004E0D5E9012114F8010B9047B442F8D308
:100480002846FFF7C7FF70BD2DE9F041064600245E
:1004900010687529314616A510D000F030FB0028F1
:1004A00002DA404213A507E031688A0701D512A598
:1004B00002E0490704D511A5012401E000F028FB62
:1004C00000210A2206F1240709E0B0FBF2FCB0FB90
:1004D000F2F302FB1C00303078541846491C002807
:1004E000F3D123462A463046BDE8F04100F019BB5F
:1004F000000000002D0000002B0000002000000084
:10050000F0B40D460188090502D5214C7C4402E077
:100510001F4C7C440E34002100F1240608E002F058
:100520000F071209E75D42EA03721B097754491C61
:1005300052EA0307F3D102780023120704D5702D85
:1005400006D009B1022311342246F0BC00F0E9BA0A
:1005500001231034F8E770B504460D4621461068B3
:1005600000F0D6FA024629462046BDE87040002336
:10057000C6E7D21D22F00703D3E90023C0E70368D2
:10058000126843F0200303600823C3610023B7E728
:100590005FC100002DE9F05F894604464FF0000A74
:1005A000DFF874B1FB44C0F820A02046E16888471A
:1005B000002874D0252806D0D4E901219047206A6C
:1005C000401C2062F1E700265F462046E16888472C
:1005D0002028054607DB312D05D2781910F8200CAC
:1005E00008B10643F1E7B00701D526F00406C4F8C8
:1005F0001CA00027C4F818A02A2D09D0284605F011
:10060000DFFF38B304EB8708303DC8F8185019E015
:1006100059F8041B204604EB87029161E168884782
:10062000012F054618D1E069002820DA26F02006BF
:100630001DE0D8F8180000EB800005EB40003038D2
:10064000C8F818002046E1688847054605F0B8FF5D
:100650000028EED1012F0AD02E2D08D12046E168C6
:1006600088477F1C0546022F46F02006C4DBA069A0
:10067000002803DA404246F00106A061F00701D0ED
:1006800026F010066C2D0BD0682D09D04C2D39D0DA
:100690006A2D35D0742D35D07A2D33D016E038E060
:1006A000E1682F4620468847B842054609D16C2F9D
:1006B00026D04FF48060E16806432046884705460F
:1006C00004E06C2F1AD04FF4807006430DB3A5F1EF
:1006D0004100192802D8203546F400664A462946CA
:1006E000204626604E46FFF7A9FD80B101280BD0B9
:1006F000F61D26F0070000F1080956E74020E4E760
:100700008020D8E70020D6E706F104094DE7284607
:1007100052E7206ABDE8F09FEFC00000401ECAB259
:1007200010F8011F8A4202D00029F9D10020704739
:1007300030B505460B462A4613F8014B12F8010B5B
:1007400008B1A042F8D01CB1002802D06D1CF1E71E
:10075000284630BD40EA0103024630B59B0710D160
:100760004FF0013400E008C208C91D1B9D4315EA83
:10077000C41FF8D013F0FF0102F8011B0DD01B0AB3
:10078000F8E711F8013B002B02F8013B05D011F806
:10079000013B002B02F8013BF3D130BD10B5431CE7
:1007A00002E010F8011B71B18107FAD14FF001325C
:1007B00002C88C1A8C4314EAC211F9D0C01A0A0676
:1007C00003D0C01E10BDC01A10BD0A0401D0801E87
:1007D00010BD0902FCD0401E10BD40EA010370B5F7
:1007E0009B072ED14FF00136042A2AD308C810C91E
:1007F0009D1B9D43121F15EAC61517D0D8B2E1B252
:10080000401A50EA056110D198B2A1B2401A50EADC
:1008100005410AD123F07F4024F07F41401A50EA7D
:10082000052102D1180EA0EB146070BDA342DBD0ED
:1008300018BA21BA884201D9012070BD4FF0FF30AB
:1008400070BD0AB9002070BD10F8013B11F8014BD2
:1008500063B1A3420AD1521E08D010F8013B11F82F
:10086000014B1BB1A34201D1521EEDD1181B70BD2B
:10087000032A40F2308010F0030C00F0158011F8CC
:10088000013BBCF1020F624498BF11F801CB00F8A4
:10089000013B38BF11F8013BA2F1040298BF00F8F8
:1008A00001CB38BF00F8013B11F0030300F02580B5
:1008B000083AC0F0088051F8043B083A51F804CBDC
:1008C000A0E80810F5E7121D5CBF51F8043B40F8A2
:1008D000043BAFF30080D20724BF11F8013B11F8AD
:1008E00001CB48BF11F8012B24BF00F8013B00F8F1
:1008F00001CB48BF00F8012B704710B5203AC0F07B
:100900000B80B1E81850203AA0E81850B1E8185010
:10091000A0E81850BFF4F5AF5FEA027C24BFB1E84D
:100920001850A0E8185044BF18C918C0BDE81040BE
:100930005FEA827C24BF51F8043B40F8043B08BFC7
:100940007047D20728BF31F8023B48BF11F8012B8E
:1009500028BF20F8023B48BF00F8012B70474FF03A
:1009600000020429C0F0128010F0030C00F01B807C
:10097000CCF1040CBCF1020F18BF00F8012BA8BF8A
:1009800020F8022BA1EB0C0100F00DB85FEAC17C4E
:1009900024BF00F8012B00F8012B48BF00F8012B01
:1009A00070474FF0000200B5134694469646203932
:1009B00022BFA0E80C50A0E80C50B1F12001BFF418
:1009C000F7AF090728BFA0E80C5048BF0CC05DF87E
:1009D00004EB890028BF40F8042B08BF704748BFCC
:1009E00020F8022B11F0804F18BF00F8012B704740
:1009F00010B5044610F0030F08BF11F0030F40F0CC
:100A000015804FF0013E121FC0F20E8051F8043BDA
:100A1000A3EB0E0C2CEA030C1CEACE1C08BF40F81A
:100A2000043BF0D0A1F1040102F10402521E08DBE4
:100A300011F8013B002B00F8013BF7D11146FFF7FD
:100A40008EFF204610BD00004FF0013C50F8042BF3
:100A500051F8043B9A4221D1A2EB0C03934313EAD1
:100A6000CC1317D150F8042B51F8043B9A4215D1FE
:100A7000A2EB0C03934313EACC130BD150F8042BD5
:100A800051F8043B9A4209D1A2EB0C03934313EAB9
:100A9000CC13DBD04FF00000704700BFD01A01BA72
:100AA000B1FA81F101F0180122FA01F0CB40C1F155
:100AB0002001DBB2C0B2C01A2CFA01F3D11A914363
:100AC00011EAC311E6D1704770477047704770470D
:100AD00010B500F0BFFB001D10BD00BFE1AD000070
:100AE0000048704760CC012010B5FFF7F9FF00689F
:100AF00010BD10B50446FFF7F3FF046010BD096890
:100B00004A0501D540B27047C905FCD500B270470F
:100B100009684A0501D5C0B27047C905FCD580B245
:100B200070472DE9F0470D4699469246044600F17C
:100B300024080168880604D5E06921F010012160CD
:100B400000E00120A84201DD471B00E00027A16969
:100B50007A1902EB0900081AA0612078C00602D4B5
:100B60002046FFF741FC002608E0D4E901211AF8ED
:100B700006009047206A401C761C20624E45F4DB3C
:100B80002078C0060AD52046FFF72EFC06E0D4E9FF
:100B9000012130209047206A401C2062381EA7F1B6
:100BA0000107F4DC07E0D4E9012118F805009047BB
:100BB000206A401C2062281EA5F10105F3DC2046B6
:100BC000FFF728FC2078000602D50220BDE8F08758
:100BD0000120FBE711680268006A530501D508701F
:100BE0000AE0D30501D5088006E0130603D5C21735
:100BF000C1E9000200E008600120704770472DE95C
:100C0000FF4F0C461E464FF0FF378BB0D2E9000174
:100C1000DDF860800A908A46C1F30A5505B93D4661
:100C2000002108464FF00000BAF1000F00F4400028
:100C300005DA00EB80004FF4400101EA50004FEA72
:100C40009059B9F1010F00DDB9460A9850EA4A00FF
:100C50000ED044F61050A5F2FF3545432F14B8F1DD
:100C6000000F1ED07542291E1EDDC9F100021CE0D6
:100C7000B8F1010F4FF0000001D0302103E0F24342
:100C800005E02154401CB042FBDB3046002200212D
:100C900021540B99C1F80880C1E900200FB0BDE8CC
:100CA000F08FBD1B6D1CDEE74A4600DA694206A8DC
:100CB00000F070FB06AB93E8070003AB83E8070086
:100CC00050460A9900F023FC8DE80700A0F500507B
:100CD0001F3800900398002D09DD42F21F014A469B
:100CE000084403A90390684600F082FE08E0A0F5DE
:100CF00000504A461F3803A90390684600F08CFE56
:100D00008DE807000004000C03D04FF0FF304108CD
:100D100000E01046B8F1000F03D000220092154603
:100D20001EE0751E05D400F099FA303262556D1E32
:100D3000F9D5B3460122084302D000227F1C04E00B
:100D40002078302801D100227F1E002A099786D002
:100D50001DE0112D07DA00F081FA303262556D1C6A
:100D600050EA0102F5D1084302D00098C8B10EE064
:100D70000021681E05E0235C625C63542254401E1F
:100D8000491C8142F7DBAB46A81B401E099000209E
:100D900004F80B000B98099AC0F80880C0E9002BF2
:100DA0007CE711264FF0000859E72DE9F04F8846FF
:100DB0000446D21D22F0070191B0D1E90001CDE92E
:100DC0000A0104F061FC02460B98C00F01D02D20EF
:100DD00007E02068810701D52B2002E0202101EAED
:100DE000C000032A099001D0072A05DB03464146CB
:100DF000204600F079FA0BE12078800601D5E06901
:100E000000E00620B8F1650F814606D0B8F1660F04
:100E100018D0B8F1670F70D131E00020B9F1110F8F
:100E2000009001DB112301E009F101030AAA01A9E5
:100E30000CA8FFF7E4FEDDE90C70002609F10105BE
:100E4000834647E001204B4600904FF000470AAA36
:100E500001A90CA8FFF7D3FEDDE90DB00C995D46A2
:100E6000002610B909F101000D18B9EB050003D4F3
:100E7000C0F1FF3609F10105A5EB09002BE0B9F13E
:100E8000010F01DA4FF001090020B9F1110F0090B4
:100E9000484601DD112300E003460AAA01A90CA877
:100EA000FFF7ADFEDDE90C704D4600268346207845
:100EB00000070AD4AB4500DA5D4601A8012D04DD28
:100EC000411911F8011C302907D04F4502DA17F1FA
:100ED000040F04DA012082460FE06D1EEEE7002FBA
:100EE00002DCED1B3E4403E0781CA84200DD7D1CC3
:100EF000B81B00F1010A4FF000472078000703D427
:100F0000AA4501DB4FF0FF3A0021B7F1004F0DF188
:100F100043088DF8431024D002202B23002F01DA40
:100F20007F422D230A21021EA0F1010000DC5FB1E7
:100F300097FBF1FC97FBF1F201FB1C7C17460CF1CF
:100F4000300C08F801CDEEE7A8F10100037021880C
:100F5000090501D5452100E06521A0F1010800F84F
:100F6000011C09980FA9A1EB0807FF1D00B1012082
:100F7000411901EBEA70A1693844081A401EA061CA
:100F80002078C00602D42046FFF72EFA099828B12F
:100F9000D4E901219047206A401C20622078C006D5
:100FA00022D52046FFF720FA1EE0002E04DBB345D1
:100FB00002DD01A8805D00E03020D4E901219047E6
:100FC000206A401C2062761CAAF101005FEA000A38
:100FD0000AD100F03FF9C0680168405CD4E9012102
:100FE0009047206A401C2062281EA5F10105DCDC28
:100FF00007E0D4E9012118F8010B9047206A401C52
:101000002062381EA7F10107F3DC2046FFF702FA41
:10101000032011B043E6000001694A1C0261087810
:10102000704700B58FB0CDE9013100210591054928
:101030007944CDE9031011466846FFF7ABFA0FB0CB
:1010400000BD0000E5FFFFFF0A6802F8010B0A601F
:10105000704710B5436913B1AFF3008001E0FFF7AB
:10106000EAF9012010BD127800F124010A70002273
:101070004A700122EDE711684FF0FF32E9E7000006
:10108000074B70B50D467B44FFF7CBFF044628465F
:1010900000F0EEF910B14FF0FF3070BD204670BD8A
:1010A0001F6200002DE9FF5F15468A460446DFF8FF
:1010B000AC80F8440027D8E900103E46CDE9001086
:1010C00010E03AF816106A4602A800F0D5F9411C63
:1010D00007D02178890603D5E269391891420DD8E5
:1010E0000744761C2078800602D5E069B84205DD09
:1010F000AE42E6DB3AF816000028E2D1A069C01B38
:10110000A0612046FFF770F9D8E90010CDE9001082
:10111000002017E03AF818106A4602A800F0ACF96F
:10112000B0F1FF3F81460BD000250DF1080B05E023
:10113000D4E901211BF8050090476D1C4D45F7D3FC
:1011400008F10100B0428046E4DB206A38442062A6
:101150002046FFF75FF9BDE8FF9F00007AB6000068
:101160002DE9F0418046D21D22F007020025D2E988
:101170000002F52915A614D0011E72F1000106DA4D
:101180000023D0EB030063EB020211A608E0D8F8BD
:1011900000108B0701D50FA602E0490701D50EA666
:1011A00001251146002408F1240704E000F056F858
:1011B00030323A55641C50EA0102F7D12B463246D0
:1011C00021464046BDE8F041FFF7ABBC00000000FF
:1011D0002D0000002B0000002000000030B4002192
:1011E00000F1240408E002F00705D208303542EA95
:1011F0004372DB086554491C52EA0305F3D10468C5
:10120000002310A2250708D504F020040C4304D0C5
:10121000C46901230CA2641EC46130BCFFF781BC09
:1012200010B5044621461068FFF772FC02462046BE
:10123000BDE810400023D1E7D21D22F00701D1E91B
:101240000023CBE70000000030000000004870479A
:1012500060CC01200048704780CC012030B5B0F14F
:101260000A024FEA900E71F100034EEA817EB0EB64
:101270000E0061EB91014FEA101E4EEA017E10EB69
:101280000E0041EB11114FEA102E4EEA016E10EBE9
:101290000E0041EB11214FEA104E4EEA014E10EBC9
:1012A0000E0041EB1141401841F100014FEAD0001E
:1012B00040EA41704FEAD10110EB80054FEA81040A
:1012C00044EA907444EB01046D1944EB0404521B8E
:1012D000A3414FF0000348BF0A3200D530BD401C87
:1012E00041F1000130BD00002DE9F0411F460446E8
:1012F00003260168072A01F4006004DB08B116A583
:1013000005E016A503E008B115A500E015A521F03C
:1013100010002060A069C01EA0610FB1401EA06136
:101320002046FFF761F84FB1D4E9012138469047D4
:10133000206A401C2062C01C206206E0206AFAE796
:10134000D4E9012115F8010B9047761EF8D220460A
:10135000FFF760F8BDE8F0814E414E006E616E000F
:10136000494E4600696E660010B5436913B1AFF38C
:10137000008001E0FFF796FE012010BD128800F109
:10138000240182840022C2840122EDE711684FF01B
:10139000FF32E9E72DE9F047814616468AB0334827
:1013A00078440DC88DE80D0030487844801C03ACAB
:1013B0000DC884E80D0041F69B300844372190FBAE
:1013C000F1F290FBF1F5A5F1800501FB12041B3C45
:1013D00002D56442012000E00020DFF890A08046A2
:1013E0000027FA44AAF1BE0A0DE0E00709D0324610
:1013F000684607EB47010AEB810100F00DFB8DE821
:10140000070064107F1C002CEFD1184F7F44AC3FC5
:1014100018E0E80714D007EB04100DF1180A90E863
:101420000E008AE80E00C068F04201D198190890B9
:10143000324606A903A800F0EFFA03AB83E80700E1
:101440006D10641C002DE4D132466946B8F1000FDE
:1014500003A802D000F0CCFA01E000F0DDFAC9E9FF
:101460000001C9F808200AB0BDE8F08718B40000F0
:10147000007B00F08000704770B516460C460546AC
:10148000FFF726FB036893F80101012806D0FF2C23
:101490000FD8185D68B101202C7070BDD3F807011A
:1014A0003246214603F2071303442846BDE8704044
:1014B00018474FF0FF3070BD7546FFF7C7FEAE46C8
:1014C00005006946534620F00700854618B020B550
:1014D000FEF736FFBDE820404FF000064FF0000752
:1014E0004FF000084FF0000B21F00701AC46ACE8CC
:1014F000C009ACE8C009ACE8C009ACE8C0098D4639
:1015000070470446AFF300802046FEF7FCFE5FEA1A
:10151000400C08BF91F0000F4FEA8C234FEAC12224
:1015200043EA51514FEA1C5018BF00F5F0404FEA12
:10153000300018BF41F000415FEA6C5C00F0298088
:10154000BCF1FF3F08BF40F080407047130C06BF5E
:1015500012044FF0100C4FF0000C130E04BF1202D7
:101560000CF1080C130F04BF12010CF1040C930FC3
:1015700004BF92000CF1020CD30F04BF52000CF117
:10158000010C11464FF00002A0F11F00A0EB0C006F
:10159000704711F0004F08BF704731F000413FF431
:1015A000D5AF0B0C06BF09044FF0100C4FF0000C28
:1015B0000B0E04BF09020CF1080C0B0F04BF09014C
:1015C0000CF1040C8B0F04BF89000CF1020CCB0F43
:1015D00004BF49000CF1010CCCF12003A0EB0C007E
:1015E00022FA03F302FA0CF241EA030100F10100CE
:1015F000704720F07F4C80EA030023F07F47ACEB7C
:10160000070303F57C5300F0004003F1FF032DE9CD
:1016100080494FEA154B09B44FEA144325EA0B4EB3
:1016200024EA03480FF2042606EB132749083E7804
:101630005FEA320203FB0667C7F5000707FB06F601
:101640004FEA54374FEAD64606F1020607FB066C0E
:10165000CCF1005C4FEA1C472CEA074C07FB06F470
:101660000CFB06F504EB15464FEA961634BF002036
:101670004FF000404FEAD13706FB07FC4FEA1C4C05
:101680000CFB0BF7D21B03FB0CF761EB07010CFB08
:101690000EF7B0EB074072EB17420CFB08F734BFB4
:1016A000A2EB0742B2EB074261EB17414FEA0C4451
:1016B0004FEA910706FB07FC4FEA1C4C0CFB0BF7AB
:1016C000B0EBC74072EB573203FB0CF734BFA2EB11
:1016D000C742B2EBC74261EB57310CFB0EF7B0EBE0
:1016E000C70072EB57720CFB08F734BFA2EBC702BE
:1016F000B2EBC70261EB5771039F4FEA816141EA88
:10170000921104EBCC044FEAD1374FEA826206FB18
:1017100007FC42EA90124FEA80604FEA1C4C0CFB37
:101720000BF7D21B03FB0CF761EB07010CFB0EF769
:10173000B0EB074072EB17420CFB08F734BFA2EB8B
:101740000742B2EB074261EB17414FEA8C554FEA73
:10175000910704EB9C2406FB07FC4FEA1C4C0CFB96
:101760000BF7B0EBC74072EB573203FB0CF734BFFB
:10177000A2EBC742B2EBC74261EB57310CFB0EF74D
:10178000B0EBC70072EB57720CFB08F734BFA2EB4B
:10179000C702B2EBC70261EB577115EB4C254FEA5C
:1017A000816141EA92114FEA82624FEAD13742EAFF
:1017B000901206FB07FC44F100044FEA80604FEAF8
:1017C0001C4C0CFB0BF7D21B03FB0CF761EB070166
:1017D0000CFB0EF7B0EB074072EB17420CFB08F75F
:1017E00034BFA2EB0742B2EB074261EB174115EBA6
:1017F0001C154FEA813141EA92414FEA823242EAB6
:1018000090424FEA80304FEA0C7644F1000448EAF7
:1018100003434EEA0B484FF0000EB2EB080C71EB9D
:10182000030724BF624639464EEB0E0E4FF0000B05
:101830000018524149414BEB0B0BB2EB080C71EB1A
:1018400003077BF1000B24BF624639464EEB0E0EB8
:101850004FF0000B0018524149414BEB0B0BB2EB20
:10186000080C71EB03077BF1000B24BF624639467D
:101870004EEB0E0E51EA020718BF46F0010616EBBA
:101880000E7655F1000254F1000103D5BDE889013F
:10189000BDE80088BDE88901BDE80048B61952419D
:1018A00041EB0101A3F10103704780807F7E7D7CC5
:1018B0007B7A7978777676757473727171706F6EE2
:1018C0006E6D6C6C6B6A6A6968686766666564648D
:1018D000636362616160605F5F5E5E5D5D5C5C5B17
:1018E0005B5A5A5959585857575656555555545486
:1018F000535352525251515050504F4F4F4E4E4DE4
:101900004D4D4C4C4C4B4B4B4A4A4A49494948482F
:10191000484747474746464645454544444444436F
:1019200043434342424242414141002B26D4770087
:1019300021D01CB54FEA370703B44FF010004FF029
:1019400010014FF000000FBCBDE810400BF1010B7F
:10195000BBF1010F08BF5FEA170722BF12F10102B6
:1019600011F101014FF0004143F1000300F000408C
:1019700043EA00007047F9D35708DAE746EA06461B
:1019800013F1400F4FEA16461FDD13F1200FDFBFA2
:1019900016430A46002120335B42C8D0C3F120071A
:1019A00046EA064602FA07F74FEA164646EA0706EF
:1019B000C3F1200722FA03F201FA07F721FA03F133
:1019C0004FF0000342EA0702B1E746EA020646EAA0
:1019D00006464FEA164646EA0106BCBF46EA0646F8
:1019E000360C4FF000034FF000024FF000019EE76D
:1019F0002DE9C048934630B491E8380007C831EA71
:101A0000400C48BF34EA430C03D5FFF7F2FDFFF763
:101A10008CFFF0BCBDE800882DE9C048934630B487
:101A200091E8380007C810F0804F08BF13F0804FCE
:101A300003D100F005F8FFF778FFF0BCBDE800889F
:101A400020F07F4780EA030023F07F4C07EB0C0374
:101A5000A3F57C5300F00040A3F1FE0392F0000FC9
:101A600000F0B38095F0000F00F077802DE9014978
:101A70004FEA11404FEA144621EA004800FB06FCF9
:101A800024EA064708FB06F607FB08F800FB07F701
:101A900018EB06484CEB164C4FEA124B18EB074874
:101AA0004FEA15464CEB174022EA0B4E0BFB06FCA7
:101AB00025EA06470EFB06F607FB0EFE0BFB07F7B3
:101AC0001EEB064E4CEB164C4FF000061EEB074E7D
:101AD0004CEB174B18EB0B0840F1000018EB0E0B0A
:101AE00058EB000840F100008F1A4FF000013CBF96
:101AF000C943661B14BFB5EB040C00213CBFC943AE
:101B0000F61B4FEA17444EEA8E0E27EA04454FEAC9
:101B10001C4704FB07622CEA074C05FB07F70CFB8C
:101B200005F604FB0CFC16EB074642EB174216EBDE
:101B30000C4642EB1C421BEB060658EB02024141ED
:101B400046EA9E0601D5BDE80189B619524141EB2E
:101B50000101A3F10103BDE801894FEA14454FEAF1
:101B6000114724EA054621EA074C05FB07F406FB6A
:101B700007F70CFB06F105FB0CFC11EB074144EBEE
:101B800017444FEA124711EB0C4144EB1C4422EA84
:101B9000074C05FB07F206FB07F70CFB06F605FBF7
:101BA0000CFC16EB074642EB174216EB0C4642EBD9
:101BB0001C456A1854F1000148BF7047B6195241DC
:101BC00041EB0101A3F10103704795F0000F37D0FD
:101BD0004FEA11424FEA144721EA024624EA074C31
:101BE00002FB07F106FB07F70CFB06F402FB0CFCFB
:101BF00014EB074441EB17414FEA154714EB0C4433
:101C000041EB1C4125EA074C02FB07F506FB07F7F1
:101C10000CFB06F602FB0CFC16EB074645EB1745E2
:101C200016EB0C4645EB1C42121951F1000148BF5E
:101C30007047B619524141EB0101A3F1010370470E
:101C40004FEA14454FEA114724EA054621EA074CBA
:101C500005FB07F106FB07F70CFB06F24FF0000649
:101C600005FB0CFC12EB074241EB174112EB0C4257
:101C700051EB1C4148BF7047921841EB0101A3F1A1
:101C8000010370472DE9F0412DED048B9AB0B0EEC1
:101C9000408AF0EE608A054623208DF8040021205A
:101CA0008DF8050004F076FD80462BA004F07BFD46
:101CB000064632462AA1404604F03CFDB0EE480AF2
:101CC000F0EE680A04F04EFD0646324628A1404672
:101CD00004F030FD28460AF06CF841EC190BB0EE28
:101CE000490AF0EE690A04F03DFD0646324621A19C
:101CF000404604F01FFD404604F0ECFD0746404618
:101D000004F060FD3846FEF749FD84B220128DF8DC
:101D10000600E0B28DF807002246394602A8FEF719
:101D200067FE2A2101AA201D1154E1B2384604F0B1
:101D3000ADFE01AA611D50542621A01D1154E01DC5
:101D4000C1B201A808F0BCFC384604F043FC1AB04C
:101D5000BDEC048BBDE8F08130303039000000006C
:101D6000627573696E657373547970650000000065
:101D7000585F56006D6F00002DE9F0412DED048B8A
:101D80009AB0B0EE408AF0EE608A054623208DF8C6
:101D9000040021208DF8050004F0FCFC80462BA0F7
:101DA00004F001FD064632462AA1404604F0C2FC7A
:101DB000B0EE480AF0EE680A04F0D4FC064632465B
:101DC00028A1404604F0B6FC284609F0F2FF41EC99
:101DD000190BB0EE490AF0EE690A04F0C3FC06469E
:101DE000324621A1404604F0A5FC404604F072FDB5
:101DF0000746404604F0E6FC3846FEF7CFFC84B2C6
:101E000020128DF80600E0B28DF807002246394610
:101E100002A8FEF7EDFD2A2101AA201D1154E1B20E
:101E2000384604F033FE01AA611D50542621A01D3E
:101E30001154E01DC1B201A808F0D2FB384604F0ED
:101E4000C9FB1AB0BDEC048BBDE8F08130303130F5
:101E500000000000627573696E6573735479706574
:101E600000000000585F56006D6F000000BFFEE7E5
:101E700070B500254FF4803404E0802000F052FF5C
:101E800000B103E02000A4F10104F6D100BF0CB9B9
:101E9000032070BD40F2FF5000F01AFF2846F8E71B
:101EA00070B5044605E01648056805F0450000B128
:101EB00000E0F8E700BF042000F034FF20B1042068
:101EC00000F006FF032070BD012000F02BFF20B1C1
:101ED000012000F0FDFE0120F5E7094824380068E4
:101EE000A04201D01020EEE740F2FF5000F0F0FEDB
:101EF00003482038006808210840C0B2E3E700002A
:101F0000342C014070B500264FF4803505E01148AF
:101F1000046804F0450000B103E02800A5F10105C4
:101F2000F5D100BF15B104F0040028B10326042048
:101F300000F0CEFE304670BD012000F0F3FE18B177
:101F40000126012000F0C4FE40F2FF5000F0C0FE68
:101F50003046F0E7342C014010B505E00B4804682A
:101F600004F0450000B100E0F8E700BF042000F0F5
:101F7000D9FE20B1042000F0ABFE032010BD40F2DA
:101F8000FF5000F0A5FE0020F8E70000342C0140CF
:101F90002DE9F04105460E464FF0000805E02048C7
:101FA000076807F0450000B100E0F8E700BF042033
:101FB00000F0B8FE28B1042000F08AFE0320BDE83E
:101FC000F081012000F0AEFE20B1012000F080FE83
:101FD0000120F4E7124824380068A84201D01020FC
:101FE000EDE740F2FF5000F073FE0D482038046822
:101FF00004F4604018B9200C30804046DFE704F458
:10200000005008B11320DAE704F4804008B1102032
:10201000D5E704F4004008B10F20D0E74046CEE7F2
:10202000342C014070B500264FF4803505E00F4890
:10203000046804F0450000B103E02800A5F10105A3
:10204000F5D100BF15B104F0040028B10326042027
:1020500000F03EFE304670BD04F0400018B100268E
:10206000402000F035FE3046F5E70000342C0140FA
:1020700021B1026842F00102026003E0026822F02E
:102080000102026070470000016821F00101016057
:102090000021016041608160C160016121214161D5
:1020A0004A49884204D13D21484A103A91608CE067
:1020B00046491831884205D14FF47461434A103AB9
:1020C000916082E041493031884205D14FF474116A
:1020D0003E4A103A916078E03C494831884205D147
:1020E0004FF07461394A103A91606EE037496031BF
:1020F000884204D13649354A103AD16065E0334907
:102100007831884204D13349304A103AD1605CE0DA
:102110002E499031884204D12F492C4A103AD1607F
:1021200053E02A49A831884205D14FF03D51274A52
:10213000103AD16049E02949884204D13D21274A1B
:10214000083A116041E025491831884205D14FF421
:102150007461224A083A116037E0204930318842E0
:1021600005D14FF474111D4A083A11602DE01B4946
:102170004831884205D14FF07461184A083A11601D
:1021800023E016496031884204D11149134A121FD5
:1021900011601AE011497831884204D10D490F4A83
:1021A000121F116011E00D499031884204D10A4993
:1021B0000A4A121F116008E00849A831884204D178
:1021C0004FF03D51054A121F1160704710600240E8
:1021D0003D000020400F002000003D201064024020
:1021E00021B1026842F02002026003E0026822F09E
:1021F000200202607047014600200A6802F00102D6
:102200000AB1012000E000207047000010B5002254
:102210000268134B1A40CC680B6823434C69234374
:102220008C692343CC6923430C6A23434C6A2343C0
:102230008C6A23434C6B23438C6B23431A43026009
:10224000426922F00702D1E90B3423431A43426169
:102250000B6943604B6883608B68C36010BD0000EE
:102260003F801CF0704700002DE9FC4107460D46F9
:102270000026002400200090019008205B4908609F
:1022800010204860402088600020C8604FF48060C3
:102290000861084600F092FD1020FFF701FE044699
:1022A00014B12046BDE8FC815148008800044F4924
:1022B000086037204860402088600020C8604FF4E4
:1022C00080600861084600F079FD3720FFF7E8FDDF
:1022D00004460CB12046E5E74FF0FF304549086061
:1022E00008204860302088600220C8600020086113
:1022F00001204861084600F0FBFC00203B490860D3
:1023000033204860402088600020C8604FF480601F
:102310000861084600F052FD3320FFF7C1FD044676
:102320000CB12046BEE70CE04FF4001000F0FAFCC0
:1023300038B1314800684DF82600761C022E00D3D3
:1023400007E02D484C38006840F22A610840002818
:10235000EAD000BF082000F0E5FC20B1082000F022
:10236000B7FC04209EE7022000F0DCFC20B1022034
:1023700000F0AEFC022095E7202000F0D3FC20B155
:10238000202000F0A5FC06208CE74FF4007000F040
:10239000C9FC28B14FF4007000F09AFC072081E7D7
:1023A00040F2FF5000F094FC00980006009901F400
:1023B0007F4140EA0120009901F47F0140EA1120A9
:1023C000009940EA1160686001980006019901F4E3
:1023D0007F4140EA0120019901F47F0140EA112088
:1023E000019940EA1160286020465BE7580400200C
:1023F000100000206C040020802C0140F0B50A463B
:1024000000210023002400BF3DE0012505FA01F36F
:10241000156805EA03049C4234D105684F00032681
:10242000BE40B543056015794E00B540066835439A
:1024300005601579012D02D01579022D16D1856818
:102440004F000326BE40B543856055794E00B54028
:10245000866835438560456801268E40B5434560F2
:10246000456896798E40B6B235434560C5684F00E1
:102470000326BE40B543C560D5794E00B540C66859
:102480003543C560491C1029BFD3F0BDF0B500230A
:1024900000244D07ED0E02FA05F3CE1000F12005E1
:1024A00055F826504E07F70E0F26BE40B543CF1005
:1024B00000F1200646F82750CE1000F1200555F80F
:1024C000265045EA0304CE1000F1200545F82640C9
:1024D000F0BD0183704700BFFEE700001CB5044655
:1024E00000200190009022480088000421490860E3
:1024F0000D204860402088600020C8604FF4806054
:102500000861084600F05AFC1B480068009002E091
:10251000194800680090009800F045000028F7D0A6
:10252000012000F0FFFB20B1012000F0D1FB0120D1
:102530001CBD042000F0F6FB20B1042000F0C8FB15
:102540000320F5E70C48243800680D2801D010203E
:10255000EEE740F2FF5000F0BBFB07482038006870
:1025600001900198C0F3432020700020E0E70000B4
:102570001000002058040020342C01401CB501211B
:10258000112000F08BFA1C20009000208DF8040030
:1025900003208DF8050001208DF8070069460648E4
:1025A000FFF72CFF0120009002208DF807006946FC
:1025B0000248FFF723FF1CBD00100240000002404C
:1025C00000BFFEE77047000070B5002100230F2216
:1025D000C4781CB3174C246804F4E064C4F5E064C8
:1025E000C4F30721C1F10404E3B20A4144789C40DA
:1025F000E1B28478144021430C07210E0E4C05787B
:102600006155047804F01F050124AC4005786D1174
:10261000AD0005F1E025C5F8004109E0047804F0BB
:102620001F050124AC40054D0678761145F826407B
:1026300070BD00000CED00E000E400E080E100E08F
:1026400002490143024A1160704700000000FA0588
:102650000CED00E070B5404800782D2800D170BD29
:102660003D4804F0FDF805463DB904F0D3F80646B0
:1026700031463AA0FDF796FEF1E73DA1284604F069
:10268000CFF8044604B961E03DA12069FEF7DCF90A
:10269000B0B93DA1284604F0C3F8044604B955E09A
:1026A0003C49606908603CA1284604F0B9F804463A
:1026B00004B94BE03748001D2169FEF74BF845E0AF
:1026C00038A12069FEF7C0F900283ED137A128467D
:1026D00004F0A6F8044604B938E094ED061BB0EE09
:1026E000410AF0EE610A51EC100B09F033FB30495E
:1026F000086030A1284604F093F8044604B925E0A8
:1027000094ED060B2C4880ED000B2CA1284604F01C
:1027100087F8044604B919E094ED060B284880EDCB
:10272000000B28A1284604F07BF8044604B90DE00C
:1027300094ED061BB0EE410AF0EE610A51EC100B6D
:1027400009F008FB2049086000E000BF284604F0BB
:1027500039F800BF83E700004C1B00204572726F00
:1027600072206265666F72653A205B25735D0A00B0
:10277000627573696E65737354797065000000004B
:1027800030303037000000006572726F72436F6442
:102790006500000040CA01206572726F7244657363
:1027A000630000003030313100000000436F000052
:1027B0004403002046440000480300204244000037
:1027C000500300206D6F00005803002070B5404892
:1027D00000782D2800D170BD3D4804F041F8054631
:1027E0003DB904F017F8064631463AA0FDF7DAFD88
:1027F000F1E73DA1284604F013F8044604B961E06E
:102800003DA12069FEF720F9B0B93DA1284604F0AA
:1028100007F8044604B955E03C49606988663CA164
:10282000284603F0FDFF044604B94BE037486C30FE
:102830002169FDF78FFF45E038A12069FEF704F913
:1028400000283ED137A1284603F0EAFF044604B928
:1028500038E094ED061BB0EE410AF0EE610A51EC4F
:10286000100B09F077FA3049086030A1284603F0D0
:10287000D7FF044604B925E094ED060B2C4880ED03
:10288000000B2CA1284603F0CBFF044604B919E045
:1028900094ED060B284880ED000B28A1284603F094
:1028A000BFFF044604B90DE094ED061BB0EE410AEB
:1028B000F0EE610A51EC100B09F04CFA2049086067
:1028C00000E000BF284603F07DFF00BF83E7000063
:1028D000FC1F00204572726F72206265666F726520
:1028E0003A205B25735D0A00627573696E657373C8
:1028F000547970650000000030303038000000006E
:102900006572726F72436F646500000040CA0120F7
:102910006572726F7244657363000000303031324B
:1029200000000000436F00005C03002046440000EC
:102930006003002042440000680300206D6F000027
:102940007003002070B5364800782D2800D170BD86
:10295000334803F085FF05463DB903F05BFF0646AB
:10296000314630A0FDF71EFDF1E733A1284603F004
:1029700057FF044604B94DE033A12069FEF764F81F
:10298000B8B933A1284603F04BFF044604B941E02F
:1029900032496069C1F8D00031A1284603F040FFF8
:1029A000044604B936E02D48D4302169FDF7D2FE43
:1029B00030E02EA12069FEF747F850B92DA1284636
:1029C00003F02EFF044604B924E02C496069086036
:1029D00020E02BA12069FEF737F850B925A1284641
:1029E00003F01EFF044604B914E02749606908603B
:1029F00010E026A12069FEF727F850B91DA128464E
:102A000003F00EFF044604B904E02249606908603F
:102A100000E000BF284603F0D5FE00BF97E70000A6
:102A2000A41D00204572726F72206265666F726528
:102A30003A205B25735D0A00627573696E65737376
:102A40005479706500000000303031330000000020
:102A50006572726F72436F646500000040CA0120A6
:102A60006572726F724465736300000030303135F7
:102A700000000000526573756C7400003403002080
:102A80003030313700000000380300203030313959
:102A9000000000003C0300207047000029B1064AF6
:102AA00012680243044B1A6004E0034A126882432E
:102AB000014B1A60704700003038024029B1064AC5
:102AC00012680243044B1A6004E0034A126882430E
:102AD000014B1A60704700004038024029B1064A95
:102AE00012680243044B1A6004E0034A12688243EE
:102AF000014B1A60704700002038024029B1064A95
:102B000012680243044B1A6004E0034A12688243CD
:102B1000014B1A60704700004438024029B1064A50
:102B200012680243044B1A6004E0034A12688243AD
:102B3000014B1A607047000024380240F0B50021B4
:102B400000220024022500260223324F3F6807F0AE
:102B50000C0121B1042905D0082937D105E02E4FF9
:102B6000076036E02D4F076033E02A4F3F1F3F6874
:102B7000C7F38056274F3F1F3F6807F03F036EB1F2
:102B8000264FB7FBF3F7DFF88CC0ACF1040CDCF890
:102B900000C0CCF3881C07FB0CF40CE01E4FB7FB05
:102BA000F3F7DFF870C0ACF1040CDCF800C0CCF334
:102BB000881C07FB0CF4174F3F1F3F68C7F3014702
:102BC0007F1C7D00B4FBF5F7076002E0124F076041
:102BD00000BF00BF0F4F3F6807F0F0010909104F19
:102BE0007A5C0768D74047600A4F3F6807F4E051B6
:102BF000890A0B4F7A5C4768D7408760054F3F686A
:102C000007F46041490B064F7A5C4768D740C760BC
:102C1000F0BD0000083802400024F40000127A00E1
:102C20004D0000207CB50546002400200090019056
:102C300000260DB1022600E000262248006800F0C0
:102C4000007008B10E207CBD1F49098888B2694612
:102C5000FFF70AFB04460CB12046F4E7019800F4A4
:102C6000802060B3184800880004184908603720A5
:102C70004860402088600020C8604FF48060086190
:102C8000084600F09BF83720FFF70AF904460CB11C
:102C90002046D8E70D48066006200C4948604020D1
:102CA00088600020C8604FF480600861084600F02A
:102CB00085F80620FFF7F4F804462046C3E72520F0
:102CC000C1E70000142C014010000020580400202F
:102CD0000149086070470000382C01400146034A52
:102CE000106820F0FF00084310607047042C01407A
:102CF00000210B4B02681A601B1D42681A601A1DE6
:102D0000116821F0F701D0E902231A4303691A433D
:102D100043691A431143024A0832116070470000A8
:102D2000242C014001460020034A12680A400AB1DF
:102D3000012000E000207047342C01400248006868
:102D400000F0030070470000002C014010B500F0B7
:102D50007FFC10BD00210A4A116847F6FF629143CB
:102D6000027D83681A4343681A43C3681A430368A1
:102D70001A4303691A431143014A11607047000066
:102D8000042C014000200B490860091D0860091D42
:102D90000860091D0860074924310860091D0860A2
:102DA000091D086004480349383108600020091DE6
:102DB00008607047002C0140FF07C0000021094B4C
:102DC00002681A601A1D11686FF30A01D0E9012325
:102DD0001A43C3681A4303691A431143014A121D77
:102DE00011607047082C01400149086070470000DD
:102DF000002C014070B590B004460E46154600BF49
:102E00001A48FFF7F8F90028FAD11848FFF73CF9FB
:102E10004FF0006001901648029003940495002042
:102E2000059006904FF48060079080000890800025
:102E3000099000200A904FF440300B9004200C9031
:102E400003200D904FF400000E9080100F9001A908
:102E50000648FFF7DBF920210448FFF7C1F90121FB
:102E60000248FFF705F910B070BD00005864024039
:102E7000802C014070B504460025164800780328D0
:102E800002D12725284670BD1248007838B1114874
:102E90000078012803D00F480078022817D1B4F534
:102EA000805F02D127252846EDE7E0B2FFF7BAFEA2
:102EB000054665B90848006820F4C0500649086016
:102EC00008460068204308600846006808602846F5
:102ED000D9E700000C000020042C0140F0B50146A9
:102EE00000200022BE4B1B7881F85630BD4B1B885A
:102EF000A1F85430BC4B1B681A0E93090B70C2F337
:102F000083034B7002F003038B70B74B1B68C3F352
:102F10000742CA70B44B1B88C3F307220A71B24B35
:102F20001A784A715B681A0E1301CB80AE4B5B684E
:102F3000C3F30742CB8843EA1213CB8002F00F039E
:102F40000B72A94B9B88C3F30722D3094B72C2F3C0
:102F500080138B72C2F34013CB72C2F300130B7356
:102F600000234B739E4B1B783BB19D4B1B78012B71
:102F700003D09B4B1B78032B4FD193071B0D0B6189
:102F8000994B1A790B6943EA82030B61964B9B6854
:102F90001A0E0B6943EA92130B61C2F3C2030B755D
:102FA00002F007034B75904B9B68C3F3074253092C
:102FB0008B75C2F38203CB7593075B0F0B768A4B3D
:102FC0001B89C3F307220B7E43EAD2130B760B69EE
:102FD0005B1C0024C1E912340B7E9B1C012404FA03
:102FE00003F3DC17D1E91256A5FB037C06FB03C3F0
:102FF00005FB0433C1E912730C7A0123A3400B656E
:103000000024D1E912650B6DA6FB037C05FB03C30D
:1030100006FB0433C1E912732EE0714B1B78022BBF
:103020002AD1714B1A7993069B0A0B616E4B9B68F0
:103030001A0E0B6943EA02230B616B4B9B68C3F3C7
:1030400007420B6913430B61674B1B89C3F30722CC
:103050000B695B1C4FF40074A3FB04464FF48063C0
:103060000025A4FB037C06FB03C304FB0533C1E975
:1030700012734FF400730B65C2F3801301F8193F0C
:1030800093065B0E4B70584B1A7A4B7843EAD21377
:103090004B7002F07F038B70534BDB681A0ED30921
:1030A000CB70C2F341130B71C2F382034B719307D0
:1030B0001B0F8B714C4BDB68C3F307428B7943EAE0
:1030C00092138B71C2F34013CB7100230B7202F089
:1030D00001034B72444B9B89C3F30722D3098B72C4
:1030E000C2F38013CB72C2F340130B73C2F300130D
:1030F0004B73C2F381038B7302F00303CB733A4B20
:103100001A7B53080B7401234B74384B1B681A0E3F
:10311000CA741939354B1B68C3F307421402CC85B6
:10312000324B1B88C3F30722CB8D1343CB852F4B28
:103130001A7814060C635B681A0E0B6B43EA0244A0
:103140000C632A4B5B68C3F307420B6B43EA022410
:103150000C63264B9B88C3F307220B6B13430B6353
:10316000224B1A7934235A54204B9B681A0E35236C
:103170005A541E4B9B68C3F3074214068C631B4BC7
:103180001B89C3F307228B6B43EA02448C63174B02
:103190001A7A8B6B43EA02248C63144BDB681A0E99
:1031A0008B6B13438B63114BDB68C3F307423C23E8
:1031B0005B5C43EA12143C235C5413071C0DCC8760
:1031C0000A4B9B89C3F30722CB8F1343CB87074B53
:1031D0001A7B540840235C54012441235C54F0BD05
:1031E0000C00002010000020840400209404002023
:1031F0003EB5002401213F48FFF750FC0121C802E1
:10320000FFF77CFC0121C802FFF788FC4FF4F8505F
:10321000019002208DF808008DF8090000208DF83B
:103220000A0001208DF80B0001A93348FFF7E6F8EA
:103230000420019001A93148FFF7E0F80C22082191
:103240002D48FFF723F90C2209212B48FFF71EF91F
:103250000C220A212848FFF719F90C220B212648D5
:10326000FFF714F90C2211462348FFF70FF90C223F
:1032700002212248FFF70AF900214FF40060FFF70E
:103280004DFCFFF77FFD31208DF8000000208DF808
:1032900001008DF8020001208DF803006846FFF759
:1032A00093F900F0E3F8044614B900F02DF8044651
:1032B0001CB91348FFF712FE044634B91049B1F89F
:1032C0005410080400F06CFD044624B94FF400606B
:1032D000FFF7D0FD04461CB10A480078032806D148
:1032E0000020FFF7FBFC002000F072FD04462046A2
:1032F0003EBD00000C00400000080240000C0240EF
:10330000A80400200C00002038B500240120009003
:10331000FFF714FD10B92524204638BD4D4800782C
:10332000042824D000204C49086002204860C020B6
:1033300088600020C8604FF4806008610846FFF78D
:103340003DFDFEF7DFFD04460CB12046E5E74348AE
:103350000068434908604148001D006848603F48D4
:103360000830006888603D480C300068C860394803
:10337000007858B137480078012807D035480078E0
:10338000062803D033480078022816D1002032499D
:10339000086003204860402088600020C8604FF427
:1033A000806008610846FFF709FD69460320FEF7C3
:1033B000EFFD04460CB12046AFE72648007803280D
:1033C00016D1BDF8000000042349086003204860BE
:1033D000402088600020C8604FF480600861084683
:1033E000FFF7ECFCFEF78EFD04460CB1204694E797
:1033F0001848007804282AD0BDF800001949086050
:10340000BDF8000000041449086009204860C0208D
:1034100088600020C8604FF4806008610846FFF7AC
:10342000CDFCFEF76FFD04460CB1204675E70B4856
:1034300000680D4908600948001D00684860074899
:1034400008300068886005480C300068C8600020BB
:1034500063E700000C00002058040020142C0140F9
:103460009404002010000020840400202DE9F0477F
:103470000027002400260025A046A14676206E499C
:1034800008750020086048608860C86008610846C8
:10349000FFF760FC0320FFF7A7FC6848006840F4D2
:1034A00080706649086000BF12E00020644908602F
:1034B00048608860C8604FF4806008610846FFF784
:1034C0007DFCFEF7D5FC044604B903E0781CC7B2C6
:1034D0004A2FEADB00BF14B12046BDE8F0874FF465
:1034E000D570574908600820486040208860002057
:1034F000C8604FF4806008610846FFF75FFCFEF784
:1035000091FD044624B901204E4908704FF08049CE
:1035100000204B4908603720486040208860002028
:10352000C8604FF4806008610846FFF747FC372009
:10353000FEF7B6FC0446002C4CD135E00020404993
:10354000086037204860402088600020C8604FF441
:10355000806008610846FFF731FC3720FEF7A0FCC9
:1035600004460CB12046B8E7374849EA0000344920
:10357000086029204860402088600020C8604FF41F
:10358000806008610846FFF719FCFEF7E5FC044679
:103590000CB12046A1E7294810300668012080EAD6
:1035A000D67080F001086D1CB8F1000F03D14FF602
:1035B000FF708542C2D34FF6FF70854202D31B24B1
:1035C00020468AE706F08040060033D002201D49DD
:1035D00008702FE01DE01D4819490860012048606F
:1035E000402088600020C8604FF480600861084671
:1035F000FFF7E4FBFEF7B0FC04460CB120466CE795
:103600000E4810300668012080EAD67080F001086C
:103610006D1CB8F1000F03D14FF6FF708542DAD36D
:103620004FF6FF70854202D31B24204655E7032046
:1036300004490870204650E740040020042C014053
:10364000580400200C000020000010800080FF8043
:1036500010B54FF48070FFF765FB78B34C480078E5
:10366000012814D100204B4908600C2048604020FC
:1036700088600020C8604FF4806008610846FFF74A
:103680009DFB0C20FEF70CFC4349087002E0002073
:10369000414908704148006840F480703F49086023
:1036A000081D00684CF23A3188433C49091D086006
:1036B00001203B4908703848007810BDFFE7022020
:1036C000FFF730FB78B10220FFF702FB3348001D03
:1036D00000684CF23A3188433049091D08600220E5
:1036E0002D490870E9E70820FFF71CFB78B1082096
:1036F000FFF7EEFA2948001D00684CF23A31884382
:103700002649091D0860042023490870D5E72020B8
:10371000FFF708FB78B12020FFF7DAFA1F48001DF9
:1037200000684CF23A3188431C49091D08600620A4
:1037300019490870C1E71020FFF7F4FA78B110209A
:10374000FFF7C6FA1548001D00684CF23A3188436D
:103750001249091D086005200F490870ADE74FF4B4
:103760000070FFF7DFFA80B14FF40070FFF7B0FA96
:103770000A48001D00684CF23A3188430749091D88
:10378000086007200449087097E7002095E70000CB
:10379000150000205804002016000020382C01409D
:1037A000170000202DE9F84F8146174698460A9CDD
:1037B0004FF0000AD3464D464FF0FF36B9F1000FE7
:1037C00002D12620BDE8F88F00208649086086488F
:1037D0000078022805D10402780A40EAC8574FEA67
:1037E00068280020814988604860401E08600120E8
:1037F00048610020C86008610846FFF779FA7948F7
:103800001838006800F0007008B10E20DAE7002CCC
:1038100021DDB4F5006F1EDC601E2040D8B92046C3
:1038200003F02AF900907248046010207049486043
:10383000402088600020C8604FF48060086108461E
:10384000FFF7BCFA1020FEF72BFB8246BAF1000FFF
:1038500003D05046B6E72620B4E70098000163493C
:103860008860084644604FF0FF30086001204861DE
:103870000220C860002008610846FFF739FA5C485A
:10388000076011205A494860402088600020C860C5
:103890004FF4806008610846FFF790FA1120FEF7A8
:1038A000FFFA8246BAF1000F01D050468AE751482C
:1038B000007800285CD1FCF72EFD18E04FF40040A2
:1038C000FFF730FA78B14FF0000B06E0454854306E
:1038D000006845F82B000BF1010BBBF1080FF5D385
:1038E0002035454E03E00EB904206BE7761E3D48B7
:1038F0000830006840F22A6108400028DED0082025
:10390000FFF710FA20B10820FFF7E2F9042059E789
:103910000220FFF707FA20B10220FFF7D9F90220B1
:1039200050E72020FFF7FEF920B12020FFF7D0F963
:10393000062047E74FF40070FFF7F4F928B14FF481
:103940000070FFF7C5F907203CE704E02548543034
:10395000006828602D1D4FF40010FFF7E3F90028E0
:10396000F4D1FCF7DAFC40F2FF50FFF7B1F936E092
:1039700020480078012832D10020204908702049D1
:1039800008702049087017481030006840F22A314A
:1039900008431449103108601248006840F00800DC
:1039A00010490860002221464846FFF723FA00E04C
:1039B000761E1548006800F0006038B9114800789C
:1039C00020B90E48007808B9002EF1D10EB90420B4
:1039D000F8E60A48007810B1084890F800A0504670
:1039E000F0E600002C2C01400C0000206C040020AC
:1039F0005804002014000020FFFF7F001600002064
:103A00001500002017000020006402402DE9FE4F41
:103A100083460E46914600200290002534462148F8
:103A2000007818B1680240EAD45564020BF0030034
:103A3000F0B14FF0000A18E04FF4007000904FEA28
:103A40004A20071945EBE0733A461748FFF7AAFEEC
:103A500002904FF4007214495846FCF709FF0BF529
:103A6000007B0AF1010000F0FF0ACA45E4DB16E022
:103A7000B9F1010F09D14FF4007022462B46009096
:103A80005846FFF78FFE029009E04FF4007022467F
:103A90002B46CDE90009584600F008F8029002983C
:103AA000BDE8FE8F0C000020000500202DE9FF5F1F
:103AB00017469846DDE90E464FF00009CA464FF01A
:103AC000FF35AC49009808600020AB490860AB485E
:103AD0000078022805D10402780A40EAC8574FEA64
:103AE00068280020A64988604860401E08600120C0
:103AF00048610020C86008610846FFF7F9F89E4851
:103B00001838006800F0007018B10E2004B0BDE84D
:103B1000F09F002C21DDB4F5006F1EDC601E2040FC
:103B2000D8B9204602F0A8FF8346964804601020CA
:103B300094494860402088600020C8604FF480604D
:103B400008610846FFF73AF91020FEF7A9F9814607
:103B5000B9F1000F03D04846D8E72620D6E7012E5A
:103B600071D906FB04F0B0F1007F01D32620CDE728
:103B70004FEA0B108249886006FB04F048604FF062
:103B8000FF300860012048610220C8600020086101
:103B90000846FFF7ADF87B48076012207949486076
:103BA000402088600020C8604FF4806008610846AB
:103BB000FFF704F91220FEF773F98146B9F1000FFF
:103BC00001D04846A2E77048007800287ED1FCF773
:103BD000A2FB1EE04FF40040FFF7A4F8A8B14FF09D
:103BE000000A08E06448543000686249096841F8F6
:103BF0002A000AF1010ABAF1080FF3D35D48006800
:103C000020305C490860614D03E00DB904207DE778
:103C10006D1E59480830006840F22A3108400028DB
:103C2000D8D00820FFF77EF820B10820FFF750F821
:103C300004206BE70220FFF775F828B10220FFF798
:103C400047F8022062E792E02020FFF76BF820B1EE
:103C50002020FFF73DF8062058E74FF40070FFF7EB
:103C600061F828B14FF40070FFF732F807204DE7F4
:103C70000AE04148543000683E49096808603D4800
:103C80000068001D3B4908604FF40010FFF74AF838
:103C90000028EED14FF48070FFF744F820B3374886
:103CA000007838B135480078012803D033480078CF
:103CB000022819D10020334908600C2048604020B8
:103CC00088600020C8604FF4806000E013E0086165
:103CD0000846FFF773F80C20FEF7E2F88146B9F1C9
:103CE000000F01D0484611E7FCF717FB40F2FF50E8
:103CF000FEF7EEFF3BE024480078012837D1002092
:103D000023490870012023490870002022490870C7
:103D100019481030006840F22A3108431649103122
:103D200008601548006840F008001349086006FB69
:103D300004F100220098FFF75DF800E06D1E1748BF
:103D4000006800F0006008B9002DF7D10DB904201B
:103D5000DCE600BF1048007818B90D48007800284C
:103D6000F8D00B48007810B1094890F80090484608
:103D7000CCE60000180000202C2C01400C00002094
:103D80006C0400205804002014000020FFFF7F0076
:103D900016000020150000201700002000640240DB
:103DA00010B50446094804600720084948604020CF
:103DB00088600020C8604FF4806008610846FEF704
:103DC000FDFF0720FEF76CF810BD0000580400202E
:103DD00001460020012900D011B9024B197000E002
:103DE00026207047140000202DE9FF5F86B017469B
:103DF0009846149D002600200590049000248146DA
:103E00000390824602900195DDF818B0DDF818B0F5
:103E1000BBF1000F03D126200AB0BDE8F09F0020BF
:103E2000C9490860C94988604860401E086001208F
:103E300048610020C86008610846FEF759FFC24883
:103E40001838006800F0007008B10E20E4E7C048A0
:103E50000078022805D10502780A40EAC8574FEADF
:103E60006828002D1FDDB5F5006F1CDC681E28409A
:103E7000C8B9284602F000FE0590B648056010203B
:103E8000B4494860402088600020C8604FF48060DA
:103E900008610846FEF792FF1020FEF701F806467B
:103EA0001EB13046B8E72620B6E7AB4800880004CC
:103EB000A84908600D204860402088600020C86044
:103EC0004FF4806008610846FEF778FF0D20FDF78B
:103ED000E7FF06460EB130469EE79B48183800685B
:103EE00003904FF0FF341CE0641E9B4800880004E0
:103EF000984908600D204860402088600020C86014
:103F00004FF4806008610846FEF758FF0D20FDF76A
:103F1000C7FF06460EB130467EE78B48183800686A
:103F20000390039800F4807008B9002CDCD10CB920
:103F3000292071E78748076018208649486040209B
:103F400088600020C8604FF4806008610846FEF772
:103F500035FF1820FDF7A4FF06460EB130465BE79B
:103F600000207E490870059800017849886008465D
:103F700045604FF0FF300860012048610020C860B4
:103F800008610846FEF7B4FE4FF0FF34744800782D
:103F900000287ED1FCF7BFF945E04FF48040FEF7E2
:103FA000C1FED8B30198A0EB0900202822D20198C5
:103FB000A0EB090000F0030020B90198A0EB090074
:103FC000800804E00198A0EB09008008401C0290E2
:103FD0004FF0000A0AE05C495431DBF80000086049
:103FE0000AF1010A0BF1040B09F104090298824558
:103FF000F1D310E04FF0000A06E05BF82A005249C6
:10400000543108600AF1010ABAF1080FF5D30BF137
:10401000200B09F120096FF0404404E0FFE70CB9E0
:104020000420F9E6641E48480830006840F21A612E
:1040300008400028B1D00820FEF774FE20B1082007
:10404000FEF746FE0420E7E60220FEF76BFE20B1F5
:104050000220FEF73DFE0220DEE61020FEF762FEA3
:1040600020B11020FEF734FE0520D5E64FF4007095
:10407000FEF758FE30B14FF40070FEF729FE07201E
:10408000CAE606E0FCF749F940F2FF50FEF720FED1
:1040900041E03348007801283DD1002031490870C3
:1040A0002E4908703049087027481030006840F2E7
:1040B0001A310843244910310860402229460698E5
:1040C000FEF798FE2048006840F008001E4908608E
:1040D00000E0641E2548006800F0006008B9002C6C
:1040E000F7D11CB9FFF784F8042095E64FF0FF34B0
:1040F00000E0641E1C48007820B91A48007808B90E
:10410000002CF6D10CB9042086E61648007810B1D0
:104110001448007880E640F2FF50FEF7D9FD04A86D
:10412000FEF7DCF9064603E004A8FEF7D7F90646D9
:104130003EB99DF810000728F6D09DF8100006281B
:10414000F2D0304668E600002C2C01406C040020C0
:104150000C00002058040020100000201500002052
:104160001400002016000020170000200064024008
:104170002DE9FE4F06468946924600200290002512
:104180004C462148007818B1680240EAD4556402D0
:1041900006F00300F0B14FF0000B18E04FF400728E
:1041A00031461A48FCF764FB4FF4007000904FEA68
:1041B0004B20071945EBE0733A461448FFF714FE0D
:1041C000029006F500760BF1010000F0FF0BD345DD
:1041D000E4DB16E0BAF1010F09D14FF4007022467A
:1041E0002B4600903046FFF7FFFD029009E04FF4A8
:1041F000007022462B46CDE9000A304600F008F850
:1042000002900298BDE8FE8F0C00002000050020FF
:104210002DE9FF5F84B0DDE91247002600200390FE
:104220000290002580468146019007FB04FBDDF8E3
:1042300010A0DDF810A0BAF1000F03D1262008B0BD
:10424000BDE8F09F0020DC490860DC4988604860D8
:10425000401E0860012048610020C86008610846CF
:10426000FEF746FDD4481838006800F0007008B129
:104270000E20E4E7D2480078022808D10402DDE9E4
:104280000601400A40EAC1504912CDE90601002C5E
:104290001FDDB4F5006F1CDC601E2040C8B920464D
:1042A00002F0EAFB0390C74804601020C54948604B
:1042B000402088600020C8604FF480600861084694
:1042C000FEF77CFD1020FDF7EBFD06461EB13046E3
:1042D000B5E72620B3E7012F6FD907FB04F0B0F153
:1042E000007F01D32620AAE7B548007838B1B4484A
:1042F0000078012803D0B248007802282DD1B248B6
:1043000000880004AF49086037204860402088607A
:104310000020C8604FF4806008610846FEF74EFD3B
:104320003720FDF7BDFD06460EB1304687E7A548AC
:1043300007601720A3494860402088600020C860BB
:104340004FF4806008610846FEF738FD1720FDF73E
:10435000A7FD06460EB1304671E79A4906980860F7
:1043600019204860402088600020C8604FF48060B9
:1043700008610846FEF722FD1920FDF791FD06466B
:104380000EB130465BE7039800018C49886007FB5B
:1043900004F048604FF0FF300860012048610020C1
:1043A000C86008610846FEF7A3FC8848007800282A
:1043B00074D1451EFBF7AFFF42E0E4E04FF48040CC
:1043C000FEF7B0FCB8B3ABEB080020281FD2ABEB74
:1043D000080000F0030018B9ABEB0800800803E008
:1043E000ABEB08008008401C01904FF000090AE088
:1043F00071495431DAF80000086009F101090AF145
:10440000040A08F1040801988145F1D310E04FF047
:10441000000906E05AF8290067495431086009F19B
:104420000109B9F1080FF5D30AF1200A08F12008B3
:104430006FF0404504E0FFE70DB90420FFE66D1E74
:104440005D480830006840F21A3108400028B5D0B5
:104450000820FEF767FC20B10820FEF739FC042095
:10446000EDE60220FEF75EFC20B10220FEF730FCF4
:104470000220E4E61020FEF755FC20B11020FEF7E4
:1044800027FC0520DBE64FF40070FEF74BFC30B153
:104490004FF40070FEF71CFC0720D0E62CE04FF430
:1044A0008070FEF73FFC00B34548007838B14448BF
:1044B0000078012803D042480078022815D1002056
:1044C000404908600C204860402088600020C86097
:1044D0004FF4806008610846FEF770FC0C20FDF781
:1044E000DFFC06460EB13046A9E6FBF716FF40F2A8
:1044F000FF50FEF7EDFB46E034480078012842D13A
:1045000000203349087001203249087000203249E8
:10451000087029481030006840F21A3108432649D3
:104520001031086007FB04F140220498FEF762FC9A
:104530002148006840F008001F4908604FF0FF352F
:1045400000E06D1E2548006800F0006008B9002DED
:10455000F7D11DB9FEF74CFE042070E64FF0FF3591
:1045600000E06D1E1C48007820B91948007808B991
:10457000002DF6D10DB9042061E61548007810B180
:10458000134800785BE640F2FF50FEF7A1FB02A85B
:10459000FDF7A4FF064603E002A8FDF79FFF0646CD
:1045A0003EB99DF808000728F6D09DF808000628B7
:1045B000F2D0304643E600002C2C01406C04002071
:1045C0000C000020580400201000002014000020DF
:1045D0001600002015000020170000200064024093
:1045E00000B587B001210846FEF758FA01210803FB
:1045F000FEF784FA3820059002208DF8180000207C
:104600008DF81A0003208DF8190001208DF81B0089
:1046100005A92248FDF7F2FE052203211F48FDF7F8
:1046200035FF052204211D48FDF730FF0522114604
:104630001A48FDF72BFF01210803FEF76FFA00214E
:104640004FF48050FEF76AFA0020ADF800004FF4F6
:104650008270ADF802000020ADF804000220ADF831
:1046600006000120ADF808004002ADF80A0038202D
:10467000ADF80C000020ADF80E000720ADF81000DA
:104680006946074800F058F80121054800F03AF85B
:10469000FF2000F007F807B000BD00000004024052
:1046A0000030014010B5044600BF02210A4800F066
:1046B00035F80028F9D02146074800F03BF800BF44
:1046C0000121054800F02AF80028F9D0024800F03E
:1046D0002EF8C0B210BD00000030014010B50446F5
:1046E000074800884FF6C77108400549088008460A
:1046F0000088204308800121014800F003F810BD24
:104700000030014021B1028842F04002028004E002
:1047100002884FF6BF731A4002807047024600209D
:1047200013890B400BB1012000E0002070470146C7
:10473000888970478181704710B50022028802F491
:1047400041520B884C8823438C882343CC882343D5
:104750000C8923434C8923438C892343CC892343ED
:104760001A430280838B4FF2FF74234083830B8AAA
:10477000038210BD704700000CB50020019000902E
:104780003448006840F480303249086000BF314846
:10479000006800F4003000900198401C01900098DF
:1047A00018B90198B0F5A04FF1D12A48006800F47B
:1047B000003010B10120009001E00020009000982E
:1047C000012846D123484030006840F080502149FC
:1047D000403108602048006840F440401E490860AD
:1047E0001C48083000681B4908310860084600680A
:1047F00040F4004008600846006840F4A05008609B
:104800001648091F0860081F006840F08070091FE3
:10481000086000BF0F48006800F000700028F9D061
:1048200040F205700E4908600A480830006820F020
:1048300003000849083108600846006840F002009B
:10484000086000BF03480830006800F00C0008282A
:10485000F8D10CBD003802400070004008544007F9
:10486000003C0240042808D14FF0E021096941F0E2
:1048700004014FF0E022116107E04FF0E0210969E7
:1048800021F004014FF0E0221161704770470000F1
:1048900010B51548006840F47000134908601348CB
:1048A000006840F001001149086000200F490831FC
:1048B00008600E4800680E4908400C4908600D4821
:1048C000091D0860081F006820F48020091F086087
:1048D000002006490C310860FFF74EFF4FF00060E2
:1048E00001498039086010BD88ED00E000380240C1
:1048F000FFFFF6FE1030002410B501210A4800F039
:1049000079F801280AD10949086980470021064839
:1049100000F08CF86421044800F086F80121024878
:1049200000F04DF810BD00000008004020020020FB
:1049300010B50121094800F05DF868B10848008809
:1049400040F40040064908800121044800F037F88F
:104950000021024800F036F810BD000000140040AD
:104960001C0000207FB505460C4601212020FEF7E3
:10497000A5F80195ADF800400020ADF80800ADF8AD
:10498000020069460B4800F053F80122114609481D
:1049900000F041F837208DF80C0000208DF80D0054
:1049A00001208DF80E008DF80F0003A8FDF70CFE16
:1049B0007FBD000000140040CA4302827047CA4312
:1049C0000282704721B1028842F00102028004E0B5
:1049D00002884FF6FE731A40028070470146486A0B
:1049E000704702460020138A0B400BB1012000E003
:1049F0000020704730B50246002000230024158AAD
:104A000005EA0103958905EA010413B10CB10120FF
:104A100000E0002030BD1AB183890B43838102E09E
:104A200083898B4383817047C162704741627047BD
:104A300000220288184B98420ED0184B98420BD097
:104A4000B0F1804F08D0164B984205D0154B9842D4
:104A500002D0154B984204D14FF68F731A404B8801
:104A60001A43124B984207D0114B984204D04FF68C
:104A7000FF431A400B891A4302804B68C3620B88BC
:104A80000385054B984202D0044B984201D18B7AA2
:104A90000386012383827047000001400004014027
:104AA0000004004000080040000C004000100040DE
:104AB000001400407FB504460D4601210420FDF797
:104AC000FDFFADF800500020ADF802000194ADF8F4
:104AD000080069460D48FFF7ABFF012211460B485D
:104AE000FFF799FF01210948FFF76CFF1E208DF8A1
:104AF0000C0003208DF80D008DF80E0001208DF8BC
:104B00000F0003A8FDF760FD7FBD00000008004016
:104B100010B540F225514C4800F063FB002878D0D6
:104B20004948001D0088C4B24848006838B9232CA1
:104B300004D146480068401C4449086010BD434801
:104B4000006801280BD1212C05D140480068401C89
:104B50003E49086002E000203C490860EEE73B481F
:104B60000068022808D120023949086037480068E7
:104B7000401C36490860E1E73448006803280AD140
:104B80003348006820443249086030480068401CBF
:104B90002E490860D2E72D480068042852D12D48DC
:104BA0000068401C2B49086008460068FA2802DDAE
:104BB00000F044FAC2E7274800682549096888429E
:104BC00005DC24480068401E23490C54B6E7214800
:104BD00001681F480068401C814204D12A2C01D082
:104BE00000F02CFAAAE71B48016819480068801CED
:104BF000814202D119480470A0E7164801681448A0
:104C00000068C01C81421CD1262C03D000F016FA8B
:104C100016E017E00E4801780F4801F037FF0F4902
:104C2000097888420AD14FF496710D48FBF797FE38
:104C300009490B48FBF78EFDFDF784FE00F0FEF9F5
:104C40007CE77BE700BF79E7004C0040380000209C
:104C50003000002034000020781C00203C000020A0
:104C6000A41D002010B540F225514C4800F0B9FABF
:104C7000002877D049488088C4B24948006838B9CC
:104C8000232C04D146480068401C4549086010BDEB
:104C90004348006801280BD1212C05D14048006809
:104CA000401C3F49086002E000203D490860EEE7F3
:104CB0003B480068022808D120023A490860384879
:104CC0000068401C36490860E1E735480068032861
:104CD0000AD13448006820443249086030480068EE
:104CE000401C2F490860D2E72D480068042852D1A3
:104CF0002D480068401C2C49086008460068FA28C6
:104D000002DD00F0B7F9C2E72748006825490968C5
:104D1000884205DC24480068401E24490C54B6E74C
:104D2000214801681F480068401C814204D12A2C98
:104D300001D000F09FF9AAE71B48016819480068F4
:104D4000801C814202D11A480470A0E7164801680D
:104D500014480068C01C81421CD1262C03D000F0EE
:104D600089F916E017E00F480178104801F08EFE2F
:104D70000F49097888420AD14FF496710D48FBF724
:104D8000EEFD0A490B48FBF7E5FCFDF71FFD00F0BF
:104D900071F97CE77BE700BF79E700000050004035
:104DA000480000204000002044000020D01E0020C9
:104DB0004C000020FC1F002010B540F225511D487A
:104DC00000F00FFA10B31B4800F0C4FAC4B21A483E
:104DD000008800F40040C8B91748008800F48040FB
:104DE00060B10A2C03D000201349088020E012484B
:104DF000008840F400401049088019E00D2C06D1CD
:104E00000D48008840F480400B49088010E00A48B3
:104E10000088C0F30D0009490C5407480088401C65
:104E20000549088008460088C72801DD0020088061
:104E300010BD000000100140080000207403002095
:104E400010B54FF0FF30074908604FF496710648DF
:104E5000FBF785FD00200549086005490860054904
:104E6000087010BD20000020201A0020240000201F
:104E7000280000202C00002010B540F225514C489D
:104E800000F0AFF9002878D04948001D0088C4B26E
:104E90004848006838B9232C04D146480068401CB3
:104EA0004449086010BD4348006801280BD1212CFB
:104EB00005D140480068401C3E49086002E00020DF
:104EC0003C490860EEE73B480068022808D1200210
:104ED0003949086037480068401C36490860E1E7F6
:104EE0003448006803280AD1334800682044324916
:104EF000086030480068401C2E490860D2E72D4801
:104F00000068042852D12D480068401C2B490860D5
:104F100008460068FA2802DDFFF792FFC2E727483B
:104F2000006825490968884205DC24480068401E5D
:104F300023490C54B6E7214801681F480068401C0B
:104F4000814204D12A2C01D0FFF77AFFAAE71B483F
:104F5000016819480068801C814202D11948047018
:104F6000A0E71648016814480068C01C81421CD1A3
:104F7000262C03D0FFF764FF16E017E00E480178F7
:104F80000F4801F083FD0F49097888420AD14FF498
:104F900096710D48FBF7E3FC09490B48FBF7DAFB78
:104FA000FDF758FBFFF74CFF7CE77BE700BF79E795
:104FB00000440040280000202000002024000020A1
:104FC000201A00202C0000204C1B002010B540F2BD
:104FD0002551164800F005F900B3144800F0BAF95D
:104FE000C4B21348008800F40040B8B910480088E3
:104FF000B0F5C87F13DA00210E48FFF717FD0C4803
:10500000008818B901210B48FFF7DCFC084801882B
:105010000088401C064A10800748445405E00448B4
:10502000008840F400400249088010BD004800405C
:105030001C000020001400409008002010B54FF024
:10504000FF30074908604FF496710648FBF787FC6C
:10505000002005490860054908600549087010BD31
:1050600030000020781C0020340000203800002090
:105070003C00002010B54FF0FF30074908604FF4A6
:1050800096710648FBF76BFC00200549086005494E
:1050900008600549087010BD40000020D01E0020A7
:1050A00044000020480000204C00002001F4007261
:1050B000B2F5007F00D100BFCA430280704721B122
:1050C000828942F40052828104E082894DF6FF73A6
:1050D0001A4082817047000010B50446324884426D
:1050E00008D101211020FDF719FD00211020FDF746
:1050F00015FD57E02D48844209D101214804FDF7F0
:10510000EDFC00214FF40030FDF7E8FC4AE02848B0
:10511000844209D101218804FDF7E0FC00214FF40D
:105120008020FDF7DBFC3DE02248844209D10121CB
:10513000C804FDF7D3FC00214FF40020FDF7CEFC9E
:1051400030E01D48844209D101210805FDF7C6FC65
:1051500000214FF48010FDF7C1FC23E01748844282
:1051600008D101212020FDF7D9FC00212020FDF7E6
:10517000D5FC17E01248844209D101218807FDF7C8
:10518000ADFC00214FF08040FDF7A8FC0AE00D487F
:10519000844207D101214005FDF7A0FC00216005F4
:1051A000FDF79CFC10BD00000010014000440040D1
:1051B00000480040004C00400050004000140140F6
:1051C00000780040007C004002460020B1F5007FDE
:1051D00000D100BF13880B400BB1012000E000207C
:1051E000704770B50246002400230025002040F6D9
:1051F0006A16B14200D100BFC1F3421501F01F038E
:10520000012606FA03F3012D02D19689334006E008
:10521000022D02D1168A334001E0968A33400C12E7
:10522000012606FA04F41688344013B10CB10120AB
:1052300000E0002070BDF0B50346002400260025E4
:10524000002040F66A17B94200D100BF1846C1F3EA
:10525000421401F01F06012707FA06F5012C01D1BF
:105260000C3004E0022C01D1103000E014301AB1EF
:1052700007682F43076002E00768AF430760F0BD8F
:105280002DE9FF4705460E460024A14600BFA04673
:10529000B08900B100BF2C8A24F44054F088044344
:1052A0002C82AC8941F20C608443B0883189084378
:1052B000718908430443AC81AC8A24F44074B089FA
:1052C0000443AC826846FDF739FC2048854202D091
:1052D0001F48854202D1DDF80C9001E0DDF808900E
:1052E000A88900F4004040B109EBC90000EB0910A7
:1052F00031684900B0FBF1F707E009EBC90000EBAA
:10530000091031688900B0FBF1F76420B7FBF0F0B9
:1053100004012009642101FB1078A88900F40040F1
:1053200040B1322000EBC800B0FBF1F000F0070004
:10533000044308E0322000EB08106421B0FBF1F0D8
:1053400000F00F0004432C81BDE8FF8700100140EE
:105350000014014001468888C0F308007047C1F37B
:1053600008028280704700BFFEE7000010B50446C7
:10537000214610A0FBF716F8240300F027F900F0EF
:10538000BFF800200D4908602020FFF78BF9C4F317
:105390000740FFF787F9C4F30720FFF783F9E0B26E
:1053A000FFF780F901200649C1F8B80200F0A8F81B
:1053B00010BD000066653A25780D0A00B8824042AB
:1053C000008040421CB501210220FDF767FB01214E
:1053D0004020FDF763FB4FF48040009001208DF8E2
:1053E000040000208DF8060003208DF80500012040
:1053F0008DF8070069460D48FDF700F88020009001
:1054000069460B48FCF7FAFF80210948FDF761F86F
:10541000012008490860FFF7E3F80820FFF75EF96C
:1054200000F034F8044908801CBD0000000402406C
:1054300000180240B88240421E0000202DE9F041D1
:1054400006460C46174600200F4908600320FFF768
:1054500029F9C4F30740FFF725F9C4F30720FFF744
:1054600021F9E0B2FFF71EF9002505E0FF20FFF764
:1054700019F97055681C85B2BD42F7DB012002495D
:105480000860BDE8F0810000B882404210B50024F9
:1054900000200E4908609020FFF704F90020FFF774
:1054A00001F90020FFF7FEF80020FFF7FBF8FF20CE
:1054B000FFF7F8F844EA0024FF20FFF7F3F804436D
:1054C00001200349C1F8B802204610BDB88240420D
:1054D0000080404210B500240020074908600520E4
:1054E000FFF7E0F8FF20FFF7DDF80446012003494D
:1054F000C1F8B802204610BDB88240420080404248
:1055000010B500BFFFF7E6FF00F001000028F9D159
:1055100010BD00002DE9F05F81460F461646DFF80A
:10552000A8B04FEA1738C7F30B0ACAF58054A64251
:1055300000DC344644E04FEA08314FF480525846CC
:10554000FFF77CFF002508E00AEB05001BF80000D0
:10555000FF2800D003E0681C85B2A542F4DB00BF41
:10556000A54216DA4046FFF701FF002507E019F8CB
:10557000050005EB0A010BF80100681C85B2A54285
:10558000F5DB4FEA08314FF48052584600F02EF810
:1055900004E022463946484600F028F8A64200D1E9
:1055A0000FE008F101084FF0000AA1442744301B26
:1055B00086B2B6F5805F02DD4FF4805400E03446D9
:1055C000B9E700BFBDE8F09F200A002010B5002019
:1055D000044908600620FFF765F801200249C1F878
:1055E000B80210BDB8824042008040422DE9F0412F
:1055F00007460E461446F0B2C0F58075AC4200DC9A
:10560000254612E02A463146384600F013F8AC42EF
:1056100000D10BE02F442E44601B84B2B4F5807F90
:1056200002DD4FF4807500E02546EBE700BFBDE8E2
:10563000F08100002DE9F04106460C461746FFF7C1
:10564000C5FF00200F4908600220FFF72BF8C4F3C4
:105650000740FFF727F8C4F30720FFF723F8E0B26D
:10566000FFF720F8002504E0705DFFF71BF8681CC9
:1056700085B2BD42F8DB012002490860FFF740FF18
:10568000BDE8F081B882404203B40198410000981F
:1056900050EAC12018BF04204A0D18BF40F0010095
:1056A00040F2FF72B2EB515F08BF40F002000128E8
:1056B00008BF052002B070472DED020B019820F0C5
:1056C000004001909DED000B02B07047000000000B
:1056D0002DE9F0412DED020B9FED3D0B2DED028BE1
:1056E0009FED3D8BDDE90254C4F30A50A0F2FF3672
:1056F000142E37DA002E18DA53EC102B9DED020B26
:1057000051EC100B06F012F953EC182B06F0A2FC2A
:1057100057D2002CA4BF0024254652DA24F00040C2
:10572000284318BF2E4C4CD01AE02E4820FA06F71A
:1057300004EA070028431FD053EC102B9DED020B09
:1057400051EC100B06F0F2F853EC182B06F082FC2B
:1057500037D2002C03DA4FF48010F0400444BC43ED
:1057600000252EE0332E07DCA6F114004FF0FF31A8
:1057700021FA00F73D4206D19DED020BBDEC028BF4
:1057800002B0BDE8F08153EC102B9DED020B51EC03
:10579000100B06F095FC53EC182B06F05BFC10D2B6
:1057A000002C0DDA142E08BF641C09D0C6F1340099
:1057B000012101FA00F02844A84238BF641C0546C4
:1057C000BD43CDE902549DED020BD7E70000000078
:1057D0009C7500883CE4377E00000000000000005B
:1057E0000000F0BFFFFF0F002DE9F04D2DED040B81
:1057F0002DED0C8B96B0DDE92350259CDDF888A0BB
:1058000025F0004624F00048BAF1000F14BF012132
:10581000002101EB4502FE4953184A1093422AD356
:10582000002814BF0123002303EB44030B44F94970
:105830008B4220D358EA00019FEDF78B6FD0DFF841
:10584000E0B35D4503D1BAF1000F05D187E0BAF1AD
:10585000000F08BF002100D0012101EB450111F527
:10586000001F08D8002814BF0121002101EB4401CA
:1058700011F5001F0BD99DED241B9DED220B16B0D9
:10588000BDEC0C8B04B0BDE8F04D00F05DBE002710
:10589000002DBCBFE349884521DAE3498845A8BF0C
:1058A00002271CDAC3451ADCE04901EB2851142910
:1058B00008DDC1F1340220FA02F101FA02F282425B
:1058C0000DD108E058B9C1F1140228FA02F101FA29
:1058D00002F2424503D101F00101C1F1020756EA8B
:1058E0000A011DD1002C1BDA002D18BF022F01D098
:1058F000012F0AD00220FBF7FCF816B0BDEC0C8B90
:1059000004B0BDE8F04D00F007BE0220FBF7F1F84F
:1059100000F002FE51EC100B05F0FCFF83E01EE0EE
:105920009FEDC39B9FEDC4AB002872D1BD4880455D
:105930002DD105F1804010F5801008BFBAF1000F9D
:105940000DD0B34515DC002CA1BF9DED240B16B086
:10595000BDEC0C8B04B0A8BFBDE8F08D12E0B0EE3A
:10596000480AF0EE680A16B0BDEC0C8B04B0BDE836
:10597000F08D002C06DA9DED240B51EC100B05F098
:10598000C9FF50E0AE48784490ED000BEBE7D845F6
:105990004FD1002C4ADA2EB186423BD1BAF1000F2A
:1059A00044D126E0BAF1000F13D00220FBF7A1F892
:1059B00000F0E6FD8DED020B9DED220B8DED000B51
:1059C00010EE900A039961F31E0003909DED020B07
:1059D000C9E78DED029B9DED220B19EE901A10EE9A
:1059E000900A8DED000B61F31E0003909DED020BFC
:1059F000B9E78DED02AB9DED220B1AEE901A10EE79
:105A0000900A8DED000B61F31E0003909DED020BDB
:105A1000A9E729E00ADA9DED220B51EC180B53ECB3
:105A2000102B06F03FF841EC100B9CE79DED220B8C
:105A300099E7864218DAB4F1804F0DD0A4F10050F6
:105A4000B0F1FF5010D1002D0EDB9DED220B51EC7B
:105A5000100B04F020FCE6E79DED220B53EC102B1D
:105A600051EC100B00F0AEBC9DED220B51EC100B75
:105A700001F04AFABAF1000FCDE90C0134D19FEDE3
:105A8000720BDEB1A6F1E040B0F17F602CD1002DA9
:105A900001DD002C0DDA002D01DD002C1FDB002DB7
:105AA00016DA002C14DB012F08BF9FED690B3FF4C1
:105AB0005AAFB0EE490AF0EE690A54E7022F18BF58
:105AC000002D0CD0012F0AD1002DFFF64CAF06E0BF
:105AD000002DB8BF002C07DA012F3FF444AFB0EE21
