:020000040800F2
:10000000F0C1012015030008A51F00089D1F00086E
:10001000A11F00085D1E00086733000800000000F3
:10002000000000000000000000000000752700082C
:10003000C51E0008000000003D2400088D280008AF
:100040002F0300082F0300082F0300082F030008C8
:100050002F0300082F0300082F0300082F030008B8
:100060002F0300082F0300082F0300082F030008A8
:100070002F0300082F0300082F0300082F03000898
:100080002F0300082F0300082F0300082F03000888
:100090002F0300082F0300082F0300082F03000878
:1000A0002F0300082F0300082F0300082F03000868
:1000B0002F0300082F030008F92800082F03000869
:1000C0002F0300082F0300082F0300082F03000848
:1000D0002F030008B92D0008792E0008CD2F000845
:1000E0002F0300082F0300082F0300082F03000828
:1000F0002F0300082F0300082F0300082F03000818
:100100002F030008ED2500082F0300082F03000827
:10011000112B0008652C00082F0300083129000866
:100120002F0300082F0300082F0300082F030008E7
:100130002F0300082F0300082F0300082F030008D7
:100140002F0300082F0300082F0300082F030008C7
:100150002F0300082F0300082F0300082F030008B7
:100160002F0300082F0300082F0300082F030008A7
:100170002F0300082F0300082F0300082F03000897
:100180002F0300082F03000800F002F800F0B2F877
:100190000AA090E8000C82448344AAF10107DA45E2
:1001A00001D100F0A7F8AFF2090EBAE80F0013F082
:1001B000010F18BFFB1A43F00103184798A0000075
:1001C000B8A000000A444FF0000C10F8013B13F0F7
:1001D000070408BF10F8014B1D1108BF10F8015BA0
:1001E000641E05D010F8016B641E01F8016BF9D193
:1001F00013F0080F1EBF10F8014BAD1C0C1B09D1EA
:100200006D1E58BF01F801CBFAD505E014F8016B5B
:1002100001F8016B6D1EF9D59142D6D370470000ED
:100220000023002400250026103A28BF78C1FBD8FF
:10023000520728BF30C148BF0B6070476E2900F0DD
:10024000C184702900F09381662909F090846529A2
:1002500009F08D84672909F08A846129AFF3008051
:1002600003681B0A28BF41F08001692900F004815E
:10027000642900F00181752900F0FE806F2900F0EB
:10028000C787782900F05F81E92900F06187E429B8
:1002900000F05E87F52900F05B87EF2900F0C48746
:1002A000F82900F05E810368DB0928BF41F0800176
:1002B000632900F0D086732900F0D586E32901F088
:1002C0005580F32901F05A80002070471FB509F0CE
:1002D00049FC00F0B7FF04000020002108F07EFE7A
:1002E000401C60600020002108F08EFEE0601FBD11
:1002F00010B510BD01F0D8F81146FFF7E7FF06F082
:10030000D9F901F0F6F803B4FFF7F2FF03BC03F0EC
:10031000CEFF00000948804709480047FEE7FEE796
:10032000FEE7FEE7FEE7FEE7FEE7FEE7FEE7FEE7A5
:1003300004480549054A064B70470000912800080B
:1003400089010008F0BB0120F0C10120F0BD0120AF
:10035000F0BD0120704710B5044600F0B1FB006805
:10036000005DC00602D504F1200010BD204610BD7E
:100370001CB50C46064B7B4469460090204600F0B5
:1003800048FE04460020694600F056FE20461CBD8B
:10039000BF0C00000FB4044910B503AA029800F086
:1003A00067FE10BC5DF814FB040000200FB41CB500
:1003B000084B06AA7B4469460090059800F029FE88
:1003C00004460020694600F037FE20461CBC5DF85C
:1003D00014FB0000810C000070B5044685690068BC
:1003E000C10601D5302600E02026C00707D070BD29
:1003F000D4E9012130469047206A401C20626D1EDE
:10040000F6D570BD70B5044685690078C00707D180
:1004100070BDD4E9012120209047206A401C206251
:100420006D1EF6D570BD70B50C460546012A05D087
:100430002878800600D5EA69002302E0012305E060
:100440005B1C934202D2E05C0028F9D1A869E6184F
:10045000C01AA861286A184428622846FFF7BCFF22
:1004600004E0D5E9012114F8010B9047B442F8D318
:100470002846FFF7C7FF70BD2DE9F041064600246E
:1004800010687529314616A510D000F030FB002801
:1004900002DA404213A507E031688A0701D512A5A8
:1004A00002E0490704D511A5012401E000F028FB72
:1004B00000210A2206F1240709E0B0FBF2FCB0FBA0
:1004C000F2F302FB1C00303078541846491C002817
:1004D000F3D123462A463046BDE8F04100F019BB6F
:1004E000000000002D0000002B0000002000000094
:1004F000F0B40D460188090502D5214C7C4402E088
:100500001F4C7C440E34002100F1240608E002F068
:100510000F071209E75D42EA03721B097754491C71
:1005200052EA0307F3D102780023120704D5702D95
:1005300006D009B1022311342246F0BC00F0E9BA1A
:1005400001231034F8E770B504460D4621461068C3
:1005500000F0D6FA024629462046BDE87040002346
:10056000C6E7D21D22F00703D3E90023C0E70368E2
:10057000126843F0200303600823C3610023B7E738
:100580008F9800002DE9F05F894604464FF0000A7D
:10059000DFF874B1FB44C0F820A02046E16888472A
:1005A000002874D0252806D0D4E901219047206A7C
:1005B000401C2062F1E700265F462046E16888473C
:1005C0002028054607DB312D05D2781910F8200CBC
:1005D00008B10643F1E7B00701D526F00406C4F8D8
:1005E0001CA00027C4F818A02A2D09D0284603F023
:1005F00057FE38B304EB8708303DC8F8185019E0AF
:1006000059F8041B204604EB87029161E168884792
:10061000012F054618D1E069002820DA26F02006CF
:100620001DE0D8F8180000EB800005EB40003038E2
:10063000C8F818002046E1688847054603F030FEF8
:100640000028EED1012F0AD02E2D08D12046E168D6
:1006500088477F1C0546022F46F02006C4DBA069B0
:10066000002803DA404246F00106A061F00701D0FD
:1006700026F010066C2D0BD0682D09D04C2D39D0EA
:100680006A2D35D0742D35D07A2D33D016E038E070
:10069000E1682F4620468847B842054609D16C2FAD
:1006A00026D04FF48060E16806432046884705461F
:1006B00004E06C2F1AD04FF4807006430DB3A5F1FF
:1006C0004100192802D8203546F400664A462946DA
:1006D000204626604E46FFF7B1FD80B101280BD0C1
:1006E000F61D26F0070000F1080956E74020E4E770
:1006F0008020D8E70020D6E706F104094DE7284618
:1007000052E7206ABDE8F09F1F980000401ECAB261
:1007100010F8011F8A4202D00029F9D10020704749
:1007200030B505460B462A4613F8014B12F8010B6B
:1007300008B1A042F8D01CB1002802D06D1CF1E72E
:10074000284630BD40EA0103024630B59B0710D170
:100750004FF0013400E008C208C91D1B9D4315EA93
:10076000C41FF8D013F0FF0102F8011B0DD01B0AC3
:10077000F8E711F8013B002B02F8013B05D011F816
:10078000013B002B02F8013BF3D130BD10B5431CF7
:1007900002E010F8011B71B18107FAD14FF001326C
:1007A00002C88C1A8C4314EAC211F9D0C01A0A0686
:1007B00003D0C01E10BDC01A10BD0A0401D0801E97
:1007C00010BD0902FCD0401E10BD40EA010370B507
:1007D0009B072ED14FF00136042A2AD308C810C92E
:1007E0009D1B9D43121F15EAC61517D0D8B2E1B262
:1007F000401A50EA056110D198B2A1B2401A50EAED
:1008000005410AD123F07F4024F07F41401A50EA8D
:10081000052102D1180EA0EB146070BDA342DBD0FD
:1008200018BA21BA884201D9012070BD4FF0FF30BB
:1008300070BD0AB9002070BD10F8013B11F8014BE2
:1008400063B1A3420AD1521E08D010F8013B11F83F
:10085000014B1BB1A34201D1521EEDD1181B70BD3B
:10086000032A40F2308010F0030C00F0158011F8DC
:10087000013BBCF1020F624498BF11F801CB00F8B4
:10088000013B38BF11F8013BA2F1040298BF00F808
:1008900001CB38BF00F8013B11F0030300F02580C5
:1008A000083AC0F0088051F8043B083A51F804CBEC
:1008B000A0E80810F5E7121D5CBF51F8043B40F8B2
:1008C000043BAFF30080D20724BF11F8013B11F8BD
:1008D00001CB48BF11F8012B24BF00F8013B00F801
:1008E00001CB48BF00F8012B704710B5203AC0F08B
:1008F0000B80B1E81850203AA0E81850B1E8185021
:10090000A0E81850BFF4F5AF5FEA027C24BFB1E85D
:100910001850A0E8185044BF18C918C0BDE81040CE
:100920005FEA827C24BF51F8043B40F8043B08BFD7
:100930007047D20728BF31F8023B48BF11F8012B9E
:1009400028BF20F8023B48BF00F8012B70474FF04A
:1009500000020429C0F0128010F0030C00F01B808C
:10096000CCF1040CBCF1020F18BF00F8012BA8BF9A
:1009700020F8022BA1EB0C0100F00DB85FEAC17C5E
:1009800024BF00F8012B00F8012B48BF00F8012B11
:1009900070474FF0000200B5134694469646203942
:1009A00022BFA0E80C50A0E80C50B1F12001BFF428
:1009B000F7AF090728BFA0E80C5048BF0CC05DF88E
:1009C00004EB890028BF40F8042B08BF704748BFDC
:1009D00020F8022B11F0804F18BF00F8012B704750
:1009E00010B5044610F0030F08BF11F0030F40F0DC
:1009F00015804FF0013E121FC0F20E8051F8043BEB
:100A0000A3EB0E0C2CEA030C1CEACE1C08BF40F82A
:100A1000043BF0D0A1F1040102F10402521E08DBF4
:100A200011F8013B002B00F8013BF7D11146FFF70D
:100A30008EFF204610BD00004FF0013C50F8042B03
:100A400051F8043B9A4221D1A2EB0C03934313EAE1
:100A5000CC1317D150F8042B51F8043B9A4215D10E
:100A6000A2EB0C03934313EACC130BD150F8042BE5
:100A700051F8043B9A4209D1A2EB0C03934313EAC9
:100A8000CC13DBD04FF00000704700BFD01A01BA82
:100A9000B1FA81F101F0180122FA01F0CB40C1F165
:100AA0002001DBB2C0B2C01A2CFA01F3D11A914373
:100AB00011EAC311E6D1704770477047704770471D
:100AC00010B500F0BFFB001D10BD00BF1185000078
:100AD000004870478CBB012010B5FFF7F9FF006894
:100AE00010BD10B50446FFF7F3FF046010BD0968A0
:100AF0004A0501D540B27047C905FCD500B2704720
:100B000009684A0501D5C0B27047C905FCD580B255
:100B100070472DE9F0470D4699469246044600F18C
:100B200024080168880604D5E06921F010012160DD
:100B300000E00120A84201DD471B00E00027A16979
:100B40007A1902EB0900081AA0612078C00602D4C5
:100B50002046FFF741FC002608E0D4E901211AF8FD
:100B600006009047206A401C761C20624E45F4DB4C
:100B70002078C0060AD52046FFF72EFC06E0D4E90F
:100B8000012130209047206A401C2062381EA7F1C6
:100B90000107F4DC07E0D4E9012118F805009047CB
:100BA000206A401C2062281EA5F10105F3DC2046C6
:100BB000FFF728FC2078000602D50220BDE8F08768
:100BC0000120FBE711680268006A530501D508702F
:100BD0000AE0D30501D5088006E0130603D5C21745
:100BE000C1E9000200E008600120704770472DE96C
:100BF000FF4F0C461E464FF0FF378BB0D2E9000185
:100C0000DDF860800A908A46C1F30A5505B93D4671
:100C1000002108464FF00000BAF1000F00F4400038
:100C200005DA00EB80004FF4400101EA50004FEA82
:100C30009059B9F1010F00DDB9460A9850EA4A000F
:100C40000ED044F61050A5F2FF3545432F14B8F1ED
:100C5000000F1ED07542291E1EDDC9F100021CE0E6
:100C6000B8F1010F4FF0000001D0302103E0F24352
:100C700005E02154401CB042FBDB3046002200213D
:100C800021540B99C1F80880C1E900200FB0BDE8DC
:100C9000F08FBD1B6D1CDEE74A4600DA694206A8EC
:100CA00000F070FB06AB93E8070003AB83E8070096
:100CB00050460A9900F023FC8DE80700A0F500508B
:100CC0001F3800900398002D09DD42F21F014A46AB
:100CD000084403A90390684600F082FE08E0A0F5EE
:100CE00000504A461F3803A90390684600F08CFE66
:100CF0008DE807000004000C03D04FF0FF304108DE
:100D000000E01046B8F1000F03D000220092154613
:100D10001EE0751E05D400F099FA303262556D1E42
:100D2000F9D5B3460122084302D000227F1C04E01B
:100D30002078302801D100227F1E002A099786D012
:100D40001DE0112D07DA00F081FA303262556D1C7A
:100D500050EA0102F5D1084302D00098C8B10EE074
:100D60000021681E05E0235C625C63542254401E2F
:100D7000491C8142F7DBAB46A81B401E09900020AE
:100D800004F80B000B98099AC0F80880C0E9002B02
:100D90007CE711264FF0000859E72DE9F04F88460F
:100DA0000446D21D22F0070191B0D1E90001CDE93E
:100DB0000A0102F0DAFA02460B98C00F01D02D208A
:100DC00007E02068810701D52B2002E0202101EAFD
:100DD000C000032A099001D0072A05DB03464146DB
:100DE000204600F079FA0BE12078800601D5E06911
:100DF00000E00620B8F1650F814606D0B8F1660F15
:100E000018D0B8F1670F70D131E00020B9F1110F9F
:100E1000009001DB112301E009F101030AAA01A9F5
:100E20000CA8FFF7E4FEDDE90C70002609F10105CE
:100E3000834647E001204B4600904FF000470AAA46
:100E400001A90CA8FFF7D3FEDDE90DB00C995D46B2
:100E5000002610B909F101000D18B9EB050003D403
:100E6000C0F1FF3609F10105A5EB09002BE0B9F14E
:100E7000010F01DA4FF001090020B9F1110F0090C4
:100E8000484601DD112300E003460AAA01A90CA887
:100E9000FFF7ADFEDDE90C704D4600268346207855
:100EA00000070AD4AB4500DA5D4601A8012D04DD38
:100EB000411911F8011C302907D04F4502DA17F10A
:100EC000040F04DA012082460FE06D1EEEE7002FCA
:100ED00002DCED1B3E4403E0781CA84200DD7D1CD3
:100EE000B81B00F1010A4FF000472078000703D437
:100EF000AA4501DB4FF0FF3A0021B7F1004F0DF199
:100F000043088DF8431024D002202B23002F01DA50
:100F10007F422D230A21021EA0F1010000DC5FB1F7
:100F200097FBF1FC97FBF1F201FB1C7C17460CF1DF
:100F3000300C08F801CDEEE7A8F10100037021881C
:100F4000090501D5452100E06521A0F1010800F85F
:100F5000011C09980FA9A1EB0807FF1D00B1012092
:100F6000411901EBEA70A1693844081A401EA061DA
:100F70002078C00602D42046FFF72EFA099828B13F
:100F8000D4E901219047206A401C20622078C006E5
:100F900022D52046FFF720FA1EE0002E04DBB345E1
:100FA00002DD01A8805D00E03020D4E901219047F6
:100FB000206A401C2062761CAAF101005FEA000A48
:100FC0000AD100F03FF9C0680168405CD4E9012112
:100FD0009047206A401C2062281EA5F10105DCDC38
:100FE00007E0D4E9012118F8010B9047206A401C62
:100FF0002062381EA7F10107F3DC2046FFF702FA52
:10100000032011B043E6000001694A1C0261087820
:10101000704700B58FB0CDE9013100210591054938
:101020007944CDE9031011466846FFF7ABFA0FB0DB
:1010300000BD0000E5FFFFFF0A6802F8010B0A602F
:10104000704710B5436913B1AFF3008001E0FFF7BB
:10105000EAF9012010BD127800F124010A70002283
:101060004A700122EDE711684FF0FF32E9E7000016
:10107000074B70B50D467B44FFF7CBFF044628466F
:1010800000F0EEF910B14FF0FF3070BD204670BD9A
:101090003F3A00002DE9FF5F15468A460446DFF817
:1010A000AC80F8440027D8E900103E46CDE9001096
:1010B00010E03AF816106A4602A800F0D5F9411C73
:1010C00007D02178890603D5E269391891420DD8F5
:1010D0000744761C2078800602D5E069B84205DD19
:1010E000AE42E6DB3AF816000028E2D1A069C01B48
:1010F000A0612046FFF770F9D8E90010CDE9001093
:10110000002017E03AF818106A4602A800F0ACF97F
:10111000B0F1FF3F81460BD000250DF1080B05E033
:10112000D4E901211BF8050090476D1C4D45F7D30C
:1011300008F10100B0428046E4DB206A38442062B6
:101140002046FFF75FF9BDE8FF9F0000AA8D000071
:101150002DE9F0418046D21D22F007020025D2E998
:101160000002F52915A614D0011E72F1000106DA5D
:101170000023D0EB030063EB020211A608E0D8F8CD
:1011800000108B0701D50FA602E0490701D50EA676
:1011900001251146002408F1240704E000F056F868
:1011A00030323A55641C50EA0102F7D12B463246E0
:1011B00021464046BDE8F041FFF7ABBC000000000F
:1011C0002D0000002B0000002000000030B40021A2
:1011D00000F1240408E002F00705D208303542EAA5
:1011E0004372DB086554491C52EA0305F3D10468D5
:1011F000002310A2250708D504F020040C4304D0D6
:10120000C46901230CA2641EC46130BCFFF781BC19
:1012100010B5044621461068FFF772FC02462046CE
:10122000BDE810400023D1E7D21D22F00701D1E92B
:101230000023CBE7000000003000000000487047AA
:101240008CBB012000487047ACBB012030B5B0F129
:101250000A024FEA900E71F100034EEA817EB0EB74
:101260000E0061EB91014FEA101E4EEA017E10EB79
:101270000E0041EB11114FEA102E4EEA016E10EBF9
:101280000E0041EB11214FEA104E4EEA014E10EBD9
:101290000E0041EB1141401841F100014FEAD0002E
:1012A00040EA41704FEAD10110EB80054FEA81041A
:1012B00044EA907444EB01046D1944EB0404521B9E
:1012C000A3414FF0000348BF0A3200D530BD401C97
:1012D00041F1000130BD00002DE9F0411F460446F8
:1012E00003260168072A01F4006004DB08B116A593
:1012F00005E016A503E008B115A500E015A521F04D
:1013000010002060A069C01EA0610FB1401EA06146
:101310002046FFF761F84FB1D4E9012138469047E4
:10132000206A401C2062C01C206206E0206AFAE7A6
:10133000D4E9012115F8010B9047761EF8D220461A
:10134000FFF760F8BDE8F0814E414E006E616E001F
:10135000494E4600696E660010B5436913B1AFF39C
:10136000008001E0FFF796FE012010BD128800F119
:10137000240182840022C2840122EDE711684FF02B
:10138000FF32E9E72DE9F047814616468AB0334837
:1013900078440DC88DE80D0030487844801C03ACBB
:1013A0000DC884E80D0041F69B300844372190FBBE
:1013B000F1F290FBF1F5A5F1800501FB12041B3C55
:1013C00002D56442012000E00020DFF890A08046B2
:1013D0000027FA44AAF1BE0A0DE0E00709D0324620
:1013E000684607EB47010AEB810100F00DFB8DE831
:1013F000070064107F1C002CEFD1184F7F44AC3FD6
:1014000018E0E80714D007EB04100DF1180A90E873
:101410000E008AE80E00C068F04201D198190890C9
:10142000324606A903A800F0EFFA03AB83E80700F1
:101430006D10641C002DE4D132466946B8F1000FEE
:1014400003A802D000F0CCFA01E000F0DDFAC9E90F
:101450000001C9F808200AB0BDE8F087488B0000F9
:10146000007B00F08000704770B516460C460546BC
:10147000FFF726FB036893F80101012806D0FF2C33
:101480000FD8185D68B101202C7070BDD3F807012A
:101490003246214603F2071303442846BDE8704054
:1014A00018474FF0FF3070BD7546FFF7C7FEAE46D8
:1014B00005006946534620F00700854618B020B560
:1014C000FEF736FFBDE820404FF000064FF0000762
:1014D0004FF000084FF0000B21F00701AC46ACE8DC
:1014E000C009ACE8C009ACE8C009ACE8C0098D4649
:1014F00070470446AFF300802046FEF704FF5FEA22
:10150000400C08BF91F0000F4FEA8C234FEAC12234
:1015100043EA51514FEA1C5018BF00F5F0404FEA22
:10152000300018BF41F000415FEA6C5C00F0298098
:10153000BCF1FF3F08BF40F080407047130C06BF6E
:1015400012044FF0100C4FF0000C130E04BF1202E7
:101550000CF1080C130F04BF12010CF1040C930FD3
:1015600004BF92000CF1020CD30F04BF52000CF127
:10157000010C11464FF00002A0F11F00A0EB0C007F
:10158000704711F0004F08BF704731F000413FF441
:10159000D5AF0B0C06BF09044FF0100C4FF0000C38
:1015A0000B0E04BF09020CF1080C0B0F04BF09015C
:1015B0000CF1040C8B0F04BF89000CF1020CCB0F53
:1015C00004BF49000CF1010CCCF12003A0EB0C008E
:1015D00022FA03F302FA0CF241EA030100F10100DE
:1015E000704720F07F4C80EA030023F07F47ACEB8C
:1015F000070303F57C5300F0004003F1FF032DE9DE
:1016000080494FEA154B09B44FEA144325EA0B4EC3
:1016100024EA03480FF2042606EB132749083E7814
:101620005FEA320203FB0667C7F5000707FB06F611
:101630004FEA54374FEAD64606F1020607FB066C1E
:10164000CCF1005C4FEA1C472CEA074C07FB06F480
:101650000CFB06F504EB15464FEA961634BF002046
:101660004FF000404FEAD13706FB07FC4FEA1C4C15
:101670000CFB0BF7D21B03FB0CF761EB07010CFB18
:101680000EF7B0EB074072EB17420CFB08F734BFC4
:10169000A2EB0742B2EB074261EB17414FEA0C4461
:1016A0004FEA910706FB07FC4FEA1C4C0CFB0BF7BB
:1016B000B0EBC74072EB573203FB0CF734BFA2EB21
:1016C000C742B2EBC74261EB57310CFB0EF7B0EBF0
:1016D000C70072EB57720CFB08F734BFA2EBC702CE
:1016E000B2EBC70261EB5771039F4FEA816141EA98
:1016F000921104EBCC044FEAD1374FEA826206FB29
:1017000007FC42EA90124FEA80604FEA1C4C0CFB47
:101710000BF7D21B03FB0CF761EB07010CFB0EF779
:10172000B0EB074072EB17420CFB08F734BFA2EB9B
:101730000742B2EB074261EB17414FEA8C554FEA83
:10174000910704EB9C2406FB07FC4FEA1C4C0CFBA6
:101750000BF7B0EBC74072EB573203FB0CF734BF0B
:10176000A2EBC742B2EBC74261EB57310CFB0EF75D
:10177000B0EBC70072EB57720CFB08F734BFA2EB5B
:10178000C702B2EBC70261EB577115EB4C254FEA6C
:10179000816141EA92114FEA82624FEAD13742EA0F
:1017A000901206FB07FC44F100044FEA80604FEA08
:1017B0001C4C0CFB0BF7D21B03FB0CF761EB070176
:1017C0000CFB0EF7B0EB074072EB17420CFB08F76F
:1017D00034BFA2EB0742B2EB074261EB174115EBB6
:1017E0001C154FEA813141EA92414FEA823242EAC6
:1017F00090424FEA80304FEA0C7644F1000448EA08
:1018000003434EEA0B484FF0000EB2EB080C71EBAD
:10181000030724BF624639464EEB0E0E4FF0000B15
:101820000018524149414BEB0B0BB2EB080C71EB2A
:1018300003077BF1000B24BF624639464EEB0E0EC8
:101840004FF0000B0018524149414BEB0B0BB2EB30
:10185000080C71EB03077BF1000B24BF624639468D
:101860004EEB0E0E51EA020718BF46F0010616EBCA
:101870000E7655F1000254F1000103D5BDE889014F
:10188000BDE80088BDE88901BDE80048B6195241AD
:1018900041EB0101A3F10103704780807F7E7D7CD5
:1018A0007B7A7978777676757473727171706F6EF2
:1018B0006E6D6C6C6B6A6A6968686766666564649D
:1018C000636362616160605F5F5E5E5D5D5C5C5B27
:1018D0005B5A5A5959585857575656555555545496
:1018E000535352525251515050504F4F4F4E4E4DF4
:1018F0004D4D4C4C4C4B4B4B4A4A4A494949484840
:10190000484747474746464645454544444444437F
:1019100043434342424242414141002B26D4770097
:1019200021D01CB54FEA370703B44FF010004FF039
:1019300010014FF000000FBCBDE810400BF1010B8F
:10194000BBF1010F08BF5FEA170722BF12F10102C6
:1019500011F101014FF0004143F1000300F000409C
:1019600043EA00007047F9D35708DAE746EA06462B
:1019700013F1400F4FEA16461FDD13F1200FDFBFB2
:1019800016430A46002120335B42C8D0C3F120072A
:1019900046EA064602FA07F74FEA164646EA0706FF
:1019A000C3F1200722FA03F201FA07F721FA03F143
:1019B0004FF0000342EA0702B1E746EA020646EAB0
:1019C00006464FEA164646EA0106BCBF46EA064608
:1019D000360C4FF000034FF000024FF000019EE77D
:1019E0002DE9C048934630B491E8380007C831EA81
:1019F000400C48BF34EA430C03D5FFF7F2FDFFF774
:101A00008CFFF0BCBDE800882DE9C048934630B497
:101A100091E8380007C810F0804F08BF13F0804FDE
:101A200003D100F005F8FFF778FFF0BCBDE80088AF
:101A300020F07F4780EA030023F07F4C07EB0C0384
:101A4000A3F57C5300F00040A3F1FE0392F0000FD9
:101A500000F0B38095F0000F00F077802DE9014988
:101A60004FEA11404FEA144621EA004800FB06FC09
:101A700024EA064708FB06F607FB08F800FB07F711
:101A800018EB06484CEB164C4FEA124B18EB074884
:101A90004FEA15464CEB174022EA0B4E0BFB06FCB7
:101AA00025EA06470EFB06F607FB0EFE0BFB07F7C3
:101AB0001EEB064E4CEB164C4FF000061EEB074E8D
:101AC0004CEB174B18EB0B0840F1000018EB0E0B1A
:101AD00058EB000840F100008F1A4FF000013CBFA6
:101AE000C943661B14BFB5EB040C00213CBFC943BE
:101AF000F61B4FEA17444EEA8E0E27EA04454FEADA
:101B00001C4704FB07622CEA074C05FB07F70CFB9C
:101B100005F604FB0CFC16EB074642EB174216EBEE
:101B20000C4642EB1C421BEB060658EB02024141FD
:101B300046EA9E0601D5BDE80189B619524141EB3E
:101B40000101A3F10103BDE801894FEA14454FEA01
:101B5000114724EA054621EA074C05FB07F406FB7A
:101B600007F70CFB06F105FB0CFC11EB074144EBFE
:101B700017444FEA124711EB0C4144EB1C4422EA94
:101B8000074C05FB07F206FB07F70CFB06F605FB07
:101B90000CFC16EB074642EB174216EB0C4642EBE9
:101BA0001C456A1854F1000148BF7047B6195241EC
:101BB00041EB0101A3F10103704795F0000F37D00D
:101BC0004FEA11424FEA144721EA024624EA074C41
:101BD00002FB07F106FB07F70CFB06F402FB0CFC0B
:101BE00014EB074441EB17414FEA154714EB0C4443
:101BF00041EB1C4125EA074C02FB07F506FB07F702
:101C00000CFB06F602FB0CFC16EB074645EB1745F2
:101C100016EB0C4645EB1C42121951F1000148BF6E
:101C20007047B619524141EB0101A3F1010370471E
:101C30004FEA14454FEA114724EA054621EA074CCA
:101C400005FB07F106FB07F70CFB06F24FF0000659
:101C500005FB0CFC12EB074241EB174112EB0C4267
:101C600051EB1C4148BF7047921841EB0101A3F1B1
:101C7000010370472DE9F0412DED048B9AB0B0EED1
:101C8000408AF0EE608A054623208DF8040021206A
:101C90008DF8050002F0EEFB80462BA002F0F3FB6E
:101CA000064632462AA1404602F0B4FBB0EE480A8E
:101CB000F0EE680A02F0C6FB0646324628A140460E
:101CC00002F0A8FB284607F004FC41EC190BB0EE2B
:101CD000490AF0EE690A02F0B5FB0646324621A138
:101CE000404602F097FB404602F064FC074640463F
:101CF00002F0D8FB3846FEF749FD84B220128DF879
:101D00000600E0B28DF807002246394602A8FEF729
:101D100067FE2A2101AA201D1154E1B2384602F0C3
:101D20008DFC01AA611D50542621A01D1154E01DF7
:101D3000C1B201A806F054F8384602F0BBFA1AB056
:101D4000BDEC048BBDE8F08130303039000000007C
:101D5000627573696E657373547970650000000075
:101D6000585F56006D6F00002DE9F0412DED048B9A
:101D70009AB0B0EE408AF0EE608A054623208DF8D6
:101D8000040021208DF8050002F074FB80462BA092
:101D900002F079FB064632462AA1404602F03AFBA1
:101DA000B0EE480AF0EE680A02F04CFB06463246F6
:101DB00028A1404602F02EFB284607F08AFB41ECA2
:101DC000190BB0EE490AF0EE690A02F03BFB064639
:101DD000324621A1404602F01DFB404602F0EAFBDC
:101DE0000746404602F05EFB3846FEF7CFFC84B261
:101DF00020128DF80600E0B28DF807002246394621
:101E000002A8FEF7EDFD2A2101AA201D1154E1B21E
:101E1000384602F013FC01AA611D50542621A01D72
:101E20001154E01DC1B201A805F06AFF384602F066
:101E300041FA1AB0BDEC048BBDE8F081303031308E
:101E400000000000627573696E6573735479706584
:101E500000000000585F56006D6F000000BFFEE7F5
:101E600070B5044605E01648056805F0450000B168
:101E700000E0F8E700BF042000F0ACFB20B1042034
:101E800000F0A2FB032070BD012000F0A3FB20B1F5
:101E9000012000F099FB0120F5E70948243800688B
:101EA000A04201D01020EEE740F2FF5000F08CFB82
:101EB00003482038006808210840C0B2E3E700006A
:101EC000342C01407047F0B50A460021002300245D
:101ED00000BF3DE0012505FA01F3156805EA03049A
:101EE0009C4234D105684F000326BE40B5430560CF
:101EF00015794E00B5400668354305601579012D0A
:101F000002D01579022D16D185684F000326BE40F8
:101F1000B543856055794E00B54086683543856088
:101F2000456801268E40B5434560456896798E40E8
:101F3000B6B235434560C5684F000326BE40B54381
:101F4000C560D5794E00B540C6683543C560491CAB
:101F50001029BFD3F0BDF0B5002300244D07ED0ECE
:101F600002FA05F3CE1000F1200555F826504E0771
:101F7000F70E0F26BE40B543CF1000F1200646F8FD
:101F80002750CE1000F1200555F8265045EA0304ED
:101F9000CE1000F1200545F82640F0BD00BFFEE759
:101FA00000BFFEE77047000070B5002100230F223C
:101FB000C4781CB3174C246804F4E064C4F5E064EE
:101FC000C4F30721C1F10404E3B20A4144789C4000
:101FD000E1B28478144021430C07210E0E4C0578A1
:101FE0006155047804F01F050124AC4005786D119B
:101FF000AD0005F1E025C5F8004109E0047804F0E2
:102000001F050124AC40054D0678761145F82640A1
:1020100070BD00000CED00E000E400E080E100E0B5
:1020200002490143024A1160704700000000FA05AE
:102030000CED00E070B5384800782D2800D170BD57
:10204000354802F07DFA05463DB902F053FA0646DE
:10205000314632A0FEF79EF9F1E735A1284602F09D
:102060004FFA044604B94EE035A12069FEF7E4FCBE
:10207000B0B935A1284602F043FA044604B942E05B
:1020800034496069086034A1284602F039FA0446F0
:1020900004B938E02F48001D2169FEF753FB32E0F8
:1020A00030A12069FEF7C8FC60BB30A1284602F0D1
:1020B00027FA044604B926E02D49606908602DA17D
:1020C000284602F01DFA044604B91CE094ED060B04
:1020D000294880ED000B29A1284602F011FA044698
:1020E00004B910E094ED060B254880ED000B25A106
:1020F000284602F005FA044604B904E02249606962
:10210000086000E000BF284602F0CCF92D2002490B
:10211000087000BF93E70000440B00204572726F07
:1021200072206265666F72653A205B25735D0A00F6
:10213000627573696E657373547970650000000091
:1021400030303037000000006572726F72436F6488
:102150006500000060B901206572726F724465739A
:10216000630000003030313100000000436F000098
:102170003C0300204644000040030020424400008D
:10218000480300206D6F00005003002070B53848F0
:1021900000782D2800D170BD354802F0D1F90546F0
:1021A0003DB902F0A7F90646314632A0FEF7F2F833
:1021B000F1E735A1284602F0A3F9044604B94EE040
:1021C00035A12069FEF738FCB0B935A1284602F0E8
:1021D00097F9044604B942E034496069886634A13D
:1021E000284602F08DF9044604B938E02F486C30D7
:1021F0002169FEF7A7FA32E030A12069FEF71CFC46
:1022000060BB30A1284602F07BF9044604B926E001
:102210002D49606908602DA1284602F071F9044635
:1022200004B91CE094ED060B294880ED000B29A1B0
:10223000284602F065F9044604B910E094ED060B57
:10224000254880ED000B25A1284602F059F90446E7
:1022500004B904E022496069086000E000BF284634
:1022600002F020F92D200249087000BF93E700001A
:102270002C0F00204572726F72206265666F726566
:102280003A205B25735D0A00627573696E6573732E
:1022900054797065000000003030303800000000D4
:1022A0006572726F72436F646500000060B901204F
:1022B0006572726F724465736300000030303132B2
:1022C00000000000436F000054030020464400005B
:1022D0005803002042440000600300206D6F00009E
:1022E0006803002070B5374800782D2800D170BDF4
:1022F000344802F025F905463DB902F0FBF80646E0
:10230000314631A0FEF746F8F1E734A1284602F045
:10231000F7F8044604B94DE034A12069FEF78CFBC0
:10232000B8B934A1284602F0EBF8044604B941E0FC
:1023300033496069C1F8D00032A1284602F0E0F8C4
:10234000044604B936E02E48D4302169FEF7FAF984
:1023500030E02FA12069FEF76FFB50B92EA128466F
:1023600002F0CEF8044604B924E02D496069086003
:1023700020E02CA12069FEF75FFB50B926A128467A
:1023800002F0BEF8044604B914E028496069086008
:1023900010E027A12069FEF74FFB50B91EA1284687
:1023A00002F0AEF8044604B904E02349606908600D
:1023B00000E000BF284602F075F82D2001490870A2
:1023C00000BF94E7380D00204572726F722062657D
:1023D000666F72653A205B25735D0A0062757369EA
:1023E0006E657373547970650000000030303133CE
:1023F000000000006572726F72436F646500000038
:1024000060B901206572726F7244657363000000E9
:102410003030313500000000526573756C74000077
:102420002C03002030303137000000003003002042
:1024300030303139000000003403002070470000C4
:1024400029B1064A12680243044B1A6004E0034AA9
:1024500012688243014B1A60704700003038024016
:1024600029B1064A12680243044B1A6004E0034A89
:1024700012688243014B1A607047000040380240E6
:1024800029B1064A12680243044B1A6004E0034A69
:1024900012688243014B1A607047000020380240E6
:1024A00029B1064A12680243044B1A6004E0034A49
:1024B00012688243014B1A607047000044380240A2
:1024C00029B1064A12680243044B1A6004E0034A29
:1024D00012688243014B1A607047000024380240A2
:1024E000F0B5002100220024022500260223324FED
:1024F0003F6807F00C0121B1042905D0082937D124
:1025000005E02E4F076036E02D4F076033E02A4F7D
:102510003F1F3F68C7F38056274F3F1F3F6807F0B4
:102520003F036EB1264FB7FBF3F7DFF88CC0ACF179
:10253000040CDCF800C0CCF3881C07FB0CF40CE0A6
:102540001E4FB7FBF3F7DFF870C0ACF1040CDCF8FA
:1025500000C0CCF3881C07FB0CF4174F3F1F3F68EB
:10256000C7F301477F1C7D00B4FBF5F7076002E06D
:10257000124F076000BF00BF0F4F3F6807F0F00128
:102580000909104F7A5C0768D74047600A4F3F68D7
:1025900007F4E051890A0B4F7A5C4768D74087609F
:1025A000054F3F6807F46041490B064F7A5C476866
:1025B000D740C760F0BD0000083802400024F40096
:1025C00000127A004D0000200149086070470000A9
:1025D000382C014001460020034A12680A400AB123
:1025E000012000E000207047342C014010B500F0BD
:1025F00017F810BD0021094B02681A601A1D1168F6
:102600006FF30A01D0E901231A43C3681A4303692F
:102610001A431143014A121D11607047082C0140F2
:1026200010B54FF48070FFF7D5FF78B34C480078B1
:10263000012814D100204B4908600C20486040203C
:1026400088600020C8604FF4806008610846FFF78A
:10265000D1FF0C20FFF704FC4349087002E0002082
:10266000414908704148006840F480703F49086063
:10267000081D00684CF23A3188433C49091D086046
:1026800001203B4908703848007810BDFFE7022060
:10269000FFF7A0FF78B10220FFF796FF3348001D37
:1026A00000684CF23A3188433049091D0860022025
:1026B0002D490870E9E70820FFF78CFF78B1082062
:1026C000FFF782FF2948001D00684CF23A31884329
:1026D0002649091D0860042023490870D5E72020F9
:1026E000FFF778FF78B12020FFF76EFF1F48001D2D
:1026F00000684CF23A3188431C49091D08600620E5
:1027000019490870C1E71020FFF764FF78B1102065
:10271000FFF75AFF1548001D00684CF23A31884314
:102720001249091D086005200F490870ADE74FF4F4
:102730000070FFF74FFF80B14FF40070FFF744FFC8
:102740000A48001D00684CF23A3188430749091DC8
:10275000086007200449087097E7002095E700000B
:10276000150000205004002016000020382C0140E5
:1027700017000020704700000CB500200190009069
:102780003448006840F480303249086000BF314866
:10279000006800F4003000900198401C01900098FF
:1027A00018B90198B0F5A04FF1D12A48006800F49B
:1027B000003010B10120009001E00020009000984E
:1027C000012846D123484030006840F0805021491C
:1027D000403108602048006840F440401E490860CD
:1027E0001C48083000681B4908310860084600682A
:1027F00040F4004008600846006840F4A0500860BB
:102800001648091F0860081F006840F08070091F03
:10281000086000BF0F48006800F000700028F9D081
:1028200040F205700E4908600A480830006820F040
:1028300003000849083108600846006840F00200BB
:10284000086000BF03480830006800F00C0008284A
:10285000F8D10CBD00380240007000400854400719
:10286000003C0240042808D14FF0E021096941F002
:1028700004014FF0E022116107E04FF0E021096907
:1028800021F004014FF0E022116170477047000011
:1028900010B51548006840F47000134908601348EB
:1028A000006840F001001149086000200F4908311C
:1028B00008600E4800680E4908400C4908600D4841
:1028C000091D0860081F006820F48020091F0860A7
:1028D000002006490C310860FFF74EFF4FF0006002
:1028E00001498039086010BD88ED00E000380240E1
:1028F000FFFFF6FE1030002410B501210A4800F059
:1029000079F801280AD10949086980470021064859
:1029100000F08CF86421044800F086F80121024898
:1029200000F04DF810BD0000000800401402002027
:1029300010B50121094800F05DF868B10848008829
:1029400040F40040064908800121044800F037F8AF
:102950000021024800F036F810BD000000140040CD
:102960001C0000207FB505460C4601212020FFF702
:1029700077FD0195ADF800400020ADF80800ADF8F6
:10298000020069460B4800F053F80122114609483D
:1029900000F041F837208DF80C0000208DF80D0074
:1029A00001208DF80E008DF80F0003A8FFF7FCFA48
:1029B0007FBD000000140040CA4302827047CA4332
:1029C0000282704721B1028842F00102028004E0D5
:1029D00002884FF6FE731A40028070470146486A2B
:1029E000704702460020138A0B400BB1012000E023
:1029F0000020704730B50246002000230024158ACD
:102A000005EA0103958905EA010413B10CB101201F
:102A100000E0002030BD1AB183890B43838102E0BE
:102A200083898B4383817047C162704741627047DD
:102A300000220288184B98420ED0184B98420BD0B7
:102A4000B0F1804F08D0164B984205D0154B9842F4
:102A500002D0154B984204D14FF68F731A404B8821
:102A60001A43124B984207D0114B984204D04FF6AC
:102A7000FF431A400B891A4302804B68C3620B88DC
:102A80000385054B984202D0044B984201D18B7AC2
:102A90000386012383827047000001400004014047
:102AA0000004004000080040000C004000100040FE
:102AB000001400407FB504460D4601210420FFF7B5
:102AC000CFFCADF800500020ADF802000194ADF845
:102AD000080069460D48FFF7ABFF012211460B487D
:102AE000FFF799FF01210948FFF76CFF1E208DF8C1
:102AF0000C0003208DF80D008DF80E0001208DF8DC
:102B00000F0003A8FFF750FA7FBD00000008004047
:102B100010B540F225514C4800F063FB002878D0F6
:102B20004948001D0088C4B24848006838B9232CC1
:102B300004D146480068401C4449086010BD434821
:102B4000006801280BD1212C05D140480068401CA9
:102B50003E49086002E000203C490860EEE73B483F
:102B60000068022808D12002394908603748006807
:102B7000401C36490860E1E73448006803280AD160
:102B80003348006820443249086030480068401CDF
:102B90002E490860D2E72D480068042851D12D48FD
:102BA0000068401C2B49086008460068FA2802DDCE
:102BB00000F044FAC2E727480068254909688842BE
:102BC00005DC24480068401E23490C54B6E7214820
:102BD00001681F480068401C814204D12A2C01D0A2
:102BE00000F02CFAAAE71B48016819480068801C0D
:102BF000814202D119480470A0E7164801681448C0
:102C00000068C01C81421BD1262C03D000F016FAAC
:102C100015E016E00E4801780F4801F00FFD0F494E
:102C20000978884209D1C8210D48FDF790FE0A496C
:102C30000B48FDF787FDFFF755FB00F0FFF97DE737
:102C40007CE700BF7AE70000004C0040380000201D
:102C50003000002034000020700C00203C000020D8
:102C6000380D002010B540F225514C4800F0B9FA5B
:102C7000002877D049488088C4B24948006838B9EC
:102C8000232C04D146480068401C4549086010BD0B
:102C90004348006801280BD1212C05D14048006829
:102CA000401C3F49086002E000203D490860EEE713
:102CB0003B480068022808D120023A490860384899
:102CC0000068401C36490860E1E735480068032881
:102CD0000AD134480068204432490860304800680E
:102CE000401C2F490860D2E72D480068042852D1C3
:102CF0002D480068401C2C49086008460068FA28E6
:102D000002DD00F0B7F9C2E72748006825490968E5
:102D1000884205DC24480068401E24490C54B6E76C
:102D2000214801681F480068401C814204D12A2CB8
:102D300001D000F09FF9AAE71B4801681948006814
:102D4000801C814202D11A480470A0E7164801682D
:102D500014480068C01C81421CD1262C03D000F00E
:102D600089F916E017E00F480178104801F066FC79
:102D70000F49097888420AD14FF496710D48FDF742
:102D8000E6FD0A490B48FDF7DDFCFFF7FFF900F00F
:102D900071F97CE77BE700BF79E700000050004055
:102DA000480000204000002044000020000E0020C9
:102DB0004C0000202C0F002010B540F225511D487A
:102DC00000F00FFA10B31B4800F0C4FAC4B21A485E
:102DD000008800F40040C8B91748008800F480401B
:102DE00060B10A2C03D000201349088020E012486B
:102DF000008840F400401049088019E00D2C06D1ED
:102E00000D48008840F480400B49088010E00A48D3
:102E10000088C0F30D0009490C5407480088401C85
:102E20000549088008460088C72801DD0020088081
:102E300010BD0000001001400800002070030020B9
:102E400010B54FF0FF30074908604FF496710648FF
:102E5000FDF77DFD0020054908600549086005492A
:102E6000087010BD20000020180A00202400002057
:102E7000280000202C00002010B540F225514C48BD
:102E800000F0AFF9002878D04948001D0088C4B28E
:102E90004848006838B9232C04D146480068401CD3
:102EA0004449086010BD4348006801280BD1212C1B
:102EB00005D140480068401C3E49086002E00020FF
:102EC0003C490860EEE73B480068022808D1200230
:102ED0003949086037480068401C36490860E1E716
:102EE0003448006803280AD1334800682044324936
:102EF000086030480068401C2E490860D2E72D4821
:102F00000068042852D12D480068401C2B490860F5
:102F100008460068FA2802DDFFF792FFC2E727485B
:102F2000006825490968884205DC24480068401E7D
:102F300023490C54B6E7214801681F480068401C2B
:102F4000814204D12A2C01D0FFF77AFFAAE71B485F
:102F5000016819480068801C814202D11948047038
:102F6000A0E71648016814480068C01C81421CD1C3
:102F7000262C03D0FFF764FF16E017E00E48017817
:102F80000F4801F05BFB0F49097888420AD14FF4E2
:102F900096710D48FDF7DBFC09490B48FDF7D2FBA4
:102FA000FFF748F8FFF74CFF7CE77BE700BF79E7C6
:102FB00000440040280000202000002024000020C1
:102FC000180A00202C000020440B002010B540F20D
:102FD0002551164800F005F900B3144800F0BAF97D
:102FE000C4B21348008800F40040B8B91048008803
:102FF000B0F5C87F13DA00210E48FFF717FD0C4823
:10300000008818B901210B48FFF7DCFC084801884B
:103010000088401C064A10800748445405E00448D4
:10302000008840F400400249088010BD004800407C
:103030001C000020001400408808002010B54FF04C
:10304000FF3007490860C8210648FDF780FC0020D2
:1030500005490860054908600549087010BD000071
:1030600030000020700C00203400002038000020C8
:103070003C00002010B54FF0FF30074908604FF4C6
:1030800096710648FDF763FC002005490860054974
:1030900008600549087010BD40000020000E0020A7
:1030A00044000020480000204C00002001F4007281
:1030B000B2F5007F00D100BFCA430280704721B142
:1030C000828942F40052828104E082894DF6FF73C6
:1030D0001A4082817047000010B50446324884428D
:1030E00008D101211020FFF7EBF900211020FFF794
:1030F000E7F957E02D48844209D101214804FFF740
:10310000BFF900214FF40030FFF7BAF94AE0284830
:10311000844209D101218804FFF7B2F900214FF45C
:103120008020FFF7ADF93DE02248844209D101211A
:10313000C804FFF7A5F900214FF40020FFF7A0F91C
:1031400030E01D48844209D101210805FFF798F9B4
:1031500000214FF48010FFF793F923E017488442D1
:1031600008D101212020FFF7ABF900212020FFF733
:10317000A7F917E01248844209D101218807FFF717
:103180007FF900214FF08040FFF77AF90AE00D48FF
:10319000844207D101214005FFF772F90021600543
:1031A000FFF76EF910BD0000001001400044004020
:1031B00000480040004C0040005000400014014016
:1031C00000780040007C004002460020B1F5007FFE
:1031D00000D100BF13880B400BB1012000E000209C
:1031E000704770B50246002400230025002040F6F9
:1031F0006A16B14200D100BFC1F3421501F01F03AE
:10320000012606FA03F3012D02D19689334006E028
:10321000022D02D1168A334001E0968A33400C1207
:10322000012606FA04F41688344013B10CB10120CB
:1032300000E0002070BDF0B5034600240026002504
:10324000002040F66A17B94200D100BF1846C1F30A
:10325000421401F01F06012707FA06F5012C01D1DF
:103260000C3004E0022C01D1103000E014301AB10F
:1032700007682F43076002E00768AF430760F0BDAF
:103280002DE9FF4705460E460024A14600BFA04693
:10329000B08900B100BF2C8A24F44054F088044364
:1032A0002C82AC8941F20C608443B0883189084398
:1032B000718908430443AC81AC8A24F44074B0891A
:1032C0000443AC826846FFF70BF92048854202D0E0
:1032D0001F48854202D1DDF80C9001E0DDF808902E
:1032E000A88900F4004040B109EBC90000EB0910C7
:1032F00031684900B0FBF1F707E009EBC90000EBCA
:10330000091031688900B0FBF1F76420B7FBF0F0D9
:1033100004012009642101FB1078A88900F4004011
:1033200040B1322000EBC800B0FBF1F000F0070024
:10333000044308E0322000EB08106421B0FBF1F0F8
:1033400000F00F0004432C81BDE8FF87001001400E
:103350000014014001468888C0F308007047C1F39B
:1033600008028280704700BFFEE703B40198410065
:10337000009850EAC12018BF04204A0D18BF40F041
:10338000010040F2FF72B2EB515F08BF40F0020053
:10339000012808BF052002B070472DED020B0198EF
:1033A00020F0004001909DED000B02B0704700003E
:1033B0002DE9F0412DED020B9FED3D0B2DED028B24
:1033C0009FED3D8BDDE90254C4F30A50A0F2FF36B5
:1033D000142E37DA002E18DA53EC102B9DED020B69
:1033E00051EC100B05F032FE53EC182B06F0C2F92D
:1033F00057D2002CA4BF0024254652DA24F0004006
:10340000284318BF2E4C4CD01AE02E4820FA06F75D
:1034100004EA070028431FD053EC102B9DED020B4C
:1034200051EC100B05F012FE53EC182B06F0A2F92C
:1034300037D2002C03DA4FF48010F0400444BC4330
:1034400000252EE0332E07DCA6F114004FF0FF31EB
:1034500021FA00F73D4206D19DED020BBDEC028B37
:1034600002B0BDE8F08153EC102B9DED020B51EC46
:10347000100B06F0B5F953EC182B06F07BF910D2BF
:10348000002C0DDA142E08BF641C09D0C6F13400DC
:10349000012101FA00F02844A84238BF641C054607
:1034A000BD43CDE902549DED020BD7E700000000BB
:1034B0009C7500883CE4377E00000000000000009E
:1034C0000000F0BFFFFF0F002DE9F04D2DED040BC4
:1034D0002DED0C8B96B0DDE92350259CDDF888A0FE
:1034E00025F0004624F00048BAF1000F14BF012176
:1034F000002101EB4502FE4953184A1093422AD39A
:10350000002814BF0123002303EB44030B44F949B3
:103510008B4220D358EA00019FEDF78B6FD0DFF884
:10352000E0B35D4503D1BAF1000F05D187E0BAF1F0
:10353000000F08BF002100D0012101EB450111F56A
:10354000001F08D8002814BF0121002101EB44010D
:1035500011F5001F0BD99DED241B9DED220B16B01C
:10356000BDEC0C8B04B0BDE8F04D00F05DBE002753
:10357000002DBCBFE349884521DAE3498845A8BF4F
:1035800002271CDAC3451ADCE04901EB2851142953
:1035900008DDC1F1340220FA02F101FA02F282429E
:1035A0000DD108E058B9C1F1140228FA02F101FA6C
:1035B00002F2424503D101F00101C1F1020756EACE
:1035C0000A011DD1002C1BDA002D18BF022F01D0DB
:1035D000012F0AD00220FDF784FA16B0BDEC0C8B47
:1035E00004B0BDE8F04D00F007BE0220FDF779FA07
:1035F00000F002FE51EC100B05F01CFD83E01EE014
:103600009FEDC39B9FEDC4AB002872D1BD488045A0
:103610002DD105F1804010F5801008BFBAF1000FE0
:103620000DD0B34515DC002CA1BF9DED240B16B0C9
:10363000BDEC0C8B04B0A8BFBDE8F08D12E0B0EE7D
:10364000480AF0EE680A16B0BDEC0C8B04B0BDE879
:10365000F08D002C06DA9DED240B51EC100B05F0DB
:10366000E9FC50E0AE48784490ED000BEBE7D8451C
:103670004FD1002C4ADA2EB186423BD1BAF1000F6D
:1036800044D126E0BAF1000F13D00220FDF729FA49
:1036900000F0E6FD8DED020B9DED220B8DED000B94
:1036A00010EE900A039961F31E0003909DED020B4A
:1036B000C9E78DED029B9DED220B19EE901A10EEDD
:1036C000900A8DED000B61F31E0003909DED020B3F
:1036D000B9E78DED02AB9DED220B1AEE901A10EEBC
:1036E000900A8DED000B61F31E0003909DED020B1F
:1036F000A9E729E00ADA9DED220B51EC180B53ECF7
:10370000102B05F05FFD41EC100B9CE79DED220BAB
:1037100099E7864218DAB4F1804F0DD0A4F1005039
:10372000B0F1FF5010D1002D0EDB9DED220B51ECBE
:10373000100B04F066F9E6E79DED220B53EC102B1D
:1037400051EC100B00F0AEBC9DED220B51EC100BB8
:1037500001F0A6F9BAF1000FCDE90C0134D19FEDCB
:10376000720BDEB1A6F1E040B0F17F602CD1002DEC
:1037700001DD002C0DDA002D01DD002C1FDB002DFA
:1037800016DA002C14DB012F08BF9FED690B3FF404
:103790005AAFB0EE490AF0EE690A54E7022F18BF9B
:1037A000002D0CD0012F0AD1002DFFF64CAF06E002
:1037B000002DB8BF002C07DA012F3FF444AFB0EE64
:1037C0004A0AF0EE6A0A3EE7012000EBE57A5AEA7F
:1037D00007000CD05848002580457CDD57495848E3
:1037E000884514DDB0420DDB002C19DB2BE00120F5
:1037F000FDF777F916B0BDEC0C8B04B0BDE8F04DC9
:1038000000F01EBDB34502DC002C09DC1BE0864243
:1038100002DA002C17DA03E05E4527DD002C12DD0A
:103820000220FDF75EF900F01BFD10EE901A19EE74
:10383000900A8DED020B8DED009B61F31E0003904D
:103840009DED020BFFE60220FDF74BF900F018FD9D
:1038500010EE901A18EE900A8DED020B8DED008B94
:1038600061F31E0003909DED020BECE69DED220B33
:1038700053EC182B51EC100B06F08AF89FED320B2D
:10388000CDE90A0153EC102B9DED0A0B51EC100B06
:1038900005F072FE9FED2E1B53EC112B05F0A0FFDF
:1038A0009DED0A1B53EC112B05F066FE9FED2A1BC4
:1038B00053EC112B05F094FF9DED0A0B41EC190B15
:1038C00053EC102B51EC100B05F056FE53EC192B5A
:1038D00005F052FE00E07EE09FED210B41EC1A0B5B
:1038E00053EC102B9DED0A0B51EC100B3CE000004B
:1038F000FFFF1F00FFFF0F00000000000000F03F6F
:103900000000F03F0000F07F0000404301FCFFFF9B
:10391000000000000000F07F000000000000000038
:10392000EE670000000000000000000000000080C2
:10393000000000000000F0FF0000E0410000F04344
:10394000FFFFEF3F00000000000000000000D03F3C
:10395000555555555555D53F000000000000E03F36
:10396000000000604715F73F05F006FE41EC190B1B
:103970009FEDFD0B51EC1A0B53EC102B05F0FCFDE9
:1039800041EC1A0B9FEDFA0B53EC102B9DED0A0B3B
:1039900051EC100B05F0F0FD53EC1A2B05F0F8FF7D
:1039A00041EC1A0B51EC190B53EC1A2B05F04EFBA2
:1039B0000690CDE906519DED060B53EC192B51EC09
:1039C000100B05F0E5FF53EC1A2B05F009FF41EC55
:1039D000100B00F09FB90020B6F5801F0EDA9FEDA6
:1039E000E60B53EC102B9DED0C0B51EC100B05F07E
:1039F000C3FDCDE90C016FF034000E4600EB2650FC
:103A0000A0F2FF38C6F31300DD4940F07F6646F0B0
:103A100040568842D8BF002409DDDA498142C8BF38
:103A2000012404DC0024A6F5801608F10108D6481C
:103A3000784400EBC4000D9690ED00BB9DED0C0B9F
:103A400053EC1B2B51EC100B05F0A2FF9DED0C0B62
:103A500041EC1A0B53EC1B2B51EC100B05F0F6FA52
:103A600041EC100B51EC180B53EC102B05F0AAFB9A
:103A700041EC1C0B51EC1A0B53EC1C2B05F07CFD9C
:103A800041EC190BC1488DED109B7844109590EDD9
:103A9000000B4FF0005040EA660000EB84408DEDD3
:103AA0000A0B00F500200B909DED0A0B53EC1B2B2D
:103AB00051EC100B05F06CFF9DED0C1B53EC112B22
:103AC00005F08EFE41EC100B53EC102B9DED100B0E
:103AD00051EC100B05F050FD9DED0A0B41EC1B0B5A
:103AE00053EC102B9DED100B51EC100B05F044FD29
:103AF00053EC1A2B05F074FE53EC1B2B05F048FF1A
:103B000053EC1C2B05F038FD41EC1B0B53EC192B2F
:103B100051EC190B05F030FD41EC1A0B9C480621C5
:103B2000B0EE4A0AF0EE6A0A784400F0E9FAB0EE24
:103B300040CAF0EE60CA53EC1A2B51EC1A0B05F098
:103B40001BFD53EC1C2B05F017FD9DED100B41ECFC
:103B50001A0B53EC192B51EC100B05F077FA53ECC0
:103B60001B2B05F009FD53EC1A2B05F06FFA9DEDA8
:103B7000100B41EC1A0B53EC102B51EC100B05F011
:103B8000FBFC41EC1C0B9FED84DB53EC1D2B05F083
:103B90005DFA53EC1A2B05F059FA0A90CDE90A5157
:103BA0009DED0A0B53EC1D2B51EC100B05F0F0FEB4
:103BB00053EC1C2B05F0ECFE53EC1A2B05F010FE19
:103BC0009DED0A0B41EC1C0B53EC102B9DED100BE3
:103BD00051EC100B05F0D0FC41EC1A0B53EC192BF7
:103BE00051EC1C0B05F0C8FC9DED0A0B41EC190BC8
:103BF00053EC102B51EC1B0B05F0BEFC53EC192BB6
:103C000005F024FA41EC190B51EC1A0B53EC192B6B
:103C100005F01CFA1090CDE910519DED100B53ECFE
:103C20001A2B51EC100B05F0B3FE53EC192B05F0D9
:103C3000D7FD41EC190B9FED5A0B53EC102B9DED6A
:103C4000100B51EC100B05F097FC41EC1A0B9FED9B
:103C5000560B51EC190B53EC102B05F08DFC41EC7D
:103C6000190B9FED530B53EC102B9DED100B51ECEA
:103C7000100B05F081FC53EC192B05F0E7F941EC32
:103C8000100B4D48784400EBC40090ED001B51EC44
:103C9000100B53EC112B05F0D9F941EC190B4046F0
:103CA00005F017FCCDE90A0153EC192B51EC1A0B66
:103CB00005F0CCF941EC100B4048784400EBC4000F
:103CC00090ED00BB51EC100B53EC1B2B05F0BEF933
:103CD0009DED0A1B53EC112B05F0B8F90690CDE9C8
:103CE00006519DED0A0B53EC102B9DED060B51EC8C
:103CF000100B05F04DFE53EC1B2B05F049FE53EC69
:103D00001A2B05F045FE53EC192B05F069FD41EC2B
:103D1000100B00BF781EB0EE48AAF0EE68AA5AEA6F
:103D2000000008BF9FED268B9DED241B53EC102B4C
:103D30008DED001B00959DED240B51EC100B05F053
:103D40001BFC9DED000B41EC190B53EC102B9DED72
:103D5000240B51EC100B05F01BFE9DED061B53ECE4
:103D6000112B05F009FC2FE0FE822B654715F73F6C
:103D700044DF5DF80BAE543E0000000000004043FD
:103D80008E9803007AB60B0094630000CA630000AB
:103D9000CC620000000000000000000000000840AD
:103DA000000000E009C7EE3FFD033ADC09C7EE3F23
:103DB000F5015B14E02F3EBE606100001A61000057
:103DC000000000000000F0BF53EC192B05F03EF995
:103DD0009DED060B41EC190B53EC102B9DED000BE8
:103DE00051EC100B05F0C8FBCDE910019DED100B57
:103DF00051EC190B53EC102B05F028F9CDE9020119
:103E00000C46AB498C422FDB611A084318D19DED5B
:103E1000100B53EC102B9DED020B51EC100B05F029
:103E2000B7FD41EC1B0B9FEDA40B51EC190B53ECB0
:103E3000102B05F00BF953EC1B2B05F09BFC2DD23E
:103E40000220FCF74EFE00F00BFA10EE901A18EE6E
:103E5000900A8DED020B8DED008B61F31E00039037
:103E60009DED020BFFF7EFBB954A24F00041914214
:103E700014D39449214408437FF4E5AC9DED100B25
:103E800053EC102B9DED020B51EC100B05F080FD57
:103E900053EC192B05F06EFC7FF6D5AC24F00040F6
:103EA00089498A4A002601EB205182422BDA481CBC
:103EB0004FF4801121FA00F02044854AC0F30A51E2
:103EC0007A44A1F2FF3192ED000B824A8DED0A0B8C
:103ED000CA4020EA0202C0F3130040F48010C1F18E
:103EE000140120FA01F60B92002CB8BF76429DED2A
:103EF0000A0B53EC102B9DED100B51EC100B05F041
:103F000047FDCDE910019DED100B51EC190B53EC61
:103F1000102B05F09BF89FED700B0A90CDE90A512C
:103F200053EC102B9DED0A0B51EC100B05F024FB0C
:103F300041EC1B0B9FED6A0B53EC102B9DED0A0B14
:103F400051EC100B05F018FB9DED100B41EC1C0B18
:103F500053EC102B9DED0A0B51EC100B05F018FDE6
:103F600053EC192B05F03CFC9FED5F1B53EC112B20
:103F700005F002FB53EC1C2B05F068F841EC190B23
:103F800051EC1B0B53EC192B05F060F8CDE9020145
:103F90009DED020B53EC1B2B51EC100B05F0F8FCC4
:103FA00053EC192B05F01CFC9DED020B41EC190B99
:103FB00053EC102B51EC100B05F0DEFACDE90A01A1
:103FC0004B489DED0A0B0521784400F099F89DEDD2
:103FD0000A1B51EC100B53EC112B05F0CDFA9DEDA3
:103FE000021B53EC112B05F0FBFBCDE906019DED07
:103FF000020B53EC192B51EC100B05F0BDFA53ECEE
:10400000192B05F023F89FED3C0B41EC190B53ECF9
:10401000102B9DED060B51EC100B05F0B9FC9DED3E
:10402000060B41EC1B0B53EC102B9DED020B51ECDE
:10403000100B05F0A1FA53EC1B2B05F0C3F853EC61
:10404000192B05F0A5FC9DED021B53EC112B05F07F
:104050009FFC53EC1A2B05F0C3FBCDE9020101EBE9
:10406000065001150029C8BF039015DC9DED020B19
:10407000324651EC100B05F0AEFDFFF776F904283F
:1040800008BF00F0FDF832469DED020B51EC100B1D
:1040900005F0A1FDCDE902019DED020B51EC180BDD
:1040A00053EC102B05F068FAFFF72DBB0000000061
:1040B0000000904000000000FE822B654715973CF1
:1040C00000CC904000346F3F01FCFFFF0000E03F58
:1040D000945F0000FFFF0F0000000000432EE63F4A
:1040E000396CA80C615C20BEEF39FAFE422EE63F27
:1040F0005C5E0000000000000000000000000040C6
:1041000070B504462DED028B4D1E00EBC500B0EEE0
:10411000408AF0EE608A90ED000B35F0060017D073
:1041200053EC182B51EC100B05F026FA41EC100B58
:104130006D1E04EBC50090ED001B51EC100B53EC11
:10414000112B04F083FF41EC100B35F00600E7D192
:10415000022D36D0042D1CD0062D1CBFBDEC028BC9
:1041600070BD53EC182B51EC100B05F005FA94EDD3
:104170000A1B53EC112B04F069FF53EC182B05F0CC
:10418000FBF994ED081B53EC112B04F05FFF41EC9D
:10419000100B53EC182B51EC100B05F0EDF994EDCE
:1041A000061B53EC112B04F051FF53EC182B05F0B8
:1041B000E3F994ED040B53EC102B04F047FF41ECB2
:1041C000100B53EC182B51EC100B05F0D5F994EDB6
:1041D000021B53EC112B04F039FF53EC182B05F0A4
:1041E000CBF994ED001B53EC112B04F02FFFBDEC29
:1041F000028B41EC100B70BD9FED070B10B553EC1B
:10420000102B9FED070B51EC100B04F0DBFF41EC82
:10421000100B10BD000000000000000000000000B6
:10422000000000000000F03F10B553EC112B51ECE2
:10423000100B04F00BFF41EC100B10BD0000000050
:104240009FED050B10B553EC102B51EC100B04F047
:10425000B9FF41EC100B10BD000000000000000091
:104260009FED050B10B553EC102B51EC100B05F026
:1042700083F941EC100B10BD00000000000000703D
:104280009FED050B10B553EC102B51EC100B05F006
:1042900073F941EC100B10BD00000000000000108D
:1042A00030380A2801D201207047002070470146AB
:1042B00000BF704710B504462146002002F036FBCF
:1042C00010BD10B504462146002002F041FB10BD90
:1042D00070B5044600250948008800F4004058B134
:1042E000002006490988C1F30E01054A50542146B1
:1042F0001046FCF715FA0546284670BD1C00002044
:104300008808002010B500BF1748008800F0400062
:104310000028F9D02B201449091D08800F2000F037
:10432000BFF900BF1048008800F040000028F9D015
:104330002B200D49091D08800F2000F0B1F900BFA6
:104340000948008800F040000028F9D02B200649D9
:10435000091D08804FF4FA7000F0A2F9142203A19D
:1043600003A000F007F810BD004800404F4B0000CC
:10437000415400002DE9F04106460D461446002741
:10438000002013490880314612A003F075FBE5B107
:10439000DCB113E00A2000F083F90D48008800F436
:1043A000004058B12846FFF793FF20B129460BA0E3
:1043B000FBF7F0FF06E0002005490880601E80B290
:1043C0000400E7D100BF04B901273846BDE8F081F9
:1043D0001C00002025730D0A0000000061636B3A89
:1043E00025730D0A0000000070B505460E46AC6846
:1043F00006B970BD0CB9AE6009E000E0246814B1E4
:1044000020680028FAD13146204603F031FB00BF76
:10441000EFE7000070B506460D46144604B970BDBE
:10442000206A18B10649206A09688847284600F0C2
:10443000EFF8206221463046FFF7D6FF00BFEEE7D7
:104440001003002010B52DED028BB0EE408AF0EE87
:10445000608A00F065F8044644B10320E06084ED12
:10446000068B51EC180B05F005F860612046BDEC99
:10447000028B10BD10B500F053F804460CB10620B5
:10448000E060204610BD70B5054600F049F80446CE
:104490002CB10420E060284600F0BAF820612046E4
:1044A00070BD000070B504461EE02568A08900F4C8
:1044B000807020B9A06810B1A068FFF7F3FFA08951
:1044C00000F4807028B9206918B109492069096889
:1044D0008847206A18B10649206A0968884720463B
:1044E0000349096888472C46002CDED170BD0000C6
:1044F00010030020014800687047000008030020F6
:1045000070B505460E46AC6800E024682CB1314613
:10451000206A00F057F80028F7D1204670BD00004F
:1045200010B5282005490968884704461CB1282190
:104530002046FCF72EFA204610BD00000C03002098
:1045400010B5044600221146204600F001F810BDC7
:104550002DE9F04780460D4616460024FFF7E0FFA0
:1045600007460020124908600FB9BDE8F0874046B1
:1045700003F03EFA81464946384602F03BFD0446C8
:1045800024B93846FFF78EFF0020EEE766B12046DB
:1045900003F02EFA0446207830B13846FFF782FF48
:1045A000034804600020E0E705B12C603846DCE7F2
:1045B0000803002010B5044600221146204603F0EF
:1045C000E9F810BD70B504460D462CB9AC4201D0D7
:1045D000012070BD0020FCE70DB90120F9E705E0DE
:1045E000207808B90020F4E7641C6D1C2078FBF7E4
:1045F000B2FE06462878FBF7AEFE8642F0D0207861
:10460000FBF7A9FE06462878FBF7A5FE301AE0E77F
:1046100070B504462046FCF7B9F8451C2846064903
:1046200009688847060000D170BD2A4621463046F9
:10463000FCF716F93046F7E70C03002010B50246E8
:104640000B46002104E012F8010B4840044C215CA9
:104650001800A3F10104E3B2F5D1C843C0B210BD04
:10466000629C000810B504466FF00400FEF7FAF8EB
:10467000E11704EB5171C1F3C701074A11701046ED
:10468000007800EB4001C1EBC0104FF6FF7101EA6A
:10469000C0000249088010BD000000200200002078
:1046A00070B504464FF4077094FBF0F0C6B24FF4B7
:1046B000077094FBF0F100FB114085B205E04FF468
:1046C000077000F009F8701EC6B2002EF7D115B1C0
:1046D000284600F001F870BD0146114A12884A438D
:1046E0004FF0E0235A6100229A611A46126942F0A3
:1046F00001021A6100BF4FF0E022106900F00102D0
:104700001AB100F48032002AF5D04FF0E02212698D
:1047100022F001024FF0E0231A6100229A617047F3
:104720000200002000B52DED108B89B0B0EE408A5C
:10473000F0EE608AB0EE419AF0EE619AB0EE42AAD5
:10474000F0EE62AA9FEDA60BB0EE40EAF0EE60EA52
:104750009FEDA50BB0EE40CAF0EE60CA9FEDA20B34
:10476000B0EE40DAF0EE60DA9FEDA10BB0EE40BAA9
:10477000F0EE60BA53EC1B2B9FED9F0B51EC100B2E
:1047800004F020FD41EC1F0B9FED9D0B53EC102B13
:1047900051EC190B04F05AFC41EC190B9FED9A0BEC
:1047A00053EC102B51EC1A0B04F050FC53EC182B6B
:1047B000CDE906019DED060B51EC100B04F0DAFF7C
:1047C00052D853EC1A2B51EC180B05F009F89FED59
:1047D000900B53EC102BCDE904019DED040B51EC33
:1047E000100B04F0C9FE53EC1B2BCDE906019DED27
:1047F000060B51EC100B04F083FE35D253EC1A2B50
:1048000051EC180B04F0ECFF9FED830B53EC102BD5
:10481000CDE900019DED000B51EC100B04F016FCEE
:104820009FED7B0B53EC102BCDE902019DED020BAC
:1048300051EC100B04F0A0FE53EC1F2BCDE904014A
:104840009DED040B51EC100B04F096FE9FED640BF4
:1048500053EC102BCDE906019DED060B51EC100B2E
:1048600004F0F4FB41EC1C0B53EC1B2B51EC190B2B
:1048700004F0ECFB53EC182BCDE906019DED060B83
:1048800051EC100B04F076FF30D253EC192B51ECA5
:10489000180B04F06FFF29D253EC192B51EC180BB5
:1048A00005F076F89FED5A0B53EC102BCDE9020181
:1048B0009DED020B51EC100B04F05EFE53EC1F2B30
:1048C000CDE904019DED040B51EC100B04F054FEF6
:1048D0009FED430B53EC102BCDE906019DED060B2C
:1048E00051EC100B04F0B2FB41EC1D0B9FED3E0BA5
:1048F00053EC102B51EC1C0B04F03CFF18D29FED35
:104900003A0B53EC102B51EC1D0B04F033FF0FD27C
:1049100053EC1C2B51EC1D0B04F02CFF04D2B0EE19
:104920004CEAF0EE6CEA03E0B0EE4DEAF0EE6DEA30
:104930009FED370B53EC102B51EC1B0B04F042FC9A
:1049400053EC192BCDE904019DED040B51EC100B38
:1049500004F07CFB53EC182BCDE906019DED060B12
:1049600051EC100B04F0CCFD22D253EC1A2B51EC7D
:10497000180B04F035FF9FED260B53EC102BCDE9FF
:1049800004019DED040B51EC100B04F0F5FD53EC0C
:104990001B2BCDE906019DED060B51EC100B04F02D
:1049A000E9FE05D29FED120BB0EE40EAF0EE60EAB0
:1049B0009FED0F0B53EC102B51EC1E0B04F0DAFEA5
:1049C00005D29FED0B0BB0EE40EAF0EE60EAB0EEE0
:1049D0004E0AF0EE6E0A09B0BDEC108B00BD00006F
:1049E0000000000000003E40000000000000000049
:1049F0000000000000006940000000000040654029
:104A00009A9999999999B93F9A9999999999A93F98
:104A10000000000000408F407B14AE47E17A843FE5
:104A200010B54FF40C71002001F092FF1849086096
:104A30004FF40C71002001F08BFF154948604FF4D2
:104A40000A71002001F084FF124908604FF40A71D6
:104A5000002001F07DFF104908604FF40071002034
:104A600001F076FF0D4908600948006868B1084800
:104A7000406850B10748006838B10748006820B165
:104A80000846006808B1002010BD0120FCE70000C6
:104A9000BC010020C4010020C8010020D401002076
:104AA00082B0CDE9000121F0004001909DED000BA6
:104AB00002B051EC100B704700BF054A128802F09B
:104AC0004002002AF9D0C2B2014B9A807047000020
:104AD0000010014001B52DED020B90B09FEDFE0BD3
:104AE0008DED0E0B9FEDFE0B8DED0C0B9DED100B68
:104AF0008DED0A0B00209FEDFA0BFDF7BBF80020AF
:104B00009FEDF70BFDF730F99620FFF7C9FD1BE08D
:104B10009FEDF30B53EC102BF34890ED000B51EC91
:104B2000100B04F027FE0CD29FEDED0B53EC102B75
:104B3000EE4890ED000B51EC100B04F01BFE00D280
:104B400003E03220FFF7ACFDE2E700BF0EE05020AB
:104B5000FFF7A6FDE6480068012807D1E548006890
:104B6000012803D1E4A0FBF715FC00E0EFE700BF4C
:104B7000129801287DD1DC4890ED000B53EC102BEE
:104B8000DA4890ED000B51EC100B04F05FFA9FED4A
:104B9000E40B53EC102BCDE908019DED080B51EC13
:104BA000100B04F00FFBCDE90C016DE33220FFF791
:104BB00077FDDD4800680090CB4890ED000B53EC8A
:104BC000102BCB480168D948FBF7E4FBD8480068B4
:104BD0000090C64890ED000B53EC102BC5480168BF
:104BE000D448FBF7D7FB9FEDD40B53EC102B9DED76
:104BF0000E0B51EC100B04F0BFFCCDE908019DED4C
:104C00000A0B53EC102BB84890ED000B51EC100B35
:104C100004F0BEFECDE904019DED040B01F060FE41
:104C20008DED060B9DED080B53EC102B9DED060B47
:104C300051EC100B04F064FC5BD39FEDBF0B53EC05
:104C4000102B9DED0E0B51EC100B04F095FCCDE9F3
:104C500008019DED0A0B53EC102BA44890ED000BBE
:104C600051EC100B04F094FECDE904019DED040B12
:104C700000E00BE301F034FE8DED060B9DED080B1B
:104C800053EC102B9DED060B51EC100B04F038FC8F
:104C90002FD39DED0A0B53EC102B934890ED000B96
:104CA00051EC100B04F074FE9FED8D0B53EC102BA8
:104CB000CDE908019DED080B51EC100B04F020FC30
:104CC00017D39DED0A0B53EC102B884890ED000B89
:104CD00051EC100B04F05CFE9FED810B53EC102B9C
:104CE000CDE908019DED080B51EC100B04F008FC18
:104CF00072D29FED8B0B53EC102B9DED0E0B51ECF4
:104D0000100B04F039FCCDE908019DED0A0B53ECC2
:104D1000102B754890ED000B51EC100B04F038FE91
:104D2000CDE904019DED040B01F0DAFD8DED060BDC
:104D30009DED080B53EC102B9DED060B51EC100B69
:104D400004F0DEFB49D29FED760B53EC102B9DED6A
:104D50000E0B51EC100B04F00FFCCDE908019DED9A
:104D60000A0B53EC102B614890ED000B51EC100B2B
:104D700004F00EFECDE904019DED040B01F0B0FD41
:104D80008DED060B9DED080B53EC102B9DED060BE6
:104D900051EC100B04F0B4FB1FD2544890ED000B03
:104DA0008DED020B504890ED000B8DED000B9DED4D
:104DB0000A0B53EC102B6248FBF7ECFA00209FED36
:104DC000480BFCF757FF00209FED450BFCF7CCFF8D
:104DD0006420FFF765FC58E2F9E09DED0E0B53EC03
:104DE000102B9DED0A0B51EC100B04F02FF9CDE9BF
:104DF00008013D4890ED000B53EC102B9DED080B86
:104E000051EC100B04F07CFB08D801209FED4D0BFA
:104E1000FCF730FF4DA0FBF7BDFA28E09DED0E0B2F
:104E200053EC102B9DED0A0B51EC100B04F0B0FD70
:104E3000CDE908012C4890ED000B53EC102B9DEDB3
:104E4000080B51EC100B04F095FC08D801209FEDE5
:104E5000430BFCF70FFF43A0FBF79CFA07E0002091
:104E60009FED1F0BFCF706FF42A0FBF793FA9DEDA9
:104E70000E0B53EC102B9DED0A0B51EC100B04F0B4
:104E8000E5F8CDE90801194890ED000B53EC102B23
:104E90009DED080B51EC100B04F032FB08D80120FB
:104EA0009FED280BFCF760FF39A0FBF773FAEBE1ED
:104EB0009DED0E0B53EC102B9DED0A0B51EC100BDE
:104EC00004F066FDCDE90801084890ED000B53ECB5
:104ED000102B9DED080B63E03BDF4F8D976E823FFB
:104EE00000000000000000004003002058030020E4
:104EF0003C030020540300200D0A207374657031B8
:104F00002020676F476F616C506F736974696F6EB3
:104F100020636F7272656374696F6E206F6B20001F
:104F20000000000000000040500300206CA00008BA
:104F300068030020FCA000080000000000001840EA
:104F400008A200080000000000003E400D0A636156
:104F500072312020676F206F6E000000000000009B
:104F600000003EC00D0A636172312020676F20622D
:104F700061636B000D0A63617231202072656163A9
:104F8000682061742074686520676F616C000000A0
:104F90000D0A636172322020676F206F6E0000007F
:104FA00051EC100B04F0E6FB08D801201FED150BA7
:104FB000FCF7DAFEF8A0FBF7EDF965E100201FED44
:104FC000380BFCF7D1FEF8A0FBF7E4F95CE19FEDAC
:104FD000FD0B53EC102B9DED0E0B51EC100B04F060
:104FE000CBFACDE90801F94890ED000B53EC102BFA
:104FF000F74890ED000B51EC100B04F0C9FCCDE923
:1050000004019DED040B01F06BFC8DED060B9DED95
:10501000080B53EC102B9DED060B51EC100B04F01C
:105020006FFA55D2E94890ED000B53EC102BE8488D
:1050300090ED000B51EC100B04F008F81FED480B3D
:1050400053EC102BCDE904019DED040B51EC100B3A
:1050500004F0B8F8CDE906019DED0C2B9DED0A1B7F
:105060009DED060BFFF75EFB8DED080B01209DED1E
:10507000080BFCF7FFFDD54890ED000B53EC102B0F
:10508000D34890ED000B51EC100B03F0DFFF1FED48
:105090005C0B53EC102BCDE904019DED040B51EC9E
:1050A000100B04F08FF8CDE906019DED0C2B9DED62
:1050B0000A1B9DED060BFFF735FB8DED080B01205C
:1050C0009DED080BFCF750FEC2A0FBF763F9DBE097
:1050D000BE4890ED000B53EC102BBD4890ED000B3B
:1050E00051EC100B04F054FC1FED830B53EC102B10
:1050F000CDE908019DED080B51EC100B04F03AFBD3
:1051000061D2B24890ED000B53EC102BB04890EDFB
:10511000000B51EC100B03F099FF1FED7F0B53ECCC
:10512000102BCDE902019DED020B51EC100B04F0A8
:1051300049F8CDE904019DED0C2B9DED0A1B9DED79
:10514000040BFFF7EFFA8DED060B9FEDA70B53EC69
:10515000102B9DED060B51EC100B03F077FFCDE902
:10516000080101209DED080BFCF784FD974890EDA8
:10517000000B53EC102B964890ED000B51EC100BEC
:1051800003F064FF1FED9A0B53EC102BCDE90401E3
:105190009DED040B51EC100B04F014F8CDE9060161
:1051A0009DED0C2B9DED0A1B9DED060BFFF7BAFA4A
:1051B0008DED080B01209DED080BFCF7D5FD8CA0B3
:1051C000FBF7E8F860E0814890ED000B53EC102B02
:1051D0007F4890ED000B51EC100B03F037FF1FEDF3
:1051E000B00B53EC102BCDE904019DED040B51ECF9
:1051F000100B03F0E7FFCDE906019DED0C2B9DEDB3
:105200000A1B9DED060BFFF78DFA8DED080B0120B3
:105210009DED080BFCF72EFD6C4890ED000B53EC58
:10522000102B6B4890ED000B51EC100B03F00EFFB0
:105230001FEDC50B53EC102BCDE902019DED020BC8
:1052400051EC100B03F0BEFFCDE904019DED0C2BDA
:105250009DED0A1B9DED040BFFF764FA8DED060B27
:105260009FED610B53EC102B9DED060B51EC100BD9
:1052700003F0ECFECDE9080101209DED080BFCF7E1
:1052800073FD62A0FBF786F890E4D6E3664890EDE4
:10529000000B53EC102B654890ED000B51EC100BFC
:1052A00003F0D4FE1FEDE20B53EC102BCDE9080107
:1052B0009DED080B51EC100B03F084FFCDE90C01C0
:1052C000B9E33220FFF7ECF95948006800905648DE
:1052D00090ED000B53EC102B564801685648FBF735
:1052E00059F8564800680090504890ED000B53EC78
:1052F000102B534801685348FBF74CF81FEDF20B95
:1053000053EC102B9DED0E0B51EC100B04F034F907
:10531000CDE908019DED0A0B53EC102B424890EDAE
:10532000000B51EC100B04F033FBCDE904019DEDB3
:10533000040B01F0D5FA8DED060B9DED080B53EC37
:10534000102B9DED060B51EC100B04F0D9F87FD318
:105350009FED3D0B53EC102B9DED0E0B51EC100B04
:1053600004F00AF9CDE908019DED0A0B53EC102B6E
:105370002E4890ED000B51EC100B04F009FBCDE929
:1053800004019DED040B01F0ABFA8DED060B9DEDD4
:10539000080B53EC102B5CE00D0A63617232202085
:1053A000676F206261636B000D0A636172322020B7
:1053B0002072656163682061742074686520676F7E
:1053C000616C000000000000000010405803002045
:1053D000400300200D0A676F206F6E2073747261A6
:1053E00069676874000000000000000000004E4083
:1053F0000D0A2063617231206E6565647320746FDD
:1054000020676F2066617374000000000D0A20633E
:10541000617232206E6565647320746F20676F203F
:1054200066617374000000004803002060030020E0
:10543000500300203C03002024A000086803002043
:1054400054030020B4A00008000000000000184031
:1054500036E09DED060B51EC100B04F051F82FD304
:105460009DED0A0B53EC102BFE4890ED000B51EC18
:10547000100B04F08DFA9FEDFC0B53EC102BCDE9D3
:1054800008019DED080B51EC100B04F039F817D30F
:105490009DED0A0B53EC102BF54890ED000B51ECF1
:1054A000100B04F075FA9FEDF00B53EC102BCDE9C7
:1054B00008019DED080B51EC100B04F021F87DD292
:1054C0009FEDEC0B53EC102B9DED0E0B51EC100BE4
:1054D00004F052F8CDE908019DED0A0B53EC102BB6
:1054E000E04890ED000B51EC100B04F051FACDE9BF
:1054F00004019DED040B01F0F3F98DED060B9DED1C
:10550000080B53EC102B9DED060B51EC100B03F028
:10551000F7FF37D29FEDD70B53EC102B9DED0E0B01
:1055200051EC100B04F028F8CDE908019DED0A0BB1
:1055300053EC102BCE4890ED000B51EC100B04F007
:1055400027FACDE904019DED040B01F0C9F98DEDB9
:10555000060B9DED080B53EC102B9DED060B51EC4B
:10556000100B03F0CDFF0DD200209FEDBF0BFCF719
:1055700081FB00209FEDBC0BFCF7F6FB6420FFF7DE
:105580008FF859E29DED0E0B53EC102B9DED0A0B9D
:1055900051EC100B03F05AFDCDE90801B14890ED34
:1055A000000B53EC102B9DED080B51EC100B03F08E
:1055B000A7FF0BD801209FEDB10B00E07EE0FCF7C8
:1055C00059FBAFF27860FAF7E5FE29E09DED0E0B8E
:1055D00053EC102B9DED0A0B51EC100B04F0D8F995
:1055E000CDE908019F4890ED000B53EC102B9DED89
:1055F000080B51EC100B04F0BDF809D801209FED09
:10560000A10BFCF737FBAFF2A460FAF7C3FE07E08B
:1056100000209FED950BFCF72DFB9CA0FAF7BAFE3E
:105620009DED0E0B53EC102B9DED0A0B51EC100B66
:1056300003F00CFDCDE908018D4890ED000B53EC13
:10564000102B9DED080B51EC100B03F059FF09D8FE
:1056500001209FED8A0BFCF787FBAFF2CC60FAF7D5
:1056600099FEE8E19DED0E0B53EC102B9DED0A0B1E
:1056700051EC100B04F08CF9CDE908017C4890ED59
:10568000000B53EC102B9DED080B51EC100B04F0AC
:1056900071F809D801209FED7B0BFCF765FBAFF299
:1056A0000830FAF777FEC6E100209FED6F0BFCF79C
:1056B0005BFBAFF20C30FAF76DFEBCE11FEDBF0BE8
:1056C00053EC102B9DED0E0B51EC100B03F054FF1F
:1056D000CDE90801664890ED000B53EC102B6148B2
:1056E00090ED000B51EC100B04F052F9CDE90401E0
:1056F0009DED040B01F0F4F88DED060B9DED080B0C
:1057000053EC102B9DED060B51EC100B03F0F8FE43
:1057100066D2574890ED000B53EC102B514890ED9A
:10572000000B51EC100B03F091FC9FED520B53EC6E
:10573000102BCDE902019DED020B51EC100B03F093
:1057400041FDCDE904019DED0C2B9DED0A1B9DED66
:10575000040BFEF7E7FF8DED060B9DED060B51ECFC
:10576000100B03F067FCCDE9080101209DED080B4B
:10577000FCF780FA3E4890ED000B53EC102B3948B3
:1057800090ED000B51EC100B03F060FC9FED390B1A
:1057900053EC102BCDE902019DED020B51EC100BE7
:1057A00003F010FDCDE904019DED0C2B9DED0A1BCE
:1057B0009DED040BFEF7B6FF8DED060B9DED060B80
:1057C00051EC100B03F036FCCDE9080101209DEDF2
:1057D000080BFCF7C9FAAFF20440FAF7DBFD2AE147
:1057E000234890ED000B53EC102B1E4890ED000B5E
:1057F00051EC100B04F0CCF89FED1B0B53EC102B6D
:10580000CDE908019DED080B51EC100B03F0B2FF40
:105810007ED2254890ED000B53EC102B234890EDE1
:10582000000B51EC100B03F011FC9FED120B53EC2D
:10583000102BCDE900019DED000B51EC100B03F096
:10584000C1FCCDE902019DED0C2B9DED0A1B9DEDE8
:10585000020BFEF767FF8DED040B9FED150B53EC6C
:10586000102B29E048030020000000000000000089
:105870006003002000000000000000400000000065
:1058800000003EC00000000000003E400D0A6361C1
:105890007231202020726561636820617420746811
:1058A0006520676F616C00005803002040030020F2
:1058B0000000000000004E409DED040B51EC100B69
:1058C00003F0C4FBCDE906019DED060B51EC100B76
:1058D00003F0B0FBCDE9080101209DED080BFCF7BA
:1058E000C9F96B4890ED000B53EC102B694890ED13
:1058F000000B51EC100B03F0A9FB1FED220B53EC36
:10590000102BCDE902019DED020B51EC100B00E0D4
:105910001FE003F057FCCDE904019DED0C2B9DED3C
:105920000A1B9DED040BFEF7FDFE8DED060B9DEDB4
:10593000060B51EC100B03F07DFBCDE908010120B3
:105940009DED080BFCF710FAAFF25C50FAF722FD60
:1059500071E04F4890ED000B53EC102B4D4890ED4B
:10596000000B51EC100B03F071FB1FED3E0B53ECE1
:10597000102BCDE902019DED020B51EC100B03F051
:1059800021FCCDE904019DED0C2B9DED0A1B9DED45
:10599000040BFEF7C7FE8DED060B9DED060B51ECDB
:1059A000100B03F047FBCDE9080101209DED080B2A
:1059B000FCF760F9364890ED000B53EC102B35489E
:1059C00090ED000B51EC100B03F040FB1FED570B5B
:1059D00053EC102BCDE900019DED000B51EC100BA9
:1059E00003F0F0FBCDE902019DED0C2B9DED0A1BB0
:1059F0009DED020BFEF796FE8DED040B1FED540B93
:105A000053EC102B9DED040B51EC100B03F01EFB1F
:105A1000CDE906019DED060B51EC100B03F00AFBDE
:105A2000CDE9080101209DED080BFCF79DF9AFF2CF
:105A30002460FAF7AFFC44E400BF17A0FAF7AAFC11
:105A400000201FED770BFCF715F900201FED7A0BF6
:105A5000FCF78AF93220FEF723FE15E03220FEF72C
:105A60001FFE19480068012807D11848006801285E
:105A700003D117A0FAF78EFC07E014480268124819
:105A800001681D48FAF786FCE8E700BF13B000BDC7
:105A900058030020400300200D0A20676F476F6104
:105AA0006C506F736974696F6E20202073656E642B
:105AB0002053544154455F53544F502020666F7219
:105AC000206F7574000000003C0300205403002088
:105AD0000D0A2073746570332020676F476F616C07
