:020000040800F2
:10000000F0C10120150300085F2A0008572A0008E4
:100010005B2A0008BD2800081F3E00080000000001
:100020000000000000000000000000002D32000869
:100030002529000800000000F52E000845330008BF
:100040002F0300082F0300082F0300082F030008C8
:100050002F0300082F0300082F0300082F030008B8
:100060002F0300082F0300082F0300082F030008A8
:100070002F0300082F0300082F0300082F03000898
:100080002F0300082F0300082F0300082F03000888
:100090002F0300082F0300082F0300082F03000878
:1000A0002F0300082F0300082F0300082F03000868
:1000B0002F0300082F030008B13300082F030008A6
:1000C0002F0300082F0300082F0300082F03000848
:1000D0002F0300087138000831390008853A0008FC
:1000E0002F0300082F0300082F0300082F03000828
:1000F0002F0300082F0300082F0300082F03000818
:100100002F030008A53000082F0300082F03000864
:10011000C93500081D3700082F030008E93300081F
:100120002F0300082F0300082F0300082F030008E7
:100130002F0300082F0300082F0300082F030008D7
:100140002F0300082F0300082F0300082F030008C7
:100150002F0300082F0300082F0300082F030008B7
:100160002F0300082F0300082F0300082F030008A7
:100170002F0300082F0300082F0300082F03000897
:100180002F0300082F03000800F002F800F0B2F877
:100190000AA090E8000C82448344AAF10107DA45E2
:1001A00001D100F0A7F8AFF2090EBAE80F0013F082
:1001B000010F18BFFB1A43F00103184784AF00007A
:1001C000A4AF00000A444FF0000C10F8013B13F0FC
:1001D000070408BF10F8014B1D1108BF10F8015BA0
:1001E000641E05D010F8016B641E01F8016BF9D193
:1001F00013F0080F1EBF10F8014BAD1C0C1B09D1EA
:100200006D1E58BF01F801CBFAD505E014F8016B5B
:1002100001F8016B6D1EF9D59142D6D370470000ED
:100220000023002400250026103A28BF78C1FBD8FF
:10023000520728BF30C148BF0B6070476E2900F0DD
:10024000D984702900F0938166290AF0E884652931
:100250000AF0E58467290AF0E2846129AFF300809F
:1002600003681B0A28BF41F08001692900F004815E
:10027000642900F00181752900F0FE806F2900F0EB
:10028000DF87782900F05F81E92900F07987E42988
:1002900000F07687F52900F07387EF2900F0DC87FE
:1002A000F82900F05E810368DB0928BF41F0800176
:1002B000632900F0E886732900F0ED86E32901F058
:1002C000FD80F32901F00281002070471FB50AF07C
:1002D0009CFC01F057F804000020002109F0F2FD19
:1002E000401C60600020002109F002FEE0601FBD9C
:1002F00010B510BD01F0F0F91146FFF7E7FF06F069
:1003000021FB01F06FFC03B4FFF7F2FF03BC04F024
:1003100034FE00000948804709480047FEE7FEE731
:10032000FEE7FEE7FEE7FEE7FEE7FEE7FEE7FEE7A5
:1003300004480549054A064B704700004933000848
:1003400089010008F0BB0120F0C10120F0BD0120AF
:10035000F0BD0120704710B5044600F0C9FB0068ED
:10036000005DC00602D504F1200010BD204610BD7E
:100370001CB50C46064B7B4469460090204600F0B5
:1003800060FE04460020694600F06EFE20461CBD5B
:10039000EF0C00000FB4044910B503AA029800F056
:1003A0007FFE10BC5DF814FB040000200FB41CB5E8
:1003B000084B06AA7B4469460090059800F041FE70
:1003C00004460020694600F04FFE20461CBC5DF844
:1003D00014FB0000B10C000070B50446856900688C
:1003E000C10601D5302600E02026C00707D070BD29
:1003F000D4E9012130469047206A401C20626D1EDE
:10040000F6D570BD70B5044685690078C00707D180
:1004100070BDD4E9012120209047206A401C206251
:100420006D1EF6D570BD70B50C460546012A05D087
:100430002878800600D5EA69002302E0012305E060
:100440005B1C934202D2E05C0028F9D1A869E6184F
:10045000C01AA861286A184428622846FFF7BCFF22
:1004600004E0D5E9012114F8010B9047B442F8D318
:100470002846FFF7C7FF70BD2DE9F041064600246E
:1004800010687529314616A510D000F048FB0028E9
:1004900002DA404213A507E031688A0701D512A5A8
:1004A00002E0490704D511A5012401E000F040FB5A
:1004B00000210A2206F1240709E0B0FBF2FCB0FBA0
:1004C000F2F302FB1C00303078541846491C002817
:1004D000F3D123462A463046BDE8F04100F031BB57
:1004E000000000002D0000002B0000002000000094
:1004F000F0B40D460188090502D5214C7C4402E088
:100500001F4C7C440E34002100F1240608E002F068
:100510000F071209E75D42EA03721B097754491C71
:1005200052EA0307F3D102780023120704D5702D95
:1005300006D009B1022311342246F0BC00F001BB01
:1005400001231034F8E770B504460D4621461068C3
:1005500000F0EEFA024629462046BDE8704000232E
:10056000C6E7D21D22F00703D3E90023C0E70368E2
:10057000126843F0200303600823C3610023B7E738
:100580004BA900002DE9F05F894604464FF0000AB0
:10059000DFF874B1FB44C0F820A02046E16888472A
:1005A000002874D0252806D0D4E901219047206A7C
:1005B000401C2062F1E700265F462046E16888473C
:1005C0002028054607DB312D05D2781910F8200CBC
:1005D00008B10643F1E7B00701D526F00406C4F8D8
:1005E0001CA00027C4F818A02A2D09D0284604F022
:1005F000BDFC38B304EB8708303DC8F8185019E04B
:1006000059F8041B204604EB87029161E168884792
:10061000012F054618D1E069002820DA26F02006CF
:100620001DE0D8F8180000EB800005EB40003038E2
:10063000C8F818002046E1688847054604F096FC93
:100640000028EED1012F0AD02E2D08D12046E168D6
:1006500088477F1C0546022F46F02006C4DBA069B0
:10066000002803DA404246F00106A061F00701D0FD
:1006700026F010066C2D0BD0682D09D04C2D39D0EA
:100680006A2D35D0742D35D07A2D33D016E038E070
:10069000E1682F4620468847B842054609D16C2FAD
:1006A00026D04FF48060E16806432046884705461F
:1006B00004E06C2F1AD04FF4807006430DB3A5F1FF
:1006C0004100192802D8203546F400664A462946DA
:1006D000204626604E46FFF7B1FD80B101280BD0C1
:1006E000F61D26F0070000F1080956E74020E4E770
:1006F0008020D8E70020D6E706F104094DE7284618
:1007000052E7206ABDE8F09FDBA8000070B50646FE
:1007100000F0F6F90468054630460A22002100F090
:10072000F5FD2C6070BD401ECAB210F8011F8A4250
:1007300002D00029F9D10020704730B505460B469C
:100740002A4613F8014B12F8010B08B1A042F8D069
:100750001CB1002802D06D1CF1E7284630BD40EAEC
:100760000103024630B59B0710D14FF0013400E081
:1007700008C208C91D1B9D4315EAC41FF8D013F019
:10078000FF0102F8011B0DD01B0AF8E711F8013B2D
:10079000002B02F8013B05D011F8013B002B02F8B9
:1007A000013BF3D130BD10B5431C02E010F8011B32
:1007B00071B18107FAD14FF0013202C88C1A8C4313
:1007C00014EAC211F9D0C01A0A0603D0C01E10BD27
:1007D000C01A10BD0A0401D0801E10BD0902FCD051
:1007E000401E10BD40EA010370B59B072ED14FF0AB
:1007F0000136042A2AD308C810C99D1B9D43121F25
:1008000015EAC61517D0D8B2E1B2401A50EA056110
:1008100010D198B2A1B2401A50EA05410AD123F092
:100820007F4024F07F41401A50EA052102D1180E82
:10083000A0EB146070BDA342DBD018BA21BA884285
:1008400001D9012070BD4FF0FF3070BD0AB9002002
:1008500070BD10F8013B11F8014B63B1A3420AD1FE
:10086000521E08D010F8013B11F8014B1BB1A342F6
:1008700001D1521EEDD1181B70BD421E12F8013F6E
:10088000002BFBD111F8013B002B02F8013BF9D101
:100890007047032A40F2308010F0030C00F01580FE
:1008A00011F8013BBCF1020F624498BF11F801CB73
:1008B00000F8013B38BF11F8013BA2F1040298BFD8
:1008C00000F801CB38BF00F8013B11F0030300F042
:1008D0002580083AC0F0088051F8043B083A51F8E6
:1008E00004CBA0E80810F5E7121D5CBF51F8043BEB
:1008F00040F8043BAFF30080D20724BF11F8013B5E
:1009000011F801CB48BF11F8012B24BF00F8013BBF
:1009100000F801CB48BF00F8012B704710B5203A12
:10092000C0F00B80B1E81850203AA0E81850B1E8A8
:100930001850A0E81850BFF4F5AF5FEA027C24BF5E
:10094000B1E81850A0E8185044BF18C918C0BDE855
:1009500010405FEA827C24BF51F8043B40F8043B1E
:1009600008BF7047D20728BF31F8023B48BF11F8D3
:10097000012B28BF20F8023B48BF00F8012B70472D
:100980004FF000020429C0F0128010F0030C00F0B8
:100990001B80CCF1040CBCF1020F18BF00F8012B36
:1009A000A8BF20F8022BA1EB0C0100F00DB85FEA04
:1009B000C17C24BF00F8012B00F8012B48BF00F8D0
:1009C000012B70474FF0000200B51346944696463F
:1009D000203922BFA0E80C50A0E80C50B1F1200152
:1009E000BFF4F7AF090728BFA0E80C5048BF0CC000
:1009F0005DF804EB890028BF40F8042B08BF70475E
:100A000048BF20F8022B11F0804F18BF00F8012BCF
:100A1000704710B5044610F0030F08BF11F0030F24
:100A200040F015804FF0013E121FC0F20E8051F8C9
:100A3000043BA3EB0E0C2CEA030C1CEACE1C08BFF3
:100A400040F8043BF0D0A1F1040102F10402521E6F
:100A500008DB11F8013B002B00F8013BF7D11146F0
:100A6000FFF78EFF204610BD4FF0013C50F8042BDD
:100A700051F8043B9A4221D1A2EB0C03934313EAB1
:100A8000CC1317D150F8042B51F8043B9A4215D1DE
:100A9000A2EB0C03934313EACC130BD150F8042BB5
:100AA00051F8043B9A4209D1A2EB0C03934313EA99
:100AB000CC13DBD04FF00000704700BFD01A01BA52
:100AC000B1FA81F101F0180122FA01F0CB40C1F135
:100AD0002001DBB2C0B2C01A2CFA01F3D11A914343
:100AE00011EAC311E6D170477047704770477047ED
:100AF00010B500F047FC001D10BD00BFC9930000F9
:100B0000004870478CBB012010B5FFF7F9FF006863
:100B100010BD10B50446FFF7F3FF046010BD09686F
:100B20004A0501D540B27047C905FCD500B27047EF
:100B300009684A0501D5C0B27047C905FCD580B225
:100B400070472DE9F0470D4699469246044600F15C
:100B500024080168880604D5E06921F010012160AD
:100B600000E00120A84201DD471B00E00027A16949
:100B70007A1902EB0900081AA0612078C00602D495
:100B80002046FFF729FC002608E0D4E901211AF8E5
:100B900006009047206A401C761C20624E45F4DB1C
:100BA0002078C0060AD52046FFF716FC06E0D4E9F7
:100BB000012130209047206A401C2062381EA7F196
:100BC0000107F4DC07E0D4E9012118F8050090479B
:100BD000206A401C2062281EA5F10105F3DC204696
:100BE000FFF710FC2078000602D50220BDE8F08750
:100BF0000120FBE711680268006A530501D50870FF
:100C00000AE0D30501D5088006E0130603D5C21714
:100C1000C1E9000200E008600120704770472DE93B
:100C2000FF4F0C461E464FF0FF378BB0D2E9000154
:100C3000DDF860800A908A46C1F30A5505B93D4641
:100C4000002108464FF00000BAF1000F00F4400008
:100C500005DA00EB80004FF4400101EA50004FEA52
:100C60009059B9F1010F00DDB9460A9850EA4A00DF
:100C70000ED044F61050A5F2FF3545432F14B8F1BD
:100C8000000F1ED07542291E1EDDC9F100021CE0B6
:100C9000B8F1010F4FF0000001D0302103E0F24322
:100CA00005E02154401CB042FBDB3046002200210D
:100CB00021540B99C1F80880C1E900200FB0BDE8AC
:100CC000F08FBD1B6D1CDEE74A4600DA694206A8BC
:100CD00000F070FC06AB93E8070003AB83E8070065
:100CE00050460A9901F0BDF98DE80700A0F50050C3
:100CF0001F3800900398002D09DD42F21F014A467B
:100D0000084403A90390684601F047FC08E0A0F5F9
:100D100000504A461F3803A90390684601F065FC5D
:100D20008DE807000004000C03D04FF0FF304108AD
:100D300000E01046B8F1000F03D0002200921546E3
:100D40001EE0751E05D400F021FB303262556D1E89
:100D5000F9D5B3460122084302D000227F1C04E0EB
:100D60002078302801D100227F1E002A099786D0E2
:100D70001DE0112D07DA00F009FB303262556D1CC1
:100D800050EA0102F5D1084302D00098C8B10EE044
:100D90000021681E05E0235C625C63542254401EFF
:100DA000491C8142F7DBAB46A81B401E099000207E
:100DB00004F80B000B98099AC0F80880C0E9002BD2
:100DC0007CE711264FF0000859E72DE9F04F8846DF
:100DD0000446D21D22F0070191B0D1E90001CDE90E
:100DE0000A0103F03BF802460B98C00F01D02D20FA
:100DF00007E02068810701D52B2002E0202101EACD
:100E0000C000032A099001D0072A05DB03464146AA
:100E1000204600F009FB0BE12078800601D5E0694F
:100E200000E00620B8F1650F814606D0B8F1660FE4
:100E300018D0B8F1670F70D131E00020B9F1110F6F
:100E4000009001DB112301E009F101030AAA01A9C5
:100E50000CA8FFF7E4FEDDE90C70002609F101059E
:100E6000834647E001204B4600904FF000470AAA16
:100E700001A90CA8FFF7D3FEDDE90DB00C995D4682
:100E8000002610B909F101000D18B9EB050003D4D3
:100E9000C0F1FF3609F10105A5EB09002BE0B9F11E
:100EA000010F01DA4FF001090020B9F1110F009094
:100EB000484601DD112300E003460AAA01A90CA857
:100EC000FFF7ADFEDDE90C704D4600268346207825
:100ED00000070AD4AB4500DA5D4601A8012D04DD08
:100EE000411911F8011C302907D04F4502DA17F1DA
:100EF000040F04DA012082460FE06D1EEEE7002F9A
:100F000002DCED1B3E4403E0781CA84200DD7D1CA2
:100F1000B81B00F1010A4FF000472078000703D406
:100F2000AA4501DB4FF0FF3A0021B7F1004F0DF168
:100F300043088DF8431024D002202B23002F01DA20
:100F40007F422D230A21021EA0F1010000DC5FB1C7
:100F500097FBF1FC97FBF1F201FB1C7C17460CF1AF
:100F6000300C08F801CDEEE7A8F1010003702188EC
:100F7000090501D5452100E06521A0F1010800F82F
:100F8000011C09980FA9A1EB0807FF1D00B1012062
:100F9000411901EBEA70A1693844081A401EA061AA
:100FA0002078C00602D42046FFF716FA099828B127
:100FB000D4E901219047206A401C20622078C006B5
:100FC00022D52046FFF708FA1EE0002E04DBB345C9
:100FD00002DD01A8805D00E03020D4E901219047C6
:100FE000206A401C2062761CAAF101005FEA000A18
:100FF0000AD100F0C7F9C0680168405CD4E901215A
:101000009047206A401C2062281EA5F10105DCDC07
:1010100007E0D4E9012118F8010B9047206A401C31
:101020002062381EA7F10107F3DC2046FFF7EAF93A
:10103000032011B043E6000001694A1C02610878F0
:10104000704700B58FB0CDE9013100210591054908
:101050007944CDE9031011466846FFF793FA0FB0C3
:1010600000BD0000E5FFFFFF0A6802F8010B0A60FF
:10107000704710B5436913B1AFF3008001E0FFF78B
:10108000D2F9012010BD127800F124010A7000226B
:101090004A700122EDE711684FF0FF32E9E70000E6
:1010A000074B70B50D467B44FFF7CBFF044628463F
:1010B00000F0EEFA10B14FF0FF3070BD204670BD69
:1010C0007B5600002DE9FF5F15468A460446DFF88F
:1010D000AC80F8440027D8E900103E46CDE9001066
:1010E00010E03AF816106A4602A800F0D5FA411C42
:1010F00007D02178890603D5E269391891420DD8C5
:101100000744761C2078800602D5E069B84205DDE8
:10111000AE42E6DB3AF816000028E2D1A069C01B17
:10112000A0612046FFF758F9D8E90010CDE900107A
:10113000002017E03AF818106A4602A800F0ACFA4E
:10114000B0F1FF3F81460BD000250DF1080B05E003
:10115000D4E901211BF8050090476D1C4D45F7D3DC
:1011600008F10100B0428046E4DB206A3844206286
:101170002046FFF747F9BDE8FF9F00003A9E0000B8
:101180002DE9F0418046D21D22F007020025D2E968
:101190000002F52915A614D0011E72F1000106DA2D
:1011A0000023D0EB030063EB020211A608E0D8F89D
:1011B00000108B0701D50FA602E0490701D50EA646
:1011C00001251146002408F1240704E000F0DEF8B0
:1011D00030323A55641C50EA0102F7D12B463246B0
:1011E00021464046BDE8F041FFF7ABBC00000000DF
:1011F0002D0000002B0000002000000030B4002172
:1012000000F1240408E002F00705D208303542EA74
:101210004372DB086554491C52EA0305F3D10468A4
:10122000002310A2250708D504F020040C4304D0A5
:10123000C46901230CA2641EC46130BCFFF781BCE9
:1012400010B5044621461068FFF772FC024620469E
:10125000BDE810400023D1E7D21D22F00701D1E9FB
:101260000023CBE700000000300000000FB4002393
:1012700000B589B00CA900910B99CB60204B7B4441
:101280000693204B7B44079304236FF00042CDE983
:1012900001321D4A7A446B4608920246002009F04A
:1012A00020FD09B05DF814FB70B506464FF0FF3025
:1012B00015460C46324686B00091CDE901016946DB
:1012C0000020049004A8FFF7D1FF034604982118DA
:1012D00025B108B10A4600E022462A6000280DD058
:1012E000002B02DD0098884208D03246081B694670
:1012F0000094CDE9010404A8FFF7B8FF06B070BD63
:10130000530200006B0200007F0100002DE9F0474E
:1013100091460F4680460446002614F8015B2DB125
:10132000FFF7E6FB0068405DC007F6D12B2D02D029
:101330002D2D18D0641E4A463946204600F0EAF8A2
:1013400027B13968A14201D1C7F800804FF00204EB
:1013500071050BD54042002803DDFFF7D1FB046087
:10136000A007BDE8F08746F48066E4E70028F8DAD5
:10137000FFF7C6FB04606FF00040F2E700487047DB
:101380008CBB012000487047ACBB012030B5B0F1E8
:101390000A024FEA900E71F100034EEA817EB0EB33
:1013A0000E0061EB91014FEA101E4EEA017E10EB38
:1013B0000E0041EB11114FEA102E4EEA016E10EBB8
:1013C0000E0041EB11214FEA104E4EEA014E10EB98
:1013D0000E0041EB1141401841F100014FEAD000ED
:1013E00040EA41704FEAD10110EB80054FEA8104D9
:1013F00044EA907444EB01046D1944EB0404521B5D
:10140000A3414FF0000348BF0A3200D530BD401C55
:1014100041F1000130BD10B50446FFF769FB0068DB
:10142000005D00F0010010BD2DE9F0411F460446AB
:1014300003260168072A01F4006004DB08B116A541
:1014400005E016A503E008B115A500E015A521F0FB
:1014500010002060A069C01EA0610FB1401EA061F5
:101460002046FEF7B9FF4FB1D4E901213846904735
:10147000206A401C2062C01C206206E0206AFAE755
:10148000D4E9012115F8010B9047761EF8D22046C9
:10149000FEF7B8FFBDE8F0814E414E006E616E0070
:1014A000494E4600696E660010B5436913B1AFF34B
:1014B000008001E0FFF706FE012010BD128800F158
:1014C000240182840022C2840122EDE711684FF0DA
:1014D000FF32E9E7426842B1016811F8013B23B1EC
:1014E000521EC0E90012184670470121C160881ED3
:1014F000704742685AB1C368016843B983688B4238
:1015000005D0491E521CC0E90012002070474FF060
:10151000FF3070472DE9F05F824615468B46002765
:101520000AF10104B9460078302801D09DB113E0DA
:1015300014F8010B0127782803D0582801D045B1B1
:101540000AE00DB1102D07D1002714F8010B10256A
:1015500002E0082500E00A250026B0460EE005FB63
:10156000080005FB06F101271FFA80F801EB104681
:10157000B6F5803F00D3B94614F8010B294600F0B8
:10158000D0F80028EBDABBF1000F05D00FB1641ED4
:1015900000E05446CBF80040B9F1000F06D0FFF749
:1015A000AFFA02210160C81EBDE8F09F48EA06407C
:1015B000FAE700002DE9F047814616468AB0334825
:1015C00078440DC88DE80D0030487844801C03AC89
:1015D0000DC884E80D0041F69B300844372190FB8C
:1015E000F1F290FBF1F5A5F1800501FB12041B3C23
:1015F00002D56442012000E00020DFF890A0804680
:101600000027FA44AAF1BE0A0DE0E00709D03246ED
:10161000684607EB47010AEB810100F0E6FF8DE821
:10162000070064107F1C002CEFD1184F7F44AC3FA3
:1016300018E0E80714D007EB04100DF1180A90E841
:101640000E008AE80E00C068F04201D19819089097
:10165000324606A903A800F0C8FF03AB83E80700E1
:101660006D10641C002DE4D132466946B8F1000FBC
:1016700003A802D000F091FF01E000F0B6FFC9E935
:101680000001C9F808200AB0BDE8F087D899000029
:10169000007B00F08000704770B516460C4605468A
:1016A000FFF726FA036893F80101012806D0FF2C02
:1016B0000FD8185D68B101202C7070BDD3F80701F8
:1016C0003246214603F2071303442846BDE8704022
:1016D00018474FF0FF3070BD7546FFF74FFEAE461E
:1016E00005006946534620F00700854618B020B52E
:1016F000FEF71EFEBDE820404FF000064FF0000749
:101700004FF000084FF0000B21F00701AC46ACE8A9
:10171000C009ACE8C009ACE8C009ACE8C0098D4616
:1017200070473A2800D2303820F02002412A01D3F5
:10173000A2F13700884201D34FF0FF30704700001C
:101740002DE9FF4F064689B00878FF2806D0491CCE
:101750002D2805D000244FF0000908E000200CE0FF
:101760000124F8E709EB8903491C00EB43090878D9
:10177000FF28F7D114B1C9F1000081461078002587
:101780002C46AA4629462D2801D02B2804D1521CCC
:101790002D2813D0002082468B461078FF280FD0CA
:1017A0004FF0000C0A21521CA5FB017804FB0181BB
:1017B00005FB0C11C5194BEB0104EEE70120EAE72C
:1017C000002108464FF00000BAF1000F02D000EBF4
:1017D00080004008C0F38158B8F1010F01DD4FF0DF
:1017E000FF380C9809EB000755EA040009D04FF0C8
:1017F000020917F5FA7F0BDA4FEACA70C6E900B0A2
:1018000012E04FEACA70C6E900B00DB0BDE8F08F33
:10181000B7F5FA7F0DDDF0487844D0E90010C6E94D
:10182000001040EACA707060FFF76AF9C0F80090D3
:10183000EBE7391E02DAC8F1000200E0424600DAA6
:10184000794206A8FFF7B6FE06AB93E8070003ABA4
:1018500083E8070044F23E005BEA0401009058462A
:1018600004D144F21E012C465D460091210C09046E
:10187000014306D10099240444EA15442D0410398B
:10188000009104F07F41014306D10099240244EA0B
:1018900015642D020839009104F07041014306D10E
:1018A0000099240144EA15742D01091F009104F0E8
:1018B0004041014306D10099A40044EA9574AD006B
:1018C000891E009104F00041084304D100986D196D
:1018D0006441401E009042466846002FCDE9014514
:1018E00003A902DD00F095FE01E000F06AFEBAF106
:1018F000000F04460D4601D084F0004440F2FF770B
:1019000024F00040284303D0C4F30A50B84212D157
:10191000FFF7F6F8C0F80090C4F30A50B8420AD1B5
:10192000AE487844D0E90010C6E9001004F0004148
:101930000843706069E7C6E9005466E72DE9FF4F88
:101940001F464FF0000A4FF0FF38454691B0D7E9E7
:101950000146CDF83CA0FFF715FDC0680168405C6A
:101960001090B96912986D1C8847396A814688477A
:101970000028F6D1B9F1FF3F0AD0002E24F4D0643C
:1019800011DDB9F12B0F08D0B9F12D0F0BD102E009
:10199000404615B03AE744F48064B96912986D1C6A
:1019A0008847761E8146600504A901D52D2000E0F8
:1019B0002B20002E01F1010B0DF130088DF81000E5
:1019C0003FDDB9F1690F08D0B9F1490F05D0B9F180
:1019D0006E0F02D0B9F14E0F1CD13B4601A8009505
:1019E00080E85002DDE912126FF0020009F07DF983
:1019F000C11CCED10EE0B96912986D1C8847814692
:101A00001398761E44F4007405600F98401C002E55
:101A10000F9016DDB9F1300FEDD0B9F1780F02D08B
:101A2000B9F1580F0DD10F9801280AD13B46CDE9E5
:101A30000054DDE91212001F029609F054F9C11C8E
:101A4000A7D1109989453ED144F0800406E013994E
:101A5000681CAAF1010A44F400740860B9696D1C9D
:101A60001298761E884730288146F0D02BE01099D6
:101A7000894505D1200603D4761E44F0800418E081
:101A8000484603F073FA08B3761E0DF123018B4527
:101A900044F4007408D2A9F130000BF8010B2006C1
:101AA00007D5AAF1010003E0200602D40AF10100E3
:101AB0008246A00502D51399681C0860B96912987E
:101AC0006D1C88478146002ED1DC53E0002E51DD8D
:101AD000B9F1650F02D0B9F1450F4BD1A00549D539
:101AE000B9696D1C1298761E24F440748847002E44
:101AF00081460CDD2B2804D0B9F12D0F07D144F419
:101B00008074B96912986D1C8847761E8146E0057D
:101B100001D52D2100E02B2108F8011BCDF8008014
:101B200021E0761E0DF13901884544F400740CD291
:101B3000A9F1300010F0FF0088F8000002D10099F0
:101B4000884509D908F1010806E0E00501D52448D7
:101B500001E042F20F708246B96912986D1C884705
:101B6000814613980560002E04DD484603F0FEF917
:101B70000028D6D1F96912988847FF2053468BF880
:101B8000000088F8000000200A900B9004AA0CA91D
:101B90000AA8FFF7D5FDA00502D46FF00100F8E612
:101BA00014F0240F0AD0E00714D13868DDE90A12D6
:101BB000031D3B600068C0E900120BE00AA96846FB
:101BC00003F06EF9E00705D13868009A011D39600D
:101BD000006802602846DCE6449900003A9800005C
:101BE000F1D8FFFF0446AFF300802046FEF78BFBE1
:101BF0002DE9FF4F1F464FF03C0987B04FF00042E0
:101C0000DDE9141001F10108DDF858A002EA4050A6
:101C10000390002004908346054604460590B96968
:101C2000461E08988847AAF1010A0290BAF1000FEF
:101C300037DD02982E2815D01021FFF772FD0028FD
:101C40002ADB4FF0010B0499014316D0B9F1000FC4
:101C50000BDB4A46C11700F0F1F905430C43A9F12B
:101C6000040905E00120059007E008B145F00105F1
:101C700001200490059800B9361DB969089808F14B
:101C800001088847BBF1000FAAF1010A0290CDD0EC
:101C90000999C1F80080C9E70298702808D0502837
:101CA00006D0F96908988847BBF1000F14D04FE0BF
:101CB000002002900120BBF1000F049009D0B96907
:101CC000089808F101088847AAF10109B9F1000F45
:101CD00007DCF969089888476FF001000BB0BDE890
:101CE000F08F2B2804D02D280CD14FF0FF3004901A
:101CF000B969089808F101088847A9F10109B9F103
:101D0000000FE6DD411CE4D00A21FFF70AFD0028A0
:101D1000DFDB029908F1010801EB810100EB4100D2
:101D20000290B969089888470A21FFF7FAFC099AD6
:101D3000A9F10109B9F1000FC2F8008001DD002806
:101D4000E7DAF969089888470499029800FB016668
:101D500055EA040004D004F04041090002D006E036
:101D6000039898E0A40044EA9574AD00B61E04F010
:101D70000041080002D16D196441761E159810F0DB
:101D8000240F03D04FF00B095C4803E04FF0280903
:101D90006FF07D008246564507DAAAEB06018944BA
:101DA000B9F1410F01DD4FF0410901200021A9F1F6
:101DB000010200F043F9024628400B462140084347
:101DC00001D0012100E00021501E029143F1FF31BA
:101DD00028402140084301D0012000E00020029962
:101DE000834651EA0B014FD0002108464FF0000016
:101DF000039900F4400039B100EB80004FF440013A
:101E000000EBD07001EA60008015012802DD4FF080
:101E1000FF3000E013D0401C36D0029860B3BBF115
:101E2000000F0CD14A460120002100F007F928409C
:101E30002140084301D0012000E00020E0B1012052
:101E40004A46002100F0FAF8034640190A4661416B
:101E50002D1A8C4111D3B9F1400F09DD159810F0FE
:101E6000240F02D0AAF1340603E0AAF1170600E01D
:101E7000761C00254FF0004406E05B1E42F1FF3265
:101E800020EA030521EA0204CAF10100B04206DAA1
:101E90001B49039808430190002000900EE0039A2C
:101EA000C4F3D321E80A0A43164940EA44500A43DE
:101EB0003146CDE90002684603F04EF8159810F05F
:101EC000240F0BD01598C00715D13868DDE9001232
:101ED000031D3B600068C0E900120CE002A86946DF
:101EE00002F0DEFF1598C00705D13868029A011D7F
:101EF0003960006802604046F0E6000002FCFFFF27
:101F00000000F07F0000F03F2DE9FF4F92461D4694
:101F100085B04FF00041DDE9124BDDE914727F1E00
:101F200001EA4B50414940F0FF4940EA01080021D5
:101F300022F020004928049102D04E2828D04CE0FD
:101F40003BA0012607C88DE80700A9690698641C14
:101F500088477F1E014606D41DF8060018B121F0FF
:101F6000200181420BD0E96906988847032E34D0BE
:101F7000082E32D06FF0010009B0BDE8F08F761C5A
:101F8000032E01D0082EE0D1601CCAF80000DCE767
:101F9000A9690698641C88477F1E2AD420F0200077
:101FA000412826D1A9690698641C88477F1E20D441
:101FB00020F020004E281CD1A9690698641C88478F
:101FC0007F1E48F4002849F48009CAF8004001D473
:101FD000282806D0E969069888475FEACB7012D0B6
:101FE00022E0A9690698641C88477F1E01D4002856
:101FF00003DAE96906988847BCE72928F1D1641C0F
:10200000CAF80040E9E71BF0240F07D028680499BC
:10201000031D2B600068C0E9001805E02868021D58
:102020002A600068C0F800902046A5E70000F07F15
:10203000494E46494E49545900000000B2F1200370
:102040000AD5C2F1200301FA02F120FA03F300FAE3
:1020500002F041EA0301704700FA03F14FF000007B
:1020600070475FEA400C08BF91F0000F4FEA8C23E5
:102070004FEAC12243EA51514FEA1C5018BF00F504
:10208000F0404FEA300018BF41F000415FEA6C5C5D
:1020900000F02980BCF1FF3F08BF40F0804070474E
:1020A000130C06BF12044FF0100C4FF0000C130E6F
:1020B00004BF12020CF1080C130F04BF12010CF143
:1020C000040C930F04BF92000CF1020CD30F04BF59
:1020D00052000CF1010C11464FF00002A0F11F005C
:1020E000A0EB0C00704711F0004F08BF704731F0B3
:1020F00000413FF4D5AF0B0C06BF09044FF0100CA4
:102100004FF0000C0B0E04BF09020CF1080C0B0F72
:1021100004BF09010CF1040C8B0F04BF89000CF102
:10212000020CCB0F04BF49000CF1010CCCF12003D1
:10213000A0EB0C0022FA03F302FA0CF241EA0301CD
:1021400000F10100704720F07F4C80EA030023F08B
:102150007F47ACEB070303F57C5300F0004003F12D
:10216000FF032DE980494FEA154B09B44FEA1443A8
:1021700025EA0B4E24EA03480FF2042606EB132748
:1021800049083E785FEA320203FB0667C7F500079D
:1021900007FB06F64FEA54374FEAD64606F1020629
:1021A00007FB066CCCF1005C4FEA1C472CEA074C9D
:1021B00007FB06F40CFB06F504EB15464FEA9616F2
:1021C00034BF00204FF000404FEAD13706FB07FC38
:1021D0004FEA1C4C0CFB0BF7D21B03FB0CF761EB1B
:1021E00007010CFB0EF7B0EB074072EB17420CFB3C
:1021F00008F734BFA2EB0742B2EB074261EB17418D
:102200004FEA0C444FEA910706FB07FC4FEA1C4CCF
:102210000CFB0BF7B0EBC74072EB573203FB0CF72C
:1022200034BFA2EBC742B2EBC74261EB57310CFBA4
:102230000EF7B0EBC70072EB57720CFB08F734BF18
:10224000A2EBC702B2EBC70261EB5771039F4FEAE3
:10225000816141EA921104EBCC044FEAD1374FEA95
:10226000826206FB07FC42EA90124FEA80604FEA66
:102270001C4C0CFB0BF7D21B03FB0CF761EB0701AB
:102280000CFB0EF7B0EB074072EB17420CFB08F7A4
:1022900034BFA2EB0742B2EB074261EB17414FEAB2
:1022A0008C554FEA910704EB9C2406FB07FC4FEA90
:1022B0001C4C0CFB0BF7B0EBC74072EB573203FB27
:1022C0000CF734BFA2EBC742B2EBC74261EB573108
:1022D0000CFB0EF7B0EBC70072EB57720CFB08F764
:1022E00034BFA2EBC702B2EBC70261EB577115EB2B
:1022F0004C254FEA816141EA92114FEA82624FEA2E
:10230000D13742EA901206FB07FC44F100044FEA81
:1023100080604FEA1C4C0CFB0BF7D21B03FB0CF745
:1023200061EB07010CFB0EF7B0EB074072EB1742B5
:102330000CFB08F734BFA2EB0742B2EB074261EB9C
:10234000174115EB1C154FEA813141EA92414FEAE2
:10235000823242EA90424FEA80304FEA0C7644F1F2
:10236000000448EA03434EEA0B484FF0000EB2EB7C
:10237000080C71EB030724BF624639464EEB0E0E84
:102380004FF0000B0018524149414BEB0B0BB2EBE5
:10239000080C71EB03077BF1000B24BF6246394642
:1023A0004EEB0E0E4FF0000B0018524149414BEB23
:1023B0000B0BB2EB080C71EB03077BF1000B24BF96
:1023C000624639464EEB0E0E51EA020718BF46F040
:1023D000010616EB0E7655F1000254F1000103D50B
:1023E000BDE88901BDE80088BDE88901BDE8004875
:1023F000B619524141EB0101A3F1010370478080FE
:102400007F7E7D7C7B7A797877767675747372714E
:1024100071706F6E6E6D6C6C6B6A6A696868676606
:1024200066656464636362616160605F5F5E5E5D98
:102430005D5C5C5B5B5A5A5959585857575656550C
:1024400055555454535352525251515050504F4F6E
:102450004F4E4E4D4D4D4C4C4C4B4B4B4A4A4A49BE
:102460004949484848474747474646464545454401
:1024700044444443434343424242424141410000B9
:1024800046EA0646A3F570534FEA164646EA425618
:102490004FEAD22242EA415210B54FEAD121A3F1CC
:1024A000010300F017F820F0004000F1010C00F0EB
:1024B000004701EB00501146BCF5006F40EA0700F1
:1024C00000D210BD02484FF0000140EA070010BDE5
:1024D0000000F07F002B26D4770021D01CB54FEAF6
:1024E000370703B44FF010004FF010014FF0000019
:1024F0000FBCBDE810400BF1010BBBF1010F08BF91
:102500005FEA170722BF12F1010211F101014FF03A
:10251000004143F1000300F0004043EA000070472F
:10252000F9D35708DAE746EA064613F1400F4FEAB7
:1025300016461FDD13F1200FDFBF16430A460021A8
:1025400020335B42C8D0C3F1200746EA064602FAB0
:1025500007F74FEA164646EA0706C3F1200722FAB4
:1025600003F201FA07F721FA03F14FF0000342EA00
:102570000702B1E746EA020646EA06464FEA164671
:1025800046EA0106BCBF46EA0646360C4FF0000399
:102590004FF000024FF000019EE72DE9C04893463E
:1025A00030B491E8380007C831EA400C48BF34EA3B
:1025B000430C03D5FFF7C7FDFFF78CFFF0BCBDE868
:1025C00000882DE9C048934630B491E8380007C828
:1025D00031EA400C48BF34EA430C03D5FFF7B3FDA2
:1025E000FFF74EFFF0BCBDE800882DE9C0489346D8
:1025F00030B491E8380007C810F0804F08BF13F0DE
:10260000804F03D100F019F8FFF764FFF0BCBDE87C
:1026100000882DE9C048934630B491E8380007C8D7
:1026200010F0804F08BF13F0804F03D100F005F881
:10263000FFF726FFF0BCBDE8008820F07F4780EA66
:10264000030023F07F4C07EB0C03A3F57C5300F051
:102650000040A3F1FE0392F0000F00F0B38095F06C
:10266000000F00F077802DE901494FEA11404FEA51
:10267000144621EA004800FB06FC24EA064708FB52
:1026800006F607FB08F800FB07F718EB06484CEBCB
:10269000164C4FEA124B18EB07484FEA15464CEB25
:1026A000174022EA0B4E0BFB06FC25EA06470EFB01
:1026B00006F607FB0EFE0BFB07F71EEB064E4CEB78
:1026C000164C4FF000061EEB074E4CEB174B18EB69
:1026D0000B0840F1000018EB0E0B58EB000840F11E
:1026E00000008F1A4FF000013CBFC943661B14BFA6
:1026F000B5EB040C00213CBFC943F61B4FEA17445D
:102700004EEA8E0E27EA04454FEA1C4704FB076297
:102710002CEA074C05FB07F70CFB05F604FB0CFC49
:1027200016EB074642EB174216EB0C4642EB1C42F7
:102730001BEB060658EB0202414146EA9E0601D514
:10274000BDE80189B619524141EB0101A3F1010332
:10275000BDE801894FEA14454FEA114724EA0546CE
:1027600021EA074C05FB07F406FB07F70CFB06F113
:1027700005FB0CFC11EB074144EB17444FEA1247F1
:1027800011EB0C4144EB1C4422EA074C05FB07F219
:1027900006FB07F70CFB06F605FB0CFC16EB0746E1
:1027A00042EB174216EB0C4642EB1C456A1854F1FB
:1027B000000148BF7047B619524141EB0101A3F136
:1027C0000103704795F0000F37D04FEA11424FEAEE
:1027D000144721EA024624EA074C02FB07F106FBF4
:1027E00007F70CFB06F402FB0CFC14EB074441EB6F
:1027F00017414FEA154714EB0C4441EB1C4125EA05
:10280000074C02FB07F506FB07F70CFB06F602FB7D
:102810000CFC16EB074645EB174516EB0C4645EB53
:102820001C42121951F1000148BF7047B6195241BC
:1028300041EB0101A3F1010370474FEA14454FEA50
:10284000114724EA054621EA074C05FB07F106FB80
:1028500007F70CFB06F24FF0000605FB0CFC12EB31
:10286000074241EB174112EB0C4251EB1C4148BFB0
:102870007047921841EB0101A3F10103704700007A
:102880000FE003F0A3FF07F0B5FA07F0D1FA00F06C
:102890004BF800F05FF8642003F02CFB01A0FDF77B
:1028A00079FDEEE70D0A2066696E697368206F6E28
:1028B000652074696D6520212100000000BFFEE7DE
:1028C00070B5044605E01648056805F0450000B1FE
:1028D00000E0F8E700BF042000F0D8FB20B104209E
:1028E00000F0CEFB032070BD012000F0CFFB20B133
:1028F000012000F0C5FB0120F5E7094824380068F5
:10290000A04201D01020EEE740F2FF5000F0B8FBEB
:1029100003482038006808210840C0B2E3E70000FF
:10292000342C01407047000010B505A0FDF732FDC2
:1029300004F04CFA07F0B6F903F07AFD10BD000080
:102940000D0A20656E7465722044726F70476F6F58
:102950006473000010B505A0FDF71CFD04F030F90C
:1029600007F0F4F903F054FB10BD00000D0A2065D8
:102970006E7465722044726F7050616E00000000CA
:10298000F0B50A4600210023002400BF3DE00125E8
:1029900005FA01F3156805EA03049C4234D1056881
:1029A0004F000326BE40B543056015794E00B54083
:1029B0000668354305601579012D02D01579022D81
:1029C00016D185684F000326BE40B5438560557912
:1029D0004E00B540866835438560456801268E40C7
:1029E000B5434560456896798E40B6B2354345603B
:1029F000C5684F000326BE40B543C560D5794E007B
:102A0000B540C6683543C560491C1029BFD3F0BD29
:102A1000F0B5002300244D07ED0E02FA05F3CE10A9
:102A200000F1200555F826504E07F70E0F26BE4040
:102A3000B543CF1000F1200646F82750CE1000F124
:102A4000200555F8265045EA0304CE1000F1200574
:102A500045F82640F0BD00BFFEE700BFFEE7704727
:102A600070B5002100230F22C4781CB3174C2468D2
:102A700004F4E064C4F5E064C4F30721C1F1040484
:102A8000E3B20A4144789C40E1B284781440214387
:102A90000C07210E0E4C05786155047804F01F05D3
:102AA0000124AC4005786D11AD0005F1E025C5F8B5
:102AB000004109E0047804F01F050124AC40054DF5
:102AC0000678761145F8264070BD00000CED00E058
:102AD00000E400E080E100E002490143024A1160A5
:102AE000704700000000FA050CED00E070B53848B2
:102AF00000782D2800D170BD354802F03DFF054615
:102B00003DB902F013FF0646314632A0FDF742FC04
:102B1000F1E735A1284602F00FFF044604B94EE064
:102B200035A12069FDF7A0FFB0B935A1284602F014
:102B300003FF044604B942E034496069086034A1E7
:102B4000284602F0F9FE044604B938E02F48001D7B
:102B50002169FDF704FE32E030A12069FDF784FF12
:102B600060BB30A1284602F0E7FE044604B926E027
:102B70002D49606908602DA1284602F0DDFE04465B
:102B800004B91CE094ED060B294880ED000B29A147
:102B9000284602F0D1FE044604B910E094ED060B7D
:102BA000254880ED000B25A1284602F0C5FE04460D
:102BB00004B904E022496069086000E000BF2846CB
:102BC00002F08CFE2D200249087000BF93E7000040
:102BD000440B00204572726F72206265666F7265E9
:102BE0003A205B25735D0A00627573696E657373C5
:102BF000547970650000000030303037000000006C
:102C00006572726F72436F646500000060B90120E5
:102C10006572726F72446573630000003030313149
:102C200000000000436F00003C0300204644000009
:102C30004003002042440000480300206D6F000064
:102C40005003002070B5384800782D2800D170BDA1
:102C5000354802F091FE05463DB902F067FE064692
:102C6000314632A0FDF796FBF1E735A1284602F088
:102C700063FE044604B94EE035A12069FDF7F4FE79
:102C8000B0B935A1284602F057FE044604B942E027
:102C900034496069886634A1284602F04DFE044636
:102CA00004B938E02F486C302169FDF758FD32E057
:102CB00030A12069FDF7D8FE60BB30A1284602F0A4
:102CC0003BFE044604B926E02D49606908602DA149
:102CD000284602F031FE044604B91CE094ED060BD0
:102CE000294880ED000B29A1284602F025FE044664
:102CF00004B910E094ED060B254880ED000B25A1EA
:102D0000284602F019FE044604B904E0224960692D
:102D1000086000E000BF284602F0E0FD2D200249D7
:102D2000087000BF93E700002C0F00204572726FFF
:102D300072206265666F72653A205B25735D0A00DA
:102D4000627573696E657373547970650000000075
:102D500030303038000000006572726F72436F646B
:102D60006500000060B901206572726F724465737E
:102D7000630000003030313200000000436F00007B
:102D80005403002046440000580300204244000041
:102D9000600300206D6F00006803002070B53748A5
:102DA00000782D2800D170BD344802F0E5FD0546BD
:102DB0003DB902F0BBFD0646314631A0FDF7EAFA07
:102DC000F1E734A1284602F0B7FD044604B94DE00E
:102DD00034A12069FDF748FEB8B934A1284602F0B5
:102DE000ABFD044604B941E033496069C1F8D00045
:102DF00032A1284602F0A0FD044604B936E02E4870
:102E0000D4302169FDF7ABFC30E02FA12069FDF73C
:102E10002BFE50B92EA1284602F08EFD044604B9BF
:102E200024E02D496069086020E02CA12069FDF7AD
:102E30001BFE50B926A1284602F07EFD044604B9C7
:102E400014E028496069086010E027A12069FDF7B7
:102E50000BFE50B91EA1284602F06EFD044604B9CF
:102E600004E023496069086000E000BF284602F0E2
:102E700035FD2D200149087000BF94E7380D002072
:102E80004572726F72206265666F72653A205B25CB
:102E9000735D0A00627573696E657373547970654A
:102EA0000000000030303133000000006572726FA6
:102EB00072436F646500000060B901206572726F33
:102EC000724465736300000030303135000000004B
:102ED000526573756C7400002C030020303031375C
:102EE00000000000300300203030313900000000C5
:102EF000340300207047000029B1064A12680243DB
:102F0000044B1A6004E0034A12688243014B1A60C2
:102F1000704700003038024029B1064A1268024367
:102F2000044B1A6004E0034A12688243014B1A60A2
:102F3000704700004038024029B1064A1268024337
:102F4000044B1A6004E0034A12688243014B1A6082
:102F5000704700002038024029B1064A1268024337
:102F6000044B1A6004E0034A12688243014B1A6062
:102F7000704700004438024029B1064A12680243F3
:102F8000044B1A6004E0034A12688243014B1A6042
:102F90007047000024380240F0B5002100220024D0
:102FA000022500260223324F3F6807F00C0121B1B1
:102FB000042905D0082937D105E02E4F076036E0F7
:102FC0002D4F076033E02A4F3F1F3F68C7F38056FD
:102FD000274F3F1F3F6807F03F036EB1264FB7FBF7
:102FE000F3F7DFF88CC0ACF1040CDCF800C0CCF3D4
:102FF000881C07FB0CF40CE01E4FB7FBF3F7DFF85F
:1030000070C0ACF1040CDCF800C0CCF3881C07FBEA
:103010000CF4174F3F1F3F68C7F301477F1C7D002B
:10302000B4FBF5F7076002E0124F076000BF00BF76
:103030000F4F3F6807F0F0010909104F7A5C0768ED
:10304000D74047600A4F3F6807F4E051890A0B4FA9
:103050007A5C4768D7408760054F3F6807F4604156
:10306000490B064F7A5C4768D740C760F0BD000047
:10307000083802400024F40000127A004D000020BD
:103080000149086070470000382C014001460020CB
:10309000034A12680A400AB1012000E0002070478C
:1030A000342C014010B500F017F810BD0021094B79
:1030B00002681A601A1D11686FF30A01D0E9012332
:1030C0001A43C3681A4303691A431143014A121D84
:1030D00011607047082C014010B54FF48070FFF765
:1030E000D5FF78B34C480078012814D100204B4913
:1030F00008600C204860402088600020C8604FF4C1
:10310000806008610846FFF7D1FF0C20FFF7D8FB6D
:103110004349087002E000204149087041480068B6
:1031200040F480703F490860081D00684CF23A3155
:1031300088433C49091D086001203B490870384814
:10314000007810BDFFE70220FFF7A0FF78B1022052
:10315000FFF796FF3348001D00684CF23A31884370
:103160003049091D086002202D490870E9E7082050
:10317000FFF78CFF78B10820FFF782FF2948001D78
:1031800000684CF23A3188432649091D0860042042
:1031900023490870D5E72020FFF778FF78B1202079
:1031A000FFF76EFF1F48001D00684CF23A3188435C
:1031B0001C49091D0860062019490870C1E7102044
:1031C000FFF764FF78B11020FFF75AFF1548001D84
:1031D00000684CF23A3188431249091D0860052005
:1031E0000F490870ADE74FF40070FFF74FFF80B153
:1031F0004FF40070FFF744FF0A48001D00684CF2CE
:103200003A3188430749091D0860072004490870BE
:1032100097E7002095E700001500002050040020EB
:1032200016000020382C01401700002070470000D5
:103230000CB50020019000903448006840F48030C4
:103240003249086000BF3148006800F40030009047
:103250000198401C0190009818B90198B0F5A04F52
:10326000F1D12A48006800F4003010B1012000902C
:1032700001E0002000900098012846D1234840300A
:10328000006840F0805021494031086020480068C3
:1032900040F440401E4908601C48083000681B4943
:1032A000083108600846006840F40040086008469D
:1032B000006840F4A05008601648091F0860081F05
:1032C000006840F08070091F086000BF0F48006868
:1032D00000F000700028F9D040F205700E49086037
:1032E0000A480830006820F00300084908310860E7
:1032F0000846006840F00200086000BF034808303C
:10330000006800F00C000828F8D10CBD003802401D
:103310000070004008544007003C0240042808D1D7
:103320004FF0E021096941F004014FF0E022116102
:1033300007E04FF0E021096921F004014FF0E0229D
:10334000116170477047000010B51548006840F4DF
:103350007000134908601348006840F001001149EB
:10336000086000200F49083108600E4800680E49C7
:1033700008400C4908600D48091D0860081F0068D6
:1033800020F48020091F0860002006490C310860E5
:10339000FFF74EFF4FF0006001498039086010BD13
:1033A00088ED00E000380240FFFFF6FE10300024F8
:1033B00010B501210A4800F079F801280AD109491D
:1033C000086980470021064800F08CF86421044811
:1033D00000F086F80121024800F04DF810BD000011
:1033E000000800401402002010B50121094800F037
:1033F0005DF868B10848008840F40040064908803C
:103400000121044800F037F80021024800F036F8A6
:1034100010BD0000001400401C0000207FB50546D0
:103420000C4601212020FFF777FD0195ADF8004003
:103430000020ADF80800ADF8020069460B4800F026
:1034400053F801221146094800F041F837208DF861
:103450000C0000208DF80D0001208DF80E008DF875
:103460000F0003A8FFF7FCFA7FBD00000014004026
:10347000CA4302827047CA430282704721B1028860
:1034800042F00102028004E002884FF6FE731A4007
:10349000028070470146486A704702460020138A3E
:1034A0000B400BB1012000E00020704730B5024610
:1034B000002000230024158A05EA0103958905EA06
:1034C000010413B10CB1012000E0002030BD1AB19D
:1034D00083890B43838102E083898B438381704717
:1034E000C16270474162704700220288184B9842BF
:1034F0000ED0184B98420BD0B0F1804F08D0164B2D
:10350000984205D0154B984202D0154B984204D1F1
:103510004FF68F731A404B881A43124B984207D0CC
:10352000114B984204D04FF6FF431A400B891A43BF
:1035300002804B68C3620B880385054B984202D01A
:10354000044B984201D18B7A038601238382704712
:103550000000014000040140000400400008004059
:10356000000C004000100040001400407FB50446ED
:103570000D4601210420FFF7CFFCADF800500020DC
:10358000ADF802000194ADF8080069460D48FFF758
:10359000ABFF012211460B48FFF799FF01210948B3
:1035A000FFF76CFF1E208DF80C0003208DF80D0036
:1035B0008DF80E0001208DF80F0003A8FFF750FAD8
:1035C0007FBD00000008004010B540F225514C4876
:1035D00000F063FB002878D04948001D0088C4B281
:1035E0004848006838B9232C04D146480068401C7C
:1035F0004449086010BD4348006801280BD1212CC4
:1036000005D140480068401C3E49086002E00020A7
:103610003C490860EEE73B480068022808D12002D8
:103620003949086037480068401C36490860E1E7BE
:103630003448006803280AD13348006820443249DE
:10364000086030480068401C2E490860D2E72D48C9
:103650000068042851D12D480068401C2B4908609F
:1036600008460068FA2802DD00F044FAC2E727485D
:10367000006825490968884205DC24480068401E26
:1036800023490C54B6E7214801681F480068401CD4
:10369000814204D12A2C01D000F02CFAAAE71B4861
:1036A000016819480068801C814202D119480470E1
:1036B000A0E71648016814480068C01C81421BD16D
:1036C000262C03D000F016FA15E016E00E4801781B
:1036D0000F4802F0DDFB0F490978884209D1C82163
:1036E0000D48FDF74DF90A490B48FDF738F8FFF78B
:1036F00055FB00F0FFF97DE77CE700BF7AE70000AB
:10370000004C004038000020300000203400002031
:10371000700C00203C000020380D002010B540F255
:1037200025514C4800F0B9FA002877D049488088E4
:10373000C4B24948006838B9232C04D1464800680F
:10374000401C4549086010BD4348006801280BD162
:10375000212C05D140480068401C3F49086002E028
:1037600000203D490860EEE73B480068022808D188
:1037700020023A49086038480068401C3649086011
:10378000E1E73548006803280AD13448006820443E
:103790003249086030480068401C2F490860D2E771
:1037A0002D480068042852D12D480068401C2C493F
:1037B000086008460068FA2802DD00F0B7F9C2E7A1
:1037C0002748006825490968884205DC24480068C4
:1037D000401E24490C54B6E7214801681F48006880
:1037E000401C814204D12A2C01D000F09FF9AAE7A5
:1037F0001B48016819480068801C814202D11A48A0
:103800000470A0E71648016814480068C01C814293
:103810001CD1262C03D000F089F916E017E00F48E0
:103820000178104802F034FB0F49097888420AD128
:103830004FF496710D48FDF7A3F80A490B48FCF7C1
:103840008EFFFFF7FFF900F071F97CE77BE700BF1F
:1038500079E70000005000404800002040000020B0
:1038600044000020000E00204C0000202C0F0020FF
:1038700010B540F225511D4800F00FFA10B31B4857
:1038800000F0C4FAC4B21A48008800F40040C8B975
:103890001748008800F4804060B10A2C03D0002053
:1038A0001349088020E01248008840F40040104985
:1038B000088019E00D2C06D10D48008840F48040A6
:1038C0000B49088010E00A480088C0F30D00094940
:1038D0000C5407480088401C0549088008460088A9
:1038E000C72801DD0020088010BD00000010014045
:1038F000080000207003002010B54FF0FF3007498A
:1039000008604FF496710648FDF73AF80020054923
:103910000860054908600549087010BD20000020B6
:10392000180A002024000020280000202C0000207D
:1039300010B540F225514C4800F0AFF9002878D07E
:103940004948001D0088C4B24848006838B9232C93
:1039500004D146480068401C4449086010BD4348F3
:10396000006801280BD1212C05D140480068401C7B
:103970003E49086002E000203C490860EEE73B4811
:103980000068022808D120023949086037480068D9
:10399000401C36490860E1E73448006803280AD132
:1039A0003348006820443249086030480068401CB1
:1039B0002E490860D2E72D480068042852D12D48CE
:1039C0000068401C2B49086008460068FA2802DDA0
:1039D000FFF792FFC2E72748006825490968884237
:1039E00005DC24480068401E23490C54B6E72148F2
:1039F00001681F480068401C814204D12A2C01D074
:103A0000FFF77AFFAAE71B48016819480068801C85
:103A1000814202D119480470A0E716480168144891
:103A20000068C01C81421CD1262C03D0FFF764FF24
:103A300016E017E00E4801780F4802F029FA0F4906
:103A4000097888420AD14FF496710D48FCF798FF27
:103A500009490B48FCF783FEFFF748F8FFF74CFFD6
:103A60007CE77BE700BF79E70044004028000020A6
:103A70002000002024000020180A00202C00002034
:103A8000440B002010B540F22551164800F005F90E
:103A900000B3144800F0BAF9C4B21348008800F427
:103AA0000040B8B910480088B0F5C87F13DA00218B
:103AB0000E48FFF717FD0C48008818B901210B4884
:103AC000FFF7DCFC084801880088401C064A10808B
:103AD0000748445405E00448008840F40040024987
:103AE000088010BD004800401C0000200014004069
:103AF0008808002010B54FF0FF3007490860C82142
:103B00000648FCF73DFF00200549086005490860AC
:103B10000549087010BD000030000020700C002026
:103B200034000020380000203C00002010B54FF089
:103B3000FF30074908604FF496710648FCF720FFF4
:103B4000002005490860054908600549087010BD56
:103B500040000020000E002044000020480000200B
:103B60004C00002001F40072B2F5007F00D100BFCC
:103B7000CA430280704721B1828942F40052828197
:103B800004E082894DF6FF731A408281704700007D
:103B900010B504463248844208D101211020FFF7B5
:103BA000EBF900211020FFF7E7F957E02D48844298
:103BB00009D101214804FFF7BFF900214FF400307B
:103BC000FFF7BAF94AE02848844209D10121880464
:103BD000FFF7B2F900214FF48020FFF7ADF93DE087
:103BE0002248844209D10121C804FFF7A5F9002128
:103BF0004FF40020FFF7A0F930E01D48844209D1BE
:103C000001210805FFF798F900214FF48010FFF714
:103C100093F923E01748844208D101212020FFF7BF
:103C2000ABF900212020FFF7A7F917E012488442E2
:103C300009D101218807FFF77FF900214FF080406B
:103C4000FFF77AF90AE00D48844207D101214005C7
:103C5000FFF772F900216005FFF76EF910BD000053
:103C6000001001400044004000480040004C00406B
:103C7000005000400014014000780040007C0040EB
:103C800002460020B1F5007F00D100BF13880B4031
:103C90000BB1012000E00020704770B502460024FF
:103CA00000230025002040F66A16B14200D100BF73
:103CB000C1F3421501F01F03012606FA03F3012D9B
:103CC00002D19689334006E0022D02D1168A334094
:103CD00001E0968A33400C12012606FA04F4168895
:103CE000344013B10CB1012000E0002070BDF0B5EC
:103CF0000346002400260025002040F66A17B9423A
:103D000000D100BF1846C1F3421401F01F0601277D
:103D100007FA06F5012C01D10C3004E0022C01D188
:103D2000103000E014301AB107682F43076002E03A
:103D30000768AF430760F0BD2DE9FF4705460E4613
:103D40000024A14600BFA046B08900B100BF2C8A64
:103D500024F44054F08804432C82AC8941F20C6076
:103D60008443B08831890843718908430443AC8196
:103D7000AC8A24F44074B0890443AC826846FFF7EF
:103D80000BF92048854202D01F48854202D1DDF858
:103D90000C9001E0DDF80890A88900F4004040B1E3
:103DA00009EBC90000EB091031684900B0FBF1F7DD
:103DB00007E009EBC90000EB091031688900B0FB8E
:103DC000F1F76420B7FBF0F004012009642101FB46
:103DD0001078A88900F4004040B1322000EBC80000
:103DE000B0FBF1F000F00700044308E0322000EBE4
:103DF00008106421B0FBF1F000F00F0004432C81A7
:103E0000BDE8FF870010014000140140014688888A
:103E1000C0F308007047C1F308028280704700BFFA
:103E2000FEE7000010B5044601F0E4FF01F022FEB9
:103E300001F0A2FA142204A104A001F0D5FA21464F
:103E400005A004F013FC10BD4F4B000041542B4360
:103E5000495053454E4400002573000003B40198B7
:103E60004100009850EAC12018BF04204A0D18BF35
:103E700040F0010040F2FF72B2EB515F08BF40F02A
:103E80000200012808BF052002B0704700000000B2
:103E900030B583B00446FCF737FE9FED090B0546AD
:103EA0008DED000B002221466846FDF7FDF92846FE
:103EB000FCF72FFE9DED000B03B030BD00000000AD
:103EC00000000000000000002DED020B019820F022
:103ED000004001909DED000B02B070470000000013
:103EE0002DE9F0412DED020B9FED3D0B2DED028BE9
:103EF0009FED3D8BDDE90254C4F30A50A0F2FF367A
:103F0000142E37DA002E18DA53EC102B9DED020B2D
:103F100051EC100B06F040F853EC182B06F00CFC9B
:103F200057D2002CA4BF0024254652DA24F00040CA
:103F3000284318BF2E4C4CD01AE02E4820FA06F722
:103F400004EA070028431FD053EC102B9DED020B11
:103F500051EC100B06F020F853EC182B06F0ECFB9C
:103F600037D2002C03DA4FF48010F0400444BC43F5
:103F700000252EE0332E07DCA6F114004FF0FF31B0
:103F800021FA00F73D4206D19DED020BBDEC028BFC
:103F900002B0BDE8F08153EC102B9DED020B51EC0B
:103FA000100B06F0FFFB53EC182B06F0C5FB10D2EC
:103FB000002C0DDA142E08BF641C09D0C6F13400A1
:103FC000012101FA00F02844A84238BF641C0546CC
:103FD000BD43CDE902549DED020BD7E70000000080
:103FE0009C7500883CE4377E000000000000000063
:103FF0000000F0BFFFFF0F0030B540F2FF742DED61
:10400000048BF0EE608A18EE901A85B0B0EE408A0C
:104010009FED2B9B05468DED008B34EA115147D067
:1040200053EC192B51EC180B06F0CAF940D02A4674
:1040300051EC180B06F027FE41EC180B18EE900A15
:104040008DED008B34EA10501CD053EC192B51EC41
:10405000180B06F0B5F92BD10220FCF75AFD00F041
:104060000FFF10EE901A18EE900A8DED020B8DEDF9
:10407000008B61F31E0003909DED020B05B0BDECBB
:10408000048B30BD0220FCF744FD00F0E9FE10EE89
:10409000901A18EE900A8DED020B8DED008B61F3F6
:1040A0001E0003909DED020B05B0BDEC048B30BDEE
:1040B00005B0B0EE480AF0EE680ABDEC048B30BDE6
:1040C00000000000000000002DE9F04D2DED040B74
:1040D0002DED0C8B96B0DDE92350259CDDF888A0F2
:1040E00025F0004624F00048BAF1000F14BF01216A
:1040F000002101EB4502FE4953184A1093422AD38E
:10410000002814BF0123002303EB44030B44F949A7
:104110008B4220D358EA00019FEDF78B6FD0DFF878
:10412000E0B35D4503D1BAF1000F05D187E0BAF1E4
:10413000000F08BF002100D0012101EB450111F55E
:10414000001F08D8002814BF0121002101EB440101
:1041500011F5001F0BD99DED241B9DED220B16B010
:10416000BDEC0C8B04B0BDE8F04D00F05DBE002747
:10417000002DBCBFE349884521DAE3498845A8BF43
:1041800002271CDAC3451ADCE04901EB2851142947
:1041900008DDC1F1340220FA02F101FA02F2824292
:1041A0000DD108E058B9C1F1140228FA02F101FA60
:1041B00002F2424503D101F00101C1F1020756EAC2
:1041C0000A011DD1002C1BDA002D18BF022F01D0CF
:1041D000012F0AD00220FCF79CFC16B0BDEC0C8B22
:1041E00004B0BDE8F04D00F007BE0220FCF791FCE2
:1041F00000F002FE51EC100B05F090FE83E01EE093
:104200009FEDC39B9FEDC4AB002872D1BD48804594
:104210002DD105F1804010F5801008BFBAF1000FD4
:104220000DD0B34515DC002CA1BF9DED240B16B0BD
:10423000BDEC0C8B04B0A8BFBDE8F08D12E0B0EE71
:10424000480AF0EE680A16B0BDEC0C8B04B0BDE86D
:10425000F08D002C06DA9DED240B51EC100B05F0CF
:104260005DFE50E0AE48784490ED000BEBE7D8459A
:104270004FD1002C4ADA2EB186423BD1BAF1000F61
:1042800044D126E0BAF1000F13D00220FCF741FC24
:1042900000F0E6FD8DED020B9DED220B8DED000B88
:1042A00010EE900A039961F31E0003909DED020B3E
:1042B000C9E78DED029B9DED220B19EE901A10EED1
:1042C000900A8DED000B61F31E0003909DED020B33
:1042D000B9E78DED02AB9DED220B1AEE901A10EEB0
:1042E000900A8DED000B61F31E0003909DED020B13
:1042F000A9E729E00ADA9DED220B51EC180B53ECEB
:10430000102B05F005FF41EC100B9CE79DED220BF7
:1043100099E7864218DAB4F1804F0DD0A4F100502D
:10432000B0F1FF5010D1002D0EDB9DED220B51ECB2
:10433000100B04F060F9E6E79DED220B53EC102B17
:1043400051EC100B00F0AEBC9DED220B51EC100BAC
:1043500001F052FEBAF1000FCDE90C0134D19FED0E
:10436000720BDEB1A6F1E040B0F17F602CD1002DE0
:1043700001DD002C0DDA002D01DD002C1FDB002DEE
:1043800016DA002C14DB012F08BF9FED690B3FF4F8
:104390005AAFB0EE490AF0EE690A54E7022F18BF8F
:1043A000002D0CD0012F0AD1002DFFF64CAF06E0F6
:1043B000002DB8BF002C07DA012F3FF444AFB0EE58
:1043C0004A0AF0EE6A0A3EE7012000EBE57A5AEA73
:1043D00007000CD05848002580457CDD57495848D7
:1043E000884514DDB0420DDB002C19DB2BE00120E9
:1043F000FCF78FFB16B0BDEC0C8B04B0BDE8F04DA4
:1044000000F01EBDB34502DC002C09DC1BE0864237
:1044100002DA002C17DA03E05E4527DD002C12DDFE
:104420000220FCF776FB00F01BFD10EE901A19EE4F
:10443000900A8DED020B8DED009B61F31E00039041
:104440009DED020BFFE60220FCF763FB00F018FD78
:1044500010EE901A18EE900A8DED020B8DED008B88
:1044600061F31E0003909DED020BECE69DED220B27
:1044700053EC182B51EC100B06F06CFA9FED320B3D
:10448000CDE90A0153EC102B9DED0A0B51EC100BFA
:1044900006F054F89FED2E1B53EC112B06F082F919
:1044A0009DED0A1B53EC112B06F048F89FED2A1BDB
:1044B00053EC112B06F076F99DED0A0B41EC190B2C
:1044C00053EC102B51EC100B06F038F853EC192B71
:1044D00006F034F800E07EE09FED210B41EC1A0B72
:1044E00053EC102B9DED0A0B51EC100B3CE000003F
:1044F000FFFF1F00FFFF0F00000000000000F03F63
:104500000000F03F0000F07F0000404301FCFFFF8F
:10451000000000000000F07F00000000000000002C
:10452000AE6C0000000000000000000000000080F1
:10453000000000000000F0FF0000E0410000F04338
:10454000FFFFEF3F00000000000000000000D03F30
:10455000555555555555D53F000000000000E03F2A
:10456000000000604715F73F05F0E8FF41EC190B2C
:104570009FEDFD0B51EC1A0B53EC102B05F0DEFFF9
:1045800041EC1A0B9FEDFA0B53EC102B9DED0A0B2F
:1045900051EC100B05F0D2FF53EC1A2B06F0DAF9B0
:1045A00041EC1A0B51EC190B53EC1A2B05F0F4FCEF
:1045B0000690CDE906519DED060B53EC192B51ECFD
:1045C000100B06F0C7F953EC1A2B06F0EBF841EC90
:1045D000100B00F09FB90020B6F5801F0EDA9FED9A
:1045E000E60B53EC102B9DED0C0B51EC100B05F072
:1045F000A5FFCDE90C016FF034000E4600EB26500C
:10460000A0F2FF38C6F31300DD4940F07F6646F0A4
:1046100040568842D8BF002409DDDA498142C8BF2C
:10462000012404DC0024A6F5801608F10108D64810
:10463000784400EBC4000D9690ED00BB9DED0C0B93
:1046400053EC1B2B51EC100B06F084F99DED0C0B79
:1046500041EC1A0B53EC1B2B51EC100B05F09CFC9E
:1046600041EC100B51EC180B53EC102B05F050FDE6
:1046700041EC1C0B51EC1A0B53EC1C2B05F05EFFAC
:1046800041EC190BC1488DED109B7844109590EDCD
:10469000000B4FF0005040EA660000EB84408DEDC7
:1046A0000A0B00F500200B909DED0A0B53EC1B2B21
:1046B00051EC100B06F04EF99DED0C1B53EC112B39
:1046C00006F070F841EC100B53EC102B9DED100B25
:1046D00051EC100B05F032FF9DED0A0B41EC1B0B6A
:1046E00053EC102B9DED100B51EC100B05F026FF39
:1046F00053EC1A2B06F056F853EC1B2B06F02AF954
:1047000053EC1C2B05F01AFF41EC1B0B53EC192B3F
:1047100051EC190B05F012FF41EC1A0B9C480621D5
:10472000B0EE4A0AF0EE6A0A784400F0E9FAB0EE18
:1047300040CAF0EE60CA53EC1A2B51EC1A0B05F08C
:10474000FDFE53EC1C2B05F0F9FE9DED100B41EC2A
:104750001A0B53EC192B51EC100B05F01DFC53EC0C
:104760001B2B05F0EBFE53EC1A2B05F015FC9DED11
:10477000100B41EC1A0B53EC102B51EC100B05F005
:10478000DDFE41EC1C0B9FED84DB53EC1D2B05F093
:1047900003FC53EC1A2B05F0FFFB0A90CDE90A51FC
:1047A0009DED0A0B53EC1D2B51EC100B06F0D2F8CB
:1047B00053EC1C2B06F0CEF853EC1A2B05F0F2FF4D
:1047C0009DED0A0B41EC1C0B53EC102B9DED100BD7
:1047D00051EC100B05F0B2FE41EC1A0B53EC192B07
:1047E00051EC1C0B05F0AAFE9DED0A0B41EC190BD8
:1047F00053EC102B51EC1B0B05F0A0FE53EC192BC6
:1048000005F0CAFB41EC190B51EC1A0B53EC192BB8
:1048100005F0C2FB1090CDE910519DED100B53EC4B
:104820001A2B51EC100B06F095F853EC192B05F0F0
:10483000B9FF41EC190B9FED5A0B53EC102B9DED7A
:10484000100B51EC100B05F079FE41EC1A0B9FEDAB
:10485000560B51EC190B53EC102B05F06FFE41EC8D
:10486000190B9FED530B53EC102B9DED100B51ECDE
:10487000100B05F063FE53EC192B05F08DFB41EC9A
:10488000100B4D48784400EBC40090ED001B51EC38
:10489000100B53EC112B05F07FFB41EC190B40463C
:1048A00005F0F9FDCDE90A0153EC192B51EC1A0B77
:1048B00005F072FB41EC100B4048784400EBC4005B
:1048C00090ED00BB51EC100B53EC1B2B05F064FB7F
:1048D0009DED0A1B53EC112B05F05EFB0690CDE914
:1048E00006519DED0A0B53EC102B9DED060B51EC80
:1048F000100B06F02FF853EC1B2B06F02BF853ECA3
:104900001A2B06F027F853EC192B05F04BFF41EC5E
:10491000100B00BF781EB0EE48AAF0EE68AA5AEA63
:10492000000008BF9FED268B9DED241B53EC102B40
:104930008DED001B00959DED240B51EC100B05F047
:10494000FDFD9DED000B41EC190B53EC102B9DED83
:10495000240B51EC100B05F0FDFF9DED061B53ECF5
:10496000112B05F0EBFD2FE0FE822B654715F73F7D
:1049700044DF5DF80BAE543E0000000000004043F1
:104980008E9803007AB60B00546800008A68000015
:104990008C670000000000000000000000000840DC
:1049A000000000E009C7EE3FFD033ADC09C7EE3F17
:1049B000F5015B14E02F3EBE20660000DA650000C2
:1049C000000000000000F0BF53EC192B05F0E4FAE2
:1049D0009DED060B41EC190B53EC102B9DED000BDC
:1049E00051EC100B05F0AAFDCDE910019DED100B67
:1049F00051EC190B53EC102B05F0CEFACDE9020166
:104A00000C46AB498C422FDB611A084318D19DED4F
:104A1000100B53EC102B9DED020B51EC100B05F01D
:104A200099FF41EC1B0B9FEDA40B51EC190B53ECC0
:104A3000102B05F0B1FA53EC1B2B05F07DFE2DD2A7
:104A40000220FCF766F800F00BFA10EE901A18EE50
:104A5000900A8DED020B8DED008B61F31E0003902B
:104A60009DED020BFFF7EFBB954A24F00041914208
:104A700014D39449214408437FF4E5AC9DED100B19
:104A800053EC102B9DED020B51EC100B05F062FF67
:104A900053EC192B05F050FE7FF6D5AC24F0004006
:104AA00089498A4A002601EB205182422BDA481CB0
:104AB0004FF4801121FA00F02044854AC0F30A51D6
:104AC0007A44A1F2FF3192ED000B824A8DED0A0B80
:104AD000CA4020EA0202C0F3130040F48010C1F182
:104AE000140120FA01F60B92002CB8BF76429DED1E
:104AF0000A0B53EC102B9DED100B51EC100B05F035
:104B000029FFCDE910019DED100B51EC190B53EC71
:104B1000102B05F041FA9FED700B0A90CDE90A5178
:104B200053EC102B9DED0A0B51EC100B05F006FD1C
:104B300041EC1B0B9FED6A0B53EC102B9DED0A0B08
:104B400051EC100B05F0FAFC9DED100B41EC1C0B29
:104B500053EC102B9DED0A0B51EC100B05F0FAFEF7
:104B600053EC192B05F01EFE9FED5F1B53EC112B30
:104B700005F0E4FC53EC1C2B05F00EFA41EC190B8C
:104B800051EC1B0B53EC192B05F006FACDE9020191
:104B90009DED020B53EC1B2B51EC100B05F0DAFED4
:104BA00053EC192B05F0FEFD9DED020B41EC190BAA
:104BB00053EC102B51EC100B05F0C0FCCDE90A01B1
:104BC0004B489DED0A0B0521784400F099F89DEDC6
:104BD0000A1B51EC100B53EC112B05F0AFFC9DEDB3
:104BE000021B53EC112B05F0DDFDCDE906019DED17
:104BF000020B53EC192B51EC100B05F09FFC53ECFE
:104C0000192B05F0C9F99FED3C0B41EC190B53EC46
:104C1000102B9DED060B51EC100B05F09BFE9DED4E
:104C2000060B41EC1B0B53EC102B9DED020B51ECD2
:104C3000100B05F083FC53EC1B2B05F069FA53ECC9
:104C4000192B05F087FE9DED021B53EC112B05F08F
:104C500081FE53EC1A2B05F0A5FDCDE9020101EB15
:104C6000065001150029C8BF039015DC9DED020B0D
:104C7000324651EC100B06F006F8FFF7EFF8042867
:104C800008BF00F0FDF832469DED020B51EC100B11
:104C900005F0F9FFCDE902019DED020B51EC180B77
:104CA00053EC102B05F04AFCFFF72DBB0000000071
:104CB0000000904000000000FE822B654715973CE5
:104CC00000CC904000346F3F01FCFFFF0000E03F4C
:104CD00054640000FFFF0F0000000000432EE63F79
:104CE000396CA80C615C20BEEF39FAFE422EE63F1B
:104CF0001C630000000000000000000000000040F5
:104D000070B504462DED028B4D1E00EBC500B0EED4
:104D1000408AF0EE608A90ED000B35F0060017D067
:104D200053EC182B51EC100B05F008FC41EC100B68
:104D30006D1E04EBC50090ED001B51EC100B53EC05
:104D4000112B05F029F941EC100B35F00600E7D1E5
:104D5000022D36D0042D1CD0062D1CBFBDEC028BBD
:104D600070BD53EC182B51EC100B05F0E7FB94EDE4
:104D70000A1B53EC112B05F00FF953EC182B05F01F
:104D8000DDFB94ED081B53EC112B05F005F941EC0C
:104D9000100B53EC182B51EC100B05F0CFFB94EDDE
:104DA000061B53EC112B05F0F7F853EC182B05F00C
:104DB000C5FB94ED040B53EC102B05F0EDF841EC22
:104DC000100B53EC182B51EC100B05F0B7FB94EDC6
:104DD000021B53EC112B05F0DFF853EC182B05F0F8
:104DE000ADFB94ED001B53EC112B05F0D5F8BDEC99
:104DF000028B41EC100B70BD9FED070B10B553EC0F
:104E0000102B9FED070B51EC100B05F081F941ECD5
:104E1000100B10BD000000000000000000000000AA
:104E2000000000000000F03F10B553EC112B51ECD6
:104E3000100B05F0B1F841EC100B10BD00000000A4
:104E40009FED050B10B553EC102B51EC100B05F03A
:104E50005FF941EC100B10BD0000000000000000E5
:104E60009FED050B10B553EC102B51EC100B05F01A
:104E700065FB41EC100B10BD00000000000000704D
:104E80009FED050B10B553EC102B51EC100B05F0FA
:104E900055FB41EC100B10BD00000000000000109D
:104EA00030B504462DED048B81B06A4691ED008B40
:104EB00051EC180B01F044FC00989FED239B7E30D1
:104EC0000090002821DC53EC192B51EC180B05F055
:104ED00077FA1AD0002140F608004FF0000005468E
:104EE00051EC180B05F026F808EE100A40F6080001
:104EF00005EA00014FF00000B5EEC08AF1EE10FAAD
:104F000004BF0220FBF705FE17E00098FF280EDB28
:104F10000220FBF7FEFD53EC192B51EC180B05F0AA
:104F20000BFC8CBF9FED0A8A9FED0A8A05E051ECCD
:104F3000180B04F0FFFF08EE100A84ED008A01B0A0
:104F4000BDEC048B30BD000000000000000000003C
:104F5000000080FF0000807F10B5044690ED000B3C
:104F60000846FFF749F884ED000B10BD30380A28D9
:104F700001D20120704700207047014600BF7047F2
:104F800010B504462146002001F0EAFD10BD10B521
:104F900004462146002001F0F5FD10BDF0B599B0A2
:104FA00001F082FF64216846FBF70CFD23208DF899
:104FB000000021208DF8010000F078FC06467EA05C
:104FC00000F07DFC07463A467DA1304600F03EFCED
:104FD000304600F00BFD0546304600F07FFC2846C9
:104FE000FBF7E1FB84B220128DF80200E0B28DF8ED
:104FF00003002246294601A8FBF70BFD2A21201DAC
:105000000DF80010E1B2284600F042FF611D0DF8D6
:1050100001002621A01D0DF8001015E06CA0FBF783
:10502000B9F9E01DC1B2684603F0EAFC6EA0FBF7D7
:10503000B1F9C82000F05EFF71480068002800DD6B
:1050400003E070A0FBF7A6F9E8E700BF2846FFF7EA
:1050500097FF75A0FBF79EF964216846FBF7B2FC49
:1050600023208DF8000021208DF8010000F01EFCA7
:10507000064671A000F023FC07463A4650A1304690
:1050800000F0E4FB304600F0B1FC0546304600F08D
:1050900025FC2846FBF787FB84B220128DF802001E
:1050A000E0B28DF803002246294601A8FBF7B1FCC7
:1050B0002A21201D0DF80010E1B2284600F0E8FE7C
:1050C000611D0DF801002621A01D0DF800100FE054
:1050D000E01DC1B2684603F023FCC82000F00AFFBF
:1050E0004748806E002800DD03E055A0FBF752F929
:1050F000EEE700BF2846FFF743FF4BA0FBF74AF956
:1051000000F09EFE64216846FBF75CFC23208DF8CE
:10511000000021208DF8010000F0C8FB064651A0D8
:1051200000F0CDFB07463A4625A1304600F08EFB45
:10513000304600F05BFC0546304600F0CFFB2846C9
:10514000FBF731FB84B220128DF80200E0B28DF83B
:1051500003002246294601A8FBF75BFC2A21201DFB
:105160000DF80010E1B2284600F092FE611D0DF826
:1051700001002621A01D0DF8001010E0E01DC1B2B5
:10518000684603F049FBC82000F0B4FE1C48D0F884
:10519000D000002800DD03E034A0FBF7FBF8EDE7CA
:1051A00000BF2846FFF7ECFE00F024FE38A0FBF716
:1051B000F1F819B0F0BD00003030303700000000C9
:1051C000627573696E6573735479706500000000D1
:1051D0000D0A7573617274325F73656E6453747215
:1051E000696E6720462121000D0A75736172743261
:1051F0005F73656E64537472696E6720422121008B
:1052000060B901200D0A77616974696E6720636176
:1052100072312020666565646261636B205374613E
:1052200074652121000000000D0A61697761634601
:1052300072656520462121003030303800000000C2
:105240000D0A77616974696E67206361723220208C
:10525000666565646261636B2053746174652121C6
:105260000000000030303133000000000D0A77618B
:105270006974696E67206765747465722066656518
:10528000646261636B2053746174652121000000C6
:105290000D0A2061736B5374617465326F746865B5
:1052A000723A6D61737465722068617320676F7400
:1052B00074656E206F746865722073746174652103
:1052C0002100000010B504460A48008800F40040A0
:1052D00070B1002007490988C1F30E01064A5054F5
:1052E000114606A0FBF756F814B1002001490880CA
:1052F00010BD00001C00002088080020257300005D
:1053000070B5044600250948008800F4004058B1F3
:10531000002006490988C1F30E01054A5054214670
:105320001046FBF70AFA0546284670BD1C0000200F
:105330008808002070B500F01FF808B1002070BD8B
:10534000322205A105A000F04FF808A0FFF7D8FF12
:1053500005462C782046F2E73A00000041542B43E2
:105360004950535441545553000000002B434950B9
:105370005354415455533A0010B500BF17480088A4
:1053800000F040000028F9D02B201449091D0880A6
:105390000F2000F0AFFD00BF1048008800F0400073
:1053A0000028F9D02B200D49091D08800F2000F09E
:1053B000A1FD00BF0948008800F040000028F9D096
:1053C0002B200649091D08804FF4FA7000F092FD69
:1053D000142203A103A000F007F810BD004800400C
:1053E0004F4B0000415400002DE9F04106460D46A8
:1053F00014460027002013490880314612A003F00C
:1054000035F9E5B1DCB113E00A2000F073FD0D4879
:10541000008800F4004058B12846FFF771FF20B122
:1054200029460BA0FAF7B6FF06E0002005490880E0
:10543000601E80B20400E7D100BF04B901273846DE
:10544000BDE8F0811C00002025730D0A000000005B
:1054500061636B3A25730D0A0000000010B50FE080
:10546000FFF78AFFC82215A115A0FFF7BDFF18A0FE
:10547000FAF790FF642000F03DFD19A0FAF78AFFCB
:1054800014220EA11AA0FFF7AFFF0028E8D119A03F
:10549000FAF780FF00BF142208A11AA0FFF7A4FFAB
:1054A0000028F8D10A2000F025FD0120FFF70AFFAF
:1054B00016A0FAF76FFF00F035F810BD4F4B000053
:1054C00041542B4349504D4F44453D3000000000AE
:1054D000CEB4BCECB2E2B5BDC4A3BFE9212121002A
:1054E000B3A2CAD4C1ACBDD3C4A3BFE92E2E2E0033
:1054F00041540000C1ACBDD3C4A3BFE9206F6B2EE3
:105500002E2E00004154453000000000656E746589
:1055100072202E2E5749464920535441202074654D
:1055200073742E007FB5002500262021002001F095
:1055300029FB044605E044A0FAF72CFF0A2000F0FE
:10554000D9FC32224AA14BA0FFF74EFF0028F2D12E
:10555000142247A14AA0FFF747FF4FF47A7000F0EA
:10556000C9FC4FF47A7000F0C5FC4FF47A7000F07B
:10557000C1FC4FF47A7000F0BDFC43A0FAF70AFFBB
:1055800048A0FAF707FF50480368504850A1026846
:105590002046FAF70BFF05E052A0FAF7FBFE0A20BF
:1055A00000F0A8FC4FF4967255A12046FFF71CFFAF
:1055B0000028F1D155A0FAF7EDFE4FF4FA7000F093
:1055C00099FC0120FFF77EFE59A16846FBF7C7F85A
:1055D00005E05BA0FAF7DEFE0A2000F08BFC142247
:1055E00023A160A0FFF700FF0028F2D160A0FAF726
:1055F000D1FE69486A4669A103682046FAF7D6FEDB
:1056000005E06DA0FAF7C6FE0A2000F073FCC82280
:1056100017A12046FFF7E8FE0028F2D173A0FAF7A1
:10562000B9FE00BFC82212A175A0FFF7DDFE002859
:10563000F8D1694676A0FAF7ADFE2146002001F0C8
:105640008FFA284604B070BD0D0A207365742020BF
:10565000574946492053544120206D6F64652066A8
:10566000616965642C207472792E2E2E0000000072
:105670004F4B000041542B43574D4F44453D3100A3
:1056800041542B52535400000D0A2073657420209E
:10569000574946492053544120206D6F6465206F5F
:1056A0006B0000000D0A20737461727420746F2007
:1056B000636F6E6E65637420207468652020726F5E
:1056C000757465720000000020030020180300209C
:1056D00041542B43574A41503D222573222C222509
:1056E000732200000D0A20776174696E67206C696F
:1056F0006E6B20746F20726F75746572000000000D
:105700005749464920474F54204950000D0A20630D
:105710006F6E6E6563742074686520726F75746552
:1057200072207375636375737366756C6C79200092
:105730003139322E3136382E34332E3132370000A3
:105740000D0A2077616974696E6720666F72207335
:10575000657474696E6720746865206F6E65206C6F
:10576000696E6B0041542B4349504D55583D3000F4
:105770000D0A7374617274206275696C7420612003
:10578000544350206C696E6B207769746820737283
:1057900065766572200000002403002041542B43ED
:1057A000495053544152543D22544350222C2225F7
:1057B00073222C25730000000D0A20206C696E6B8B
:1057C0002054435020206661696C6564EFBC8C7482
:1057D000686520736572766572206D6179206E6FE1
:1057E0007420776F726B2121212020000D0A206C1C
:1057F000696E6B205443502020206F6B0000000026
:1058000041542B4349504D4F44453D310000000069
:105810000D0A204D79206970203A257300000000A0
:1058200070B505460E46AC6806B970BD0CB9AE60E1
:1058300009E000E0246814B120680028FAD131465C
:10584000204602F00FFF00BFEFE7000070B50646EC
:105850000D46144604B970BD206A18B10649206A85
:1058600009688847284600F0EFF820622146304654
:10587000FFF7D6FF00BFEEE71003002010B52DEDB7
:10588000028BB0EE408AF0EE608A00F065F80446C4
:1058900044B10320E06084ED068B51EC180B04F05A
:1058A000CBFD60612046BDEC028B10BD10B500F051
:1058B00053F804460CB10620E060204610BD70B5D8
:1058C000054600F049F804462CB10420E060284663
:1058D00000F0BAF82061204670BD000070B50446A3
:1058E0001EE02568A08900F4807020B9A06810B17E
:1058F000A068FFF7F3FFA08900F4807028B9206941
:1059000018B10949206909688847206A18B1064911
:10591000206A0968884720460349096888472C4659
:10592000002CDED170BD000010030020014800688B
:10593000704700000803002070B505460E46AC68AD
:1059400000E024682CB13146206A00F057F80028A6
:10595000F7D1204670BD000010B528200549096820
:10596000884704461CB128212046FBF72BF8204627
:1059700010BD00000C03002010B5044600221146A3
:10598000204600F001F810BD2DE9F04780460D4695
:1059900016460024FFF7E0FF074600201249086082
:1059A0000FB9BDE8F087404602F01CFE814649462B
:1059B000384602F05BF9044624B93846FFF78EFFFB
:1059C0000020EEE766B1204602F00CFE0446207887
:1059D00030B13846FFF782FF034804600020E0E75B
:1059E00005B12C603846DCE70803002010B50446FA
:1059F00000221146204602F009FD10BD70B5044694
:105A00000D462CB9AC4201D0012070BD0020FCE74E
:105A10000DB90120F9E705E0207808B90020F4E786
:105A2000641C6D1C2078FAF796FC06462878FAF775
:105A300092FC8642F0D02078FAF78DFC0646287852
:105A4000FAF789FC301AE0E770B504462046FAF709
:105A5000AAFE451C2846064909688847060000D169
:105A600070BD2A4621463046FAF713FF3046F7E765
:105A70000C03002010B5FFF75DFCC4B22B2C0AD03C
:105A800008A0FAF787FC04F0F7F902F00DFD0120F9
:105A9000FFF718FC05E00120FFF714FC07A0FAF758
:105AA00079FC10BD0D0A2072656275696C742074F2
:105AB0006865206E6574206C696E6B000D0A20208D
:105AC000746865206E6574206C696E6B20206F6B46
:105AD0000D0A00002DE9F047ADF5307D01270025C6
